{
	"/Users/ayushgupta/Downloads/Programming/blocket/blocket-wildcard/smart-contracts/contracts/PrimaryCare.sol": {
		"PrimaryCare": {
			"abi": [
				{
					"inputs": [
						{
							"internalType": "string",
							"name": "_name",
							"type": "string"
						}
					],
					"stateMutability": "nonpayable",
					"type": "constructor"
				},
				{
					"inputs": [
						{
							"internalType": "address",
							"name": "patient",
							"type": "address"
						},
						{
							"internalType": "address",
							"name": "patientContract",
							"type": "address"
						},
						{
							"internalType": "string",
							"name": "name",
							"type": "string"
						}
					],
					"name": "addPatient",
					"outputs": [],
					"stateMutability": "nonpayable",
					"type": "function"
				},
				{
					"inputs": [],
					"name": "getContractAddress",
					"outputs": [
						{
							"internalType": "address",
							"name": "",
							"type": "address"
						}
					],
					"stateMutability": "nonpayable",
					"type": "function"
				},
				{
					"inputs": [],
					"name": "name",
					"outputs": [
						{
							"internalType": "string",
							"name": "",
							"type": "string"
						}
					],
					"stateMutability": "view",
					"type": "function"
				},
				{
					"inputs": [],
					"name": "owner",
					"outputs": [
						{
							"internalType": "address",
							"name": "",
							"type": "address"
						}
					],
					"stateMutability": "view",
					"type": "function"
				},
				{
					"inputs": [],
					"name": "patientRecord",
					"outputs": [
						{
							"internalType": "address",
							"name": "",
							"type": "address"
						}
					],
					"stateMutability": "view",
					"type": "function"
				},
				{
					"inputs": [
						{
							"internalType": "address",
							"name": "",
							"type": "address"
						}
					],
					"name": "patients",
					"outputs": [
						{
							"internalType": "string",
							"name": "name",
							"type": "string"
						},
						{
							"internalType": "address",
							"name": "patient",
							"type": "address"
						},
						{
							"internalType": "address",
							"name": "patientContract",
							"type": "address"
						}
					],
					"stateMutability": "view",
					"type": "function"
				},
				{
					"inputs": [
						{
							"internalType": "address",
							"name": "patient",
							"type": "address"
						},
						{
							"internalType": "address",
							"name": "to",
							"type": "address"
						},
						{
							"internalType": "string",
							"name": "toName",
							"type": "string"
						},
						{
							"internalType": "string",
							"name": "toSpecial",
							"type": "string"
						},
						{
							"internalType": "string",
							"name": "toEmail",
							"type": "string"
						},
						{
							"internalType": "address",
							"name": "toContract",
							"type": "address"
						}
					],
					"name": "sendRecordRequest",
					"outputs": [],
					"stateMutability": "nonpayable",
					"type": "function"
				}
			],
			"devdoc": {
				"kind": "dev",
				"methods": {},
				"version": 1
			},
			"evm": {
				"assembly": "    /* \"/Users/ayushgupta/Downloads/Programming/blocket/blocket-wildcard/smart-contracts/contracts/PrimaryCare.sol\":96:1489  contract PrimaryCare {... */\n  mstore(0x40, 0x80)\n    /* \"/Users/ayushgupta/Downloads/Programming/blocket/blocket-wildcard/smart-contracts/contracts/PrimaryCare.sol\":472:562  constructor(string memory _name) {... */\n  callvalue\n  dup1\n  iszero\n  tag_1\n  jumpi\n  0x00\n  dup1\n  revert\ntag_1:\n  pop\n  mload(0x40)\n  sub(codesize, bytecodeSize)\n  dup1\n  bytecodeSize\n  dup4\n  codecopy\n  dup2\n  dup2\n  add\n  0x40\n  mstore\n  dup2\n  add\n  swap1\n  tag_2\n  swap2\n  swap1\n  tag_3\n  jump\t// in\ntag_2:\n    /* \"/Users/ayushgupta/Downloads/Programming/blocket/blocket-wildcard/smart-contracts/contracts/PrimaryCare.sol\":523:533  msg.sender */\n  caller\n    /* \"/Users/ayushgupta/Downloads/Programming/blocket/blocket-wildcard/smart-contracts/contracts/PrimaryCare.sol\":515:520  owner */\n  0x00\n  dup1\n    /* \"/Users/ayushgupta/Downloads/Programming/blocket/blocket-wildcard/smart-contracts/contracts/PrimaryCare.sol\":515:533  owner = msg.sender */\n  0x0100\n  exp\n  dup2\n  sload\n  dup2\n  0xffffffffffffffffffffffffffffffffffffffff\n  mul\n  not\n  and\n  swap1\n  dup4\n  0xffffffffffffffffffffffffffffffffffffffff\n  and\n  mul\n  or\n  swap1\n  sstore\n  pop\n    /* \"/Users/ayushgupta/Downloads/Programming/blocket/blocket-wildcard/smart-contracts/contracts/PrimaryCare.sol\":550:555  _name */\n  dup1\n    /* \"/Users/ayushgupta/Downloads/Programming/blocket/blocket-wildcard/smart-contracts/contracts/PrimaryCare.sol\":543:547  name */\n  0x01\n    /* \"/Users/ayushgupta/Downloads/Programming/blocket/blocket-wildcard/smart-contracts/contracts/PrimaryCare.sol\":543:555  name = _name */\n  swap1\n  dup1\n  mload\n  swap1\n  0x20\n  add\n  swap1\n  tag_6\n  swap3\n  swap2\n  swap1\n  tag_7\n  jump\t// in\ntag_6:\n  pop\n    /* \"/Users/ayushgupta/Downloads/Programming/blocket/blocket-wildcard/smart-contracts/contracts/PrimaryCare.sol\":472:562  constructor(string memory _name) {... */\n  pop\n    /* \"/Users/ayushgupta/Downloads/Programming/blocket/blocket-wildcard/smart-contracts/contracts/PrimaryCare.sol\":96:1489  contract PrimaryCare {... */\n  jump(tag_8)\ntag_7:\n  dup3\n  dup1\n  sload\n  tag_9\n  swap1\n  tag_10\n  jump\t// in\ntag_9:\n  swap1\n  0x00\n  mstore\n  keccak256(0x00, 0x20)\n  swap1\n  0x1f\n  add\n  0x20\n  swap1\n  div\n  dup2\n  add\n  swap3\n  dup3\n  tag_12\n  jumpi\n  0x00\n  dup6\n  sstore\n  jump(tag_11)\ntag_12:\n  dup3\n  0x1f\n  lt\n  tag_13\n  jumpi\n  dup1\n  mload\n  not(0xff)\n  and\n  dup4\n  dup1\n  add\n  or\n  dup6\n  sstore\n  jump(tag_11)\ntag_13:\n  dup3\n  dup1\n  add\n  0x01\n  add\n  dup6\n  sstore\n  dup3\n  iszero\n  tag_11\n  jumpi\n  swap2\n  dup3\n  add\ntag_14:\n  dup3\n  dup2\n  gt\n  iszero\n  tag_15\n  jumpi\n  dup3\n  mload\n  dup3\n  sstore\n  swap2\n  0x20\n  add\n  swap2\n  swap1\n  0x01\n  add\n  swap1\n  jump(tag_14)\ntag_15:\ntag_11:\n  pop\n  swap1\n  pop\n  tag_16\n  swap2\n  swap1\n  tag_17\n  jump\t// in\ntag_16:\n  pop\n  swap1\n  jump\t// out\ntag_17:\ntag_18:\n  dup1\n  dup3\n  gt\n  iszero\n  tag_19\n  jumpi\n  0x00\n  dup2\n  0x00\n  swap1\n  sstore\n  pop\n  0x01\n  add\n  jump(tag_18)\ntag_19:\n  pop\n  swap1\n  jump\t// out\n    /* \"#utility.yul\":7:428   */\ntag_21:\n    /* \"#utility.yul\":96:101   */\n  0x00\n    /* \"#utility.yul\":121:187   */\n  tag_23\n    /* \"#utility.yul\":137:186   */\n  tag_24\n    /* \"#utility.yul\":179:185   */\n  dup5\n    /* \"#utility.yul\":137:186   */\n  tag_25\n  jump\t// in\ntag_24:\n    /* \"#utility.yul\":121:187   */\n  tag_26\n  jump\t// in\ntag_23:\n    /* \"#utility.yul\":112:187   */\n  swap1\n  pop\n    /* \"#utility.yul\":210:216   */\n  dup3\n    /* \"#utility.yul\":203:208   */\n  dup2\n    /* \"#utility.yul\":196:217   */\n  mstore\n    /* \"#utility.yul\":248:252   */\n  0x20\n    /* \"#utility.yul\":241:246   */\n  dup2\n    /* \"#utility.yul\":237:253   */\n  add\n    /* \"#utility.yul\":286:289   */\n  dup5\n    /* \"#utility.yul\":277:283   */\n  dup5\n    /* \"#utility.yul\":272:275   */\n  dup5\n    /* \"#utility.yul\":268:284   */\n  add\n    /* \"#utility.yul\":265:290   */\n  gt\n    /* \"#utility.yul\":262:374   */\n  iszero\n  tag_27\n  jumpi\n    /* \"#utility.yul\":293:372   */\n  tag_28\n  tag_29\n  jump\t// in\ntag_28:\n    /* \"#utility.yul\":262:374   */\ntag_27:\n    /* \"#utility.yul\":383:422   */\n  tag_30\n    /* \"#utility.yul\":415:421   */\n  dup5\n    /* \"#utility.yul\":410:413   */\n  dup3\n    /* \"#utility.yul\":405:408   */\n  dup6\n    /* \"#utility.yul\":383:422   */\n  tag_31\n  jump\t// in\ntag_30:\n    /* \"#utility.yul\":102:428   */\n  pop\n    /* \"#utility.yul\":7:428   */\n  swap4\n  swap3\n  pop\n  pop\n  pop\n  jump\t// out\n    /* \"#utility.yul\":448:803   */\ntag_32:\n    /* \"#utility.yul\":515:520   */\n  0x00\n    /* \"#utility.yul\":564:567   */\n  dup3\n    /* \"#utility.yul\":557:561   */\n  0x1f\n    /* \"#utility.yul\":549:555   */\n  dup4\n    /* \"#utility.yul\":545:562   */\n  add\n    /* \"#utility.yul\":541:568   */\n  slt\n    /* \"#utility.yul\":531:653   */\n  tag_34\n  jumpi\n    /* \"#utility.yul\":572:651   */\n  tag_35\n  tag_36\n  jump\t// in\ntag_35:\n    /* \"#utility.yul\":531:653   */\ntag_34:\n    /* \"#utility.yul\":682:688   */\n  dup2\n    /* \"#utility.yul\":676:689   */\n  mload\n    /* \"#utility.yul\":707:797   */\n  tag_37\n    /* \"#utility.yul\":793:796   */\n  dup5\n    /* \"#utility.yul\":785:791   */\n  dup3\n    /* \"#utility.yul\":778:782   */\n  0x20\n    /* \"#utility.yul\":770:776   */\n  dup7\n    /* \"#utility.yul\":766:783   */\n  add\n    /* \"#utility.yul\":707:797   */\n  tag_21\n  jump\t// in\ntag_37:\n    /* \"#utility.yul\":698:797   */\n  swap2\n  pop\n    /* \"#utility.yul\":521:803   */\n  pop\n    /* \"#utility.yul\":448:803   */\n  swap3\n  swap2\n  pop\n  pop\n  jump\t// out\n    /* \"#utility.yul\":809:1333   */\ntag_3:\n    /* \"#utility.yul\":889:895   */\n  0x00\n    /* \"#utility.yul\":938:940   */\n  0x20\n    /* \"#utility.yul\":926:935   */\n  dup3\n    /* \"#utility.yul\":917:924   */\n  dup5\n    /* \"#utility.yul\":913:936   */\n  sub\n    /* \"#utility.yul\":909:941   */\n  slt\n    /* \"#utility.yul\":906:1025   */\n  iszero\n  tag_39\n  jumpi\n    /* \"#utility.yul\":944:1023   */\n  tag_40\n  tag_41\n  jump\t// in\ntag_40:\n    /* \"#utility.yul\":906:1025   */\ntag_39:\n    /* \"#utility.yul\":1085:1086   */\n  0x00\n    /* \"#utility.yul\":1074:1083   */\n  dup3\n    /* \"#utility.yul\":1070:1087   */\n  add\n    /* \"#utility.yul\":1064:1088   */\n  mload\n    /* \"#utility.yul\":1115:1133   */\n  0xffffffffffffffff\n    /* \"#utility.yul\":1107:1113   */\n  dup2\n    /* \"#utility.yul\":1104:1134   */\n  gt\n    /* \"#utility.yul\":1101:1218   */\n  iszero\n  tag_42\n  jumpi\n    /* \"#utility.yul\":1137:1216   */\n  tag_43\n  tag_44\n  jump\t// in\ntag_43:\n    /* \"#utility.yul\":1101:1218   */\ntag_42:\n    /* \"#utility.yul\":1242:1316   */\n  tag_45\n    /* \"#utility.yul\":1308:1315   */\n  dup5\n    /* \"#utility.yul\":1299:1305   */\n  dup3\n    /* \"#utility.yul\":1288:1297   */\n  dup6\n    /* \"#utility.yul\":1284:1306   */\n  add\n    /* \"#utility.yul\":1242:1316   */\n  tag_32\n  jump\t// in\ntag_45:\n    /* \"#utility.yul\":1232:1316   */\n  swap2\n  pop\n    /* \"#utility.yul\":1035:1326   */\n  pop\n    /* \"#utility.yul\":809:1333   */\n  swap3\n  swap2\n  pop\n  pop\n  jump\t// out\n    /* \"#utility.yul\":1339:1468   */\ntag_26:\n    /* \"#utility.yul\":1373:1379   */\n  0x00\n    /* \"#utility.yul\":1400:1420   */\n  tag_47\n  tag_48\n  jump\t// in\ntag_47:\n    /* \"#utility.yul\":1390:1420   */\n  swap1\n  pop\n    /* \"#utility.yul\":1429:1462   */\n  tag_49\n    /* \"#utility.yul\":1457:1461   */\n  dup3\n    /* \"#utility.yul\":1449:1455   */\n  dup3\n    /* \"#utility.yul\":1429:1462   */\n  tag_50\n  jump\t// in\ntag_49:\n    /* \"#utility.yul\":1339:1468   */\n  swap2\n  swap1\n  pop\n  jump\t// out\n    /* \"#utility.yul\":1474:1549   */\ntag_48:\n    /* \"#utility.yul\":1507:1513   */\n  0x00\n    /* \"#utility.yul\":1540:1542   */\n  0x40\n    /* \"#utility.yul\":1534:1543   */\n  mload\n    /* \"#utility.yul\":1524:1543   */\n  swap1\n  pop\n    /* \"#utility.yul\":1474:1549   */\n  swap1\n  jump\t// out\n    /* \"#utility.yul\":1555:1863   */\ntag_25:\n    /* \"#utility.yul\":1617:1621   */\n  0x00\n    /* \"#utility.yul\":1707:1725   */\n  0xffffffffffffffff\n    /* \"#utility.yul\":1699:1705   */\n  dup3\n    /* \"#utility.yul\":1696:1726   */\n  gt\n    /* \"#utility.yul\":1693:1749   */\n  iszero\n  tag_53\n  jumpi\n    /* \"#utility.yul\":1729:1747   */\n  tag_54\n  tag_55\n  jump\t// in\ntag_54:\n    /* \"#utility.yul\":1693:1749   */\ntag_53:\n    /* \"#utility.yul\":1767:1796   */\n  tag_56\n    /* \"#utility.yul\":1789:1795   */\n  dup3\n    /* \"#utility.yul\":1767:1796   */\n  tag_57\n  jump\t// in\ntag_56:\n    /* \"#utility.yul\":1759:1796   */\n  swap1\n  pop\n    /* \"#utility.yul\":1851:1855   */\n  0x20\n    /* \"#utility.yul\":1845:1849   */\n  dup2\n    /* \"#utility.yul\":1841:1856   */\n  add\n    /* \"#utility.yul\":1833:1856   */\n  swap1\n  pop\n    /* \"#utility.yul\":1555:1863   */\n  swap2\n  swap1\n  pop\n  jump\t// out\n    /* \"#utility.yul\":1869:2176   */\ntag_31:\n    /* \"#utility.yul\":1937:1938   */\n  0x00\n    /* \"#utility.yul\":1947:2060   */\ntag_59:\n    /* \"#utility.yul\":1961:1967   */\n  dup4\n    /* \"#utility.yul\":1958:1959   */\n  dup2\n    /* \"#utility.yul\":1955:1968   */\n  lt\n    /* \"#utility.yul\":1947:2060   */\n  iszero\n  tag_61\n  jumpi\n    /* \"#utility.yul\":2046:2047   */\n  dup1\n    /* \"#utility.yul\":2041:2044   */\n  dup3\n    /* \"#utility.yul\":2037:2048   */\n  add\n    /* \"#utility.yul\":2031:2049   */\n  mload\n    /* \"#utility.yul\":2027:2028   */\n  dup2\n    /* \"#utility.yul\":2022:2025   */\n  dup5\n    /* \"#utility.yul\":2018:2029   */\n  add\n    /* \"#utility.yul\":2011:2050   */\n  mstore\n    /* \"#utility.yul\":1983:1985   */\n  0x20\n    /* \"#utility.yul\":1980:1981   */\n  dup2\n    /* \"#utility.yul\":1976:1986   */\n  add\n    /* \"#utility.yul\":1971:1986   */\n  swap1\n  pop\n    /* \"#utility.yul\":1947:2060   */\n  jump(tag_59)\ntag_61:\n    /* \"#utility.yul\":2078:2084   */\n  dup4\n    /* \"#utility.yul\":2075:2076   */\n  dup2\n    /* \"#utility.yul\":2072:2085   */\n  gt\n    /* \"#utility.yul\":2069:2170   */\n  iszero\n  tag_62\n  jumpi\n    /* \"#utility.yul\":2158:2159   */\n  0x00\n    /* \"#utility.yul\":2149:2155   */\n  dup5\n    /* \"#utility.yul\":2144:2147   */\n  dup5\n    /* \"#utility.yul\":2140:2156   */\n  add\n    /* \"#utility.yul\":2133:2160   */\n  mstore\n    /* \"#utility.yul\":2069:2170   */\ntag_62:\n    /* \"#utility.yul\":1918:2176   */\n  pop\n    /* \"#utility.yul\":1869:2176   */\n  pop\n  pop\n  pop\n  jump\t// out\n    /* \"#utility.yul\":2182:2502   */\ntag_10:\n    /* \"#utility.yul\":2226:2232   */\n  0x00\n    /* \"#utility.yul\":2263:2264   */\n  0x02\n    /* \"#utility.yul\":2257:2261   */\n  dup3\n    /* \"#utility.yul\":2253:2265   */\n  div\n    /* \"#utility.yul\":2243:2265   */\n  swap1\n  pop\n    /* \"#utility.yul\":2310:2311   */\n  0x01\n    /* \"#utility.yul\":2304:2308   */\n  dup3\n    /* \"#utility.yul\":2300:2312   */\n  and\n    /* \"#utility.yul\":2331:2349   */\n  dup1\n    /* \"#utility.yul\":2321:2402   */\n  tag_64\n  jumpi\n    /* \"#utility.yul\":2387:2391   */\n  0x7f\n    /* \"#utility.yul\":2379:2385   */\n  dup3\n    /* \"#utility.yul\":2375:2392   */\n  and\n    /* \"#utility.yul\":2365:2392   */\n  swap2\n  pop\n    /* \"#utility.yul\":2321:2402   */\ntag_64:\n    /* \"#utility.yul\":2449:2451   */\n  0x20\n    /* \"#utility.yul\":2441:2447   */\n  dup3\n    /* \"#utility.yul\":2438:2452   */\n  lt\n    /* \"#utility.yul\":2418:2436   */\n  dup2\n    /* \"#utility.yul\":2415:2453   */\n  eq\n    /* \"#utility.yul\":2412:2496   */\n  iszero\n  tag_65\n  jumpi\n    /* \"#utility.yul\":2468:2486   */\n  tag_66\n  tag_67\n  jump\t// in\ntag_66:\n    /* \"#utility.yul\":2412:2496   */\ntag_65:\n    /* \"#utility.yul\":2233:2502   */\n  pop\n    /* \"#utility.yul\":2182:2502   */\n  swap2\n  swap1\n  pop\n  jump\t// out\n    /* \"#utility.yul\":2508:2789   */\ntag_50:\n    /* \"#utility.yul\":2591:2618   */\n  tag_69\n    /* \"#utility.yul\":2613:2617   */\n  dup3\n    /* \"#utility.yul\":2591:2618   */\n  tag_57\n  jump\t// in\ntag_69:\n    /* \"#utility.yul\":2583:2589   */\n  dup2\n    /* \"#utility.yul\":2579:2619   */\n  add\n    /* \"#utility.yul\":2721:2727   */\n  dup2\n    /* \"#utility.yul\":2709:2719   */\n  dup2\n    /* \"#utility.yul\":2706:2728   */\n  lt\n    /* \"#utility.yul\":2685:2703   */\n  0xffffffffffffffff\n    /* \"#utility.yul\":2673:2683   */\n  dup3\n    /* \"#utility.yul\":2670:2704   */\n  gt\n    /* \"#utility.yul\":2667:2729   */\n  or\n    /* \"#utility.yul\":2664:2752   */\n  iszero\n  tag_70\n  jumpi\n    /* \"#utility.yul\":2732:2750   */\n  tag_71\n  tag_55\n  jump\t// in\ntag_71:\n    /* \"#utility.yul\":2664:2752   */\ntag_70:\n    /* \"#utility.yul\":2772:2782   */\n  dup1\n    /* \"#utility.yul\":2768:2770   */\n  0x40\n    /* \"#utility.yul\":2761:2783   */\n  mstore\n    /* \"#utility.yul\":2551:2789   */\n  pop\n    /* \"#utility.yul\":2508:2789   */\n  pop\n  pop\n  jump\t// out\n    /* \"#utility.yul\":2795:2975   */\ntag_67:\n    /* \"#utility.yul\":2843:2920   */\n  0x4e487b7100000000000000000000000000000000000000000000000000000000\n    /* \"#utility.yul\":2840:2841   */\n  0x00\n    /* \"#utility.yul\":2833:2921   */\n  mstore\n    /* \"#utility.yul\":2940:2944   */\n  0x22\n    /* \"#utility.yul\":2937:2938   */\n  0x04\n    /* \"#utility.yul\":2930:2945   */\n  mstore\n    /* \"#utility.yul\":2964:2968   */\n  0x24\n    /* \"#utility.yul\":2961:2962   */\n  0x00\n    /* \"#utility.yul\":2954:2969   */\n  revert\n    /* \"#utility.yul\":2981:3161   */\ntag_55:\n    /* \"#utility.yul\":3029:3106   */\n  0x4e487b7100000000000000000000000000000000000000000000000000000000\n    /* \"#utility.yul\":3026:3027   */\n  0x00\n    /* \"#utility.yul\":3019:3107   */\n  mstore\n    /* \"#utility.yul\":3126:3130   */\n  0x41\n    /* \"#utility.yul\":3123:3124   */\n  0x04\n    /* \"#utility.yul\":3116:3131   */\n  mstore\n    /* \"#utility.yul\":3150:3154   */\n  0x24\n    /* \"#utility.yul\":3147:3148   */\n  0x00\n    /* \"#utility.yul\":3140:3155   */\n  revert\n    /* \"#utility.yul\":3167:3284   */\ntag_36:\n    /* \"#utility.yul\":3276:3277   */\n  0x00\n    /* \"#utility.yul\":3273:3274   */\n  dup1\n    /* \"#utility.yul\":3266:3278   */\n  revert\n    /* \"#utility.yul\":3290:3407   */\ntag_29:\n    /* \"#utility.yul\":3399:3400   */\n  0x00\n    /* \"#utility.yul\":3396:3397   */\n  dup1\n    /* \"#utility.yul\":3389:3401   */\n  revert\n    /* \"#utility.yul\":3413:3530   */\ntag_44:\n    /* \"#utility.yul\":3522:3523   */\n  0x00\n    /* \"#utility.yul\":3519:3520   */\n  dup1\n    /* \"#utility.yul\":3512:3524   */\n  revert\n    /* \"#utility.yul\":3536:3653   */\ntag_41:\n    /* \"#utility.yul\":3645:3646   */\n  0x00\n    /* \"#utility.yul\":3642:3643   */\n  dup1\n    /* \"#utility.yul\":3635:3647   */\n  revert\n    /* \"#utility.yul\":3659:3761   */\ntag_57:\n    /* \"#utility.yul\":3700:3706   */\n  0x00\n    /* \"#utility.yul\":3751:3753   */\n  0x1f\n    /* \"#utility.yul\":3747:3754   */\n  not\n    /* \"#utility.yul\":3742:3744   */\n  0x1f\n    /* \"#utility.yul\":3735:3740   */\n  dup4\n    /* \"#utility.yul\":3731:3745   */\n  add\n    /* \"#utility.yul\":3727:3755   */\n  and\n    /* \"#utility.yul\":3717:3755   */\n  swap1\n  pop\n    /* \"#utility.yul\":3659:3761   */\n  swap2\n  swap1\n  pop\n  jump\t// out\n    /* \"/Users/ayushgupta/Downloads/Programming/blocket/blocket-wildcard/smart-contracts/contracts/PrimaryCare.sol\":96:1489  contract PrimaryCare {... */\ntag_8:\n  dataSize(sub_0)\n  dup1\n  dataOffset(sub_0)\n  0x00\n  codecopy\n  0x00\n  return\nstop\n\nsub_0: assembly {\n        /* \"/Users/ayushgupta/Downloads/Programming/blocket/blocket-wildcard/smart-contracts/contracts/PrimaryCare.sol\":96:1489  contract PrimaryCare {... */\n      mstore(0x40, 0x80)\n      callvalue\n      dup1\n      iszero\n      tag_1\n      jumpi\n      0x00\n      dup1\n      revert\n    tag_1:\n      pop\n      jumpi(tag_2, lt(calldatasize, 0x04))\n      shr(0xe0, calldataload(0x00))\n      dup1\n      0x32a2c5d0\n      gt\n      tag_10\n      jumpi\n      dup1\n      0x32a2c5d0\n      eq\n      tag_6\n      jumpi\n      dup1\n      0x8da5cb5b\n      eq\n      tag_7\n      jumpi\n      dup1\n      0xc05fb890\n      eq\n      tag_8\n      jumpi\n      dup1\n      0xd85c9481\n      eq\n      tag_9\n      jumpi\n      jump(tag_2)\n    tag_10:\n      dup1\n      0x06fdde03\n      eq\n      tag_3\n      jumpi\n      dup1\n      0x0869cfbc\n      eq\n      tag_4\n      jumpi\n      dup1\n      0x26257b8e\n      eq\n      tag_5\n      jumpi\n    tag_2:\n      0x00\n      dup1\n      revert\n        /* \"/Users/ayushgupta/Downloads/Programming/blocket/blocket-wildcard/smart-contracts/contracts/PrimaryCare.sol\":257:275  string public name */\n    tag_3:\n      tag_11\n      tag_12\n      jump\t// in\n    tag_11:\n      mload(0x40)\n      tag_13\n      swap2\n      swap1\n      tag_14\n      jump\t// in\n    tag_13:\n      mload(0x40)\n      dup1\n      swap2\n      sub\n      swap1\n      return\n        /* \"/Users/ayushgupta/Downloads/Programming/blocket/blocket-wildcard/smart-contracts/contracts/PrimaryCare.sol\":316:359  mapping(address => Patient) public patients */\n    tag_4:\n      tag_15\n      0x04\n      dup1\n      calldatasize\n      sub\n      dup2\n      add\n      swap1\n      tag_16\n      swap2\n      swap1\n      tag_17\n      jump\t// in\n    tag_16:\n      tag_18\n      jump\t// in\n    tag_15:\n      mload(0x40)\n      tag_19\n      swap4\n      swap3\n      swap2\n      swap1\n      tag_20\n      jump\t// in\n    tag_19:\n      mload(0x40)\n      dup1\n      swap2\n      sub\n      swap1\n      return\n        /* \"/Users/ayushgupta/Downloads/Programming/blocket/blocket-wildcard/smart-contracts/contracts/PrimaryCare.sol\":822:1364  function sendRecordRequest(... */\n    tag_5:\n      tag_21\n      0x04\n      dup1\n      calldatasize\n      sub\n      dup2\n      add\n      swap1\n      tag_22\n      swap2\n      swap1\n      tag_23\n      jump\t// in\n    tag_22:\n      tag_24\n      jump\t// in\n    tag_21:\n      stop\n        /* \"/Users/ayushgupta/Downloads/Programming/blocket/blocket-wildcard/smart-contracts/contracts/PrimaryCare.sol\":1370:1487  function getContractAddress() public returns (address) {... */\n    tag_6:\n      tag_25\n      tag_26\n      jump\t// in\n    tag_25:\n      mload(0x40)\n      tag_27\n      swap2\n      swap1\n      tag_28\n      jump\t// in\n    tag_27:\n      mload(0x40)\n      dup1\n      swap2\n      sub\n      swap1\n      return\n        /* \"/Users/ayushgupta/Downloads/Programming/blocket/blocket-wildcard/smart-contracts/contracts/PrimaryCare.sol\":231:251  address public owner */\n    tag_7:\n      tag_29\n      tag_30\n      jump\t// in\n    tag_29:\n      mload(0x40)\n      tag_31\n      swap2\n      swap1\n      tag_28\n      jump\t// in\n    tag_31:\n      mload(0x40)\n      dup1\n      swap2\n      sub\n      swap1\n      return\n        /* \"/Users/ayushgupta/Downloads/Programming/blocket/blocket-wildcard/smart-contracts/contracts/PrimaryCare.sol\":568:816  function addPatient(... */\n    tag_8:\n      tag_32\n      0x04\n      dup1\n      calldatasize\n      sub\n      dup2\n      add\n      swap1\n      tag_33\n      swap2\n      swap1\n      tag_34\n      jump\t// in\n    tag_33:\n      tag_35\n      jump\t// in\n    tag_32:\n      stop\n        /* \"/Users/ayushgupta/Downloads/Programming/blocket/blocket-wildcard/smart-contracts/contracts/PrimaryCare.sol\":281:309  address public patientRecord */\n    tag_9:\n      tag_36\n      tag_37\n      jump\t// in\n    tag_36:\n      mload(0x40)\n      tag_38\n      swap2\n      swap1\n      tag_28\n      jump\t// in\n    tag_38:\n      mload(0x40)\n      dup1\n      swap2\n      sub\n      swap1\n      return\n        /* \"/Users/ayushgupta/Downloads/Programming/blocket/blocket-wildcard/smart-contracts/contracts/PrimaryCare.sol\":257:275  string public name */\n    tag_12:\n      0x01\n      dup1\n      sload\n      tag_39\n      swap1\n      tag_40\n      jump\t// in\n    tag_39:\n      dup1\n      0x1f\n      add\n      0x20\n      dup1\n      swap2\n      div\n      mul\n      0x20\n      add\n      mload(0x40)\n      swap1\n      dup2\n      add\n      0x40\n      mstore\n      dup1\n      swap3\n      swap2\n      swap1\n      dup2\n      dup2\n      mstore\n      0x20\n      add\n      dup3\n      dup1\n      sload\n      tag_41\n      swap1\n      tag_40\n      jump\t// in\n    tag_41:\n      dup1\n      iszero\n      tag_42\n      jumpi\n      dup1\n      0x1f\n      lt\n      tag_43\n      jumpi\n      0x0100\n      dup1\n      dup4\n      sload\n      div\n      mul\n      dup4\n      mstore\n      swap2\n      0x20\n      add\n      swap2\n      jump(tag_42)\n    tag_43:\n      dup3\n      add\n      swap2\n      swap1\n      0x00\n      mstore\n      keccak256(0x00, 0x20)\n      swap1\n    tag_44:\n      dup2\n      sload\n      dup2\n      mstore\n      swap1\n      0x01\n      add\n      swap1\n      0x20\n      add\n      dup1\n      dup4\n      gt\n      tag_44\n      jumpi\n      dup3\n      swap1\n      sub\n      0x1f\n      and\n      dup3\n      add\n      swap2\n    tag_42:\n      pop\n      pop\n      pop\n      pop\n      pop\n      dup2\n      jump\t// out\n        /* \"/Users/ayushgupta/Downloads/Programming/blocket/blocket-wildcard/smart-contracts/contracts/PrimaryCare.sol\":316:359  mapping(address => Patient) public patients */\n    tag_18:\n      mstore(0x20, 0x03)\n      dup1\n      0x00\n      mstore\n      keccak256(0x00, 0x40)\n      0x00\n      swap2\n      pop\n      swap1\n      pop\n      dup1\n      0x00\n      add\n      dup1\n      sload\n      tag_45\n      swap1\n      tag_40\n      jump\t// in\n    tag_45:\n      dup1\n      0x1f\n      add\n      0x20\n      dup1\n      swap2\n      div\n      mul\n      0x20\n      add\n      mload(0x40)\n      swap1\n      dup2\n      add\n      0x40\n      mstore\n      dup1\n      swap3\n      swap2\n      swap1\n      dup2\n      dup2\n      mstore\n      0x20\n      add\n      dup3\n      dup1\n      sload\n      tag_46\n      swap1\n      tag_40\n      jump\t// in\n    tag_46:\n      dup1\n      iszero\n      tag_47\n      jumpi\n      dup1\n      0x1f\n      lt\n      tag_48\n      jumpi\n      0x0100\n      dup1\n      dup4\n      sload\n      div\n      mul\n      dup4\n      mstore\n      swap2\n      0x20\n      add\n      swap2\n      jump(tag_47)\n    tag_48:\n      dup3\n      add\n      swap2\n      swap1\n      0x00\n      mstore\n      keccak256(0x00, 0x20)\n      swap1\n    tag_49:\n      dup2\n      sload\n      dup2\n      mstore\n      swap1\n      0x01\n      add\n      swap1\n      0x20\n      add\n      dup1\n      dup4\n      gt\n      tag_49\n      jumpi\n      dup3\n      swap1\n      sub\n      0x1f\n      and\n      dup3\n      add\n      swap2\n    tag_47:\n      pop\n      pop\n      pop\n      pop\n      pop\n      swap1\n      dup1\n      0x01\n      add\n      0x00\n      swap1\n      sload\n      swap1\n      0x0100\n      exp\n      swap1\n      div\n      0xffffffffffffffffffffffffffffffffffffffff\n      and\n      swap1\n      dup1\n      0x02\n      add\n      0x00\n      swap1\n      sload\n      swap1\n      0x0100\n      exp\n      swap1\n      div\n      0xffffffffffffffffffffffffffffffffffffffff\n      and\n      swap1\n      pop\n      dup4\n      jump\t// out\n        /* \"/Users/ayushgupta/Downloads/Programming/blocket/blocket-wildcard/smart-contracts/contracts/PrimaryCare.sol\":822:1364  function sendRecordRequest(... */\n    tag_24:\n        /* \"/Users/ayushgupta/Downloads/Programming/blocket/blocket-wildcard/smart-contracts/contracts/PrimaryCare.sol\":1039:1051  MediTrack pp */\n      0x00\n        /* \"/Users/ayushgupta/Downloads/Programming/blocket/blocket-wildcard/smart-contracts/contracts/PrimaryCare.sol\":1064:1072  patients */\n      0x03\n        /* \"/Users/ayushgupta/Downloads/Programming/blocket/blocket-wildcard/smart-contracts/contracts/PrimaryCare.sol\":1064:1081  patients[patient] */\n      0x00\n        /* \"/Users/ayushgupta/Downloads/Programming/blocket/blocket-wildcard/smart-contracts/contracts/PrimaryCare.sol\":1073:1080  patient */\n      dup9\n        /* \"/Users/ayushgupta/Downloads/Programming/blocket/blocket-wildcard/smart-contracts/contracts/PrimaryCare.sol\":1064:1081  patients[patient] */\n      0xffffffffffffffffffffffffffffffffffffffff\n      and\n      0xffffffffffffffffffffffffffffffffffffffff\n      and\n      dup2\n      mstore\n      0x20\n      add\n      swap1\n      dup2\n      mstore\n      0x20\n      add\n      0x00\n      keccak256\n        /* \"/Users/ayushgupta/Downloads/Programming/blocket/blocket-wildcard/smart-contracts/contracts/PrimaryCare.sol\":1064:1097  patients[patient].patientContract */\n      0x02\n      add\n      0x00\n      swap1\n      sload\n      swap1\n      0x0100\n      exp\n      swap1\n      div\n      0xffffffffffffffffffffffffffffffffffffffff\n      and\n        /* \"/Users/ayushgupta/Downloads/Programming/blocket/blocket-wildcard/smart-contracts/contracts/PrimaryCare.sol\":1039:1098  MediTrack pp = MediTrack(patients[patient].patientContract) */\n      swap1\n      pop\n        /* \"/Users/ayushgupta/Downloads/Programming/blocket/blocket-wildcard/smart-contracts/contracts/PrimaryCare.sol\":1109:1111  pp */\n      dup1\n        /* \"/Users/ayushgupta/Downloads/Programming/blocket/blocket-wildcard/smart-contracts/contracts/PrimaryCare.sol\":1109:1122  pp.addRequest */\n      0xffffffffffffffffffffffffffffffffffffffff\n      and\n      0x5a8bed58\n        /* \"/Users/ayushgupta/Downloads/Programming/blocket/blocket-wildcard/smart-contracts/contracts/PrimaryCare.sol\":1136:1141  owner */\n      0x00\n      dup1\n      sload\n      swap1\n      0x0100\n      exp\n      swap1\n      div\n      0xffffffffffffffffffffffffffffffffffffffff\n      and\n        /* \"/Users/ayushgupta/Downloads/Programming/blocket/blocket-wildcard/smart-contracts/contracts/PrimaryCare.sol\":1155:1159  name */\n      0x01\n        /* \"/Users/ayushgupta/Downloads/Programming/blocket/blocket-wildcard/smart-contracts/contracts/PrimaryCare.sol\":1257:1259  to */\n      dup10\n        /* \"/Users/ayushgupta/Downloads/Programming/blocket/blocket-wildcard/smart-contracts/contracts/PrimaryCare.sol\":1273:1279  toName */\n      dup10\n        /* \"/Users/ayushgupta/Downloads/Programming/blocket/blocket-wildcard/smart-contracts/contracts/PrimaryCare.sol\":1293:1302  toSpecial */\n      dup10\n        /* \"/Users/ayushgupta/Downloads/Programming/blocket/blocket-wildcard/smart-contracts/contracts/PrimaryCare.sol\":1316:1323  toEmail */\n      dup10\n        /* \"/Users/ayushgupta/Downloads/Programming/blocket/blocket-wildcard/smart-contracts/contracts/PrimaryCare.sol\":1337:1347  toContract */\n      dup10\n        /* \"/Users/ayushgupta/Downloads/Programming/blocket/blocket-wildcard/smart-contracts/contracts/PrimaryCare.sol\":1109:1357  pp.addRequest(... */\n      mload(0x40)\n      dup9\n      0xffffffff\n      and\n      0xe0\n      shl\n      dup2\n      mstore\n      0x04\n      add\n      tag_51\n      swap8\n      swap7\n      swap6\n      swap5\n      swap4\n      swap3\n      swap2\n      swap1\n      tag_52\n      jump\t// in\n    tag_51:\n      0x00\n      mload(0x40)\n      dup1\n      dup4\n      sub\n      dup2\n      0x00\n      dup8\n      dup1\n      extcodesize\n      iszero\n      dup1\n      iszero\n      tag_53\n      jumpi\n      0x00\n      dup1\n      revert\n    tag_53:\n      pop\n      gas\n      call\n      iszero\n      dup1\n      iszero\n      tag_55\n      jumpi\n      returndatasize\n      0x00\n      dup1\n      returndatacopy\n      revert(0x00, returndatasize)\n    tag_55:\n      pop\n      pop\n      pop\n      pop\n        /* \"/Users/ayushgupta/Downloads/Programming/blocket/blocket-wildcard/smart-contracts/contracts/PrimaryCare.sol\":1029:1364  {... */\n      pop\n        /* \"/Users/ayushgupta/Downloads/Programming/blocket/blocket-wildcard/smart-contracts/contracts/PrimaryCare.sol\":822:1364  function sendRecordRequest(... */\n      pop\n      pop\n      pop\n      pop\n      pop\n      pop\n      jump\t// out\n        /* \"/Users/ayushgupta/Downloads/Programming/blocket/blocket-wildcard/smart-contracts/contracts/PrimaryCare.sol\":1370:1487  function getContractAddress() public returns (address) {... */\n    tag_26:\n        /* \"/Users/ayushgupta/Downloads/Programming/blocket/blocket-wildcard/smart-contracts/contracts/PrimaryCare.sol\":1416:1423  address */\n      0x00\n        /* \"/Users/ayushgupta/Downloads/Programming/blocket/blocket-wildcard/smart-contracts/contracts/PrimaryCare.sol\":1443:1451  patients */\n      0x03\n        /* \"/Users/ayushgupta/Downloads/Programming/blocket/blocket-wildcard/smart-contracts/contracts/PrimaryCare.sol\":1443:1463  patients[msg.sender] */\n      0x00\n        /* \"/Users/ayushgupta/Downloads/Programming/blocket/blocket-wildcard/smart-contracts/contracts/PrimaryCare.sol\":1452:1462  msg.sender */\n      caller\n        /* \"/Users/ayushgupta/Downloads/Programming/blocket/blocket-wildcard/smart-contracts/contracts/PrimaryCare.sol\":1443:1463  patients[msg.sender] */\n      0xffffffffffffffffffffffffffffffffffffffff\n      and\n      0xffffffffffffffffffffffffffffffffffffffff\n      and\n      dup2\n      mstore\n      0x20\n      add\n      swap1\n      dup2\n      mstore\n      0x20\n      add\n      0x00\n      keccak256\n        /* \"/Users/ayushgupta/Downloads/Programming/blocket/blocket-wildcard/smart-contracts/contracts/PrimaryCare.sol\":1443:1479  patients[msg.sender].patientContract */\n      0x02\n      add\n      0x00\n      swap1\n      sload\n      swap1\n      0x0100\n      exp\n      swap1\n      div\n      0xffffffffffffffffffffffffffffffffffffffff\n      and\n        /* \"/Users/ayushgupta/Downloads/Programming/blocket/blocket-wildcard/smart-contracts/contracts/PrimaryCare.sol\":1435:1480  return (patients[msg.sender].patientContract) */\n      swap1\n      pop\n        /* \"/Users/ayushgupta/Downloads/Programming/blocket/blocket-wildcard/smart-contracts/contracts/PrimaryCare.sol\":1370:1487  function getContractAddress() public returns (address) {... */\n      swap1\n      jump\t// out\n        /* \"/Users/ayushgupta/Downloads/Programming/blocket/blocket-wildcard/smart-contracts/contracts/PrimaryCare.sol\":231:251  address public owner */\n    tag_30:\n      0x00\n      dup1\n      sload\n      swap1\n      0x0100\n      exp\n      swap1\n      div\n      0xffffffffffffffffffffffffffffffffffffffff\n      and\n      dup2\n      jump\t// out\n        /* \"/Users/ayushgupta/Downloads/Programming/blocket/blocket-wildcard/smart-contracts/contracts/PrimaryCare.sol\":568:816  function addPatient(... */\n    tag_35:\n        /* \"/Users/ayushgupta/Downloads/Programming/blocket/blocket-wildcard/smart-contracts/contracts/PrimaryCare.sol\":697:724  Patient memory patientToAdd */\n      0x00\n        /* \"/Users/ayushgupta/Downloads/Programming/blocket/blocket-wildcard/smart-contracts/contracts/PrimaryCare.sol\":727:766  Patient(name, patient, patientContract) */\n      mload(0x40)\n      dup1\n      0x60\n      add\n      0x40\n      mstore\n      dup1\n        /* \"/Users/ayushgupta/Downloads/Programming/blocket/blocket-wildcard/smart-contracts/contracts/PrimaryCare.sol\":735:739  name */\n      dup4\n        /* \"/Users/ayushgupta/Downloads/Programming/blocket/blocket-wildcard/smart-contracts/contracts/PrimaryCare.sol\":727:766  Patient(name, patient, patientContract) */\n      dup2\n      mstore\n      0x20\n      add\n        /* \"/Users/ayushgupta/Downloads/Programming/blocket/blocket-wildcard/smart-contracts/contracts/PrimaryCare.sol\":741:748  patient */\n      dup6\n        /* \"/Users/ayushgupta/Downloads/Programming/blocket/blocket-wildcard/smart-contracts/contracts/PrimaryCare.sol\":727:766  Patient(name, patient, patientContract) */\n      0xffffffffffffffffffffffffffffffffffffffff\n      and\n      dup2\n      mstore\n      0x20\n      add\n        /* \"/Users/ayushgupta/Downloads/Programming/blocket/blocket-wildcard/smart-contracts/contracts/PrimaryCare.sol\":750:765  patientContract */\n      dup5\n        /* \"/Users/ayushgupta/Downloads/Programming/blocket/blocket-wildcard/smart-contracts/contracts/PrimaryCare.sol\":727:766  Patient(name, patient, patientContract) */\n      0xffffffffffffffffffffffffffffffffffffffff\n      and\n      dup2\n      mstore\n      pop\n        /* \"/Users/ayushgupta/Downloads/Programming/blocket/blocket-wildcard/smart-contracts/contracts/PrimaryCare.sol\":697:766  Patient memory patientToAdd = Patient(name, patient, patientContract) */\n      swap1\n      pop\n        /* \"/Users/ayushgupta/Downloads/Programming/blocket/blocket-wildcard/smart-contracts/contracts/PrimaryCare.sol\":797:809  patientToAdd */\n      dup1\n        /* \"/Users/ayushgupta/Downloads/Programming/blocket/blocket-wildcard/smart-contracts/contracts/PrimaryCare.sol\":777:785  patients */\n      0x03\n        /* \"/Users/ayushgupta/Downloads/Programming/blocket/blocket-wildcard/smart-contracts/contracts/PrimaryCare.sol\":777:794  patients[patient] */\n      0x00\n        /* \"/Users/ayushgupta/Downloads/Programming/blocket/blocket-wildcard/smart-contracts/contracts/PrimaryCare.sol\":786:793  patient */\n      dup7\n        /* \"/Users/ayushgupta/Downloads/Programming/blocket/blocket-wildcard/smart-contracts/contracts/PrimaryCare.sol\":777:794  patients[patient] */\n      0xffffffffffffffffffffffffffffffffffffffff\n      and\n      0xffffffffffffffffffffffffffffffffffffffff\n      and\n      dup2\n      mstore\n      0x20\n      add\n      swap1\n      dup2\n      mstore\n      0x20\n      add\n      0x00\n      keccak256\n        /* \"/Users/ayushgupta/Downloads/Programming/blocket/blocket-wildcard/smart-contracts/contracts/PrimaryCare.sol\":777:809  patients[patient] = patientToAdd */\n      0x00\n      dup3\n      add\n      mload\n      dup2\n      0x00\n      add\n      swap1\n      dup1\n      mload\n      swap1\n      0x20\n      add\n      swap1\n      tag_58\n      swap3\n      swap2\n      swap1\n      tag_59\n      jump\t// in\n    tag_58:\n      pop\n      0x20\n      dup3\n      add\n      mload\n      dup2\n      0x01\n      add\n      exp(0x0100, 0x00)\n      dup2\n      sload\n      dup2\n      0xffffffffffffffffffffffffffffffffffffffff\n      mul\n      not\n      and\n      swap1\n      dup4\n      0xffffffffffffffffffffffffffffffffffffffff\n      and\n      mul\n      or\n      swap1\n      sstore\n      pop\n      0x40\n      dup3\n      add\n      mload\n      dup2\n      0x02\n      add\n      exp(0x0100, 0x00)\n      dup2\n      sload\n      dup2\n      0xffffffffffffffffffffffffffffffffffffffff\n      mul\n      not\n      and\n      swap1\n      dup4\n      0xffffffffffffffffffffffffffffffffffffffff\n      and\n      mul\n      or\n      swap1\n      sstore\n      pop\n      swap1\n      pop\n      pop\n        /* \"/Users/ayushgupta/Downloads/Programming/blocket/blocket-wildcard/smart-contracts/contracts/PrimaryCare.sol\":687:816  {... */\n      pop\n        /* \"/Users/ayushgupta/Downloads/Programming/blocket/blocket-wildcard/smart-contracts/contracts/PrimaryCare.sol\":568:816  function addPatient(... */\n      pop\n      pop\n      pop\n      jump\t// out\n        /* \"/Users/ayushgupta/Downloads/Programming/blocket/blocket-wildcard/smart-contracts/contracts/PrimaryCare.sol\":281:309  address public patientRecord */\n    tag_37:\n      0x02\n      0x00\n      swap1\n      sload\n      swap1\n      0x0100\n      exp\n      swap1\n      div\n      0xffffffffffffffffffffffffffffffffffffffff\n      and\n      dup2\n      jump\t// out\n    tag_59:\n      dup3\n      dup1\n      sload\n      tag_60\n      swap1\n      tag_40\n      jump\t// in\n    tag_60:\n      swap1\n      0x00\n      mstore\n      keccak256(0x00, 0x20)\n      swap1\n      0x1f\n      add\n      0x20\n      swap1\n      div\n      dup2\n      add\n      swap3\n      dup3\n      tag_62\n      jumpi\n      0x00\n      dup6\n      sstore\n      jump(tag_61)\n    tag_62:\n      dup3\n      0x1f\n      lt\n      tag_63\n      jumpi\n      dup1\n      mload\n      not(0xff)\n      and\n      dup4\n      dup1\n      add\n      or\n      dup6\n      sstore\n      jump(tag_61)\n    tag_63:\n      dup3\n      dup1\n      add\n      0x01\n      add\n      dup6\n      sstore\n      dup3\n      iszero\n      tag_61\n      jumpi\n      swap2\n      dup3\n      add\n    tag_64:\n      dup3\n      dup2\n      gt\n      iszero\n      tag_65\n      jumpi\n      dup3\n      mload\n      dup3\n      sstore\n      swap2\n      0x20\n      add\n      swap2\n      swap1\n      0x01\n      add\n      swap1\n      jump(tag_64)\n    tag_65:\n    tag_61:\n      pop\n      swap1\n      pop\n      tag_66\n      swap2\n      swap1\n      tag_67\n      jump\t// in\n    tag_66:\n      pop\n      swap1\n      jump\t// out\n    tag_67:\n    tag_68:\n      dup1\n      dup3\n      gt\n      iszero\n      tag_69\n      jumpi\n      0x00\n      dup2\n      0x00\n      swap1\n      sstore\n      pop\n      0x01\n      add\n      jump(tag_68)\n    tag_69:\n      pop\n      swap1\n      jump\t// out\n        /* \"#utility.yul\":7:419   */\n    tag_71:\n        /* \"#utility.yul\":85:90   */\n      0x00\n        /* \"#utility.yul\":110:176   */\n      tag_73\n        /* \"#utility.yul\":126:175   */\n      tag_74\n        /* \"#utility.yul\":168:174   */\n      dup5\n        /* \"#utility.yul\":126:175   */\n      tag_75\n      jump\t// in\n    tag_74:\n        /* \"#utility.yul\":110:176   */\n      tag_76\n      jump\t// in\n    tag_73:\n        /* \"#utility.yul\":101:176   */\n      swap1\n      pop\n        /* \"#utility.yul\":199:205   */\n      dup3\n        /* \"#utility.yul\":192:197   */\n      dup2\n        /* \"#utility.yul\":185:206   */\n      mstore\n        /* \"#utility.yul\":237:241   */\n      0x20\n        /* \"#utility.yul\":230:235   */\n      dup2\n        /* \"#utility.yul\":226:242   */\n      add\n        /* \"#utility.yul\":275:278   */\n      dup5\n        /* \"#utility.yul\":266:272   */\n      dup5\n        /* \"#utility.yul\":261:264   */\n      dup5\n        /* \"#utility.yul\":257:273   */\n      add\n        /* \"#utility.yul\":254:279   */\n      gt\n        /* \"#utility.yul\":251:363   */\n      iszero\n      tag_77\n      jumpi\n        /* \"#utility.yul\":282:361   */\n      tag_78\n      tag_79\n      jump\t// in\n    tag_78:\n        /* \"#utility.yul\":251:363   */\n    tag_77:\n        /* \"#utility.yul\":372:413   */\n      tag_80\n        /* \"#utility.yul\":406:412   */\n      dup5\n        /* \"#utility.yul\":401:404   */\n      dup3\n        /* \"#utility.yul\":396:399   */\n      dup6\n        /* \"#utility.yul\":372:413   */\n      tag_81\n      jump\t// in\n    tag_80:\n        /* \"#utility.yul\":91:419   */\n      pop\n        /* \"#utility.yul\":7:419   */\n      swap4\n      swap3\n      pop\n      pop\n      pop\n      jump\t// out\n        /* \"#utility.yul\":425:564   */\n    tag_82:\n        /* \"#utility.yul\":471:476   */\n      0x00\n        /* \"#utility.yul\":509:515   */\n      dup2\n        /* \"#utility.yul\":496:516   */\n      calldataload\n        /* \"#utility.yul\":487:516   */\n      swap1\n      pop\n        /* \"#utility.yul\":525:558   */\n      tag_84\n        /* \"#utility.yul\":552:557   */\n      dup2\n        /* \"#utility.yul\":525:558   */\n      tag_85\n      jump\t// in\n    tag_84:\n        /* \"#utility.yul\":425:564   */\n      swap3\n      swap2\n      pop\n      pop\n      jump\t// out\n        /* \"#utility.yul\":584:924   */\n    tag_86:\n        /* \"#utility.yul\":640:645   */\n      0x00\n        /* \"#utility.yul\":689:692   */\n      dup3\n        /* \"#utility.yul\":682:686   */\n      0x1f\n        /* \"#utility.yul\":674:680   */\n      dup4\n        /* \"#utility.yul\":670:687   */\n      add\n        /* \"#utility.yul\":666:693   */\n      slt\n        /* \"#utility.yul\":656:778   */\n      tag_88\n      jumpi\n        /* \"#utility.yul\":697:776   */\n      tag_89\n      tag_90\n      jump\t// in\n    tag_89:\n        /* \"#utility.yul\":656:778   */\n    tag_88:\n        /* \"#utility.yul\":814:820   */\n      dup2\n        /* \"#utility.yul\":801:821   */\n      calldataload\n        /* \"#utility.yul\":839:918   */\n      tag_91\n        /* \"#utility.yul\":914:917   */\n      dup5\n        /* \"#utility.yul\":906:912   */\n      dup3\n        /* \"#utility.yul\":899:903   */\n      0x20\n        /* \"#utility.yul\":891:897   */\n      dup7\n        /* \"#utility.yul\":887:904   */\n      add\n        /* \"#utility.yul\":839:918   */\n      tag_71\n      jump\t// in\n    tag_91:\n        /* \"#utility.yul\":830:918   */\n      swap2\n      pop\n        /* \"#utility.yul\":646:924   */\n      pop\n        /* \"#utility.yul\":584:924   */\n      swap3\n      swap2\n      pop\n      pop\n      jump\t// out\n        /* \"#utility.yul\":930:1259   */\n    tag_17:\n        /* \"#utility.yul\":989:995   */\n      0x00\n        /* \"#utility.yul\":1038:1040   */\n      0x20\n        /* \"#utility.yul\":1026:1035   */\n      dup3\n        /* \"#utility.yul\":1017:1024   */\n      dup5\n        /* \"#utility.yul\":1013:1036   */\n      sub\n        /* \"#utility.yul\":1009:1041   */\n      slt\n        /* \"#utility.yul\":1006:1125   */\n      iszero\n      tag_93\n      jumpi\n        /* \"#utility.yul\":1044:1123   */\n      tag_94\n      tag_95\n      jump\t// in\n    tag_94:\n        /* \"#utility.yul\":1006:1125   */\n    tag_93:\n        /* \"#utility.yul\":1164:1165   */\n      0x00\n        /* \"#utility.yul\":1189:1242   */\n      tag_96\n        /* \"#utility.yul\":1234:1241   */\n      dup5\n        /* \"#utility.yul\":1225:1231   */\n      dup3\n        /* \"#utility.yul\":1214:1223   */\n      dup6\n        /* \"#utility.yul\":1210:1232   */\n      add\n        /* \"#utility.yul\":1189:1242   */\n      tag_82\n      jump\t// in\n    tag_96:\n        /* \"#utility.yul\":1179:1242   */\n      swap2\n      pop\n        /* \"#utility.yul\":1135:1252   */\n      pop\n        /* \"#utility.yul\":930:1259   */\n      swap3\n      swap2\n      pop\n      pop\n      jump\t// out\n        /* \"#utility.yul\":1265:2064   */\n    tag_34:\n        /* \"#utility.yul\":1352:1358   */\n      0x00\n        /* \"#utility.yul\":1360:1366   */\n      dup1\n        /* \"#utility.yul\":1368:1374   */\n      0x00\n        /* \"#utility.yul\":1417:1419   */\n      0x60\n        /* \"#utility.yul\":1405:1414   */\n      dup5\n        /* \"#utility.yul\":1396:1403   */\n      dup7\n        /* \"#utility.yul\":1392:1415   */\n      sub\n        /* \"#utility.yul\":1388:1420   */\n      slt\n        /* \"#utility.yul\":1385:1504   */\n      iszero\n      tag_98\n      jumpi\n        /* \"#utility.yul\":1423:1502   */\n      tag_99\n      tag_95\n      jump\t// in\n    tag_99:\n        /* \"#utility.yul\":1385:1504   */\n    tag_98:\n        /* \"#utility.yul\":1543:1544   */\n      0x00\n        /* \"#utility.yul\":1568:1621   */\n      tag_100\n        /* \"#utility.yul\":1613:1620   */\n      dup7\n        /* \"#utility.yul\":1604:1610   */\n      dup3\n        /* \"#utility.yul\":1593:1602   */\n      dup8\n        /* \"#utility.yul\":1589:1611   */\n      add\n        /* \"#utility.yul\":1568:1621   */\n      tag_82\n      jump\t// in\n    tag_100:\n        /* \"#utility.yul\":1558:1621   */\n      swap4\n      pop\n        /* \"#utility.yul\":1514:1631   */\n      pop\n        /* \"#utility.yul\":1670:1672   */\n      0x20\n        /* \"#utility.yul\":1696:1749   */\n      tag_101\n        /* \"#utility.yul\":1741:1748   */\n      dup7\n        /* \"#utility.yul\":1732:1738   */\n      dup3\n        /* \"#utility.yul\":1721:1730   */\n      dup8\n        /* \"#utility.yul\":1717:1739   */\n      add\n        /* \"#utility.yul\":1696:1749   */\n      tag_82\n      jump\t// in\n    tag_101:\n        /* \"#utility.yul\":1686:1749   */\n      swap3\n      pop\n        /* \"#utility.yul\":1641:1759   */\n      pop\n        /* \"#utility.yul\":1826:1828   */\n      0x40\n        /* \"#utility.yul\":1815:1824   */\n      dup5\n        /* \"#utility.yul\":1811:1829   */\n      add\n        /* \"#utility.yul\":1798:1830   */\n      calldataload\n        /* \"#utility.yul\":1857:1875   */\n      0xffffffffffffffff\n        /* \"#utility.yul\":1849:1855   */\n      dup2\n        /* \"#utility.yul\":1846:1876   */\n      gt\n        /* \"#utility.yul\":1843:1960   */\n      iszero\n      tag_102\n      jumpi\n        /* \"#utility.yul\":1879:1958   */\n      tag_103\n      tag_104\n      jump\t// in\n    tag_103:\n        /* \"#utility.yul\":1843:1960   */\n    tag_102:\n        /* \"#utility.yul\":1984:2047   */\n      tag_105\n        /* \"#utility.yul\":2039:2046   */\n      dup7\n        /* \"#utility.yul\":2030:2036   */\n      dup3\n        /* \"#utility.yul\":2019:2028   */\n      dup8\n        /* \"#utility.yul\":2015:2037   */\n      add\n        /* \"#utility.yul\":1984:2047   */\n      tag_86\n      jump\t// in\n    tag_105:\n        /* \"#utility.yul\":1974:2047   */\n      swap2\n      pop\n        /* \"#utility.yul\":1769:2057   */\n      pop\n        /* \"#utility.yul\":1265:2064   */\n      swap3\n      pop\n      swap3\n      pop\n      swap3\n      jump\t// out\n        /* \"#utility.yul\":2070:3667   */\n    tag_23:\n        /* \"#utility.yul\":2204:2210   */\n      0x00\n        /* \"#utility.yul\":2212:2218   */\n      dup1\n        /* \"#utility.yul\":2220:2226   */\n      0x00\n        /* \"#utility.yul\":2228:2234   */\n      dup1\n        /* \"#utility.yul\":2236:2242   */\n      0x00\n        /* \"#utility.yul\":2244:2250   */\n      dup1\n        /* \"#utility.yul\":2293:2296   */\n      0xc0\n        /* \"#utility.yul\":2281:2290   */\n      dup8\n        /* \"#utility.yul\":2272:2279   */\n      dup10\n        /* \"#utility.yul\":2268:2291   */\n      sub\n        /* \"#utility.yul\":2264:2297   */\n      slt\n        /* \"#utility.yul\":2261:2381   */\n      iszero\n      tag_107\n      jumpi\n        /* \"#utility.yul\":2300:2379   */\n      tag_108\n      tag_95\n      jump\t// in\n    tag_108:\n        /* \"#utility.yul\":2261:2381   */\n    tag_107:\n        /* \"#utility.yul\":2420:2421   */\n      0x00\n        /* \"#utility.yul\":2445:2498   */\n      tag_109\n        /* \"#utility.yul\":2490:2497   */\n      dup10\n        /* \"#utility.yul\":2481:2487   */\n      dup3\n        /* \"#utility.yul\":2470:2479   */\n      dup11\n        /* \"#utility.yul\":2466:2488   */\n      add\n        /* \"#utility.yul\":2445:2498   */\n      tag_82\n      jump\t// in\n    tag_109:\n        /* \"#utility.yul\":2435:2498   */\n      swap7\n      pop\n        /* \"#utility.yul\":2391:2508   */\n      pop\n        /* \"#utility.yul\":2547:2549   */\n      0x20\n        /* \"#utility.yul\":2573:2626   */\n      tag_110\n        /* \"#utility.yul\":2618:2625   */\n      dup10\n        /* \"#utility.yul\":2609:2615   */\n      dup3\n        /* \"#utility.yul\":2598:2607   */\n      dup11\n        /* \"#utility.yul\":2594:2616   */\n      add\n        /* \"#utility.yul\":2573:2626   */\n      tag_82\n      jump\t// in\n    tag_110:\n        /* \"#utility.yul\":2563:2626   */\n      swap6\n      pop\n        /* \"#utility.yul\":2518:2636   */\n      pop\n        /* \"#utility.yul\":2703:2705   */\n      0x40\n        /* \"#utility.yul\":2692:2701   */\n      dup8\n        /* \"#utility.yul\":2688:2706   */\n      add\n        /* \"#utility.yul\":2675:2707   */\n      calldataload\n        /* \"#utility.yul\":2734:2752   */\n      0xffffffffffffffff\n        /* \"#utility.yul\":2726:2732   */\n      dup2\n        /* \"#utility.yul\":2723:2753   */\n      gt\n        /* \"#utility.yul\":2720:2837   */\n      iszero\n      tag_111\n      jumpi\n        /* \"#utility.yul\":2756:2835   */\n      tag_112\n      tag_104\n      jump\t// in\n    tag_112:\n        /* \"#utility.yul\":2720:2837   */\n    tag_111:\n        /* \"#utility.yul\":2861:2924   */\n      tag_113\n        /* \"#utility.yul\":2916:2923   */\n      dup10\n        /* \"#utility.yul\":2907:2913   */\n      dup3\n        /* \"#utility.yul\":2896:2905   */\n      dup11\n        /* \"#utility.yul\":2892:2914   */\n      add\n        /* \"#utility.yul\":2861:2924   */\n      tag_86\n      jump\t// in\n    tag_113:\n        /* \"#utility.yul\":2851:2924   */\n      swap5\n      pop\n        /* \"#utility.yul\":2646:2934   */\n      pop\n        /* \"#utility.yul\":3001:3003   */\n      0x60\n        /* \"#utility.yul\":2990:2999   */\n      dup8\n        /* \"#utility.yul\":2986:3004   */\n      add\n        /* \"#utility.yul\":2973:3005   */\n      calldataload\n        /* \"#utility.yul\":3032:3050   */\n      0xffffffffffffffff\n        /* \"#utility.yul\":3024:3030   */\n      dup2\n        /* \"#utility.yul\":3021:3051   */\n      gt\n        /* \"#utility.yul\":3018:3135   */\n      iszero\n      tag_114\n      jumpi\n        /* \"#utility.yul\":3054:3133   */\n      tag_115\n      tag_104\n      jump\t// in\n    tag_115:\n        /* \"#utility.yul\":3018:3135   */\n    tag_114:\n        /* \"#utility.yul\":3159:3222   */\n      tag_116\n        /* \"#utility.yul\":3214:3221   */\n      dup10\n        /* \"#utility.yul\":3205:3211   */\n      dup3\n        /* \"#utility.yul\":3194:3203   */\n      dup11\n        /* \"#utility.yul\":3190:3212   */\n      add\n        /* \"#utility.yul\":3159:3222   */\n      tag_86\n      jump\t// in\n    tag_116:\n        /* \"#utility.yul\":3149:3222   */\n      swap4\n      pop\n        /* \"#utility.yul\":2944:3232   */\n      pop\n        /* \"#utility.yul\":3299:3302   */\n      0x80\n        /* \"#utility.yul\":3288:3297   */\n      dup8\n        /* \"#utility.yul\":3284:3303   */\n      add\n        /* \"#utility.yul\":3271:3304   */\n      calldataload\n        /* \"#utility.yul\":3331:3349   */\n      0xffffffffffffffff\n        /* \"#utility.yul\":3323:3329   */\n      dup2\n        /* \"#utility.yul\":3320:3350   */\n      gt\n        /* \"#utility.yul\":3317:3434   */\n      iszero\n      tag_117\n      jumpi\n        /* \"#utility.yul\":3353:3432   */\n      tag_118\n      tag_104\n      jump\t// in\n    tag_118:\n        /* \"#utility.yul\":3317:3434   */\n    tag_117:\n        /* \"#utility.yul\":3458:3521   */\n      tag_119\n        /* \"#utility.yul\":3513:3520   */\n      dup10\n        /* \"#utility.yul\":3504:3510   */\n      dup3\n        /* \"#utility.yul\":3493:3502   */\n      dup11\n        /* \"#utility.yul\":3489:3511   */\n      add\n        /* \"#utility.yul\":3458:3521   */\n      tag_86\n      jump\t// in\n    tag_119:\n        /* \"#utility.yul\":3448:3521   */\n      swap3\n      pop\n        /* \"#utility.yul\":3242:3531   */\n      pop\n        /* \"#utility.yul\":3570:3573   */\n      0xa0\n        /* \"#utility.yul\":3597:3650   */\n      tag_120\n        /* \"#utility.yul\":3642:3649   */\n      dup10\n        /* \"#utility.yul\":3633:3639   */\n      dup3\n        /* \"#utility.yul\":3622:3631   */\n      dup11\n        /* \"#utility.yul\":3618:3640   */\n      add\n        /* \"#utility.yul\":3597:3650   */\n      tag_82\n      jump\t// in\n    tag_120:\n        /* \"#utility.yul\":3587:3650   */\n      swap2\n      pop\n        /* \"#utility.yul\":3541:3660   */\n      pop\n        /* \"#utility.yul\":2070:3667   */\n      swap3\n      swap6\n      pop\n      swap3\n      swap6\n      pop\n      swap3\n      swap6\n      jump\t// out\n        /* \"#utility.yul\":3673:3791   */\n    tag_121:\n        /* \"#utility.yul\":3760:3784   */\n      tag_123\n        /* \"#utility.yul\":3778:3783   */\n      dup2\n        /* \"#utility.yul\":3760:3784   */\n      tag_124\n      jump\t// in\n    tag_123:\n        /* \"#utility.yul\":3755:3758   */\n      dup3\n        /* \"#utility.yul\":3748:3785   */\n      mstore\n        /* \"#utility.yul\":3673:3791   */\n      pop\n      pop\n      jump\t// out\n        /* \"#utility.yul\":3797:4161   */\n    tag_125:\n        /* \"#utility.yul\":3885:3888   */\n      0x00\n        /* \"#utility.yul\":3913:3952   */\n      tag_127\n        /* \"#utility.yul\":3946:3951   */\n      dup3\n        /* \"#utility.yul\":3913:3952   */\n      tag_128\n      jump\t// in\n    tag_127:\n        /* \"#utility.yul\":3968:4039   */\n      tag_129\n        /* \"#utility.yul\":4032:4038   */\n      dup2\n        /* \"#utility.yul\":4027:4030   */\n      dup6\n        /* \"#utility.yul\":3968:4039   */\n      tag_130\n      jump\t// in\n    tag_129:\n        /* \"#utility.yul\":3961:4039   */\n      swap4\n      pop\n        /* \"#utility.yul\":4048:4100   */\n      tag_131\n        /* \"#utility.yul\":4093:4099   */\n      dup2\n        /* \"#utility.yul\":4088:4091   */\n      dup6\n        /* \"#utility.yul\":4081:4085   */\n      0x20\n        /* \"#utility.yul\":4074:4079   */\n      dup7\n        /* \"#utility.yul\":4070:4086   */\n      add\n        /* \"#utility.yul\":4048:4100   */\n      tag_132\n      jump\t// in\n    tag_131:\n        /* \"#utility.yul\":4125:4154   */\n      tag_133\n        /* \"#utility.yul\":4147:4153   */\n      dup2\n        /* \"#utility.yul\":4125:4154   */\n      tag_134\n      jump\t// in\n    tag_133:\n        /* \"#utility.yul\":4120:4123   */\n      dup5\n        /* \"#utility.yul\":4116:4155   */\n      add\n        /* \"#utility.yul\":4109:4155   */\n      swap2\n      pop\n        /* \"#utility.yul\":3889:4161   */\n      pop\n        /* \"#utility.yul\":3797:4161   */\n      swap3\n      swap2\n      pop\n      pop\n      jump\t// out\n        /* \"#utility.yul\":4191:4993   */\n    tag_135:\n        /* \"#utility.yul\":4276:4279   */\n      0x00\n        /* \"#utility.yul\":4313:4318   */\n      dup2\n        /* \"#utility.yul\":4307:4319   */\n      sload\n        /* \"#utility.yul\":4342:4378   */\n      tag_137\n        /* \"#utility.yul\":4368:4377   */\n      dup2\n        /* \"#utility.yul\":4342:4378   */\n      tag_40\n      jump\t// in\n    tag_137:\n        /* \"#utility.yul\":4394:4465   */\n      tag_138\n        /* \"#utility.yul\":4458:4464   */\n      dup2\n        /* \"#utility.yul\":4453:4456   */\n      dup7\n        /* \"#utility.yul\":4394:4465   */\n      tag_130\n      jump\t// in\n    tag_138:\n        /* \"#utility.yul\":4387:4465   */\n      swap5\n      pop\n        /* \"#utility.yul\":4496:4497   */\n      0x01\n        /* \"#utility.yul\":4485:4494   */\n      dup3\n        /* \"#utility.yul\":4481:4498   */\n      and\n        /* \"#utility.yul\":4512:4513   */\n      0x00\n        /* \"#utility.yul\":4507:4642   */\n      dup2\n      eq\n      tag_140\n      jumpi\n        /* \"#utility.yul\":4656:4657   */\n      0x01\n        /* \"#utility.yul\":4651:4987   */\n      dup2\n      eq\n      tag_141\n      jumpi\n        /* \"#utility.yul\":4474:4987   */\n      jump(tag_139)\n        /* \"#utility.yul\":4507:4642   */\n    tag_140:\n        /* \"#utility.yul\":4591:4595   */\n      0xff\n        /* \"#utility.yul\":4587:4596   */\n      not\n        /* \"#utility.yul\":4576:4585   */\n      dup4\n        /* \"#utility.yul\":4572:4597   */\n      and\n        /* \"#utility.yul\":4567:4570   */\n      dup7\n        /* \"#utility.yul\":4560:4598   */\n      mstore\n        /* \"#utility.yul\":4627:4631   */\n      0x20\n        /* \"#utility.yul\":4622:4625   */\n      dup7\n        /* \"#utility.yul\":4618:4632   */\n      add\n        /* \"#utility.yul\":4611:4632   */\n      swap4\n      pop\n        /* \"#utility.yul\":4507:4642   */\n      jump(tag_139)\n        /* \"#utility.yul\":4651:4987   */\n    tag_141:\n        /* \"#utility.yul\":4718:4756   */\n      tag_142\n        /* \"#utility.yul\":4750:4755   */\n      dup6\n        /* \"#utility.yul\":4718:4756   */\n      tag_143\n      jump\t// in\n    tag_142:\n        /* \"#utility.yul\":4778:4779   */\n      0x00\n        /* \"#utility.yul\":4792:4946   */\n    tag_144:\n        /* \"#utility.yul\":4806:4812   */\n      dup4\n        /* \"#utility.yul\":4803:4804   */\n      dup2\n        /* \"#utility.yul\":4800:4813   */\n      lt\n        /* \"#utility.yul\":4792:4946   */\n      iszero\n      tag_146\n      jumpi\n        /* \"#utility.yul\":4880:4887   */\n      dup2\n        /* \"#utility.yul\":4874:4888   */\n      sload\n        /* \"#utility.yul\":4870:4871   */\n      dup2\n        /* \"#utility.yul\":4865:4868   */\n      dup10\n        /* \"#utility.yul\":4861:4872   */\n      add\n        /* \"#utility.yul\":4854:4889   */\n      mstore\n        /* \"#utility.yul\":4930:4931   */\n      0x01\n        /* \"#utility.yul\":4921:4928   */\n      dup3\n        /* \"#utility.yul\":4917:4932   */\n      add\n        /* \"#utility.yul\":4906:4932   */\n      swap2\n      pop\n        /* \"#utility.yul\":4828:4832   */\n      0x20\n        /* \"#utility.yul\":4825:4826   */\n      dup2\n        /* \"#utility.yul\":4821:4833   */\n      add\n        /* \"#utility.yul\":4816:4833   */\n      swap1\n      pop\n        /* \"#utility.yul\":4792:4946   */\n      jump(tag_144)\n    tag_146:\n        /* \"#utility.yul\":4975:4976   */\n      dup1\n        /* \"#utility.yul\":4970:4973   */\n      dup9\n        /* \"#utility.yul\":4966:4977   */\n      add\n        /* \"#utility.yul\":4959:4977   */\n      swap6\n      pop\n        /* \"#utility.yul\":4658:4987   */\n      pop\n      pop\n        /* \"#utility.yul\":4474:4987   */\n    tag_139:\n      pop\n        /* \"#utility.yul\":4280:4993   */\n      pop\n      pop\n        /* \"#utility.yul\":4191:4993   */\n      swap3\n      swap2\n      pop\n      pop\n      jump\t// out\n        /* \"#utility.yul\":4999:5365   */\n    tag_147:\n        /* \"#utility.yul\":5141:5144   */\n      0x00\n        /* \"#utility.yul\":5162:5229   */\n      tag_149\n        /* \"#utility.yul\":5226:5228   */\n      0x15\n        /* \"#utility.yul\":5221:5224   */\n      dup4\n        /* \"#utility.yul\":5162:5229   */\n      tag_130\n      jump\t// in\n    tag_149:\n        /* \"#utility.yul\":5155:5229   */\n      swap2\n      pop\n        /* \"#utility.yul\":5238:5331   */\n      tag_150\n        /* \"#utility.yul\":5327:5330   */\n      dup3\n        /* \"#utility.yul\":5238:5331   */\n      tag_151\n      jump\t// in\n    tag_150:\n        /* \"#utility.yul\":5356:5358   */\n      0x20\n        /* \"#utility.yul\":5351:5354   */\n      dup3\n        /* \"#utility.yul\":5347:5359   */\n      add\n        /* \"#utility.yul\":5340:5359   */\n      swap1\n      pop\n        /* \"#utility.yul\":4999:5365   */\n      swap2\n      swap1\n      pop\n      jump\t// out\n        /* \"#utility.yul\":5371:5737   */\n    tag_152:\n        /* \"#utility.yul\":5513:5516   */\n      0x00\n        /* \"#utility.yul\":5534:5601   */\n      tag_154\n        /* \"#utility.yul\":5598:5600   */\n      0x1f\n        /* \"#utility.yul\":5593:5596   */\n      dup4\n        /* \"#utility.yul\":5534:5601   */\n      tag_130\n      jump\t// in\n    tag_154:\n        /* \"#utility.yul\":5527:5601   */\n      swap2\n      pop\n        /* \"#utility.yul\":5610:5703   */\n      tag_155\n        /* \"#utility.yul\":5699:5702   */\n      dup3\n        /* \"#utility.yul\":5610:5703   */\n      tag_156\n      jump\t// in\n    tag_155:\n        /* \"#utility.yul\":5728:5730   */\n      0x20\n        /* \"#utility.yul\":5723:5726   */\n      dup3\n        /* \"#utility.yul\":5719:5731   */\n      add\n        /* \"#utility.yul\":5712:5731   */\n      swap1\n      pop\n        /* \"#utility.yul\":5371:5737   */\n      swap2\n      swap1\n      pop\n      jump\t// out\n        /* \"#utility.yul\":5743:5965   */\n    tag_28:\n        /* \"#utility.yul\":5836:5840   */\n      0x00\n        /* \"#utility.yul\":5874:5876   */\n      0x20\n        /* \"#utility.yul\":5863:5872   */\n      dup3\n        /* \"#utility.yul\":5859:5877   */\n      add\n        /* \"#utility.yul\":5851:5877   */\n      swap1\n      pop\n        /* \"#utility.yul\":5887:5958   */\n      tag_158\n        /* \"#utility.yul\":5955:5956   */\n      0x00\n        /* \"#utility.yul\":5944:5953   */\n      dup4\n        /* \"#utility.yul\":5940:5957   */\n      add\n        /* \"#utility.yul\":5931:5937   */\n      dup5\n        /* \"#utility.yul\":5887:5958   */\n      tag_121\n      jump\t// in\n    tag_158:\n        /* \"#utility.yul\":5743:5965   */\n      swap3\n      swap2\n      pop\n      pop\n      jump\t// out\n        /* \"#utility.yul\":5971:7831   */\n    tag_52:\n        /* \"#utility.yul\":6511:6515   */\n      0x00\n        /* \"#utility.yul\":6549:6552   */\n      0x0120\n        /* \"#utility.yul\":6538:6547   */\n      dup3\n        /* \"#utility.yul\":6534:6553   */\n      add\n        /* \"#utility.yul\":6526:6553   */\n      swap1\n      pop\n        /* \"#utility.yul\":6563:6634   */\n      tag_160\n        /* \"#utility.yul\":6631:6632   */\n      0x00\n        /* \"#utility.yul\":6620:6629   */\n      dup4\n        /* \"#utility.yul\":6616:6633   */\n      add\n        /* \"#utility.yul\":6607:6613   */\n      dup11\n        /* \"#utility.yul\":6563:6634   */\n      tag_121\n      jump\t// in\n    tag_160:\n        /* \"#utility.yul\":6681:6690   */\n      dup2\n        /* \"#utility.yul\":6675:6679   */\n      dup2\n        /* \"#utility.yul\":6671:6691   */\n      sub\n        /* \"#utility.yul\":6666:6668   */\n      0x20\n        /* \"#utility.yul\":6655:6664   */\n      dup4\n        /* \"#utility.yul\":6651:6669   */\n      add\n        /* \"#utility.yul\":6644:6692   */\n      mstore\n        /* \"#utility.yul\":6709:6784   */\n      tag_161\n        /* \"#utility.yul\":6779:6783   */\n      dup2\n        /* \"#utility.yul\":6770:6776   */\n      dup10\n        /* \"#utility.yul\":6709:6784   */\n      tag_135\n      jump\t// in\n    tag_161:\n        /* \"#utility.yul\":6701:6784   */\n      swap1\n      pop\n        /* \"#utility.yul\":6831:6840   */\n      dup2\n        /* \"#utility.yul\":6825:6829   */\n      dup2\n        /* \"#utility.yul\":6821:6841   */\n      sub\n        /* \"#utility.yul\":6816:6818   */\n      0x40\n        /* \"#utility.yul\":6805:6814   */\n      dup4\n        /* \"#utility.yul\":6801:6819   */\n      add\n        /* \"#utility.yul\":6794:6842   */\n      mstore\n        /* \"#utility.yul\":6859:6990   */\n      tag_162\n        /* \"#utility.yul\":6985:6989   */\n      dup2\n        /* \"#utility.yul\":6859:6990   */\n      tag_147\n      jump\t// in\n    tag_162:\n        /* \"#utility.yul\":6851:6990   */\n      swap1\n      pop\n        /* \"#utility.yul\":7037:7046   */\n      dup2\n        /* \"#utility.yul\":7031:7035   */\n      dup2\n        /* \"#utility.yul\":7027:7047   */\n      sub\n        /* \"#utility.yul\":7022:7024   */\n      0x60\n        /* \"#utility.yul\":7011:7020   */\n      dup4\n        /* \"#utility.yul\":7007:7025   */\n      add\n        /* \"#utility.yul\":7000:7048   */\n      mstore\n        /* \"#utility.yul\":7065:7196   */\n      tag_163\n        /* \"#utility.yul\":7191:7195   */\n      dup2\n        /* \"#utility.yul\":7065:7196   */\n      tag_152\n      jump\t// in\n    tag_163:\n        /* \"#utility.yul\":7057:7196   */\n      swap1\n      pop\n        /* \"#utility.yul\":7206:7279   */\n      tag_164\n        /* \"#utility.yul\":7274:7277   */\n      0x80\n        /* \"#utility.yul\":7263:7272   */\n      dup4\n        /* \"#utility.yul\":7259:7278   */\n      add\n        /* \"#utility.yul\":7250:7256   */\n      dup9\n        /* \"#utility.yul\":7206:7279   */\n      tag_121\n      jump\t// in\n    tag_164:\n        /* \"#utility.yul\":7327:7336   */\n      dup2\n        /* \"#utility.yul\":7321:7325   */\n      dup2\n        /* \"#utility.yul\":7317:7337   */\n      sub\n        /* \"#utility.yul\":7311:7314   */\n      0xa0\n        /* \"#utility.yul\":7300:7309   */\n      dup4\n        /* \"#utility.yul\":7296:7315   */\n      add\n        /* \"#utility.yul\":7289:7338   */\n      mstore\n        /* \"#utility.yul\":7355:7433   */\n      tag_165\n        /* \"#utility.yul\":7428:7432   */\n      dup2\n        /* \"#utility.yul\":7419:7425   */\n      dup8\n        /* \"#utility.yul\":7355:7433   */\n      tag_125\n      jump\t// in\n    tag_165:\n        /* \"#utility.yul\":7347:7433   */\n      swap1\n      pop\n        /* \"#utility.yul\":7481:7490   */\n      dup2\n        /* \"#utility.yul\":7475:7479   */\n      dup2\n        /* \"#utility.yul\":7471:7491   */\n      sub\n        /* \"#utility.yul\":7465:7468   */\n      0xc0\n        /* \"#utility.yul\":7454:7463   */\n      dup4\n        /* \"#utility.yul\":7450:7469   */\n      add\n        /* \"#utility.yul\":7443:7492   */\n      mstore\n        /* \"#utility.yul\":7509:7587   */\n      tag_166\n        /* \"#utility.yul\":7582:7586   */\n      dup2\n        /* \"#utility.yul\":7573:7579   */\n      dup7\n        /* \"#utility.yul\":7509:7587   */\n      tag_125\n      jump\t// in\n    tag_166:\n        /* \"#utility.yul\":7501:7587   */\n      swap1\n      pop\n        /* \"#utility.yul\":7635:7644   */\n      dup2\n        /* \"#utility.yul\":7629:7633   */\n      dup2\n        /* \"#utility.yul\":7625:7645   */\n      sub\n        /* \"#utility.yul\":7619:7622   */\n      0xe0\n        /* \"#utility.yul\":7608:7617   */\n      dup4\n        /* \"#utility.yul\":7604:7623   */\n      add\n        /* \"#utility.yul\":7597:7646   */\n      mstore\n        /* \"#utility.yul\":7663:7741   */\n      tag_167\n        /* \"#utility.yul\":7736:7740   */\n      dup2\n        /* \"#utility.yul\":7727:7733   */\n      dup6\n        /* \"#utility.yul\":7663:7741   */\n      tag_125\n      jump\t// in\n    tag_167:\n        /* \"#utility.yul\":7655:7741   */\n      swap1\n      pop\n        /* \"#utility.yul\":7751:7824   */\n      tag_168\n        /* \"#utility.yul\":7819:7822   */\n      0x0100\n        /* \"#utility.yul\":7808:7817   */\n      dup4\n        /* \"#utility.yul\":7804:7823   */\n      add\n        /* \"#utility.yul\":7795:7801   */\n      dup5\n        /* \"#utility.yul\":7751:7824   */\n      tag_121\n      jump\t// in\n    tag_168:\n        /* \"#utility.yul\":5971:7831   */\n      swap9\n      swap8\n      pop\n      pop\n      pop\n      pop\n      pop\n      pop\n      pop\n      pop\n      jump\t// out\n        /* \"#utility.yul\":7837:8150   */\n    tag_14:\n        /* \"#utility.yul\":7950:7954   */\n      0x00\n        /* \"#utility.yul\":7988:7990   */\n      0x20\n        /* \"#utility.yul\":7977:7986   */\n      dup3\n        /* \"#utility.yul\":7973:7991   */\n      add\n        /* \"#utility.yul\":7965:7991   */\n      swap1\n      pop\n        /* \"#utility.yul\":8037:8046   */\n      dup2\n        /* \"#utility.yul\":8031:8035   */\n      dup2\n        /* \"#utility.yul\":8027:8047   */\n      sub\n        /* \"#utility.yul\":8023:8024   */\n      0x00\n        /* \"#utility.yul\":8012:8021   */\n      dup4\n        /* \"#utility.yul\":8008:8025   */\n      add\n        /* \"#utility.yul\":8001:8048   */\n      mstore\n        /* \"#utility.yul\":8065:8143   */\n      tag_170\n        /* \"#utility.yul\":8138:8142   */\n      dup2\n        /* \"#utility.yul\":8129:8135   */\n      dup5\n        /* \"#utility.yul\":8065:8143   */\n      tag_125\n      jump\t// in\n    tag_170:\n        /* \"#utility.yul\":8057:8143   */\n      swap1\n      pop\n        /* \"#utility.yul\":7837:8150   */\n      swap3\n      swap2\n      pop\n      pop\n      jump\t// out\n        /* \"#utility.yul\":8156:8689   */\n    tag_20:\n        /* \"#utility.yul\":8325:8329   */\n      0x00\n        /* \"#utility.yul\":8363:8365   */\n      0x60\n        /* \"#utility.yul\":8352:8361   */\n      dup3\n        /* \"#utility.yul\":8348:8366   */\n      add\n        /* \"#utility.yul\":8340:8366   */\n      swap1\n      pop\n        /* \"#utility.yul\":8412:8421   */\n      dup2\n        /* \"#utility.yul\":8406:8410   */\n      dup2\n        /* \"#utility.yul\":8402:8422   */\n      sub\n        /* \"#utility.yul\":8398:8399   */\n      0x00\n        /* \"#utility.yul\":8387:8396   */\n      dup4\n        /* \"#utility.yul\":8383:8400   */\n      add\n        /* \"#utility.yul\":8376:8423   */\n      mstore\n        /* \"#utility.yul\":8440:8518   */\n      tag_172\n        /* \"#utility.yul\":8513:8517   */\n      dup2\n        /* \"#utility.yul\":8504:8510   */\n      dup7\n        /* \"#utility.yul\":8440:8518   */\n      tag_125\n      jump\t// in\n    tag_172:\n        /* \"#utility.yul\":8432:8518   */\n      swap1\n      pop\n        /* \"#utility.yul\":8528:8600   */\n      tag_173\n        /* \"#utility.yul\":8596:8598   */\n      0x20\n        /* \"#utility.yul\":8585:8594   */\n      dup4\n        /* \"#utility.yul\":8581:8599   */\n      add\n        /* \"#utility.yul\":8572:8578   */\n      dup6\n        /* \"#utility.yul\":8528:8600   */\n      tag_121\n      jump\t// in\n    tag_173:\n        /* \"#utility.yul\":8610:8682   */\n      tag_174\n        /* \"#utility.yul\":8678:8680   */\n      0x40\n        /* \"#utility.yul\":8667:8676   */\n      dup4\n        /* \"#utility.yul\":8663:8681   */\n      add\n        /* \"#utility.yul\":8654:8660   */\n      dup5\n        /* \"#utility.yul\":8610:8682   */\n      tag_121\n      jump\t// in\n    tag_174:\n        /* \"#utility.yul\":8156:8689   */\n      swap5\n      swap4\n      pop\n      pop\n      pop\n      pop\n      jump\t// out\n        /* \"#utility.yul\":8695:8824   */\n    tag_76:\n        /* \"#utility.yul\":8729:8735   */\n      0x00\n        /* \"#utility.yul\":8756:8776   */\n      tag_176\n      tag_177\n      jump\t// in\n    tag_176:\n        /* \"#utility.yul\":8746:8776   */\n      swap1\n      pop\n        /* \"#utility.yul\":8785:8818   */\n      tag_178\n        /* \"#utility.yul\":8813:8817   */\n      dup3\n        /* \"#utility.yul\":8805:8811   */\n      dup3\n        /* \"#utility.yul\":8785:8818   */\n      tag_179\n      jump\t// in\n    tag_178:\n        /* \"#utility.yul\":8695:8824   */\n      swap2\n      swap1\n      pop\n      jump\t// out\n        /* \"#utility.yul\":8830:8905   */\n    tag_177:\n        /* \"#utility.yul\":8863:8869   */\n      0x00\n        /* \"#utility.yul\":8896:8898   */\n      0x40\n        /* \"#utility.yul\":8890:8899   */\n      mload\n        /* \"#utility.yul\":8880:8899   */\n      swap1\n      pop\n        /* \"#utility.yul\":8830:8905   */\n      swap1\n      jump\t// out\n        /* \"#utility.yul\":8911:9219   */\n    tag_75:\n        /* \"#utility.yul\":8973:8977   */\n      0x00\n        /* \"#utility.yul\":9063:9081   */\n      0xffffffffffffffff\n        /* \"#utility.yul\":9055:9061   */\n      dup3\n        /* \"#utility.yul\":9052:9082   */\n      gt\n        /* \"#utility.yul\":9049:9105   */\n      iszero\n      tag_182\n      jumpi\n        /* \"#utility.yul\":9085:9103   */\n      tag_183\n      tag_184\n      jump\t// in\n    tag_183:\n        /* \"#utility.yul\":9049:9105   */\n    tag_182:\n        /* \"#utility.yul\":9123:9152   */\n      tag_185\n        /* \"#utility.yul\":9145:9151   */\n      dup3\n        /* \"#utility.yul\":9123:9152   */\n      tag_134\n      jump\t// in\n    tag_185:\n        /* \"#utility.yul\":9115:9152   */\n      swap1\n      pop\n        /* \"#utility.yul\":9207:9211   */\n      0x20\n        /* \"#utility.yul\":9201:9205   */\n      dup2\n        /* \"#utility.yul\":9197:9212   */\n      add\n        /* \"#utility.yul\":9189:9212   */\n      swap1\n      pop\n        /* \"#utility.yul\":8911:9219   */\n      swap2\n      swap1\n      pop\n      jump\t// out\n        /* \"#utility.yul\":9225:9366   */\n    tag_143:\n        /* \"#utility.yul\":9274:9278   */\n      0x00\n        /* \"#utility.yul\":9297:9300   */\n      dup2\n        /* \"#utility.yul\":9289:9300   */\n      swap1\n      pop\n        /* \"#utility.yul\":9320:9323   */\n      dup2\n        /* \"#utility.yul\":9317:9318   */\n      0x00\n        /* \"#utility.yul\":9310:9324   */\n      mstore\n        /* \"#utility.yul\":9354:9358   */\n      0x20\n        /* \"#utility.yul\":9351:9352   */\n      0x00\n        /* \"#utility.yul\":9341:9359   */\n      keccak256\n        /* \"#utility.yul\":9333:9359   */\n      swap1\n      pop\n        /* \"#utility.yul\":9225:9366   */\n      swap2\n      swap1\n      pop\n      jump\t// out\n        /* \"#utility.yul\":9372:9471   */\n    tag_128:\n        /* \"#utility.yul\":9424:9430   */\n      0x00\n        /* \"#utility.yul\":9458:9463   */\n      dup2\n        /* \"#utility.yul\":9452:9464   */\n      mload\n        /* \"#utility.yul\":9442:9464   */\n      swap1\n      pop\n        /* \"#utility.yul\":9372:9471   */\n      swap2\n      swap1\n      pop\n      jump\t// out\n        /* \"#utility.yul\":9477:9646   */\n    tag_130:\n        /* \"#utility.yul\":9561:9572   */\n      0x00\n        /* \"#utility.yul\":9595:9601   */\n      dup3\n        /* \"#utility.yul\":9590:9593   */\n      dup3\n        /* \"#utility.yul\":9583:9602   */\n      mstore\n        /* \"#utility.yul\":9635:9639   */\n      0x20\n        /* \"#utility.yul\":9630:9633   */\n      dup3\n        /* \"#utility.yul\":9626:9640   */\n      add\n        /* \"#utility.yul\":9611:9640   */\n      swap1\n      pop\n        /* \"#utility.yul\":9477:9646   */\n      swap3\n      swap2\n      pop\n      pop\n      jump\t// out\n        /* \"#utility.yul\":9652:9748   */\n    tag_124:\n        /* \"#utility.yul\":9689:9696   */\n      0x00\n        /* \"#utility.yul\":9718:9742   */\n      tag_190\n        /* \"#utility.yul\":9736:9741   */\n      dup3\n        /* \"#utility.yul\":9718:9742   */\n      tag_191\n      jump\t// in\n    tag_190:\n        /* \"#utility.yul\":9707:9742   */\n      swap1\n      pop\n        /* \"#utility.yul\":9652:9748   */\n      swap2\n      swap1\n      pop\n      jump\t// out\n        /* \"#utility.yul\":9754:9880   */\n    tag_191:\n        /* \"#utility.yul\":9791:9798   */\n      0x00\n        /* \"#utility.yul\":9831:9873   */\n      0xffffffffffffffffffffffffffffffffffffffff\n        /* \"#utility.yul\":9824:9829   */\n      dup3\n        /* \"#utility.yul\":9820:9874   */\n      and\n        /* \"#utility.yul\":9809:9874   */\n      swap1\n      pop\n        /* \"#utility.yul\":9754:9880   */\n      swap2\n      swap1\n      pop\n      jump\t// out\n        /* \"#utility.yul\":9886:10040   */\n    tag_81:\n        /* \"#utility.yul\":9970:9976   */\n      dup3\n        /* \"#utility.yul\":9965:9968   */\n      dup2\n        /* \"#utility.yul\":9960:9963   */\n      dup4\n        /* \"#utility.yul\":9947:9977   */\n      calldatacopy\n        /* \"#utility.yul\":10032:10033   */\n      0x00\n        /* \"#utility.yul\":10023:10029   */\n      dup4\n        /* \"#utility.yul\":10018:10021   */\n      dup4\n        /* \"#utility.yul\":10014:10030   */\n      add\n        /* \"#utility.yul\":10007:10034   */\n      mstore\n        /* \"#utility.yul\":9886:10040   */\n      pop\n      pop\n      pop\n      jump\t// out\n        /* \"#utility.yul\":10046:10353   */\n    tag_132:\n        /* \"#utility.yul\":10114:10115   */\n      0x00\n        /* \"#utility.yul\":10124:10237   */\n    tag_195:\n        /* \"#utility.yul\":10138:10144   */\n      dup4\n        /* \"#utility.yul\":10135:10136   */\n      dup2\n        /* \"#utility.yul\":10132:10145   */\n      lt\n        /* \"#utility.yul\":10124:10237   */\n      iszero\n      tag_197\n      jumpi\n        /* \"#utility.yul\":10223:10224   */\n      dup1\n        /* \"#utility.yul\":10218:10221   */\n      dup3\n        /* \"#utility.yul\":10214:10225   */\n      add\n        /* \"#utility.yul\":10208:10226   */\n      mload\n        /* \"#utility.yul\":10204:10205   */\n      dup2\n        /* \"#utility.yul\":10199:10202   */\n      dup5\n        /* \"#utility.yul\":10195:10206   */\n      add\n        /* \"#utility.yul\":10188:10227   */\n      mstore\n        /* \"#utility.yul\":10160:10162   */\n      0x20\n        /* \"#utility.yul\":10157:10158   */\n      dup2\n        /* \"#utility.yul\":10153:10163   */\n      add\n        /* \"#utility.yul\":10148:10163   */\n      swap1\n      pop\n        /* \"#utility.yul\":10124:10237   */\n      jump(tag_195)\n    tag_197:\n        /* \"#utility.yul\":10255:10261   */\n      dup4\n        /* \"#utility.yul\":10252:10253   */\n      dup2\n        /* \"#utility.yul\":10249:10262   */\n      gt\n        /* \"#utility.yul\":10246:10347   */\n      iszero\n      tag_198\n      jumpi\n        /* \"#utility.yul\":10335:10336   */\n      0x00\n        /* \"#utility.yul\":10326:10332   */\n      dup5\n        /* \"#utility.yul\":10321:10324   */\n      dup5\n        /* \"#utility.yul\":10317:10333   */\n      add\n        /* \"#utility.yul\":10310:10337   */\n      mstore\n        /* \"#utility.yul\":10246:10347   */\n    tag_198:\n        /* \"#utility.yul\":10095:10353   */\n      pop\n        /* \"#utility.yul\":10046:10353   */\n      pop\n      pop\n      pop\n      jump\t// out\n        /* \"#utility.yul\":10359:10679   */\n    tag_40:\n        /* \"#utility.yul\":10403:10409   */\n      0x00\n        /* \"#utility.yul\":10440:10441   */\n      0x02\n        /* \"#utility.yul\":10434:10438   */\n      dup3\n        /* \"#utility.yul\":10430:10442   */\n      div\n        /* \"#utility.yul\":10420:10442   */\n      swap1\n      pop\n        /* \"#utility.yul\":10487:10488   */\n      0x01\n        /* \"#utility.yul\":10481:10485   */\n      dup3\n        /* \"#utility.yul\":10477:10489   */\n      and\n        /* \"#utility.yul\":10508:10526   */\n      dup1\n        /* \"#utility.yul\":10498:10579   */\n      tag_200\n      jumpi\n        /* \"#utility.yul\":10564:10568   */\n      0x7f\n        /* \"#utility.yul\":10556:10562   */\n      dup3\n        /* \"#utility.yul\":10552:10569   */\n      and\n        /* \"#utility.yul\":10542:10569   */\n      swap2\n      pop\n        /* \"#utility.yul\":10498:10579   */\n    tag_200:\n        /* \"#utility.yul\":10626:10628   */\n      0x20\n        /* \"#utility.yul\":10618:10624   */\n      dup3\n        /* \"#utility.yul\":10615:10629   */\n      lt\n        /* \"#utility.yul\":10595:10613   */\n      dup2\n        /* \"#utility.yul\":10592:10630   */\n      eq\n        /* \"#utility.yul\":10589:10673   */\n      iszero\n      tag_201\n      jumpi\n        /* \"#utility.yul\":10645:10663   */\n      tag_202\n      tag_203\n      jump\t// in\n    tag_202:\n        /* \"#utility.yul\":10589:10673   */\n    tag_201:\n        /* \"#utility.yul\":10410:10679   */\n      pop\n        /* \"#utility.yul\":10359:10679   */\n      swap2\n      swap1\n      pop\n      jump\t// out\n        /* \"#utility.yul\":10685:10966   */\n    tag_179:\n        /* \"#utility.yul\":10768:10795   */\n      tag_205\n        /* \"#utility.yul\":10790:10794   */\n      dup3\n        /* \"#utility.yul\":10768:10795   */\n      tag_134\n      jump\t// in\n    tag_205:\n        /* \"#utility.yul\":10760:10766   */\n      dup2\n        /* \"#utility.yul\":10756:10796   */\n      add\n        /* \"#utility.yul\":10898:10904   */\n      dup2\n        /* \"#utility.yul\":10886:10896   */\n      dup2\n        /* \"#utility.yul\":10883:10905   */\n      lt\n        /* \"#utility.yul\":10862:10880   */\n      0xffffffffffffffff\n        /* \"#utility.yul\":10850:10860   */\n      dup3\n        /* \"#utility.yul\":10847:10881   */\n      gt\n        /* \"#utility.yul\":10844:10906   */\n      or\n        /* \"#utility.yul\":10841:10929   */\n      iszero\n      tag_206\n      jumpi\n        /* \"#utility.yul\":10909:10927   */\n      tag_207\n      tag_184\n      jump\t// in\n    tag_207:\n        /* \"#utility.yul\":10841:10929   */\n    tag_206:\n        /* \"#utility.yul\":10949:10959   */\n      dup1\n        /* \"#utility.yul\":10945:10947   */\n      0x40\n        /* \"#utility.yul\":10938:10960   */\n      mstore\n        /* \"#utility.yul\":10728:10966   */\n      pop\n        /* \"#utility.yul\":10685:10966   */\n      pop\n      pop\n      jump\t// out\n        /* \"#utility.yul\":10972:11152   */\n    tag_203:\n        /* \"#utility.yul\":11020:11097   */\n      0x4e487b7100000000000000000000000000000000000000000000000000000000\n        /* \"#utility.yul\":11017:11018   */\n      0x00\n        /* \"#utility.yul\":11010:11098   */\n      mstore\n        /* \"#utility.yul\":11117:11121   */\n      0x22\n        /* \"#utility.yul\":11114:11115   */\n      0x04\n        /* \"#utility.yul\":11107:11122   */\n      mstore\n        /* \"#utility.yul\":11141:11145   */\n      0x24\n        /* \"#utility.yul\":11138:11139   */\n      0x00\n        /* \"#utility.yul\":11131:11146   */\n      revert\n        /* \"#utility.yul\":11158:11338   */\n    tag_184:\n        /* \"#utility.yul\":11206:11283   */\n      0x4e487b7100000000000000000000000000000000000000000000000000000000\n        /* \"#utility.yul\":11203:11204   */\n      0x00\n        /* \"#utility.yul\":11196:11284   */\n      mstore\n        /* \"#utility.yul\":11303:11307   */\n      0x41\n        /* \"#utility.yul\":11300:11301   */\n      0x04\n        /* \"#utility.yul\":11293:11308   */\n      mstore\n        /* \"#utility.yul\":11327:11331   */\n      0x24\n        /* \"#utility.yul\":11324:11325   */\n      0x00\n        /* \"#utility.yul\":11317:11332   */\n      revert\n        /* \"#utility.yul\":11344:11461   */\n    tag_90:\n        /* \"#utility.yul\":11453:11454   */\n      0x00\n        /* \"#utility.yul\":11450:11451   */\n      dup1\n        /* \"#utility.yul\":11443:11455   */\n      revert\n        /* \"#utility.yul\":11467:11584   */\n    tag_79:\n        /* \"#utility.yul\":11576:11577   */\n      0x00\n        /* \"#utility.yul\":11573:11574   */\n      dup1\n        /* \"#utility.yul\":11566:11578   */\n      revert\n        /* \"#utility.yul\":11590:11707   */\n    tag_104:\n        /* \"#utility.yul\":11699:11700   */\n      0x00\n        /* \"#utility.yul\":11696:11697   */\n      dup1\n        /* \"#utility.yul\":11689:11701   */\n      revert\n        /* \"#utility.yul\":11713:11830   */\n    tag_95:\n        /* \"#utility.yul\":11822:11823   */\n      0x00\n        /* \"#utility.yul\":11819:11820   */\n      dup1\n        /* \"#utility.yul\":11812:11824   */\n      revert\n        /* \"#utility.yul\":11836:11938   */\n    tag_134:\n        /* \"#utility.yul\":11877:11883   */\n      0x00\n        /* \"#utility.yul\":11928:11930   */\n      0x1f\n        /* \"#utility.yul\":11924:11931   */\n      not\n        /* \"#utility.yul\":11919:11921   */\n      0x1f\n        /* \"#utility.yul\":11912:11917   */\n      dup4\n        /* \"#utility.yul\":11908:11922   */\n      add\n        /* \"#utility.yul\":11904:11932   */\n      and\n        /* \"#utility.yul\":11894:11932   */\n      swap1\n      pop\n        /* \"#utility.yul\":11836:11938   */\n      swap2\n      swap1\n      pop\n      jump\t// out\n        /* \"#utility.yul\":11944:12115   */\n    tag_151:\n        /* \"#utility.yul\":12084:12107   */\n      0x5072696d61727920436172652050726f76696465720000000000000000000000\n        /* \"#utility.yul\":12080:12081   */\n      0x00\n        /* \"#utility.yul\":12072:12078   */\n      dup3\n        /* \"#utility.yul\":12068:12082   */\n      add\n        /* \"#utility.yul\":12061:12108   */\n      mstore\n        /* \"#utility.yul\":11944:12115   */\n      pop\n      jump\t// out\n        /* \"#utility.yul\":12121:12302   */\n    tag_156:\n        /* \"#utility.yul\":12261:12294   */\n      0x67757074612e70656469617472696373404d656469547261636b2e7465636800\n        /* \"#utility.yul\":12257:12258   */\n      0x00\n        /* \"#utility.yul\":12249:12255   */\n      dup3\n        /* \"#utility.yul\":12245:12259   */\n      add\n        /* \"#utility.yul\":12238:12295   */\n      mstore\n        /* \"#utility.yul\":12121:12302   */\n      pop\n      jump\t// out\n        /* \"#utility.yul\":12308:12430   */\n    tag_85:\n        /* \"#utility.yul\":12381:12405   */\n      tag_218\n        /* \"#utility.yul\":12399:12404   */\n      dup2\n        /* \"#utility.yul\":12381:12405   */\n      tag_124\n      jump\t// in\n    tag_218:\n        /* \"#utility.yul\":12374:12379   */\n      dup2\n        /* \"#utility.yul\":12371:12406   */\n      eq\n        /* \"#utility.yul\":12361:12424   */\n      tag_219\n      jumpi\n        /* \"#utility.yul\":12420:12421   */\n      0x00\n        /* \"#utility.yul\":12417:12418   */\n      dup1\n        /* \"#utility.yul\":12410:12422   */\n      revert\n        /* \"#utility.yul\":12361:12424   */\n    tag_219:\n        /* \"#utility.yul\":12308:12430   */\n      pop\n      jump\t// out\n\n    auxdata: 0xa264697066735822122007843b1bae7bf843bdcf3f155de19510cafc1c7627a6b5ffb2126a1461aea24964736f6c63430008070033\n}\n",
				"bytecode": {
					"linkReferences": {},
					"object": "60806040523480156200001157600080fd5b50604051620010ea380380620010ea8339818101604052810190620000379190620001c5565b336000806101000a81548173ffffffffffffffffffffffffffffffffffffffff021916908373ffffffffffffffffffffffffffffffffffffffff16021790555080600190805190602001906200008f92919062000097565b50506200039a565b828054620000a590620002ab565b90600052602060002090601f016020900481019282620000c9576000855562000115565b82601f10620000e457805160ff191683800117855562000115565b8280016001018555821562000115579182015b8281111562000114578251825591602001919060010190620000f7565b5b50905062000124919062000128565b5090565b5b808211156200014357600081600090555060010162000129565b5090565b60006200015e62000158846200023f565b62000216565b9050828152602081018484840111156200017d576200017c6200037a565b5b6200018a84828562000275565b509392505050565b600082601f830112620001aa57620001a962000375565b5b8151620001bc84826020860162000147565b91505092915050565b600060208284031215620001de57620001dd62000384565b5b600082015167ffffffffffffffff811115620001ff57620001fe6200037f565b5b6200020d8482850162000192565b91505092915050565b60006200022262000235565b9050620002308282620002e1565b919050565b6000604051905090565b600067ffffffffffffffff8211156200025d576200025c62000346565b5b620002688262000389565b9050602081019050919050565b60005b838110156200029557808201518184015260208101905062000278565b83811115620002a5576000848401525b50505050565b60006002820490506001821680620002c457607f821691505b60208210811415620002db57620002da62000317565b5b50919050565b620002ec8262000389565b810181811067ffffffffffffffff821117156200030e576200030d62000346565b5b80604052505050565b7f4e487b7100000000000000000000000000000000000000000000000000000000600052602260045260246000fd5b7f4e487b7100000000000000000000000000000000000000000000000000000000600052604160045260246000fd5b600080fd5b600080fd5b600080fd5b600080fd5b6000601f19601f8301169050919050565b610d4080620003aa6000396000f3fe608060405234801561001057600080fd5b506004361061007d5760003560e01c806332a2c5d01161005b57806332a2c5d0146100ee5780638da5cb5b1461010c578063c05fb8901461012a578063d85c9481146101465761007d565b806306fdde03146100825780630869cfbc146100a057806326257b8e146100d2575b600080fd5b61008a610164565b6040516100979190610a60565b60405180910390f35b6100ba60048036038101906100b59190610707565b6101f2565b6040516100c993929190610a82565b60405180910390f35b6100ec60048036038101906100e791906107a3565b6102e4565b005b6100f66103ec565b6040516101039190610992565b60405180910390f35b610114610456565b6040516101219190610992565b60405180910390f35b610144600480360381019061013f9190610734565b61047a565b005b61014e6105b9565b60405161015b9190610992565b60405180910390f35b6001805461017190610bbb565b80601f016020809104026020016040519081016040528092919081815260200182805461019d90610bbb565b80156101ea5780601f106101bf576101008083540402835291602001916101ea565b820191906000526020600020905b8154815290600101906020018083116101cd57829003601f168201915b505050505081565b600360205280600052604060002060009150905080600001805461021590610bbb565b80601f016020809104026020016040519081016040528092919081815260200182805461024190610bbb565b801561028e5780601f106102635761010080835404028352916020019161028e565b820191906000526020600020905b81548152906001019060200180831161027157829003601f168201915b5050505050908060010160009054906101000a900473ffffffffffffffffffffffffffffffffffffffff16908060020160009054906101000a900473ffffffffffffffffffffffffffffffffffffffff16905083565b6000600360008873ffffffffffffffffffffffffffffffffffffffff1673ffffffffffffffffffffffffffffffffffffffff16815260200190815260200160002060020160009054906101000a900473ffffffffffffffffffffffffffffffffffffffff1690508073ffffffffffffffffffffffffffffffffffffffff16635a8bed5860008054906101000a900473ffffffffffffffffffffffffffffffffffffffff16600189898989896040518863ffffffff1660e01b81526004016103b197969594939291906109ad565b600060405180830381600087803b1580156103cb57600080fd5b505af11580156103df573d6000803e3d6000fd5b5050505050505050505050565b6000600360003373ffffffffffffffffffffffffffffffffffffffff1673ffffffffffffffffffffffffffffffffffffffff16815260200190815260200160002060020160009054906101000a900473ffffffffffffffffffffffffffffffffffffffff16905090565b60008054906101000a900473ffffffffffffffffffffffffffffffffffffffff1681565b600060405180606001604052808381526020018573ffffffffffffffffffffffffffffffffffffffff1681526020018473ffffffffffffffffffffffffffffffffffffffff16815250905080600360008673ffffffffffffffffffffffffffffffffffffffff1673ffffffffffffffffffffffffffffffffffffffff16815260200190815260200160002060008201518160000190805190602001906105219291906105df565b5060208201518160010160006101000a81548173ffffffffffffffffffffffffffffffffffffffff021916908373ffffffffffffffffffffffffffffffffffffffff16021790555060408201518160020160006101000a81548173ffffffffffffffffffffffffffffffffffffffff021916908373ffffffffffffffffffffffffffffffffffffffff16021790555090505050505050565b600260009054906101000a900473ffffffffffffffffffffffffffffffffffffffff1681565b8280546105eb90610bbb565b90600052602060002090601f01602090048101928261060d5760008555610654565b82601f1061062657805160ff1916838001178555610654565b82800160010185558215610654579182015b82811115610653578251825591602001919060010190610638565b5b5090506106619190610665565b5090565b5b8082111561067e576000816000905550600101610666565b5090565b600061069561069084610ae5565b610ac0565b9050828152602081018484840111156106b1576106b0610c81565b5b6106bc848285610b79565b509392505050565b6000813590506106d381610cf3565b92915050565b600082601f8301126106ee576106ed610c7c565b5b81356106fe848260208601610682565b91505092915050565b60006020828403121561071d5761071c610c8b565b5b600061072b848285016106c4565b91505092915050565b60008060006060848603121561074d5761074c610c8b565b5b600061075b868287016106c4565b935050602061076c868287016106c4565b925050604084013567ffffffffffffffff81111561078d5761078c610c86565b5b610799868287016106d9565b9150509250925092565b60008060008060008060c087890312156107c0576107bf610c8b565b5b60006107ce89828a016106c4565b96505060206107df89828a016106c4565b955050604087013567ffffffffffffffff811115610800576107ff610c86565b5b61080c89828a016106d9565b945050606087013567ffffffffffffffff81111561082d5761082c610c86565b5b61083989828a016106d9565b935050608087013567ffffffffffffffff81111561085a57610859610c86565b5b61086689828a016106d9565b92505060a061087789828a016106c4565b9150509295509295509295565b61088d81610b47565b82525050565b600061089e82610b2b565b6108a88185610b36565b93506108b8818560208601610b88565b6108c181610c90565b840191505092915050565b600081546108d981610bbb565b6108e38186610b36565b945060018216600081146108fe576001811461091057610943565b60ff1983168652602086019350610943565b61091985610b16565b60005b8381101561093b5781548189015260018201915060208101905061091c565b808801955050505b50505092915050565b6000610959601583610b36565b915061096482610ca1565b602082019050919050565b600061097c601f83610b36565b915061098782610cca565b602082019050919050565b60006020820190506109a76000830184610884565b92915050565b6000610120820190506109c3600083018a610884565b81810360208301526109d581896108cc565b905081810360408301526109e88161094c565b905081810360608301526109fb8161096f565b9050610a0a6080830188610884565b81810360a0830152610a1c8187610893565b905081810360c0830152610a308186610893565b905081810360e0830152610a448185610893565b9050610a54610100830184610884565b98975050505050505050565b60006020820190508181036000830152610a7a8184610893565b905092915050565b60006060820190508181036000830152610a9c8186610893565b9050610aab6020830185610884565b610ab86040830184610884565b949350505050565b6000610aca610adb565b9050610ad68282610bed565b919050565b6000604051905090565b600067ffffffffffffffff821115610b0057610aff610c4d565b5b610b0982610c90565b9050602081019050919050565b60008190508160005260206000209050919050565b600081519050919050565b600082825260208201905092915050565b6000610b5282610b59565b9050919050565b600073ffffffffffffffffffffffffffffffffffffffff82169050919050565b82818337600083830152505050565b60005b83811015610ba6578082015181840152602081019050610b8b565b83811115610bb5576000848401525b50505050565b60006002820490506001821680610bd357607f821691505b60208210811415610be757610be6610c1e565b5b50919050565b610bf682610c90565b810181811067ffffffffffffffff82111715610c1557610c14610c4d565b5b80604052505050565b7f4e487b7100000000000000000000000000000000000000000000000000000000600052602260045260246000fd5b7f4e487b7100000000000000000000000000000000000000000000000000000000600052604160045260246000fd5b600080fd5b600080fd5b600080fd5b600080fd5b6000601f19601f8301169050919050565b7f5072696d61727920436172652050726f76696465720000000000000000000000600082015250565b7f67757074612e70656469617472696373404d656469547261636b2e7465636800600082015250565b610cfc81610b47565b8114610d0757600080fd5b5056fea264697066735822122007843b1bae7bf843bdcf3f155de19510cafc1c7627a6b5ffb2126a1461aea24964736f6c63430008070033",
					"opcodes": "PUSH1 0x80 PUSH1 0x40 MSTORE CALLVALUE DUP1 ISZERO PUSH3 0x11 JUMPI PUSH1 0x0 DUP1 REVERT JUMPDEST POP PUSH1 0x40 MLOAD PUSH3 0x10EA CODESIZE SUB DUP1 PUSH3 0x10EA DUP4 CODECOPY DUP2 DUP2 ADD PUSH1 0x40 MSTORE DUP2 ADD SWAP1 PUSH3 0x37 SWAP2 SWAP1 PUSH3 0x1C5 JUMP JUMPDEST CALLER PUSH1 0x0 DUP1 PUSH2 0x100 EXP DUP2 SLOAD DUP2 PUSH20 0xFFFFFFFFFFFFFFFFFFFFFFFFFFFFFFFFFFFFFFFF MUL NOT AND SWAP1 DUP4 PUSH20 0xFFFFFFFFFFFFFFFFFFFFFFFFFFFFFFFFFFFFFFFF AND MUL OR SWAP1 SSTORE POP DUP1 PUSH1 0x1 SWAP1 DUP1 MLOAD SWAP1 PUSH1 0x20 ADD SWAP1 PUSH3 0x8F SWAP3 SWAP2 SWAP1 PUSH3 0x97 JUMP JUMPDEST POP POP PUSH3 0x39A JUMP JUMPDEST DUP3 DUP1 SLOAD PUSH3 0xA5 SWAP1 PUSH3 0x2AB JUMP JUMPDEST SWAP1 PUSH1 0x0 MSTORE PUSH1 0x20 PUSH1 0x0 KECCAK256 SWAP1 PUSH1 0x1F ADD PUSH1 0x20 SWAP1 DIV DUP2 ADD SWAP3 DUP3 PUSH3 0xC9 JUMPI PUSH1 0x0 DUP6 SSTORE PUSH3 0x115 JUMP JUMPDEST DUP3 PUSH1 0x1F LT PUSH3 0xE4 JUMPI DUP1 MLOAD PUSH1 0xFF NOT AND DUP4 DUP1 ADD OR DUP6 SSTORE PUSH3 0x115 JUMP JUMPDEST DUP3 DUP1 ADD PUSH1 0x1 ADD DUP6 SSTORE DUP3 ISZERO PUSH3 0x115 JUMPI SWAP2 DUP3 ADD JUMPDEST DUP3 DUP2 GT ISZERO PUSH3 0x114 JUMPI DUP3 MLOAD DUP3 SSTORE SWAP2 PUSH1 0x20 ADD SWAP2 SWAP1 PUSH1 0x1 ADD SWAP1 PUSH3 0xF7 JUMP JUMPDEST JUMPDEST POP SWAP1 POP PUSH3 0x124 SWAP2 SWAP1 PUSH3 0x128 JUMP JUMPDEST POP SWAP1 JUMP JUMPDEST JUMPDEST DUP1 DUP3 GT ISZERO PUSH3 0x143 JUMPI PUSH1 0x0 DUP2 PUSH1 0x0 SWAP1 SSTORE POP PUSH1 0x1 ADD PUSH3 0x129 JUMP JUMPDEST POP SWAP1 JUMP JUMPDEST PUSH1 0x0 PUSH3 0x15E PUSH3 0x158 DUP5 PUSH3 0x23F JUMP JUMPDEST PUSH3 0x216 JUMP JUMPDEST SWAP1 POP DUP3 DUP2 MSTORE PUSH1 0x20 DUP2 ADD DUP5 DUP5 DUP5 ADD GT ISZERO PUSH3 0x17D JUMPI PUSH3 0x17C PUSH3 0x37A JUMP JUMPDEST JUMPDEST PUSH3 0x18A DUP5 DUP3 DUP6 PUSH3 0x275 JUMP JUMPDEST POP SWAP4 SWAP3 POP POP POP JUMP JUMPDEST PUSH1 0x0 DUP3 PUSH1 0x1F DUP4 ADD SLT PUSH3 0x1AA JUMPI PUSH3 0x1A9 PUSH3 0x375 JUMP JUMPDEST JUMPDEST DUP2 MLOAD PUSH3 0x1BC DUP5 DUP3 PUSH1 0x20 DUP7 ADD PUSH3 0x147 JUMP JUMPDEST SWAP2 POP POP SWAP3 SWAP2 POP POP JUMP JUMPDEST PUSH1 0x0 PUSH1 0x20 DUP3 DUP5 SUB SLT ISZERO PUSH3 0x1DE JUMPI PUSH3 0x1DD PUSH3 0x384 JUMP JUMPDEST JUMPDEST PUSH1 0x0 DUP3 ADD MLOAD PUSH8 0xFFFFFFFFFFFFFFFF DUP2 GT ISZERO PUSH3 0x1FF JUMPI PUSH3 0x1FE PUSH3 0x37F JUMP JUMPDEST JUMPDEST PUSH3 0x20D DUP5 DUP3 DUP6 ADD PUSH3 0x192 JUMP JUMPDEST SWAP2 POP POP SWAP3 SWAP2 POP POP JUMP JUMPDEST PUSH1 0x0 PUSH3 0x222 PUSH3 0x235 JUMP JUMPDEST SWAP1 POP PUSH3 0x230 DUP3 DUP3 PUSH3 0x2E1 JUMP JUMPDEST SWAP2 SWAP1 POP JUMP JUMPDEST PUSH1 0x0 PUSH1 0x40 MLOAD SWAP1 POP SWAP1 JUMP JUMPDEST PUSH1 0x0 PUSH8 0xFFFFFFFFFFFFFFFF DUP3 GT ISZERO PUSH3 0x25D JUMPI PUSH3 0x25C PUSH3 0x346 JUMP JUMPDEST JUMPDEST PUSH3 0x268 DUP3 PUSH3 0x389 JUMP JUMPDEST SWAP1 POP PUSH1 0x20 DUP2 ADD SWAP1 POP SWAP2 SWAP1 POP JUMP JUMPDEST PUSH1 0x0 JUMPDEST DUP4 DUP2 LT ISZERO PUSH3 0x295 JUMPI DUP1 DUP3 ADD MLOAD DUP2 DUP5 ADD MSTORE PUSH1 0x20 DUP2 ADD SWAP1 POP PUSH3 0x278 JUMP JUMPDEST DUP4 DUP2 GT ISZERO PUSH3 0x2A5 JUMPI PUSH1 0x0 DUP5 DUP5 ADD MSTORE JUMPDEST POP POP POP POP JUMP JUMPDEST PUSH1 0x0 PUSH1 0x2 DUP3 DIV SWAP1 POP PUSH1 0x1 DUP3 AND DUP1 PUSH3 0x2C4 JUMPI PUSH1 0x7F DUP3 AND SWAP2 POP JUMPDEST PUSH1 0x20 DUP3 LT DUP2 EQ ISZERO PUSH3 0x2DB JUMPI PUSH3 0x2DA PUSH3 0x317 JUMP JUMPDEST JUMPDEST POP SWAP2 SWAP1 POP JUMP JUMPDEST PUSH3 0x2EC DUP3 PUSH3 0x389 JUMP JUMPDEST DUP2 ADD DUP2 DUP2 LT PUSH8 0xFFFFFFFFFFFFFFFF DUP3 GT OR ISZERO PUSH3 0x30E JUMPI PUSH3 0x30D PUSH3 0x346 JUMP JUMPDEST JUMPDEST DUP1 PUSH1 0x40 MSTORE POP POP POP JUMP JUMPDEST PUSH32 0x4E487B7100000000000000000000000000000000000000000000000000000000 PUSH1 0x0 MSTORE PUSH1 0x22 PUSH1 0x4 MSTORE PUSH1 0x24 PUSH1 0x0 REVERT JUMPDEST PUSH32 0x4E487B7100000000000000000000000000000000000000000000000000000000 PUSH1 0x0 MSTORE PUSH1 0x41 PUSH1 0x4 MSTORE PUSH1 0x24 PUSH1 0x0 REVERT JUMPDEST PUSH1 0x0 DUP1 REVERT JUMPDEST PUSH1 0x0 DUP1 REVERT JUMPDEST PUSH1 0x0 DUP1 REVERT JUMPDEST PUSH1 0x0 DUP1 REVERT JUMPDEST PUSH1 0x0 PUSH1 0x1F NOT PUSH1 0x1F DUP4 ADD AND SWAP1 POP SWAP2 SWAP1 POP JUMP JUMPDEST PUSH2 0xD40 DUP1 PUSH3 0x3AA PUSH1 0x0 CODECOPY PUSH1 0x0 RETURN INVALID PUSH1 0x80 PUSH1 0x40 MSTORE CALLVALUE DUP1 ISZERO PUSH2 0x10 JUMPI PUSH1 0x0 DUP1 REVERT JUMPDEST POP PUSH1 0x4 CALLDATASIZE LT PUSH2 0x7D JUMPI PUSH1 0x0 CALLDATALOAD PUSH1 0xE0 SHR DUP1 PUSH4 0x32A2C5D0 GT PUSH2 0x5B JUMPI DUP1 PUSH4 0x32A2C5D0 EQ PUSH2 0xEE JUMPI DUP1 PUSH4 0x8DA5CB5B EQ PUSH2 0x10C JUMPI DUP1 PUSH4 0xC05FB890 EQ PUSH2 0x12A JUMPI DUP1 PUSH4 0xD85C9481 EQ PUSH2 0x146 JUMPI PUSH2 0x7D JUMP JUMPDEST DUP1 PUSH4 0x6FDDE03 EQ PUSH2 0x82 JUMPI DUP1 PUSH4 0x869CFBC EQ PUSH2 0xA0 JUMPI DUP1 PUSH4 0x26257B8E EQ PUSH2 0xD2 JUMPI JUMPDEST PUSH1 0x0 DUP1 REVERT JUMPDEST PUSH2 0x8A PUSH2 0x164 JUMP JUMPDEST PUSH1 0x40 MLOAD PUSH2 0x97 SWAP2 SWAP1 PUSH2 0xA60 JUMP JUMPDEST PUSH1 0x40 MLOAD DUP1 SWAP2 SUB SWAP1 RETURN JUMPDEST PUSH2 0xBA PUSH1 0x4 DUP1 CALLDATASIZE SUB DUP2 ADD SWAP1 PUSH2 0xB5 SWAP2 SWAP1 PUSH2 0x707 JUMP JUMPDEST PUSH2 0x1F2 JUMP JUMPDEST PUSH1 0x40 MLOAD PUSH2 0xC9 SWAP4 SWAP3 SWAP2 SWAP1 PUSH2 0xA82 JUMP JUMPDEST PUSH1 0x40 MLOAD DUP1 SWAP2 SUB SWAP1 RETURN JUMPDEST PUSH2 0xEC PUSH1 0x4 DUP1 CALLDATASIZE SUB DUP2 ADD SWAP1 PUSH2 0xE7 SWAP2 SWAP1 PUSH2 0x7A3 JUMP JUMPDEST PUSH2 0x2E4 JUMP JUMPDEST STOP JUMPDEST PUSH2 0xF6 PUSH2 0x3EC JUMP JUMPDEST PUSH1 0x40 MLOAD PUSH2 0x103 SWAP2 SWAP1 PUSH2 0x992 JUMP JUMPDEST PUSH1 0x40 MLOAD DUP1 SWAP2 SUB SWAP1 RETURN JUMPDEST PUSH2 0x114 PUSH2 0x456 JUMP JUMPDEST PUSH1 0x40 MLOAD PUSH2 0x121 SWAP2 SWAP1 PUSH2 0x992 JUMP JUMPDEST PUSH1 0x40 MLOAD DUP1 SWAP2 SUB SWAP1 RETURN JUMPDEST PUSH2 0x144 PUSH1 0x4 DUP1 CALLDATASIZE SUB DUP2 ADD SWAP1 PUSH2 0x13F SWAP2 SWAP1 PUSH2 0x734 JUMP JUMPDEST PUSH2 0x47A JUMP JUMPDEST STOP JUMPDEST PUSH2 0x14E PUSH2 0x5B9 JUMP JUMPDEST PUSH1 0x40 MLOAD PUSH2 0x15B SWAP2 SWAP1 PUSH2 0x992 JUMP JUMPDEST PUSH1 0x40 MLOAD DUP1 SWAP2 SUB SWAP1 RETURN JUMPDEST PUSH1 0x1 DUP1 SLOAD PUSH2 0x171 SWAP1 PUSH2 0xBBB JUMP JUMPDEST DUP1 PUSH1 0x1F ADD PUSH1 0x20 DUP1 SWAP2 DIV MUL PUSH1 0x20 ADD PUSH1 0x40 MLOAD SWAP1 DUP2 ADD PUSH1 0x40 MSTORE DUP1 SWAP3 SWAP2 SWAP1 DUP2 DUP2 MSTORE PUSH1 0x20 ADD DUP3 DUP1 SLOAD PUSH2 0x19D SWAP1 PUSH2 0xBBB JUMP JUMPDEST DUP1 ISZERO PUSH2 0x1EA JUMPI DUP1 PUSH1 0x1F LT PUSH2 0x1BF JUMPI PUSH2 0x100 DUP1 DUP4 SLOAD DIV MUL DUP4 MSTORE SWAP2 PUSH1 0x20 ADD SWAP2 PUSH2 0x1EA JUMP JUMPDEST DUP3 ADD SWAP2 SWAP1 PUSH1 0x0 MSTORE PUSH1 0x20 PUSH1 0x0 KECCAK256 SWAP1 JUMPDEST DUP2 SLOAD DUP2 MSTORE SWAP1 PUSH1 0x1 ADD SWAP1 PUSH1 0x20 ADD DUP1 DUP4 GT PUSH2 0x1CD JUMPI DUP3 SWAP1 SUB PUSH1 0x1F AND DUP3 ADD SWAP2 JUMPDEST POP POP POP POP POP DUP2 JUMP JUMPDEST PUSH1 0x3 PUSH1 0x20 MSTORE DUP1 PUSH1 0x0 MSTORE PUSH1 0x40 PUSH1 0x0 KECCAK256 PUSH1 0x0 SWAP2 POP SWAP1 POP DUP1 PUSH1 0x0 ADD DUP1 SLOAD PUSH2 0x215 SWAP1 PUSH2 0xBBB JUMP JUMPDEST DUP1 PUSH1 0x1F ADD PUSH1 0x20 DUP1 SWAP2 DIV MUL PUSH1 0x20 ADD PUSH1 0x40 MLOAD SWAP1 DUP2 ADD PUSH1 0x40 MSTORE DUP1 SWAP3 SWAP2 SWAP1 DUP2 DUP2 MSTORE PUSH1 0x20 ADD DUP3 DUP1 SLOAD PUSH2 0x241 SWAP1 PUSH2 0xBBB JUMP JUMPDEST DUP1 ISZERO PUSH2 0x28E JUMPI DUP1 PUSH1 0x1F LT PUSH2 0x263 JUMPI PUSH2 0x100 DUP1 DUP4 SLOAD DIV MUL DUP4 MSTORE SWAP2 PUSH1 0x20 ADD SWAP2 PUSH2 0x28E JUMP JUMPDEST DUP3 ADD SWAP2 SWAP1 PUSH1 0x0 MSTORE PUSH1 0x20 PUSH1 0x0 KECCAK256 SWAP1 JUMPDEST DUP2 SLOAD DUP2 MSTORE SWAP1 PUSH1 0x1 ADD SWAP1 PUSH1 0x20 ADD DUP1 DUP4 GT PUSH2 0x271 JUMPI DUP3 SWAP1 SUB PUSH1 0x1F AND DUP3 ADD SWAP2 JUMPDEST POP POP POP POP POP SWAP1 DUP1 PUSH1 0x1 ADD PUSH1 0x0 SWAP1 SLOAD SWAP1 PUSH2 0x100 EXP SWAP1 DIV PUSH20 0xFFFFFFFFFFFFFFFFFFFFFFFFFFFFFFFFFFFFFFFF AND SWAP1 DUP1 PUSH1 0x2 ADD PUSH1 0x0 SWAP1 SLOAD SWAP1 PUSH2 0x100 EXP SWAP1 DIV PUSH20 0xFFFFFFFFFFFFFFFFFFFFFFFFFFFFFFFFFFFFFFFF AND SWAP1 POP DUP4 JUMP JUMPDEST PUSH1 0x0 PUSH1 0x3 PUSH1 0x0 DUP9 PUSH20 0xFFFFFFFFFFFFFFFFFFFFFFFFFFFFFFFFFFFFFFFF AND PUSH20 0xFFFFFFFFFFFFFFFFFFFFFFFFFFFFFFFFFFFFFFFF AND DUP2 MSTORE PUSH1 0x20 ADD SWAP1 DUP2 MSTORE PUSH1 0x20 ADD PUSH1 0x0 KECCAK256 PUSH1 0x2 ADD PUSH1 0x0 SWAP1 SLOAD SWAP1 PUSH2 0x100 EXP SWAP1 DIV PUSH20 0xFFFFFFFFFFFFFFFFFFFFFFFFFFFFFFFFFFFFFFFF AND SWAP1 POP DUP1 PUSH20 0xFFFFFFFFFFFFFFFFFFFFFFFFFFFFFFFFFFFFFFFF AND PUSH4 0x5A8BED58 PUSH1 0x0 DUP1 SLOAD SWAP1 PUSH2 0x100 EXP SWAP1 DIV PUSH20 0xFFFFFFFFFFFFFFFFFFFFFFFFFFFFFFFFFFFFFFFF AND PUSH1 0x1 DUP10 DUP10 DUP10 DUP10 DUP10 PUSH1 0x40 MLOAD DUP9 PUSH4 0xFFFFFFFF AND PUSH1 0xE0 SHL DUP2 MSTORE PUSH1 0x4 ADD PUSH2 0x3B1 SWAP8 SWAP7 SWAP6 SWAP5 SWAP4 SWAP3 SWAP2 SWAP1 PUSH2 0x9AD JUMP JUMPDEST PUSH1 0x0 PUSH1 0x40 MLOAD DUP1 DUP4 SUB DUP2 PUSH1 0x0 DUP8 DUP1 EXTCODESIZE ISZERO DUP1 ISZERO PUSH2 0x3CB JUMPI PUSH1 0x0 DUP1 REVERT JUMPDEST POP GAS CALL ISZERO DUP1 ISZERO PUSH2 0x3DF JUMPI RETURNDATASIZE PUSH1 0x0 DUP1 RETURNDATACOPY RETURNDATASIZE PUSH1 0x0 REVERT JUMPDEST POP POP POP POP POP POP POP POP POP POP POP JUMP JUMPDEST PUSH1 0x0 PUSH1 0x3 PUSH1 0x0 CALLER PUSH20 0xFFFFFFFFFFFFFFFFFFFFFFFFFFFFFFFFFFFFFFFF AND PUSH20 0xFFFFFFFFFFFFFFFFFFFFFFFFFFFFFFFFFFFFFFFF AND DUP2 MSTORE PUSH1 0x20 ADD SWAP1 DUP2 MSTORE PUSH1 0x20 ADD PUSH1 0x0 KECCAK256 PUSH1 0x2 ADD PUSH1 0x0 SWAP1 SLOAD SWAP1 PUSH2 0x100 EXP SWAP1 DIV PUSH20 0xFFFFFFFFFFFFFFFFFFFFFFFFFFFFFFFFFFFFFFFF AND SWAP1 POP SWAP1 JUMP JUMPDEST PUSH1 0x0 DUP1 SLOAD SWAP1 PUSH2 0x100 EXP SWAP1 DIV PUSH20 0xFFFFFFFFFFFFFFFFFFFFFFFFFFFFFFFFFFFFFFFF AND DUP2 JUMP JUMPDEST PUSH1 0x0 PUSH1 0x40 MLOAD DUP1 PUSH1 0x60 ADD PUSH1 0x40 MSTORE DUP1 DUP4 DUP2 MSTORE PUSH1 0x20 ADD DUP6 PUSH20 0xFFFFFFFFFFFFFFFFFFFFFFFFFFFFFFFFFFFFFFFF AND DUP2 MSTORE PUSH1 0x20 ADD DUP5 PUSH20 0xFFFFFFFFFFFFFFFFFFFFFFFFFFFFFFFFFFFFFFFF AND DUP2 MSTORE POP SWAP1 POP DUP1 PUSH1 0x3 PUSH1 0x0 DUP7 PUSH20 0xFFFFFFFFFFFFFFFFFFFFFFFFFFFFFFFFFFFFFFFF AND PUSH20 0xFFFFFFFFFFFFFFFFFFFFFFFFFFFFFFFFFFFFFFFF AND DUP2 MSTORE PUSH1 0x20 ADD SWAP1 DUP2 MSTORE PUSH1 0x20 ADD PUSH1 0x0 KECCAK256 PUSH1 0x0 DUP3 ADD MLOAD DUP2 PUSH1 0x0 ADD SWAP1 DUP1 MLOAD SWAP1 PUSH1 0x20 ADD SWAP1 PUSH2 0x521 SWAP3 SWAP2 SWAP1 PUSH2 0x5DF JUMP JUMPDEST POP PUSH1 0x20 DUP3 ADD MLOAD DUP2 PUSH1 0x1 ADD PUSH1 0x0 PUSH2 0x100 EXP DUP2 SLOAD DUP2 PUSH20 0xFFFFFFFFFFFFFFFFFFFFFFFFFFFFFFFFFFFFFFFF MUL NOT AND SWAP1 DUP4 PUSH20 0xFFFFFFFFFFFFFFFFFFFFFFFFFFFFFFFFFFFFFFFF AND MUL OR SWAP1 SSTORE POP PUSH1 0x40 DUP3 ADD MLOAD DUP2 PUSH1 0x2 ADD PUSH1 0x0 PUSH2 0x100 EXP DUP2 SLOAD DUP2 PUSH20 0xFFFFFFFFFFFFFFFFFFFFFFFFFFFFFFFFFFFFFFFF MUL NOT AND SWAP1 DUP4 PUSH20 0xFFFFFFFFFFFFFFFFFFFFFFFFFFFFFFFFFFFFFFFF AND MUL OR SWAP1 SSTORE POP SWAP1 POP POP POP POP POP POP JUMP JUMPDEST PUSH1 0x2 PUSH1 0x0 SWAP1 SLOAD SWAP1 PUSH2 0x100 EXP SWAP1 DIV PUSH20 0xFFFFFFFFFFFFFFFFFFFFFFFFFFFFFFFFFFFFFFFF AND DUP2 JUMP JUMPDEST DUP3 DUP1 SLOAD PUSH2 0x5EB SWAP1 PUSH2 0xBBB JUMP JUMPDEST SWAP1 PUSH1 0x0 MSTORE PUSH1 0x20 PUSH1 0x0 KECCAK256 SWAP1 PUSH1 0x1F ADD PUSH1 0x20 SWAP1 DIV DUP2 ADD SWAP3 DUP3 PUSH2 0x60D JUMPI PUSH1 0x0 DUP6 SSTORE PUSH2 0x654 JUMP JUMPDEST DUP3 PUSH1 0x1F LT PUSH2 0x626 JUMPI DUP1 MLOAD PUSH1 0xFF NOT AND DUP4 DUP1 ADD OR DUP6 SSTORE PUSH2 0x654 JUMP JUMPDEST DUP3 DUP1 ADD PUSH1 0x1 ADD DUP6 SSTORE DUP3 ISZERO PUSH2 0x654 JUMPI SWAP2 DUP3 ADD JUMPDEST DUP3 DUP2 GT ISZERO PUSH2 0x653 JUMPI DUP3 MLOAD DUP3 SSTORE SWAP2 PUSH1 0x20 ADD SWAP2 SWAP1 PUSH1 0x1 ADD SWAP1 PUSH2 0x638 JUMP JUMPDEST JUMPDEST POP SWAP1 POP PUSH2 0x661 SWAP2 SWAP1 PUSH2 0x665 JUMP JUMPDEST POP SWAP1 JUMP JUMPDEST JUMPDEST DUP1 DUP3 GT ISZERO PUSH2 0x67E JUMPI PUSH1 0x0 DUP2 PUSH1 0x0 SWAP1 SSTORE POP PUSH1 0x1 ADD PUSH2 0x666 JUMP JUMPDEST POP SWAP1 JUMP JUMPDEST PUSH1 0x0 PUSH2 0x695 PUSH2 0x690 DUP5 PUSH2 0xAE5 JUMP JUMPDEST PUSH2 0xAC0 JUMP JUMPDEST SWAP1 POP DUP3 DUP2 MSTORE PUSH1 0x20 DUP2 ADD DUP5 DUP5 DUP5 ADD GT ISZERO PUSH2 0x6B1 JUMPI PUSH2 0x6B0 PUSH2 0xC81 JUMP JUMPDEST JUMPDEST PUSH2 0x6BC DUP5 DUP3 DUP6 PUSH2 0xB79 JUMP JUMPDEST POP SWAP4 SWAP3 POP POP POP JUMP JUMPDEST PUSH1 0x0 DUP2 CALLDATALOAD SWAP1 POP PUSH2 0x6D3 DUP2 PUSH2 0xCF3 JUMP JUMPDEST SWAP3 SWAP2 POP POP JUMP JUMPDEST PUSH1 0x0 DUP3 PUSH1 0x1F DUP4 ADD SLT PUSH2 0x6EE JUMPI PUSH2 0x6ED PUSH2 0xC7C JUMP JUMPDEST JUMPDEST DUP2 CALLDATALOAD PUSH2 0x6FE DUP5 DUP3 PUSH1 0x20 DUP7 ADD PUSH2 0x682 JUMP JUMPDEST SWAP2 POP POP SWAP3 SWAP2 POP POP JUMP JUMPDEST PUSH1 0x0 PUSH1 0x20 DUP3 DUP5 SUB SLT ISZERO PUSH2 0x71D JUMPI PUSH2 0x71C PUSH2 0xC8B JUMP JUMPDEST JUMPDEST PUSH1 0x0 PUSH2 0x72B DUP5 DUP3 DUP6 ADD PUSH2 0x6C4 JUMP JUMPDEST SWAP2 POP POP SWAP3 SWAP2 POP POP JUMP JUMPDEST PUSH1 0x0 DUP1 PUSH1 0x0 PUSH1 0x60 DUP5 DUP7 SUB SLT ISZERO PUSH2 0x74D JUMPI PUSH2 0x74C PUSH2 0xC8B JUMP JUMPDEST JUMPDEST PUSH1 0x0 PUSH2 0x75B DUP7 DUP3 DUP8 ADD PUSH2 0x6C4 JUMP JUMPDEST SWAP4 POP POP PUSH1 0x20 PUSH2 0x76C DUP7 DUP3 DUP8 ADD PUSH2 0x6C4 JUMP JUMPDEST SWAP3 POP POP PUSH1 0x40 DUP5 ADD CALLDATALOAD PUSH8 0xFFFFFFFFFFFFFFFF DUP2 GT ISZERO PUSH2 0x78D JUMPI PUSH2 0x78C PUSH2 0xC86 JUMP JUMPDEST JUMPDEST PUSH2 0x799 DUP7 DUP3 DUP8 ADD PUSH2 0x6D9 JUMP JUMPDEST SWAP2 POP POP SWAP3 POP SWAP3 POP SWAP3 JUMP JUMPDEST PUSH1 0x0 DUP1 PUSH1 0x0 DUP1 PUSH1 0x0 DUP1 PUSH1 0xC0 DUP8 DUP10 SUB SLT ISZERO PUSH2 0x7C0 JUMPI PUSH2 0x7BF PUSH2 0xC8B JUMP JUMPDEST JUMPDEST PUSH1 0x0 PUSH2 0x7CE DUP10 DUP3 DUP11 ADD PUSH2 0x6C4 JUMP JUMPDEST SWAP7 POP POP PUSH1 0x20 PUSH2 0x7DF DUP10 DUP3 DUP11 ADD PUSH2 0x6C4 JUMP JUMPDEST SWAP6 POP POP PUSH1 0x40 DUP8 ADD CALLDATALOAD PUSH8 0xFFFFFFFFFFFFFFFF DUP2 GT ISZERO PUSH2 0x800 JUMPI PUSH2 0x7FF PUSH2 0xC86 JUMP JUMPDEST JUMPDEST PUSH2 0x80C DUP10 DUP3 DUP11 ADD PUSH2 0x6D9 JUMP JUMPDEST SWAP5 POP POP PUSH1 0x60 DUP8 ADD CALLDATALOAD PUSH8 0xFFFFFFFFFFFFFFFF DUP2 GT ISZERO PUSH2 0x82D JUMPI PUSH2 0x82C PUSH2 0xC86 JUMP JUMPDEST JUMPDEST PUSH2 0x839 DUP10 DUP3 DUP11 ADD PUSH2 0x6D9 JUMP JUMPDEST SWAP4 POP POP PUSH1 0x80 DUP8 ADD CALLDATALOAD PUSH8 0xFFFFFFFFFFFFFFFF DUP2 GT ISZERO PUSH2 0x85A JUMPI PUSH2 0x859 PUSH2 0xC86 JUMP JUMPDEST JUMPDEST PUSH2 0x866 DUP10 DUP3 DUP11 ADD PUSH2 0x6D9 JUMP JUMPDEST SWAP3 POP POP PUSH1 0xA0 PUSH2 0x877 DUP10 DUP3 DUP11 ADD PUSH2 0x6C4 JUMP JUMPDEST SWAP2 POP POP SWAP3 SWAP6 POP SWAP3 SWAP6 POP SWAP3 SWAP6 JUMP JUMPDEST PUSH2 0x88D DUP2 PUSH2 0xB47 JUMP JUMPDEST DUP3 MSTORE POP POP JUMP JUMPDEST PUSH1 0x0 PUSH2 0x89E DUP3 PUSH2 0xB2B JUMP JUMPDEST PUSH2 0x8A8 DUP2 DUP6 PUSH2 0xB36 JUMP JUMPDEST SWAP4 POP PUSH2 0x8B8 DUP2 DUP6 PUSH1 0x20 DUP7 ADD PUSH2 0xB88 JUMP JUMPDEST PUSH2 0x8C1 DUP2 PUSH2 0xC90 JUMP JUMPDEST DUP5 ADD SWAP2 POP POP SWAP3 SWAP2 POP POP JUMP JUMPDEST PUSH1 0x0 DUP2 SLOAD PUSH2 0x8D9 DUP2 PUSH2 0xBBB JUMP JUMPDEST PUSH2 0x8E3 DUP2 DUP7 PUSH2 0xB36 JUMP JUMPDEST SWAP5 POP PUSH1 0x1 DUP3 AND PUSH1 0x0 DUP2 EQ PUSH2 0x8FE JUMPI PUSH1 0x1 DUP2 EQ PUSH2 0x910 JUMPI PUSH2 0x943 JUMP JUMPDEST PUSH1 0xFF NOT DUP4 AND DUP7 MSTORE PUSH1 0x20 DUP7 ADD SWAP4 POP PUSH2 0x943 JUMP JUMPDEST PUSH2 0x919 DUP6 PUSH2 0xB16 JUMP JUMPDEST PUSH1 0x0 JUMPDEST DUP4 DUP2 LT ISZERO PUSH2 0x93B JUMPI DUP2 SLOAD DUP2 DUP10 ADD MSTORE PUSH1 0x1 DUP3 ADD SWAP2 POP PUSH1 0x20 DUP2 ADD SWAP1 POP PUSH2 0x91C JUMP JUMPDEST DUP1 DUP9 ADD SWAP6 POP POP POP JUMPDEST POP POP POP SWAP3 SWAP2 POP POP JUMP JUMPDEST PUSH1 0x0 PUSH2 0x959 PUSH1 0x15 DUP4 PUSH2 0xB36 JUMP JUMPDEST SWAP2 POP PUSH2 0x964 DUP3 PUSH2 0xCA1 JUMP JUMPDEST PUSH1 0x20 DUP3 ADD SWAP1 POP SWAP2 SWAP1 POP JUMP JUMPDEST PUSH1 0x0 PUSH2 0x97C PUSH1 0x1F DUP4 PUSH2 0xB36 JUMP JUMPDEST SWAP2 POP PUSH2 0x987 DUP3 PUSH2 0xCCA JUMP JUMPDEST PUSH1 0x20 DUP3 ADD SWAP1 POP SWAP2 SWAP1 POP JUMP JUMPDEST PUSH1 0x0 PUSH1 0x20 DUP3 ADD SWAP1 POP PUSH2 0x9A7 PUSH1 0x0 DUP4 ADD DUP5 PUSH2 0x884 JUMP JUMPDEST SWAP3 SWAP2 POP POP JUMP JUMPDEST PUSH1 0x0 PUSH2 0x120 DUP3 ADD SWAP1 POP PUSH2 0x9C3 PUSH1 0x0 DUP4 ADD DUP11 PUSH2 0x884 JUMP JUMPDEST DUP2 DUP2 SUB PUSH1 0x20 DUP4 ADD MSTORE PUSH2 0x9D5 DUP2 DUP10 PUSH2 0x8CC JUMP JUMPDEST SWAP1 POP DUP2 DUP2 SUB PUSH1 0x40 DUP4 ADD MSTORE PUSH2 0x9E8 DUP2 PUSH2 0x94C JUMP JUMPDEST SWAP1 POP DUP2 DUP2 SUB PUSH1 0x60 DUP4 ADD MSTORE PUSH2 0x9FB DUP2 PUSH2 0x96F JUMP JUMPDEST SWAP1 POP PUSH2 0xA0A PUSH1 0x80 DUP4 ADD DUP9 PUSH2 0x884 JUMP JUMPDEST DUP2 DUP2 SUB PUSH1 0xA0 DUP4 ADD MSTORE PUSH2 0xA1C DUP2 DUP8 PUSH2 0x893 JUMP JUMPDEST SWAP1 POP DUP2 DUP2 SUB PUSH1 0xC0 DUP4 ADD MSTORE PUSH2 0xA30 DUP2 DUP7 PUSH2 0x893 JUMP JUMPDEST SWAP1 POP DUP2 DUP2 SUB PUSH1 0xE0 DUP4 ADD MSTORE PUSH2 0xA44 DUP2 DUP6 PUSH2 0x893 JUMP JUMPDEST SWAP1 POP PUSH2 0xA54 PUSH2 0x100 DUP4 ADD DUP5 PUSH2 0x884 JUMP JUMPDEST SWAP9 SWAP8 POP POP POP POP POP POP POP POP JUMP JUMPDEST PUSH1 0x0 PUSH1 0x20 DUP3 ADD SWAP1 POP DUP2 DUP2 SUB PUSH1 0x0 DUP4 ADD MSTORE PUSH2 0xA7A DUP2 DUP5 PUSH2 0x893 JUMP JUMPDEST SWAP1 POP SWAP3 SWAP2 POP POP JUMP JUMPDEST PUSH1 0x0 PUSH1 0x60 DUP3 ADD SWAP1 POP DUP2 DUP2 SUB PUSH1 0x0 DUP4 ADD MSTORE PUSH2 0xA9C DUP2 DUP7 PUSH2 0x893 JUMP JUMPDEST SWAP1 POP PUSH2 0xAAB PUSH1 0x20 DUP4 ADD DUP6 PUSH2 0x884 JUMP JUMPDEST PUSH2 0xAB8 PUSH1 0x40 DUP4 ADD DUP5 PUSH2 0x884 JUMP JUMPDEST SWAP5 SWAP4 POP POP POP POP JUMP JUMPDEST PUSH1 0x0 PUSH2 0xACA PUSH2 0xADB JUMP JUMPDEST SWAP1 POP PUSH2 0xAD6 DUP3 DUP3 PUSH2 0xBED JUMP JUMPDEST SWAP2 SWAP1 POP JUMP JUMPDEST PUSH1 0x0 PUSH1 0x40 MLOAD SWAP1 POP SWAP1 JUMP JUMPDEST PUSH1 0x0 PUSH8 0xFFFFFFFFFFFFFFFF DUP3 GT ISZERO PUSH2 0xB00 JUMPI PUSH2 0xAFF PUSH2 0xC4D JUMP JUMPDEST JUMPDEST PUSH2 0xB09 DUP3 PUSH2 0xC90 JUMP JUMPDEST SWAP1 POP PUSH1 0x20 DUP2 ADD SWAP1 POP SWAP2 SWAP1 POP JUMP JUMPDEST PUSH1 0x0 DUP2 SWAP1 POP DUP2 PUSH1 0x0 MSTORE PUSH1 0x20 PUSH1 0x0 KECCAK256 SWAP1 POP SWAP2 SWAP1 POP JUMP JUMPDEST PUSH1 0x0 DUP2 MLOAD SWAP1 POP SWAP2 SWAP1 POP JUMP JUMPDEST PUSH1 0x0 DUP3 DUP3 MSTORE PUSH1 0x20 DUP3 ADD SWAP1 POP SWAP3 SWAP2 POP POP JUMP JUMPDEST PUSH1 0x0 PUSH2 0xB52 DUP3 PUSH2 0xB59 JUMP JUMPDEST SWAP1 POP SWAP2 SWAP1 POP JUMP JUMPDEST PUSH1 0x0 PUSH20 0xFFFFFFFFFFFFFFFFFFFFFFFFFFFFFFFFFFFFFFFF DUP3 AND SWAP1 POP SWAP2 SWAP1 POP JUMP JUMPDEST DUP3 DUP2 DUP4 CALLDATACOPY PUSH1 0x0 DUP4 DUP4 ADD MSTORE POP POP POP JUMP JUMPDEST PUSH1 0x0 JUMPDEST DUP4 DUP2 LT ISZERO PUSH2 0xBA6 JUMPI DUP1 DUP3 ADD MLOAD DUP2 DUP5 ADD MSTORE PUSH1 0x20 DUP2 ADD SWAP1 POP PUSH2 0xB8B JUMP JUMPDEST DUP4 DUP2 GT ISZERO PUSH2 0xBB5 JUMPI PUSH1 0x0 DUP5 DUP5 ADD MSTORE JUMPDEST POP POP POP POP JUMP JUMPDEST PUSH1 0x0 PUSH1 0x2 DUP3 DIV SWAP1 POP PUSH1 0x1 DUP3 AND DUP1 PUSH2 0xBD3 JUMPI PUSH1 0x7F DUP3 AND SWAP2 POP JUMPDEST PUSH1 0x20 DUP3 LT DUP2 EQ ISZERO PUSH2 0xBE7 JUMPI PUSH2 0xBE6 PUSH2 0xC1E JUMP JUMPDEST JUMPDEST POP SWAP2 SWAP1 POP JUMP JUMPDEST PUSH2 0xBF6 DUP3 PUSH2 0xC90 JUMP JUMPDEST DUP2 ADD DUP2 DUP2 LT PUSH8 0xFFFFFFFFFFFFFFFF DUP3 GT OR ISZERO PUSH2 0xC15 JUMPI PUSH2 0xC14 PUSH2 0xC4D JUMP JUMPDEST JUMPDEST DUP1 PUSH1 0x40 MSTORE POP POP POP JUMP JUMPDEST PUSH32 0x4E487B7100000000000000000000000000000000000000000000000000000000 PUSH1 0x0 MSTORE PUSH1 0x22 PUSH1 0x4 MSTORE PUSH1 0x24 PUSH1 0x0 REVERT JUMPDEST PUSH32 0x4E487B7100000000000000000000000000000000000000000000000000000000 PUSH1 0x0 MSTORE PUSH1 0x41 PUSH1 0x4 MSTORE PUSH1 0x24 PUSH1 0x0 REVERT JUMPDEST PUSH1 0x0 DUP1 REVERT JUMPDEST PUSH1 0x0 DUP1 REVERT JUMPDEST PUSH1 0x0 DUP1 REVERT JUMPDEST PUSH1 0x0 DUP1 REVERT JUMPDEST PUSH1 0x0 PUSH1 0x1F NOT PUSH1 0x1F DUP4 ADD AND SWAP1 POP SWAP2 SWAP1 POP JUMP JUMPDEST PUSH32 0x5072696D61727920436172652050726F76696465720000000000000000000000 PUSH1 0x0 DUP3 ADD MSTORE POP JUMP JUMPDEST PUSH32 0x67757074612E70656469617472696373404D656469547261636B2E7465636800 PUSH1 0x0 DUP3 ADD MSTORE POP JUMP JUMPDEST PUSH2 0xCFC DUP2 PUSH2 0xB47 JUMP JUMPDEST DUP2 EQ PUSH2 0xD07 JUMPI PUSH1 0x0 DUP1 REVERT JUMPDEST POP JUMP INVALID LOG2 PUSH5 0x6970667358 0x22 SLT KECCAK256 SMOD DUP5 EXTCODESIZE SHL 0xAE PUSH28 0xF843BDCF3F155DE19510CAFC1C7627A6B5FFB2126A1461AEA2496473 PUSH16 0x6C634300080700330000000000000000 "
				},
				"gasEstimates": {
					"creation": {
						"codeDepositCost": "678400",
						"executionCost": "infinite",
						"totalCost": "infinite"
					},
					"external": {
						"addPatient(address,address,string)": "infinite",
						"getContractAddress()": "2617",
						"name()": "infinite",
						"owner()": "2533",
						"patientRecord()": "2580",
						"patients(address)": "infinite",
						"sendRecordRequest(address,address,string,string,string,address)": "infinite"
					}
				},
				"methodIdentifiers": {
					"addPatient(address,address,string)": "c05fb890",
					"getContractAddress()": "32a2c5d0",
					"name()": "06fdde03",
					"owner()": "8da5cb5b",
					"patientRecord()": "d85c9481",
					"patients(address)": "0869cfbc",
					"sendRecordRequest(address,address,string,string,string,address)": "26257b8e"
				}
			},
			"storageLayout": {
				"storage": [
					{
						"astId": 190,
						"contract": "/Users/ayushgupta/Downloads/Programming/blocket/blocket-wildcard/smart-contracts/contracts/PrimaryCare.sol:PrimaryCare",
						"label": "owner",
						"offset": 0,
						"slot": "0",
						"type": "t_address"
					},
					{
						"astId": 192,
						"contract": "/Users/ayushgupta/Downloads/Programming/blocket/blocket-wildcard/smart-contracts/contracts/PrimaryCare.sol:PrimaryCare",
						"label": "name",
						"offset": 0,
						"slot": "1",
						"type": "t_string_storage"
					},
					{
						"astId": 194,
						"contract": "/Users/ayushgupta/Downloads/Programming/blocket/blocket-wildcard/smart-contracts/contracts/PrimaryCare.sol:PrimaryCare",
						"label": "patientRecord",
						"offset": 0,
						"slot": "2",
						"type": "t_address"
					},
					{
						"astId": 199,
						"contract": "/Users/ayushgupta/Downloads/Programming/blocket/blocket-wildcard/smart-contracts/contracts/PrimaryCare.sol:PrimaryCare",
						"label": "patients",
						"offset": 0,
						"slot": "3",
						"type": "t_mapping(t_address,t_struct(Patient)206_storage)"
					}
				],
				"types": {
					"t_address": {
						"encoding": "inplace",
						"label": "address",
						"numberOfBytes": "20"
					},
					"t_mapping(t_address,t_struct(Patient)206_storage)": {
						"encoding": "mapping",
						"key": "t_address",
						"label": "mapping(address => struct PrimaryCare.Patient)",
						"numberOfBytes": "32",
						"value": "t_struct(Patient)206_storage"
					},
					"t_string_storage": {
						"encoding": "bytes",
						"label": "string",
						"numberOfBytes": "32"
					},
					"t_struct(Patient)206_storage": {
						"encoding": "inplace",
						"label": "struct PrimaryCare.Patient",
						"members": [
							{
								"astId": 201,
								"contract": "/Users/ayushgupta/Downloads/Programming/blocket/blocket-wildcard/smart-contracts/contracts/PrimaryCare.sol:PrimaryCare",
								"label": "name",
								"offset": 0,
								"slot": "0",
								"type": "t_string_storage"
							},
							{
								"astId": 203,
								"contract": "/Users/ayushgupta/Downloads/Programming/blocket/blocket-wildcard/smart-contracts/contracts/PrimaryCare.sol:PrimaryCare",
								"label": "patient",
								"offset": 0,
								"slot": "1",
								"type": "t_address"
							},
							{
								"astId": 205,
								"contract": "/Users/ayushgupta/Downloads/Programming/blocket/blocket-wildcard/smart-contracts/contracts/PrimaryCare.sol:PrimaryCare",
								"label": "patientContract",
								"offset": 0,
								"slot": "2",
								"type": "t_address"
							}
						],
						"numberOfBytes": "96"
					}
				}
			},
			"userdoc": {
				"kind": "user",
				"methods": {},
				"version": 1
			}
		}
	}
}