{
	"Downloads/Programming/blocket-wildcard/apps/smart-contracts/src/RecordInterface.sol": {
		"RecordInterface": {
			"abi": [
				{
					"inputs": [],
					"stateMutability": "nonpayable",
					"type": "constructor"
				},
				{
					"inputs": [
						{
							"internalType": "address",
							"name": "patient",
							"type": "address"
						}
					],
					"name": "getRecord",
					"outputs": [
						{
							"internalType": "string",
							"name": "",
							"type": "string"
						}
					],
					"stateMutability": "view",
					"type": "function"
				},
				{
					"inputs": [],
					"name": "owner",
					"outputs": [
						{
							"internalType": "address",
							"name": "",
							"type": "address"
						}
					],
					"stateMutability": "view",
					"type": "function"
				},
				{
					"inputs": [
						{
							"internalType": "address",
							"name": "",
							"type": "address"
						}
					],
					"name": "recordsRecieved",
					"outputs": [
						{
							"internalType": "string",
							"name": "",
							"type": "string"
						}
					],
					"stateMutability": "view",
					"type": "function"
				},
				{
					"inputs": [
						{
							"internalType": "address",
							"name": "origin",
							"type": "address"
						},
						{
							"internalType": "string",
							"name": "encryptedhash",
							"type": "string"
						}
					],
					"name": "sendRecord",
					"outputs": [],
					"stateMutability": "nonpayable",
					"type": "function"
				}
			],
			"devdoc": {
				"kind": "dev",
				"methods": {},
				"version": 1
			},
			"evm": {
				"assembly": "    /* \"Downloads/Programming/blocket-wildcard/apps/smart-contracts/src/RecordInterface.sol\":69:496  contract RecordInterface {... */\n  mstore(0x40, 0x80)\n    /* \"Downloads/Programming/blocket-wildcard/apps/smart-contracts/src/RecordInterface.sol\":183:232  constructor() {... */\n  callvalue\n  dup1\n  iszero\n  tag_1\n  jumpi\n  0x00\n  dup1\n  revert\ntag_1:\n  pop\n    /* \"Downloads/Programming/blocket-wildcard/apps/smart-contracts/src/RecordInterface.sol\":215:225  msg.sender */\n  caller\n    /* \"Downloads/Programming/blocket-wildcard/apps/smart-contracts/src/RecordInterface.sol\":207:212  owner */\n  0x00\n  dup1\n    /* \"Downloads/Programming/blocket-wildcard/apps/smart-contracts/src/RecordInterface.sol\":207:225  owner = msg.sender */\n  0x0100\n  exp\n  dup2\n  sload\n  dup2\n  0xffffffffffffffffffffffffffffffffffffffff\n  mul\n  not\n  and\n  swap1\n  dup4\n  0xffffffffffffffffffffffffffffffffffffffff\n  and\n  mul\n  or\n  swap1\n  sstore\n  pop\n    /* \"Downloads/Programming/blocket-wildcard/apps/smart-contracts/src/RecordInterface.sol\":69:496  contract RecordInterface {... */\n  dataSize(sub_0)\n  dup1\n  dataOffset(sub_0)\n  0x00\n  codecopy\n  0x00\n  return\nstop\n\nsub_0: assembly {\n        /* \"Downloads/Programming/blocket-wildcard/apps/smart-contracts/src/RecordInterface.sol\":69:496  contract RecordInterface {... */\n      mstore(0x40, 0x80)\n      callvalue\n      dup1\n      iszero\n      tag_1\n      jumpi\n      0x00\n      dup1\n      revert\n    tag_1:\n      pop\n      jumpi(tag_2, lt(calldatasize, 0x04))\n      shr(0xe0, calldataload(0x00))\n      dup1\n      0x106c71a9\n      eq\n      tag_3\n      jumpi\n      dup1\n      0x617fba04\n      eq\n      tag_4\n      jumpi\n      dup1\n      0x8b1838f6\n      eq\n      tag_5\n      jumpi\n      dup1\n      0x8da5cb5b\n      eq\n      tag_6\n      jumpi\n    tag_2:\n      0x00\n      dup1\n      revert\n        /* \"Downloads/Programming/blocket-wildcard/apps/smart-contracts/src/RecordInterface.sol\":238:366  function sendRecord(address origin, string memory encryptedhash) public {... */\n    tag_3:\n      tag_7\n      0x04\n      dup1\n      calldatasize\n      sub\n      dup2\n      add\n      swap1\n      tag_8\n      swap2\n      swap1\n      tag_9\n      jump\t// in\n    tag_8:\n      tag_10\n      jump\t// in\n    tag_7:\n      stop\n        /* \"Downloads/Programming/blocket-wildcard/apps/smart-contracts/src/RecordInterface.sol\":372:494  function getRecord(address patient) public view returns (string memory) {... */\n    tag_4:\n      tag_11\n      0x04\n      dup1\n      calldatasize\n      sub\n      dup2\n      add\n      swap1\n      tag_12\n      swap2\n      swap1\n      tag_13\n      jump\t// in\n    tag_12:\n      tag_14\n      jump\t// in\n    tag_11:\n      mload(0x40)\n      tag_15\n      swap2\n      swap1\n      tag_16\n      jump\t// in\n    tag_15:\n      mload(0x40)\n      dup1\n      swap2\n      sub\n      swap1\n      return\n        /* \"Downloads/Programming/blocket-wildcard/apps/smart-contracts/src/RecordInterface.sol\":127:176  mapping(address => string) public recordsRecieved */\n    tag_5:\n      tag_17\n      0x04\n      dup1\n      calldatasize\n      sub\n      dup2\n      add\n      swap1\n      tag_18\n      swap2\n      swap1\n      tag_13\n      jump\t// in\n    tag_18:\n      tag_19\n      jump\t// in\n    tag_17:\n      mload(0x40)\n      tag_20\n      swap2\n      swap1\n      tag_16\n      jump\t// in\n    tag_20:\n      mload(0x40)\n      dup1\n      swap2\n      sub\n      swap1\n      return\n        /* \"Downloads/Programming/blocket-wildcard/apps/smart-contracts/src/RecordInterface.sol\":100:120  address public owner */\n    tag_6:\n      tag_21\n      tag_22\n      jump\t// in\n    tag_21:\n      mload(0x40)\n      tag_23\n      swap2\n      swap1\n      tag_24\n      jump\t// in\n    tag_23:\n      mload(0x40)\n      dup1\n      swap2\n      sub\n      swap1\n      return\n        /* \"Downloads/Programming/blocket-wildcard/apps/smart-contracts/src/RecordInterface.sol\":238:366  function sendRecord(address origin, string memory encryptedhash) public {... */\n    tag_10:\n        /* \"Downloads/Programming/blocket-wildcard/apps/smart-contracts/src/RecordInterface.sol\":346:359  encryptedhash */\n      dup1\n        /* \"Downloads/Programming/blocket-wildcard/apps/smart-contracts/src/RecordInterface.sol\":320:335  recordsRecieved */\n      0x01\n        /* \"Downloads/Programming/blocket-wildcard/apps/smart-contracts/src/RecordInterface.sol\":320:343  recordsRecieved[origin] */\n      0x00\n        /* \"Downloads/Programming/blocket-wildcard/apps/smart-contracts/src/RecordInterface.sol\":336:342  origin */\n      dup5\n        /* \"Downloads/Programming/blocket-wildcard/apps/smart-contracts/src/RecordInterface.sol\":320:343  recordsRecieved[origin] */\n      0xffffffffffffffffffffffffffffffffffffffff\n      and\n      0xffffffffffffffffffffffffffffffffffffffff\n      and\n      dup2\n      mstore\n      0x20\n      add\n      swap1\n      dup2\n      mstore\n      0x20\n      add\n      0x00\n      keccak256\n        /* \"Downloads/Programming/blocket-wildcard/apps/smart-contracts/src/RecordInterface.sol\":320:359  recordsRecieved[origin] = encryptedhash */\n      swap1\n      dup1\n      mload\n      swap1\n      0x20\n      add\n      swap1\n      tag_26\n      swap3\n      swap2\n      swap1\n      tag_27\n      jump\t// in\n    tag_26:\n      pop\n        /* \"Downloads/Programming/blocket-wildcard/apps/smart-contracts/src/RecordInterface.sol\":238:366  function sendRecord(address origin, string memory encryptedhash) public {... */\n      pop\n      pop\n      jump\t// out\n        /* \"Downloads/Programming/blocket-wildcard/apps/smart-contracts/src/RecordInterface.sol\":372:494  function getRecord(address patient) public view returns (string memory) {... */\n    tag_14:\n        /* \"Downloads/Programming/blocket-wildcard/apps/smart-contracts/src/RecordInterface.sol\":429:442  string memory */\n      0x60\n        /* \"Downloads/Programming/blocket-wildcard/apps/smart-contracts/src/RecordInterface.sol\":462:477  recordsRecieved */\n      0x01\n        /* \"Downloads/Programming/blocket-wildcard/apps/smart-contracts/src/RecordInterface.sol\":462:486  recordsRecieved[patient] */\n      0x00\n        /* \"Downloads/Programming/blocket-wildcard/apps/smart-contracts/src/RecordInterface.sol\":478:485  patient */\n      dup4\n        /* \"Downloads/Programming/blocket-wildcard/apps/smart-contracts/src/RecordInterface.sol\":462:486  recordsRecieved[patient] */\n      0xffffffffffffffffffffffffffffffffffffffff\n      and\n      0xffffffffffffffffffffffffffffffffffffffff\n      and\n      dup2\n      mstore\n      0x20\n      add\n      swap1\n      dup2\n      mstore\n      0x20\n      add\n      0x00\n      keccak256\n        /* \"Downloads/Programming/blocket-wildcard/apps/smart-contracts/src/RecordInterface.sol\":454:487  return (recordsRecieved[patient]) */\n      dup1\n      sload\n      tag_29\n      swap1\n      tag_30\n      jump\t// in\n    tag_29:\n      dup1\n      0x1f\n      add\n      0x20\n      dup1\n      swap2\n      div\n      mul\n      0x20\n      add\n      mload(0x40)\n      swap1\n      dup2\n      add\n      0x40\n      mstore\n      dup1\n      swap3\n      swap2\n      swap1\n      dup2\n      dup2\n      mstore\n      0x20\n      add\n      dup3\n      dup1\n      sload\n      tag_31\n      swap1\n      tag_30\n      jump\t// in\n    tag_31:\n      dup1\n      iszero\n      tag_32\n      jumpi\n      dup1\n      0x1f\n      lt\n      tag_33\n      jumpi\n      0x0100\n      dup1\n      dup4\n      sload\n      div\n      mul\n      dup4\n      mstore\n      swap2\n      0x20\n      add\n      swap2\n      jump(tag_32)\n    tag_33:\n      dup3\n      add\n      swap2\n      swap1\n      0x00\n      mstore\n      keccak256(0x00, 0x20)\n      swap1\n    tag_34:\n      dup2\n      sload\n      dup2\n      mstore\n      swap1\n      0x01\n      add\n      swap1\n      0x20\n      add\n      dup1\n      dup4\n      gt\n      tag_34\n      jumpi\n      dup3\n      swap1\n      sub\n      0x1f\n      and\n      dup3\n      add\n      swap2\n    tag_32:\n      pop\n      pop\n      pop\n      pop\n      pop\n      swap1\n      pop\n        /* \"Downloads/Programming/blocket-wildcard/apps/smart-contracts/src/RecordInterface.sol\":372:494  function getRecord(address patient) public view returns (string memory) {... */\n      swap2\n      swap1\n      pop\n      jump\t// out\n        /* \"Downloads/Programming/blocket-wildcard/apps/smart-contracts/src/RecordInterface.sol\":127:176  mapping(address => string) public recordsRecieved */\n    tag_19:\n      mstore(0x20, 0x01)\n      dup1\n      0x00\n      mstore\n      keccak256(0x00, 0x40)\n      0x00\n      swap2\n      pop\n      swap1\n      pop\n      dup1\n      sload\n      tag_35\n      swap1\n      tag_30\n      jump\t// in\n    tag_35:\n      dup1\n      0x1f\n      add\n      0x20\n      dup1\n      swap2\n      div\n      mul\n      0x20\n      add\n      mload(0x40)\n      swap1\n      dup2\n      add\n      0x40\n      mstore\n      dup1\n      swap3\n      swap2\n      swap1\n      dup2\n      dup2\n      mstore\n      0x20\n      add\n      dup3\n      dup1\n      sload\n      tag_36\n      swap1\n      tag_30\n      jump\t// in\n    tag_36:\n      dup1\n      iszero\n      tag_37\n      jumpi\n      dup1\n      0x1f\n      lt\n      tag_38\n      jumpi\n      0x0100\n      dup1\n      dup4\n      sload\n      div\n      mul\n      dup4\n      mstore\n      swap2\n      0x20\n      add\n      swap2\n      jump(tag_37)\n    tag_38:\n      dup3\n      add\n      swap2\n      swap1\n      0x00\n      mstore\n      keccak256(0x00, 0x20)\n      swap1\n    tag_39:\n      dup2\n      sload\n      dup2\n      mstore\n      swap1\n      0x01\n      add\n      swap1\n      0x20\n      add\n      dup1\n      dup4\n      gt\n      tag_39\n      jumpi\n      dup3\n      swap1\n      sub\n      0x1f\n      and\n      dup3\n      add\n      swap2\n    tag_37:\n      pop\n      pop\n      pop\n      pop\n      pop\n      dup2\n      jump\t// out\n        /* \"Downloads/Programming/blocket-wildcard/apps/smart-contracts/src/RecordInterface.sol\":100:120  address public owner */\n    tag_22:\n      0x00\n      dup1\n      sload\n      swap1\n      0x0100\n      exp\n      swap1\n      div\n      0xffffffffffffffffffffffffffffffffffffffff\n      and\n      dup2\n      jump\t// out\n    tag_27:\n      dup3\n      dup1\n      sload\n      tag_40\n      swap1\n      tag_30\n      jump\t// in\n    tag_40:\n      swap1\n      0x00\n      mstore\n      keccak256(0x00, 0x20)\n      swap1\n      0x1f\n      add\n      0x20\n      swap1\n      div\n      dup2\n      add\n      swap3\n      dup3\n      tag_42\n      jumpi\n      0x00\n      dup6\n      sstore\n      jump(tag_41)\n    tag_42:\n      dup3\n      0x1f\n      lt\n      tag_43\n      jumpi\n      dup1\n      mload\n      not(0xff)\n      and\n      dup4\n      dup1\n      add\n      or\n      dup6\n      sstore\n      jump(tag_41)\n    tag_43:\n      dup3\n      dup1\n      add\n      0x01\n      add\n      dup6\n      sstore\n      dup3\n      iszero\n      tag_41\n      jumpi\n      swap2\n      dup3\n      add\n    tag_44:\n      dup3\n      dup2\n      gt\n      iszero\n      tag_45\n      jumpi\n      dup3\n      mload\n      dup3\n      sstore\n      swap2\n      0x20\n      add\n      swap2\n      swap1\n      0x01\n      add\n      swap1\n      jump(tag_44)\n    tag_45:\n    tag_41:\n      pop\n      swap1\n      pop\n      tag_46\n      swap2\n      swap1\n      tag_47\n      jump\t// in\n    tag_46:\n      pop\n      swap1\n      jump\t// out\n    tag_47:\n    tag_48:\n      dup1\n      dup3\n      gt\n      iszero\n      tag_49\n      jumpi\n      0x00\n      dup2\n      0x00\n      swap1\n      sstore\n      pop\n      0x01\n      add\n      jump(tag_48)\n    tag_49:\n      pop\n      swap1\n      jump\t// out\n        /* \"#utility.yul\":7:419   */\n    tag_51:\n        /* \"#utility.yul\":85:90   */\n      0x00\n        /* \"#utility.yul\":110:176   */\n      tag_53\n        /* \"#utility.yul\":126:175   */\n      tag_54\n        /* \"#utility.yul\":168:174   */\n      dup5\n        /* \"#utility.yul\":126:175   */\n      tag_55\n      jump\t// in\n    tag_54:\n        /* \"#utility.yul\":110:176   */\n      tag_56\n      jump\t// in\n    tag_53:\n        /* \"#utility.yul\":101:176   */\n      swap1\n      pop\n        /* \"#utility.yul\":199:205   */\n      dup3\n        /* \"#utility.yul\":192:197   */\n      dup2\n        /* \"#utility.yul\":185:206   */\n      mstore\n        /* \"#utility.yul\":237:241   */\n      0x20\n        /* \"#utility.yul\":230:235   */\n      dup2\n        /* \"#utility.yul\":226:242   */\n      add\n        /* \"#utility.yul\":275:278   */\n      dup5\n        /* \"#utility.yul\":266:272   */\n      dup5\n        /* \"#utility.yul\":261:264   */\n      dup5\n        /* \"#utility.yul\":257:273   */\n      add\n        /* \"#utility.yul\":254:279   */\n      gt\n        /* \"#utility.yul\":251:363   */\n      iszero\n      tag_57\n      jumpi\n        /* \"#utility.yul\":282:361   */\n      tag_58\n      tag_59\n      jump\t// in\n    tag_58:\n        /* \"#utility.yul\":251:363   */\n    tag_57:\n        /* \"#utility.yul\":372:413   */\n      tag_60\n        /* \"#utility.yul\":406:412   */\n      dup5\n        /* \"#utility.yul\":401:404   */\n      dup3\n        /* \"#utility.yul\":396:399   */\n      dup6\n        /* \"#utility.yul\":372:413   */\n      tag_61\n      jump\t// in\n    tag_60:\n        /* \"#utility.yul\":91:419   */\n      pop\n        /* \"#utility.yul\":7:419   */\n      swap4\n      swap3\n      pop\n      pop\n      pop\n      jump\t// out\n        /* \"#utility.yul\":425:564   */\n    tag_62:\n        /* \"#utility.yul\":471:476   */\n      0x00\n        /* \"#utility.yul\":509:515   */\n      dup2\n        /* \"#utility.yul\":496:516   */\n      calldataload\n        /* \"#utility.yul\":487:516   */\n      swap1\n      pop\n        /* \"#utility.yul\":525:558   */\n      tag_64\n        /* \"#utility.yul\":552:557   */\n      dup2\n        /* \"#utility.yul\":525:558   */\n      tag_65\n      jump\t// in\n    tag_64:\n        /* \"#utility.yul\":425:564   */\n      swap3\n      swap2\n      pop\n      pop\n      jump\t// out\n        /* \"#utility.yul\":584:924   */\n    tag_66:\n        /* \"#utility.yul\":640:645   */\n      0x00\n        /* \"#utility.yul\":689:692   */\n      dup3\n        /* \"#utility.yul\":682:686   */\n      0x1f\n        /* \"#utility.yul\":674:680   */\n      dup4\n        /* \"#utility.yul\":670:687   */\n      add\n        /* \"#utility.yul\":666:693   */\n      slt\n        /* \"#utility.yul\":656:778   */\n      tag_68\n      jumpi\n        /* \"#utility.yul\":697:776   */\n      tag_69\n      tag_70\n      jump\t// in\n    tag_69:\n        /* \"#utility.yul\":656:778   */\n    tag_68:\n        /* \"#utility.yul\":814:820   */\n      dup2\n        /* \"#utility.yul\":801:821   */\n      calldataload\n        /* \"#utility.yul\":839:918   */\n      tag_71\n        /* \"#utility.yul\":914:917   */\n      dup5\n        /* \"#utility.yul\":906:912   */\n      dup3\n        /* \"#utility.yul\":899:903   */\n      0x20\n        /* \"#utility.yul\":891:897   */\n      dup7\n        /* \"#utility.yul\":887:904   */\n      add\n        /* \"#utility.yul\":839:918   */\n      tag_51\n      jump\t// in\n    tag_71:\n        /* \"#utility.yul\":830:918   */\n      swap2\n      pop\n        /* \"#utility.yul\":646:924   */\n      pop\n        /* \"#utility.yul\":584:924   */\n      swap3\n      swap2\n      pop\n      pop\n      jump\t// out\n        /* \"#utility.yul\":930:1259   */\n    tag_13:\n        /* \"#utility.yul\":989:995   */\n      0x00\n        /* \"#utility.yul\":1038:1040   */\n      0x20\n        /* \"#utility.yul\":1026:1035   */\n      dup3\n        /* \"#utility.yul\":1017:1024   */\n      dup5\n        /* \"#utility.yul\":1013:1036   */\n      sub\n        /* \"#utility.yul\":1009:1041   */\n      slt\n        /* \"#utility.yul\":1006:1125   */\n      iszero\n      tag_73\n      jumpi\n        /* \"#utility.yul\":1044:1123   */\n      tag_74\n      tag_75\n      jump\t// in\n    tag_74:\n        /* \"#utility.yul\":1006:1125   */\n    tag_73:\n        /* \"#utility.yul\":1164:1165   */\n      0x00\n        /* \"#utility.yul\":1189:1242   */\n      tag_76\n        /* \"#utility.yul\":1234:1241   */\n      dup5\n        /* \"#utility.yul\":1225:1231   */\n      dup3\n        /* \"#utility.yul\":1214:1223   */\n      dup6\n        /* \"#utility.yul\":1210:1232   */\n      add\n        /* \"#utility.yul\":1189:1242   */\n      tag_62\n      jump\t// in\n    tag_76:\n        /* \"#utility.yul\":1179:1242   */\n      swap2\n      pop\n        /* \"#utility.yul\":1135:1252   */\n      pop\n        /* \"#utility.yul\":930:1259   */\n      swap3\n      swap2\n      pop\n      pop\n      jump\t// out\n        /* \"#utility.yul\":1265:1919   */\n    tag_9:\n        /* \"#utility.yul\":1343:1349   */\n      0x00\n        /* \"#utility.yul\":1351:1357   */\n      dup1\n        /* \"#utility.yul\":1400:1402   */\n      0x40\n        /* \"#utility.yul\":1388:1397   */\n      dup4\n        /* \"#utility.yul\":1379:1386   */\n      dup6\n        /* \"#utility.yul\":1375:1398   */\n      sub\n        /* \"#utility.yul\":1371:1403   */\n      slt\n        /* \"#utility.yul\":1368:1487   */\n      iszero\n      tag_78\n      jumpi\n        /* \"#utility.yul\":1406:1485   */\n      tag_79\n      tag_75\n      jump\t// in\n    tag_79:\n        /* \"#utility.yul\":1368:1487   */\n    tag_78:\n        /* \"#utility.yul\":1526:1527   */\n      0x00\n        /* \"#utility.yul\":1551:1604   */\n      tag_80\n        /* \"#utility.yul\":1596:1603   */\n      dup6\n        /* \"#utility.yul\":1587:1593   */\n      dup3\n        /* \"#utility.yul\":1576:1585   */\n      dup7\n        /* \"#utility.yul\":1572:1594   */\n      add\n        /* \"#utility.yul\":1551:1604   */\n      tag_62\n      jump\t// in\n    tag_80:\n        /* \"#utility.yul\":1541:1604   */\n      swap3\n      pop\n        /* \"#utility.yul\":1497:1614   */\n      pop\n        /* \"#utility.yul\":1681:1683   */\n      0x20\n        /* \"#utility.yul\":1670:1679   */\n      dup4\n        /* \"#utility.yul\":1666:1684   */\n      add\n        /* \"#utility.yul\":1653:1685   */\n      calldataload\n        /* \"#utility.yul\":1712:1730   */\n      0xffffffffffffffff\n        /* \"#utility.yul\":1704:1710   */\n      dup2\n        /* \"#utility.yul\":1701:1731   */\n      gt\n        /* \"#utility.yul\":1698:1815   */\n      iszero\n      tag_81\n      jumpi\n        /* \"#utility.yul\":1734:1813   */\n      tag_82\n      tag_83\n      jump\t// in\n    tag_82:\n        /* \"#utility.yul\":1698:1815   */\n    tag_81:\n        /* \"#utility.yul\":1839:1902   */\n      tag_84\n        /* \"#utility.yul\":1894:1901   */\n      dup6\n        /* \"#utility.yul\":1885:1891   */\n      dup3\n        /* \"#utility.yul\":1874:1883   */\n      dup7\n        /* \"#utility.yul\":1870:1892   */\n      add\n        /* \"#utility.yul\":1839:1902   */\n      tag_66\n      jump\t// in\n    tag_84:\n        /* \"#utility.yul\":1829:1902   */\n      swap2\n      pop\n        /* \"#utility.yul\":1624:1912   */\n      pop\n        /* \"#utility.yul\":1265:1919   */\n      swap3\n      pop\n      swap3\n      swap1\n      pop\n      jump\t// out\n        /* \"#utility.yul\":1925:2043   */\n    tag_85:\n        /* \"#utility.yul\":2012:2036   */\n      tag_87\n        /* \"#utility.yul\":2030:2035   */\n      dup2\n        /* \"#utility.yul\":2012:2036   */\n      tag_88\n      jump\t// in\n    tag_87:\n        /* \"#utility.yul\":2007:2010   */\n      dup3\n        /* \"#utility.yul\":2000:2037   */\n      mstore\n        /* \"#utility.yul\":1925:2043   */\n      pop\n      pop\n      jump\t// out\n        /* \"#utility.yul\":2049:2413   */\n    tag_89:\n        /* \"#utility.yul\":2137:2140   */\n      0x00\n        /* \"#utility.yul\":2165:2204   */\n      tag_91\n        /* \"#utility.yul\":2198:2203   */\n      dup3\n        /* \"#utility.yul\":2165:2204   */\n      tag_92\n      jump\t// in\n    tag_91:\n        /* \"#utility.yul\":2220:2291   */\n      tag_93\n        /* \"#utility.yul\":2284:2290   */\n      dup2\n        /* \"#utility.yul\":2279:2282   */\n      dup6\n        /* \"#utility.yul\":2220:2291   */\n      tag_94\n      jump\t// in\n    tag_93:\n        /* \"#utility.yul\":2213:2291   */\n      swap4\n      pop\n        /* \"#utility.yul\":2300:2352   */\n      tag_95\n        /* \"#utility.yul\":2345:2351   */\n      dup2\n        /* \"#utility.yul\":2340:2343   */\n      dup6\n        /* \"#utility.yul\":2333:2337   */\n      0x20\n        /* \"#utility.yul\":2326:2331   */\n      dup7\n        /* \"#utility.yul\":2322:2338   */\n      add\n        /* \"#utility.yul\":2300:2352   */\n      tag_96\n      jump\t// in\n    tag_95:\n        /* \"#utility.yul\":2377:2406   */\n      tag_97\n        /* \"#utility.yul\":2399:2405   */\n      dup2\n        /* \"#utility.yul\":2377:2406   */\n      tag_98\n      jump\t// in\n    tag_97:\n        /* \"#utility.yul\":2372:2375   */\n      dup5\n        /* \"#utility.yul\":2368:2407   */\n      add\n        /* \"#utility.yul\":2361:2407   */\n      swap2\n      pop\n        /* \"#utility.yul\":2141:2413   */\n      pop\n        /* \"#utility.yul\":2049:2413   */\n      swap3\n      swap2\n      pop\n      pop\n      jump\t// out\n        /* \"#utility.yul\":2419:2641   */\n    tag_24:\n        /* \"#utility.yul\":2512:2516   */\n      0x00\n        /* \"#utility.yul\":2550:2552   */\n      0x20\n        /* \"#utility.yul\":2539:2548   */\n      dup3\n        /* \"#utility.yul\":2535:2553   */\n      add\n        /* \"#utility.yul\":2527:2553   */\n      swap1\n      pop\n        /* \"#utility.yul\":2563:2634   */\n      tag_100\n        /* \"#utility.yul\":2631:2632   */\n      0x00\n        /* \"#utility.yul\":2620:2629   */\n      dup4\n        /* \"#utility.yul\":2616:2633   */\n      add\n        /* \"#utility.yul\":2607:2613   */\n      dup5\n        /* \"#utility.yul\":2563:2634   */\n      tag_85\n      jump\t// in\n    tag_100:\n        /* \"#utility.yul\":2419:2641   */\n      swap3\n      swap2\n      pop\n      pop\n      jump\t// out\n        /* \"#utility.yul\":2647:2960   */\n    tag_16:\n        /* \"#utility.yul\":2760:2764   */\n      0x00\n        /* \"#utility.yul\":2798:2800   */\n      0x20\n        /* \"#utility.yul\":2787:2796   */\n      dup3\n        /* \"#utility.yul\":2783:2801   */\n      add\n        /* \"#utility.yul\":2775:2801   */\n      swap1\n      pop\n        /* \"#utility.yul\":2847:2856   */\n      dup2\n        /* \"#utility.yul\":2841:2845   */\n      dup2\n        /* \"#utility.yul\":2837:2857   */\n      sub\n        /* \"#utility.yul\":2833:2834   */\n      0x00\n        /* \"#utility.yul\":2822:2831   */\n      dup4\n        /* \"#utility.yul\":2818:2835   */\n      add\n        /* \"#utility.yul\":2811:2858   */\n      mstore\n        /* \"#utility.yul\":2875:2953   */\n      tag_102\n        /* \"#utility.yul\":2948:2952   */\n      dup2\n        /* \"#utility.yul\":2939:2945   */\n      dup5\n        /* \"#utility.yul\":2875:2953   */\n      tag_89\n      jump\t// in\n    tag_102:\n        /* \"#utility.yul\":2867:2953   */\n      swap1\n      pop\n        /* \"#utility.yul\":2647:2960   */\n      swap3\n      swap2\n      pop\n      pop\n      jump\t// out\n        /* \"#utility.yul\":2966:3095   */\n    tag_56:\n        /* \"#utility.yul\":3000:3006   */\n      0x00\n        /* \"#utility.yul\":3027:3047   */\n      tag_104\n      tag_105\n      jump\t// in\n    tag_104:\n        /* \"#utility.yul\":3017:3047   */\n      swap1\n      pop\n        /* \"#utility.yul\":3056:3089   */\n      tag_106\n        /* \"#utility.yul\":3084:3088   */\n      dup3\n        /* \"#utility.yul\":3076:3082   */\n      dup3\n        /* \"#utility.yul\":3056:3089   */\n      tag_107\n      jump\t// in\n    tag_106:\n        /* \"#utility.yul\":2966:3095   */\n      swap2\n      swap1\n      pop\n      jump\t// out\n        /* \"#utility.yul\":3101:3176   */\n    tag_105:\n        /* \"#utility.yul\":3134:3140   */\n      0x00\n        /* \"#utility.yul\":3167:3169   */\n      0x40\n        /* \"#utility.yul\":3161:3170   */\n      mload\n        /* \"#utility.yul\":3151:3170   */\n      swap1\n      pop\n        /* \"#utility.yul\":3101:3176   */\n      swap1\n      jump\t// out\n        /* \"#utility.yul\":3182:3490   */\n    tag_55:\n        /* \"#utility.yul\":3244:3248   */\n      0x00\n        /* \"#utility.yul\":3334:3352   */\n      0xffffffffffffffff\n        /* \"#utility.yul\":3326:3332   */\n      dup3\n        /* \"#utility.yul\":3323:3353   */\n      gt\n        /* \"#utility.yul\":3320:3376   */\n      iszero\n      tag_110\n      jumpi\n        /* \"#utility.yul\":3356:3374   */\n      tag_111\n      tag_112\n      jump\t// in\n    tag_111:\n        /* \"#utility.yul\":3320:3376   */\n    tag_110:\n        /* \"#utility.yul\":3394:3423   */\n      tag_113\n        /* \"#utility.yul\":3416:3422   */\n      dup3\n        /* \"#utility.yul\":3394:3423   */\n      tag_98\n      jump\t// in\n    tag_113:\n        /* \"#utility.yul\":3386:3423   */\n      swap1\n      pop\n        /* \"#utility.yul\":3478:3482   */\n      0x20\n        /* \"#utility.yul\":3472:3476   */\n      dup2\n        /* \"#utility.yul\":3468:3483   */\n      add\n        /* \"#utility.yul\":3460:3483   */\n      swap1\n      pop\n        /* \"#utility.yul\":3182:3490   */\n      swap2\n      swap1\n      pop\n      jump\t// out\n        /* \"#utility.yul\":3496:3595   */\n    tag_92:\n        /* \"#utility.yul\":3548:3554   */\n      0x00\n        /* \"#utility.yul\":3582:3587   */\n      dup2\n        /* \"#utility.yul\":3576:3588   */\n      mload\n        /* \"#utility.yul\":3566:3588   */\n      swap1\n      pop\n        /* \"#utility.yul\":3496:3595   */\n      swap2\n      swap1\n      pop\n      jump\t// out\n        /* \"#utility.yul\":3601:3770   */\n    tag_94:\n        /* \"#utility.yul\":3685:3696   */\n      0x00\n        /* \"#utility.yul\":3719:3725   */\n      dup3\n        /* \"#utility.yul\":3714:3717   */\n      dup3\n        /* \"#utility.yul\":3707:3726   */\n      mstore\n        /* \"#utility.yul\":3759:3763   */\n      0x20\n        /* \"#utility.yul\":3754:3757   */\n      dup3\n        /* \"#utility.yul\":3750:3764   */\n      add\n        /* \"#utility.yul\":3735:3764   */\n      swap1\n      pop\n        /* \"#utility.yul\":3601:3770   */\n      swap3\n      swap2\n      pop\n      pop\n      jump\t// out\n        /* \"#utility.yul\":3776:3872   */\n    tag_88:\n        /* \"#utility.yul\":3813:3820   */\n      0x00\n        /* \"#utility.yul\":3842:3866   */\n      tag_117\n        /* \"#utility.yul\":3860:3865   */\n      dup3\n        /* \"#utility.yul\":3842:3866   */\n      tag_118\n      jump\t// in\n    tag_117:\n        /* \"#utility.yul\":3831:3866   */\n      swap1\n      pop\n        /* \"#utility.yul\":3776:3872   */\n      swap2\n      swap1\n      pop\n      jump\t// out\n        /* \"#utility.yul\":3878:4004   */\n    tag_118:\n        /* \"#utility.yul\":3915:3922   */\n      0x00\n        /* \"#utility.yul\":3955:3997   */\n      0xffffffffffffffffffffffffffffffffffffffff\n        /* \"#utility.yul\":3948:3953   */\n      dup3\n        /* \"#utility.yul\":3944:3998   */\n      and\n        /* \"#utility.yul\":3933:3998   */\n      swap1\n      pop\n        /* \"#utility.yul\":3878:4004   */\n      swap2\n      swap1\n      pop\n      jump\t// out\n        /* \"#utility.yul\":4010:4164   */\n    tag_61:\n        /* \"#utility.yul\":4094:4100   */\n      dup3\n        /* \"#utility.yul\":4089:4092   */\n      dup2\n        /* \"#utility.yul\":4084:4087   */\n      dup4\n        /* \"#utility.yul\":4071:4101   */\n      calldatacopy\n        /* \"#utility.yul\":4156:4157   */\n      0x00\n        /* \"#utility.yul\":4147:4153   */\n      dup4\n        /* \"#utility.yul\":4142:4145   */\n      dup4\n        /* \"#utility.yul\":4138:4154   */\n      add\n        /* \"#utility.yul\":4131:4158   */\n      mstore\n        /* \"#utility.yul\":4010:4164   */\n      pop\n      pop\n      pop\n      jump\t// out\n        /* \"#utility.yul\":4170:4477   */\n    tag_96:\n        /* \"#utility.yul\":4238:4239   */\n      0x00\n        /* \"#utility.yul\":4248:4361   */\n    tag_122:\n        /* \"#utility.yul\":4262:4268   */\n      dup4\n        /* \"#utility.yul\":4259:4260   */\n      dup2\n        /* \"#utility.yul\":4256:4269   */\n      lt\n        /* \"#utility.yul\":4248:4361   */\n      iszero\n      tag_124\n      jumpi\n        /* \"#utility.yul\":4347:4348   */\n      dup1\n        /* \"#utility.yul\":4342:4345   */\n      dup3\n        /* \"#utility.yul\":4338:4349   */\n      add\n        /* \"#utility.yul\":4332:4350   */\n      mload\n        /* \"#utility.yul\":4328:4329   */\n      dup2\n        /* \"#utility.yul\":4323:4326   */\n      dup5\n        /* \"#utility.yul\":4319:4330   */\n      add\n        /* \"#utility.yul\":4312:4351   */\n      mstore\n        /* \"#utility.yul\":4284:4286   */\n      0x20\n        /* \"#utility.yul\":4281:4282   */\n      dup2\n        /* \"#utility.yul\":4277:4287   */\n      add\n        /* \"#utility.yul\":4272:4287   */\n      swap1\n      pop\n        /* \"#utility.yul\":4248:4361   */\n      jump(tag_122)\n    tag_124:\n        /* \"#utility.yul\":4379:4385   */\n      dup4\n        /* \"#utility.yul\":4376:4377   */\n      dup2\n        /* \"#utility.yul\":4373:4386   */\n      gt\n        /* \"#utility.yul\":4370:4471   */\n      iszero\n      tag_125\n      jumpi\n        /* \"#utility.yul\":4459:4460   */\n      0x00\n        /* \"#utility.yul\":4450:4456   */\n      dup5\n        /* \"#utility.yul\":4445:4448   */\n      dup5\n        /* \"#utility.yul\":4441:4457   */\n      add\n        /* \"#utility.yul\":4434:4461   */\n      mstore\n        /* \"#utility.yul\":4370:4471   */\n    tag_125:\n        /* \"#utility.yul\":4219:4477   */\n      pop\n        /* \"#utility.yul\":4170:4477   */\n      pop\n      pop\n      pop\n      jump\t// out\n        /* \"#utility.yul\":4483:4803   */\n    tag_30:\n        /* \"#utility.yul\":4527:4533   */\n      0x00\n        /* \"#utility.yul\":4564:4565   */\n      0x02\n        /* \"#utility.yul\":4558:4562   */\n      dup3\n        /* \"#utility.yul\":4554:4566   */\n      div\n        /* \"#utility.yul\":4544:4566   */\n      swap1\n      pop\n        /* \"#utility.yul\":4611:4612   */\n      0x01\n        /* \"#utility.yul\":4605:4609   */\n      dup3\n        /* \"#utility.yul\":4601:4613   */\n      and\n        /* \"#utility.yul\":4632:4650   */\n      dup1\n        /* \"#utility.yul\":4622:4703   */\n      tag_127\n      jumpi\n        /* \"#utility.yul\":4688:4692   */\n      0x7f\n        /* \"#utility.yul\":4680:4686   */\n      dup3\n        /* \"#utility.yul\":4676:4693   */\n      and\n        /* \"#utility.yul\":4666:4693   */\n      swap2\n      pop\n        /* \"#utility.yul\":4622:4703   */\n    tag_127:\n        /* \"#utility.yul\":4750:4752   */\n      0x20\n        /* \"#utility.yul\":4742:4748   */\n      dup3\n        /* \"#utility.yul\":4739:4753   */\n      lt\n        /* \"#utility.yul\":4719:4737   */\n      dup2\n        /* \"#utility.yul\":4716:4754   */\n      eq\n        /* \"#utility.yul\":4713:4797   */\n      iszero\n      tag_128\n      jumpi\n        /* \"#utility.yul\":4769:4787   */\n      tag_129\n      tag_130\n      jump\t// in\n    tag_129:\n        /* \"#utility.yul\":4713:4797   */\n    tag_128:\n        /* \"#utility.yul\":4534:4803   */\n      pop\n        /* \"#utility.yul\":4483:4803   */\n      swap2\n      swap1\n      pop\n      jump\t// out\n        /* \"#utility.yul\":4809:5090   */\n    tag_107:\n        /* \"#utility.yul\":4892:4919   */\n      tag_132\n        /* \"#utility.yul\":4914:4918   */\n      dup3\n        /* \"#utility.yul\":4892:4919   */\n      tag_98\n      jump\t// in\n    tag_132:\n        /* \"#utility.yul\":4884:4890   */\n      dup2\n        /* \"#utility.yul\":4880:4920   */\n      add\n        /* \"#utility.yul\":5022:5028   */\n      dup2\n        /* \"#utility.yul\":5010:5020   */\n      dup2\n        /* \"#utility.yul\":5007:5029   */\n      lt\n        /* \"#utility.yul\":4986:5004   */\n      0xffffffffffffffff\n        /* \"#utility.yul\":4974:4984   */\n      dup3\n        /* \"#utility.yul\":4971:5005   */\n      gt\n        /* \"#utility.yul\":4968:5030   */\n      or\n        /* \"#utility.yul\":4965:5053   */\n      iszero\n      tag_133\n      jumpi\n        /* \"#utility.yul\":5033:5051   */\n      tag_134\n      tag_112\n      jump\t// in\n    tag_134:\n        /* \"#utility.yul\":4965:5053   */\n    tag_133:\n        /* \"#utility.yul\":5073:5083   */\n      dup1\n        /* \"#utility.yul\":5069:5071   */\n      0x40\n        /* \"#utility.yul\":5062:5084   */\n      mstore\n        /* \"#utility.yul\":4852:5090   */\n      pop\n        /* \"#utility.yul\":4809:5090   */\n      pop\n      pop\n      jump\t// out\n        /* \"#utility.yul\":5096:5276   */\n    tag_130:\n        /* \"#utility.yul\":5144:5221   */\n      0x4e487b7100000000000000000000000000000000000000000000000000000000\n        /* \"#utility.yul\":5141:5142   */\n      0x00\n        /* \"#utility.yul\":5134:5222   */\n      mstore\n        /* \"#utility.yul\":5241:5245   */\n      0x22\n        /* \"#utility.yul\":5238:5239   */\n      0x04\n        /* \"#utility.yul\":5231:5246   */\n      mstore\n        /* \"#utility.yul\":5265:5269   */\n      0x24\n        /* \"#utility.yul\":5262:5263   */\n      0x00\n        /* \"#utility.yul\":5255:5270   */\n      revert\n        /* \"#utility.yul\":5282:5462   */\n    tag_112:\n        /* \"#utility.yul\":5330:5407   */\n      0x4e487b7100000000000000000000000000000000000000000000000000000000\n        /* \"#utility.yul\":5327:5328   */\n      0x00\n        /* \"#utility.yul\":5320:5408   */\n      mstore\n        /* \"#utility.yul\":5427:5431   */\n      0x41\n        /* \"#utility.yul\":5424:5425   */\n      0x04\n        /* \"#utility.yul\":5417:5432   */\n      mstore\n        /* \"#utility.yul\":5451:5455   */\n      0x24\n        /* \"#utility.yul\":5448:5449   */\n      0x00\n        /* \"#utility.yul\":5441:5456   */\n      revert\n        /* \"#utility.yul\":5468:5585   */\n    tag_70:\n        /* \"#utility.yul\":5577:5578   */\n      0x00\n        /* \"#utility.yul\":5574:5575   */\n      dup1\n        /* \"#utility.yul\":5567:5579   */\n      revert\n        /* \"#utility.yul\":5591:5708   */\n    tag_59:\n        /* \"#utility.yul\":5700:5701   */\n      0x00\n        /* \"#utility.yul\":5697:5698   */\n      dup1\n        /* \"#utility.yul\":5690:5702   */\n      revert\n        /* \"#utility.yul\":5714:5831   */\n    tag_83:\n        /* \"#utility.yul\":5823:5824   */\n      0x00\n        /* \"#utility.yul\":5820:5821   */\n      dup1\n        /* \"#utility.yul\":5813:5825   */\n      revert\n        /* \"#utility.yul\":5837:5954   */\n    tag_75:\n        /* \"#utility.yul\":5946:5947   */\n      0x00\n        /* \"#utility.yul\":5943:5944   */\n      dup1\n        /* \"#utility.yul\":5936:5948   */\n      revert\n        /* \"#utility.yul\":5960:6062   */\n    tag_98:\n        /* \"#utility.yul\":6001:6007   */\n      0x00\n        /* \"#utility.yul\":6052:6054   */\n      0x1f\n        /* \"#utility.yul\":6048:6055   */\n      not\n        /* \"#utility.yul\":6043:6045   */\n      0x1f\n        /* \"#utility.yul\":6036:6041   */\n      dup4\n        /* \"#utility.yul\":6032:6046   */\n      add\n        /* \"#utility.yul\":6028:6056   */\n      and\n        /* \"#utility.yul\":6018:6056   */\n      swap1\n      pop\n        /* \"#utility.yul\":5960:6062   */\n      swap2\n      swap1\n      pop\n      jump\t// out\n        /* \"#utility.yul\":6068:6190   */\n    tag_65:\n        /* \"#utility.yul\":6141:6165   */\n      tag_143\n        /* \"#utility.yul\":6159:6164   */\n      dup2\n        /* \"#utility.yul\":6141:6165   */\n      tag_88\n      jump\t// in\n    tag_143:\n        /* \"#utility.yul\":6134:6139   */\n      dup2\n        /* \"#utility.yul\":6131:6166   */\n      eq\n        /* \"#utility.yul\":6121:6184   */\n      tag_144\n      jumpi\n        /* \"#utility.yul\":6180:6181   */\n      0x00\n        /* \"#utility.yul\":6177:6178   */\n      dup1\n        /* \"#utility.yul\":6170:6182   */\n      revert\n        /* \"#utility.yul\":6121:6184   */\n    tag_144:\n        /* \"#utility.yul\":6068:6190   */\n      pop\n      jump\t// out\n\n    auxdata: 0xa264697066735822122031b4a2d425e615aeb67602acdc051d79e26de3d8906b232949cacbc9108b47e764736f6c63430008070033\n}\n",
				"bytecode": {
					"linkReferences": {},
					"object": "608060405234801561001057600080fd5b50336000806101000a81548173ffffffffffffffffffffffffffffffffffffffff021916908373ffffffffffffffffffffffffffffffffffffffff160217905550610727806100606000396000f3fe608060405234801561001057600080fd5b506004361061004c5760003560e01c8063106c71a914610051578063617fba041461006d5780638b1838f61461009d5780638da5cb5b146100cd575b600080fd5b61006b6004803603810190610066919061042d565b6100eb565b005b61008760048036038101906100829190610400565b610143565b60405161009491906104ec565b60405180910390f35b6100b760048036038101906100b29190610400565b610214565b6040516100c491906104ec565b60405180910390f35b6100d56102b4565b6040516100e291906104d1565b60405180910390f35b80600160008473ffffffffffffffffffffffffffffffffffffffff1673ffffffffffffffffffffffffffffffffffffffff168152602001908152602001600020908051906020019061013e9291906102d8565b505050565b6060600160008373ffffffffffffffffffffffffffffffffffffffff1673ffffffffffffffffffffffffffffffffffffffff168152602001908152602001600020805461018f906105f4565b80601f01602080910402602001604051908101604052809291908181526020018280546101bb906105f4565b80156102085780601f106101dd57610100808354040283529160200191610208565b820191906000526020600020905b8154815290600101906020018083116101eb57829003601f168201915b50505050509050919050565b60016020528060005260406000206000915090508054610233906105f4565b80601f016020809104026020016040519081016040528092919081815260200182805461025f906105f4565b80156102ac5780601f10610281576101008083540402835291602001916102ac565b820191906000526020600020905b81548152906001019060200180831161028f57829003601f168201915b505050505081565b60008054906101000a900473ffffffffffffffffffffffffffffffffffffffff1681565b8280546102e4906105f4565b90600052602060002090601f016020900481019282610306576000855561034d565b82601f1061031f57805160ff191683800117855561034d565b8280016001018555821561034d579182015b8281111561034c578251825591602001919060010190610331565b5b50905061035a919061035e565b5090565b5b8082111561037757600081600090555060010161035f565b5090565b600061038e61038984610533565b61050e565b9050828152602081018484840111156103aa576103a96106ba565b5b6103b58482856105b2565b509392505050565b6000813590506103cc816106da565b92915050565b600082601f8301126103e7576103e66106b5565b5b81356103f784826020860161037b565b91505092915050565b600060208284031215610416576104156106c4565b5b6000610424848285016103bd565b91505092915050565b60008060408385031215610444576104436106c4565b5b6000610452858286016103bd565b925050602083013567ffffffffffffffff811115610473576104726106bf565b5b61047f858286016103d2565b9150509250929050565b61049281610580565b82525050565b60006104a382610564565b6104ad818561056f565b93506104bd8185602086016105c1565b6104c6816106c9565b840191505092915050565b60006020820190506104e66000830184610489565b92915050565b600060208201905081810360008301526105068184610498565b905092915050565b6000610518610529565b90506105248282610626565b919050565b6000604051905090565b600067ffffffffffffffff82111561054e5761054d610686565b5b610557826106c9565b9050602081019050919050565b600081519050919050565b600082825260208201905092915050565b600061058b82610592565b9050919050565b600073ffffffffffffffffffffffffffffffffffffffff82169050919050565b82818337600083830152505050565b60005b838110156105df5780820151818401526020810190506105c4565b838111156105ee576000848401525b50505050565b6000600282049050600182168061060c57607f821691505b602082108114156106205761061f610657565b5b50919050565b61062f826106c9565b810181811067ffffffffffffffff8211171561064e5761064d610686565b5b80604052505050565b7f4e487b7100000000000000000000000000000000000000000000000000000000600052602260045260246000fd5b7f4e487b7100000000000000000000000000000000000000000000000000000000600052604160045260246000fd5b600080fd5b600080fd5b600080fd5b600080fd5b6000601f19601f8301169050919050565b6106e381610580565b81146106ee57600080fd5b5056fea264697066735822122031b4a2d425e615aeb67602acdc051d79e26de3d8906b232949cacbc9108b47e764736f6c63430008070033",
					"opcodes": "PUSH1 0x80 PUSH1 0x40 MSTORE CALLVALUE DUP1 ISZERO PUSH2 0x10 JUMPI PUSH1 0x0 DUP1 REVERT JUMPDEST POP CALLER PUSH1 0x0 DUP1 PUSH2 0x100 EXP DUP2 SLOAD DUP2 PUSH20 0xFFFFFFFFFFFFFFFFFFFFFFFFFFFFFFFFFFFFFFFF MUL NOT AND SWAP1 DUP4 PUSH20 0xFFFFFFFFFFFFFFFFFFFFFFFFFFFFFFFFFFFFFFFF AND MUL OR SWAP1 SSTORE POP PUSH2 0x727 DUP1 PUSH2 0x60 PUSH1 0x0 CODECOPY PUSH1 0x0 RETURN INVALID PUSH1 0x80 PUSH1 0x40 MSTORE CALLVALUE DUP1 ISZERO PUSH2 0x10 JUMPI PUSH1 0x0 DUP1 REVERT JUMPDEST POP PUSH1 0x4 CALLDATASIZE LT PUSH2 0x4C JUMPI PUSH1 0x0 CALLDATALOAD PUSH1 0xE0 SHR DUP1 PUSH4 0x106C71A9 EQ PUSH2 0x51 JUMPI DUP1 PUSH4 0x617FBA04 EQ PUSH2 0x6D JUMPI DUP1 PUSH4 0x8B1838F6 EQ PUSH2 0x9D JUMPI DUP1 PUSH4 0x8DA5CB5B EQ PUSH2 0xCD JUMPI JUMPDEST PUSH1 0x0 DUP1 REVERT JUMPDEST PUSH2 0x6B PUSH1 0x4 DUP1 CALLDATASIZE SUB DUP2 ADD SWAP1 PUSH2 0x66 SWAP2 SWAP1 PUSH2 0x42D JUMP JUMPDEST PUSH2 0xEB JUMP JUMPDEST STOP JUMPDEST PUSH2 0x87 PUSH1 0x4 DUP1 CALLDATASIZE SUB DUP2 ADD SWAP1 PUSH2 0x82 SWAP2 SWAP1 PUSH2 0x400 JUMP JUMPDEST PUSH2 0x143 JUMP JUMPDEST PUSH1 0x40 MLOAD PUSH2 0x94 SWAP2 SWAP1 PUSH2 0x4EC JUMP JUMPDEST PUSH1 0x40 MLOAD DUP1 SWAP2 SUB SWAP1 RETURN JUMPDEST PUSH2 0xB7 PUSH1 0x4 DUP1 CALLDATASIZE SUB DUP2 ADD SWAP1 PUSH2 0xB2 SWAP2 SWAP1 PUSH2 0x400 JUMP JUMPDEST PUSH2 0x214 JUMP JUMPDEST PUSH1 0x40 MLOAD PUSH2 0xC4 SWAP2 SWAP1 PUSH2 0x4EC JUMP JUMPDEST PUSH1 0x40 MLOAD DUP1 SWAP2 SUB SWAP1 RETURN JUMPDEST PUSH2 0xD5 PUSH2 0x2B4 JUMP JUMPDEST PUSH1 0x40 MLOAD PUSH2 0xE2 SWAP2 SWAP1 PUSH2 0x4D1 JUMP JUMPDEST PUSH1 0x40 MLOAD DUP1 SWAP2 SUB SWAP1 RETURN JUMPDEST DUP1 PUSH1 0x1 PUSH1 0x0 DUP5 PUSH20 0xFFFFFFFFFFFFFFFFFFFFFFFFFFFFFFFFFFFFFFFF AND PUSH20 0xFFFFFFFFFFFFFFFFFFFFFFFFFFFFFFFFFFFFFFFF AND DUP2 MSTORE PUSH1 0x20 ADD SWAP1 DUP2 MSTORE PUSH1 0x20 ADD PUSH1 0x0 KECCAK256 SWAP1 DUP1 MLOAD SWAP1 PUSH1 0x20 ADD SWAP1 PUSH2 0x13E SWAP3 SWAP2 SWAP1 PUSH2 0x2D8 JUMP JUMPDEST POP POP POP JUMP JUMPDEST PUSH1 0x60 PUSH1 0x1 PUSH1 0x0 DUP4 PUSH20 0xFFFFFFFFFFFFFFFFFFFFFFFFFFFFFFFFFFFFFFFF AND PUSH20 0xFFFFFFFFFFFFFFFFFFFFFFFFFFFFFFFFFFFFFFFF AND DUP2 MSTORE PUSH1 0x20 ADD SWAP1 DUP2 MSTORE PUSH1 0x20 ADD PUSH1 0x0 KECCAK256 DUP1 SLOAD PUSH2 0x18F SWAP1 PUSH2 0x5F4 JUMP JUMPDEST DUP1 PUSH1 0x1F ADD PUSH1 0x20 DUP1 SWAP2 DIV MUL PUSH1 0x20 ADD PUSH1 0x40 MLOAD SWAP1 DUP2 ADD PUSH1 0x40 MSTORE DUP1 SWAP3 SWAP2 SWAP1 DUP2 DUP2 MSTORE PUSH1 0x20 ADD DUP3 DUP1 SLOAD PUSH2 0x1BB SWAP1 PUSH2 0x5F4 JUMP JUMPDEST DUP1 ISZERO PUSH2 0x208 JUMPI DUP1 PUSH1 0x1F LT PUSH2 0x1DD JUMPI PUSH2 0x100 DUP1 DUP4 SLOAD DIV MUL DUP4 MSTORE SWAP2 PUSH1 0x20 ADD SWAP2 PUSH2 0x208 JUMP JUMPDEST DUP3 ADD SWAP2 SWAP1 PUSH1 0x0 MSTORE PUSH1 0x20 PUSH1 0x0 KECCAK256 SWAP1 JUMPDEST DUP2 SLOAD DUP2 MSTORE SWAP1 PUSH1 0x1 ADD SWAP1 PUSH1 0x20 ADD DUP1 DUP4 GT PUSH2 0x1EB JUMPI DUP3 SWAP1 SUB PUSH1 0x1F AND DUP3 ADD SWAP2 JUMPDEST POP POP POP POP POP SWAP1 POP SWAP2 SWAP1 POP JUMP JUMPDEST PUSH1 0x1 PUSH1 0x20 MSTORE DUP1 PUSH1 0x0 MSTORE PUSH1 0x40 PUSH1 0x0 KECCAK256 PUSH1 0x0 SWAP2 POP SWAP1 POP DUP1 SLOAD PUSH2 0x233 SWAP1 PUSH2 0x5F4 JUMP JUMPDEST DUP1 PUSH1 0x1F ADD PUSH1 0x20 DUP1 SWAP2 DIV MUL PUSH1 0x20 ADD PUSH1 0x40 MLOAD SWAP1 DUP2 ADD PUSH1 0x40 MSTORE DUP1 SWAP3 SWAP2 SWAP1 DUP2 DUP2 MSTORE PUSH1 0x20 ADD DUP3 DUP1 SLOAD PUSH2 0x25F SWAP1 PUSH2 0x5F4 JUMP JUMPDEST DUP1 ISZERO PUSH2 0x2AC JUMPI DUP1 PUSH1 0x1F LT PUSH2 0x281 JUMPI PUSH2 0x100 DUP1 DUP4 SLOAD DIV MUL DUP4 MSTORE SWAP2 PUSH1 0x20 ADD SWAP2 PUSH2 0x2AC JUMP JUMPDEST DUP3 ADD SWAP2 SWAP1 PUSH1 0x0 MSTORE PUSH1 0x20 PUSH1 0x0 KECCAK256 SWAP1 JUMPDEST DUP2 SLOAD DUP2 MSTORE SWAP1 PUSH1 0x1 ADD SWAP1 PUSH1 0x20 ADD DUP1 DUP4 GT PUSH2 0x28F JUMPI DUP3 SWAP1 SUB PUSH1 0x1F AND DUP3 ADD SWAP2 JUMPDEST POP POP POP POP POP DUP2 JUMP JUMPDEST PUSH1 0x0 DUP1 SLOAD SWAP1 PUSH2 0x100 EXP SWAP1 DIV PUSH20 0xFFFFFFFFFFFFFFFFFFFFFFFFFFFFFFFFFFFFFFFF AND DUP2 JUMP JUMPDEST DUP3 DUP1 SLOAD PUSH2 0x2E4 SWAP1 PUSH2 0x5F4 JUMP JUMPDEST SWAP1 PUSH1 0x0 MSTORE PUSH1 0x20 PUSH1 0x0 KECCAK256 SWAP1 PUSH1 0x1F ADD PUSH1 0x20 SWAP1 DIV DUP2 ADD SWAP3 DUP3 PUSH2 0x306 JUMPI PUSH1 0x0 DUP6 SSTORE PUSH2 0x34D JUMP JUMPDEST DUP3 PUSH1 0x1F LT PUSH2 0x31F JUMPI DUP1 MLOAD PUSH1 0xFF NOT AND DUP4 DUP1 ADD OR DUP6 SSTORE PUSH2 0x34D JUMP JUMPDEST DUP3 DUP1 ADD PUSH1 0x1 ADD DUP6 SSTORE DUP3 ISZERO PUSH2 0x34D JUMPI SWAP2 DUP3 ADD JUMPDEST DUP3 DUP2 GT ISZERO PUSH2 0x34C JUMPI DUP3 MLOAD DUP3 SSTORE SWAP2 PUSH1 0x20 ADD SWAP2 SWAP1 PUSH1 0x1 ADD SWAP1 PUSH2 0x331 JUMP JUMPDEST JUMPDEST POP SWAP1 POP PUSH2 0x35A SWAP2 SWAP1 PUSH2 0x35E JUMP JUMPDEST POP SWAP1 JUMP JUMPDEST JUMPDEST DUP1 DUP3 GT ISZERO PUSH2 0x377 JUMPI PUSH1 0x0 DUP2 PUSH1 0x0 SWAP1 SSTORE POP PUSH1 0x1 ADD PUSH2 0x35F JUMP JUMPDEST POP SWAP1 JUMP JUMPDEST PUSH1 0x0 PUSH2 0x38E PUSH2 0x389 DUP5 PUSH2 0x533 JUMP JUMPDEST PUSH2 0x50E JUMP JUMPDEST SWAP1 POP DUP3 DUP2 MSTORE PUSH1 0x20 DUP2 ADD DUP5 DUP5 DUP5 ADD GT ISZERO PUSH2 0x3AA JUMPI PUSH2 0x3A9 PUSH2 0x6BA JUMP JUMPDEST JUMPDEST PUSH2 0x3B5 DUP5 DUP3 DUP6 PUSH2 0x5B2 JUMP JUMPDEST POP SWAP4 SWAP3 POP POP POP JUMP JUMPDEST PUSH1 0x0 DUP2 CALLDATALOAD SWAP1 POP PUSH2 0x3CC DUP2 PUSH2 0x6DA JUMP JUMPDEST SWAP3 SWAP2 POP POP JUMP JUMPDEST PUSH1 0x0 DUP3 PUSH1 0x1F DUP4 ADD SLT PUSH2 0x3E7 JUMPI PUSH2 0x3E6 PUSH2 0x6B5 JUMP JUMPDEST JUMPDEST DUP2 CALLDATALOAD PUSH2 0x3F7 DUP5 DUP3 PUSH1 0x20 DUP7 ADD PUSH2 0x37B JUMP JUMPDEST SWAP2 POP POP SWAP3 SWAP2 POP POP JUMP JUMPDEST PUSH1 0x0 PUSH1 0x20 DUP3 DUP5 SUB SLT ISZERO PUSH2 0x416 JUMPI PUSH2 0x415 PUSH2 0x6C4 JUMP JUMPDEST JUMPDEST PUSH1 0x0 PUSH2 0x424 DUP5 DUP3 DUP6 ADD PUSH2 0x3BD JUMP JUMPDEST SWAP2 POP POP SWAP3 SWAP2 POP POP JUMP JUMPDEST PUSH1 0x0 DUP1 PUSH1 0x40 DUP4 DUP6 SUB SLT ISZERO PUSH2 0x444 JUMPI PUSH2 0x443 PUSH2 0x6C4 JUMP JUMPDEST JUMPDEST PUSH1 0x0 PUSH2 0x452 DUP6 DUP3 DUP7 ADD PUSH2 0x3BD JUMP JUMPDEST SWAP3 POP POP PUSH1 0x20 DUP4 ADD CALLDATALOAD PUSH8 0xFFFFFFFFFFFFFFFF DUP2 GT ISZERO PUSH2 0x473 JUMPI PUSH2 0x472 PUSH2 0x6BF JUMP JUMPDEST JUMPDEST PUSH2 0x47F DUP6 DUP3 DUP7 ADD PUSH2 0x3D2 JUMP JUMPDEST SWAP2 POP POP SWAP3 POP SWAP3 SWAP1 POP JUMP JUMPDEST PUSH2 0x492 DUP2 PUSH2 0x580 JUMP JUMPDEST DUP3 MSTORE POP POP JUMP JUMPDEST PUSH1 0x0 PUSH2 0x4A3 DUP3 PUSH2 0x564 JUMP JUMPDEST PUSH2 0x4AD DUP2 DUP6 PUSH2 0x56F JUMP JUMPDEST SWAP4 POP PUSH2 0x4BD DUP2 DUP6 PUSH1 0x20 DUP7 ADD PUSH2 0x5C1 JUMP JUMPDEST PUSH2 0x4C6 DUP2 PUSH2 0x6C9 JUMP JUMPDEST DUP5 ADD SWAP2 POP POP SWAP3 SWAP2 POP POP JUMP JUMPDEST PUSH1 0x0 PUSH1 0x20 DUP3 ADD SWAP1 POP PUSH2 0x4E6 PUSH1 0x0 DUP4 ADD DUP5 PUSH2 0x489 JUMP JUMPDEST SWAP3 SWAP2 POP POP JUMP JUMPDEST PUSH1 0x0 PUSH1 0x20 DUP3 ADD SWAP1 POP DUP2 DUP2 SUB PUSH1 0x0 DUP4 ADD MSTORE PUSH2 0x506 DUP2 DUP5 PUSH2 0x498 JUMP JUMPDEST SWAP1 POP SWAP3 SWAP2 POP POP JUMP JUMPDEST PUSH1 0x0 PUSH2 0x518 PUSH2 0x529 JUMP JUMPDEST SWAP1 POP PUSH2 0x524 DUP3 DUP3 PUSH2 0x626 JUMP JUMPDEST SWAP2 SWAP1 POP JUMP JUMPDEST PUSH1 0x0 PUSH1 0x40 MLOAD SWAP1 POP SWAP1 JUMP JUMPDEST PUSH1 0x0 PUSH8 0xFFFFFFFFFFFFFFFF DUP3 GT ISZERO PUSH2 0x54E JUMPI PUSH2 0x54D PUSH2 0x686 JUMP JUMPDEST JUMPDEST PUSH2 0x557 DUP3 PUSH2 0x6C9 JUMP JUMPDEST SWAP1 POP PUSH1 0x20 DUP2 ADD SWAP1 POP SWAP2 SWAP1 POP JUMP JUMPDEST PUSH1 0x0 DUP2 MLOAD SWAP1 POP SWAP2 SWAP1 POP JUMP JUMPDEST PUSH1 0x0 DUP3 DUP3 MSTORE PUSH1 0x20 DUP3 ADD SWAP1 POP SWAP3 SWAP2 POP POP JUMP JUMPDEST PUSH1 0x0 PUSH2 0x58B DUP3 PUSH2 0x592 JUMP JUMPDEST SWAP1 POP SWAP2 SWAP1 POP JUMP JUMPDEST PUSH1 0x0 PUSH20 0xFFFFFFFFFFFFFFFFFFFFFFFFFFFFFFFFFFFFFFFF DUP3 AND SWAP1 POP SWAP2 SWAP1 POP JUMP JUMPDEST DUP3 DUP2 DUP4 CALLDATACOPY PUSH1 0x0 DUP4 DUP4 ADD MSTORE POP POP POP JUMP JUMPDEST PUSH1 0x0 JUMPDEST DUP4 DUP2 LT ISZERO PUSH2 0x5DF JUMPI DUP1 DUP3 ADD MLOAD DUP2 DUP5 ADD MSTORE PUSH1 0x20 DUP2 ADD SWAP1 POP PUSH2 0x5C4 JUMP JUMPDEST DUP4 DUP2 GT ISZERO PUSH2 0x5EE JUMPI PUSH1 0x0 DUP5 DUP5 ADD MSTORE JUMPDEST POP POP POP POP JUMP JUMPDEST PUSH1 0x0 PUSH1 0x2 DUP3 DIV SWAP1 POP PUSH1 0x1 DUP3 AND DUP1 PUSH2 0x60C JUMPI PUSH1 0x7F DUP3 AND SWAP2 POP JUMPDEST PUSH1 0x20 DUP3 LT DUP2 EQ ISZERO PUSH2 0x620 JUMPI PUSH2 0x61F PUSH2 0x657 JUMP JUMPDEST JUMPDEST POP SWAP2 SWAP1 POP JUMP JUMPDEST PUSH2 0x62F DUP3 PUSH2 0x6C9 JUMP JUMPDEST DUP2 ADD DUP2 DUP2 LT PUSH8 0xFFFFFFFFFFFFFFFF DUP3 GT OR ISZERO PUSH2 0x64E JUMPI PUSH2 0x64D PUSH2 0x686 JUMP JUMPDEST JUMPDEST DUP1 PUSH1 0x40 MSTORE POP POP POP JUMP JUMPDEST PUSH32 0x4E487B7100000000000000000000000000000000000000000000000000000000 PUSH1 0x0 MSTORE PUSH1 0x22 PUSH1 0x4 MSTORE PUSH1 0x24 PUSH1 0x0 REVERT JUMPDEST PUSH32 0x4E487B7100000000000000000000000000000000000000000000000000000000 PUSH1 0x0 MSTORE PUSH1 0x41 PUSH1 0x4 MSTORE PUSH1 0x24 PUSH1 0x0 REVERT JUMPDEST PUSH1 0x0 DUP1 REVERT JUMPDEST PUSH1 0x0 DUP1 REVERT JUMPDEST PUSH1 0x0 DUP1 REVERT JUMPDEST PUSH1 0x0 DUP1 REVERT JUMPDEST PUSH1 0x0 PUSH1 0x1F NOT PUSH1 0x1F DUP4 ADD AND SWAP1 POP SWAP2 SWAP1 POP JUMP JUMPDEST PUSH2 0x6E3 DUP2 PUSH2 0x580 JUMP JUMPDEST DUP2 EQ PUSH2 0x6EE JUMPI PUSH1 0x0 DUP1 REVERT JUMPDEST POP JUMP INVALID LOG2 PUSH5 0x6970667358 0x22 SLT KECCAK256 BALANCE 0xB4 LOG2 0xD4 0x25 0xE6 ISZERO 0xAE 0xB6 PUSH23 0x2ACDC051D79E26DE3D8906B232949CACBC9108B47E764 PUSH20 0x6F6C634300080700330000000000000000000000 "
				},
				"gasEstimates": {
					"creation": {
						"codeDepositCost": "366200",
						"executionCost": "24671",
						"totalCost": "390871"
					},
					"external": {
						"getRecord(address)": "infinite",
						"owner()": "2555",
						"recordsRecieved(address)": "infinite",
						"sendRecord(address,string)": "infinite"
					}
				},
				"methodIdentifiers": {
					"getRecord(address)": "617fba04",
					"owner()": "8da5cb5b",
					"recordsRecieved(address)": "8b1838f6",
					"sendRecord(address,string)": "106c71a9"
				}
			},
			"storageLayout": {
				"storage": [
					{
						"astId": 3,
						"contract": "Downloads/Programming/blocket-wildcard/apps/smart-contracts/src/RecordInterface.sol:RecordInterface",
						"label": "owner",
						"offset": 0,
						"slot": "0",
						"type": "t_address"
					},
					{
						"astId": 7,
						"contract": "Downloads/Programming/blocket-wildcard/apps/smart-contracts/src/RecordInterface.sol:RecordInterface",
						"label": "recordsRecieved",
						"offset": 0,
						"slot": "1",
						"type": "t_mapping(t_address,t_string_storage)"
					}
				],
				"types": {
					"t_address": {
						"encoding": "inplace",
						"label": "address",
						"numberOfBytes": "20"
					},
					"t_mapping(t_address,t_string_storage)": {
						"encoding": "mapping",
						"key": "t_address",
						"label": "mapping(address => string)",
						"numberOfBytes": "32",
						"value": "t_string_storage"
					},
					"t_string_storage": {
						"encoding": "bytes",
						"label": "string",
						"numberOfBytes": "32"
					}
				}
			},
			"userdoc": {
				"kind": "user",
				"methods": {},
				"version": 1
			}
		}
	}
}