{
	"Downloads/Programming/blocket-wildcard/apps/smart-contracts/contracts/DemoIDN.sol": {
		"DemoIDN": {
			"abi": [
				{
					"inputs": [
						{
							"internalType": "string",
							"name": "_name",
							"type": "string"
						}
					],
					"stateMutability": "nonpayable",
					"type": "constructor"
				},
				{
					"inputs": [
						{
							"internalType": "string",
							"name": "_name",
							"type": "string"
						},
						{
							"internalType": "address",
							"name": "pk",
							"type": "address"
						},
						{
							"internalType": "address",
							"name": "resourcecontract",
							"type": "address"
						},
						{
							"internalType": "string",
							"name": "_url",
							"type": "string"
						}
					],
					"name": "addResource",
					"outputs": [],
					"stateMutability": "nonpayable",
					"type": "function"
				},
				{
					"inputs": [
						{
							"internalType": "string",
							"name": "_name",
							"type": "string"
						},
						{
							"internalType": "address",
							"name": "pk",
							"type": "address"
						},
						{
							"internalType": "string",
							"name": "_url",
							"type": "string"
						}
					],
					"name": "addResource",
					"outputs": [],
					"stateMutability": "nonpayable",
					"type": "function"
				},
				{
					"inputs": [
						{
							"internalType": "uint256",
							"name": "i",
							"type": "uint256"
						}
					],
					"name": "getResource",
					"outputs": [
						{
							"components": [
								{
									"internalType": "string",
									"name": "resourceName",
									"type": "string"
								},
								{
									"internalType": "address",
									"name": "resourcePK",
									"type": "address"
								},
								{
									"internalType": "address",
									"name": "resourceContract",
									"type": "address"
								},
								{
									"internalType": "string",
									"name": "resourceURL",
									"type": "string"
								}
							],
							"internalType": "struct DemoIDN.Resource",
							"name": "",
							"type": "tuple"
						}
					],
					"stateMutability": "view",
					"type": "function"
				},
				{
					"inputs": [],
					"name": "name",
					"outputs": [
						{
							"internalType": "string",
							"name": "",
							"type": "string"
						}
					],
					"stateMutability": "view",
					"type": "function"
				},
				{
					"inputs": [],
					"name": "owner",
					"outputs": [
						{
							"internalType": "address",
							"name": "",
							"type": "address"
						}
					],
					"stateMutability": "view",
					"type": "function"
				},
				{
					"inputs": [
						{
							"internalType": "uint256",
							"name": "",
							"type": "uint256"
						}
					],
					"name": "resources",
					"outputs": [
						{
							"internalType": "string",
							"name": "resourceName",
							"type": "string"
						},
						{
							"internalType": "address",
							"name": "resourcePK",
							"type": "address"
						},
						{
							"internalType": "address",
							"name": "resourceContract",
							"type": "address"
						},
						{
							"internalType": "string",
							"name": "resourceURL",
							"type": "string"
						}
					],
					"stateMutability": "view",
					"type": "function"
				}
			],
			"devdoc": {
				"kind": "dev",
				"methods": {},
				"version": 1
			},
			"evm": {
				"assembly": "    /* \"Downloads/Programming/blocket-wildcard/apps/smart-contracts/contracts/DemoIDN.sol\":69:1459  contract DemoIDN {... */\n  mstore(0x40, 0x80)\n    /* \"Downloads/Programming/blocket-wildcard/apps/smart-contracts/contracts/DemoIDN.sol\":412:413  0 */\n  0x00\n    /* \"Downloads/Programming/blocket-wildcard/apps/smart-contracts/contracts/DemoIDN.sol\":380:413  uint256 private resourceCount = 0 */\n  0x03\n  sstore\n    /* \"Downloads/Programming/blocket-wildcard/apps/smart-contracts/contracts/DemoIDN.sol\":567:657  constructor(string memory _name) {... */\n  callvalue\n  dup1\n  iszero\n  tag_1\n  jumpi\n  0x00\n  dup1\n  revert\ntag_1:\n  pop\n  mload(0x40)\n  sub(codesize, bytecodeSize)\n  dup1\n  bytecodeSize\n  dup4\n  codecopy\n  dup2\n  dup2\n  add\n  0x40\n  mstore\n  dup2\n  add\n  swap1\n  tag_2\n  swap2\n  swap1\n  tag_3\n  jump\t// in\ntag_2:\n    /* \"Downloads/Programming/blocket-wildcard/apps/smart-contracts/contracts/DemoIDN.sol\":618:628  msg.sender */\n  caller\n    /* \"Downloads/Programming/blocket-wildcard/apps/smart-contracts/contracts/DemoIDN.sol\":610:615  owner */\n  0x00\n  dup1\n    /* \"Downloads/Programming/blocket-wildcard/apps/smart-contracts/contracts/DemoIDN.sol\":610:628  owner = msg.sender */\n  0x0100\n  exp\n  dup2\n  sload\n  dup2\n  0xffffffffffffffffffffffffffffffffffffffff\n  mul\n  not\n  and\n  swap1\n  dup4\n  0xffffffffffffffffffffffffffffffffffffffff\n  and\n  mul\n  or\n  swap1\n  sstore\n  pop\n    /* \"Downloads/Programming/blocket-wildcard/apps/smart-contracts/contracts/DemoIDN.sol\":645:650  _name */\n  dup1\n    /* \"Downloads/Programming/blocket-wildcard/apps/smart-contracts/contracts/DemoIDN.sol\":638:642  name */\n  0x01\n    /* \"Downloads/Programming/blocket-wildcard/apps/smart-contracts/contracts/DemoIDN.sol\":638:650  name = _name */\n  swap1\n  dup1\n  mload\n  swap1\n  0x20\n  add\n  swap1\n  tag_6\n  swap3\n  swap2\n  swap1\n  tag_7\n  jump\t// in\ntag_6:\n  pop\n    /* \"Downloads/Programming/blocket-wildcard/apps/smart-contracts/contracts/DemoIDN.sol\":567:657  constructor(string memory _name) {... */\n  pop\n    /* \"Downloads/Programming/blocket-wildcard/apps/smart-contracts/contracts/DemoIDN.sol\":69:1459  contract DemoIDN {... */\n  jump(tag_8)\ntag_7:\n  dup3\n  dup1\n  sload\n  tag_9\n  swap1\n  tag_10\n  jump\t// in\ntag_9:\n  swap1\n  0x00\n  mstore\n  keccak256(0x00, 0x20)\n  swap1\n  0x1f\n  add\n  0x20\n  swap1\n  div\n  dup2\n  add\n  swap3\n  dup3\n  tag_12\n  jumpi\n  0x00\n  dup6\n  sstore\n  jump(tag_11)\ntag_12:\n  dup3\n  0x1f\n  lt\n  tag_13\n  jumpi\n  dup1\n  mload\n  not(0xff)\n  and\n  dup4\n  dup1\n  add\n  or\n  dup6\n  sstore\n  jump(tag_11)\ntag_13:\n  dup3\n  dup1\n  add\n  0x01\n  add\n  dup6\n  sstore\n  dup3\n  iszero\n  tag_11\n  jumpi\n  swap2\n  dup3\n  add\ntag_14:\n  dup3\n  dup2\n  gt\n  iszero\n  tag_15\n  jumpi\n  dup3\n  mload\n  dup3\n  sstore\n  swap2\n  0x20\n  add\n  swap2\n  swap1\n  0x01\n  add\n  swap1\n  jump(tag_14)\ntag_15:\ntag_11:\n  pop\n  swap1\n  pop\n  tag_16\n  swap2\n  swap1\n  tag_17\n  jump\t// in\ntag_16:\n  pop\n  swap1\n  jump\t// out\ntag_17:\ntag_18:\n  dup1\n  dup3\n  gt\n  iszero\n  tag_19\n  jumpi\n  0x00\n  dup2\n  0x00\n  swap1\n  sstore\n  pop\n  0x01\n  add\n  jump(tag_18)\ntag_19:\n  pop\n  swap1\n  jump\t// out\n    /* \"#utility.yul\":7:428   */\ntag_21:\n    /* \"#utility.yul\":96:101   */\n  0x00\n    /* \"#utility.yul\":121:187   */\n  tag_23\n    /* \"#utility.yul\":137:186   */\n  tag_24\n    /* \"#utility.yul\":179:185   */\n  dup5\n    /* \"#utility.yul\":137:186   */\n  tag_25\n  jump\t// in\ntag_24:\n    /* \"#utility.yul\":121:187   */\n  tag_26\n  jump\t// in\ntag_23:\n    /* \"#utility.yul\":112:187   */\n  swap1\n  pop\n    /* \"#utility.yul\":210:216   */\n  dup3\n    /* \"#utility.yul\":203:208   */\n  dup2\n    /* \"#utility.yul\":196:217   */\n  mstore\n    /* \"#utility.yul\":248:252   */\n  0x20\n    /* \"#utility.yul\":241:246   */\n  dup2\n    /* \"#utility.yul\":237:253   */\n  add\n    /* \"#utility.yul\":286:289   */\n  dup5\n    /* \"#utility.yul\":277:283   */\n  dup5\n    /* \"#utility.yul\":272:275   */\n  dup5\n    /* \"#utility.yul\":268:284   */\n  add\n    /* \"#utility.yul\":265:290   */\n  gt\n    /* \"#utility.yul\":262:374   */\n  iszero\n  tag_27\n  jumpi\n    /* \"#utility.yul\":293:372   */\n  tag_28\n  tag_29\n  jump\t// in\ntag_28:\n    /* \"#utility.yul\":262:374   */\ntag_27:\n    /* \"#utility.yul\":383:422   */\n  tag_30\n    /* \"#utility.yul\":415:421   */\n  dup5\n    /* \"#utility.yul\":410:413   */\n  dup3\n    /* \"#utility.yul\":405:408   */\n  dup6\n    /* \"#utility.yul\":383:422   */\n  tag_31\n  jump\t// in\ntag_30:\n    /* \"#utility.yul\":102:428   */\n  pop\n    /* \"#utility.yul\":7:428   */\n  swap4\n  swap3\n  pop\n  pop\n  pop\n  jump\t// out\n    /* \"#utility.yul\":448:803   */\ntag_32:\n    /* \"#utility.yul\":515:520   */\n  0x00\n    /* \"#utility.yul\":564:567   */\n  dup3\n    /* \"#utility.yul\":557:561   */\n  0x1f\n    /* \"#utility.yul\":549:555   */\n  dup4\n    /* \"#utility.yul\":545:562   */\n  add\n    /* \"#utility.yul\":541:568   */\n  slt\n    /* \"#utility.yul\":531:653   */\n  tag_34\n  jumpi\n    /* \"#utility.yul\":572:651   */\n  tag_35\n  tag_36\n  jump\t// in\ntag_35:\n    /* \"#utility.yul\":531:653   */\ntag_34:\n    /* \"#utility.yul\":682:688   */\n  dup2\n    /* \"#utility.yul\":676:689   */\n  mload\n    /* \"#utility.yul\":707:797   */\n  tag_37\n    /* \"#utility.yul\":793:796   */\n  dup5\n    /* \"#utility.yul\":785:791   */\n  dup3\n    /* \"#utility.yul\":778:782   */\n  0x20\n    /* \"#utility.yul\":770:776   */\n  dup7\n    /* \"#utility.yul\":766:783   */\n  add\n    /* \"#utility.yul\":707:797   */\n  tag_21\n  jump\t// in\ntag_37:\n    /* \"#utility.yul\":698:797   */\n  swap2\n  pop\n    /* \"#utility.yul\":521:803   */\n  pop\n    /* \"#utility.yul\":448:803   */\n  swap3\n  swap2\n  pop\n  pop\n  jump\t// out\n    /* \"#utility.yul\":809:1333   */\ntag_3:\n    /* \"#utility.yul\":889:895   */\n  0x00\n    /* \"#utility.yul\":938:940   */\n  0x20\n    /* \"#utility.yul\":926:935   */\n  dup3\n    /* \"#utility.yul\":917:924   */\n  dup5\n    /* \"#utility.yul\":913:936   */\n  sub\n    /* \"#utility.yul\":909:941   */\n  slt\n    /* \"#utility.yul\":906:1025   */\n  iszero\n  tag_39\n  jumpi\n    /* \"#utility.yul\":944:1023   */\n  tag_40\n  tag_41\n  jump\t// in\ntag_40:\n    /* \"#utility.yul\":906:1025   */\ntag_39:\n    /* \"#utility.yul\":1085:1086   */\n  0x00\n    /* \"#utility.yul\":1074:1083   */\n  dup3\n    /* \"#utility.yul\":1070:1087   */\n  add\n    /* \"#utility.yul\":1064:1088   */\n  mload\n    /* \"#utility.yul\":1115:1133   */\n  0xffffffffffffffff\n    /* \"#utility.yul\":1107:1113   */\n  dup2\n    /* \"#utility.yul\":1104:1134   */\n  gt\n    /* \"#utility.yul\":1101:1218   */\n  iszero\n  tag_42\n  jumpi\n    /* \"#utility.yul\":1137:1216   */\n  tag_43\n  tag_44\n  jump\t// in\ntag_43:\n    /* \"#utility.yul\":1101:1218   */\ntag_42:\n    /* \"#utility.yul\":1242:1316   */\n  tag_45\n    /* \"#utility.yul\":1308:1315   */\n  dup5\n    /* \"#utility.yul\":1299:1305   */\n  dup3\n    /* \"#utility.yul\":1288:1297   */\n  dup6\n    /* \"#utility.yul\":1284:1306   */\n  add\n    /* \"#utility.yul\":1242:1316   */\n  tag_32\n  jump\t// in\ntag_45:\n    /* \"#utility.yul\":1232:1316   */\n  swap2\n  pop\n    /* \"#utility.yul\":1035:1326   */\n  pop\n    /* \"#utility.yul\":809:1333   */\n  swap3\n  swap2\n  pop\n  pop\n  jump\t// out\n    /* \"#utility.yul\":1339:1468   */\ntag_26:\n    /* \"#utility.yul\":1373:1379   */\n  0x00\n    /* \"#utility.yul\":1400:1420   */\n  tag_47\n  tag_48\n  jump\t// in\ntag_47:\n    /* \"#utility.yul\":1390:1420   */\n  swap1\n  pop\n    /* \"#utility.yul\":1429:1462   */\n  tag_49\n    /* \"#utility.yul\":1457:1461   */\n  dup3\n    /* \"#utility.yul\":1449:1455   */\n  dup3\n    /* \"#utility.yul\":1429:1462   */\n  tag_50\n  jump\t// in\ntag_49:\n    /* \"#utility.yul\":1339:1468   */\n  swap2\n  swap1\n  pop\n  jump\t// out\n    /* \"#utility.yul\":1474:1549   */\ntag_48:\n    /* \"#utility.yul\":1507:1513   */\n  0x00\n    /* \"#utility.yul\":1540:1542   */\n  0x40\n    /* \"#utility.yul\":1534:1543   */\n  mload\n    /* \"#utility.yul\":1524:1543   */\n  swap1\n  pop\n    /* \"#utility.yul\":1474:1549   */\n  swap1\n  jump\t// out\n    /* \"#utility.yul\":1555:1863   */\ntag_25:\n    /* \"#utility.yul\":1617:1621   */\n  0x00\n    /* \"#utility.yul\":1707:1725   */\n  0xffffffffffffffff\n    /* \"#utility.yul\":1699:1705   */\n  dup3\n    /* \"#utility.yul\":1696:1726   */\n  gt\n    /* \"#utility.yul\":1693:1749   */\n  iszero\n  tag_53\n  jumpi\n    /* \"#utility.yul\":1729:1747   */\n  tag_54\n  tag_55\n  jump\t// in\ntag_54:\n    /* \"#utility.yul\":1693:1749   */\ntag_53:\n    /* \"#utility.yul\":1767:1796   */\n  tag_56\n    /* \"#utility.yul\":1789:1795   */\n  dup3\n    /* \"#utility.yul\":1767:1796   */\n  tag_57\n  jump\t// in\ntag_56:\n    /* \"#utility.yul\":1759:1796   */\n  swap1\n  pop\n    /* \"#utility.yul\":1851:1855   */\n  0x20\n    /* \"#utility.yul\":1845:1849   */\n  dup2\n    /* \"#utility.yul\":1841:1856   */\n  add\n    /* \"#utility.yul\":1833:1856   */\n  swap1\n  pop\n    /* \"#utility.yul\":1555:1863   */\n  swap2\n  swap1\n  pop\n  jump\t// out\n    /* \"#utility.yul\":1869:2176   */\ntag_31:\n    /* \"#utility.yul\":1937:1938   */\n  0x00\n    /* \"#utility.yul\":1947:2060   */\ntag_59:\n    /* \"#utility.yul\":1961:1967   */\n  dup4\n    /* \"#utility.yul\":1958:1959   */\n  dup2\n    /* \"#utility.yul\":1955:1968   */\n  lt\n    /* \"#utility.yul\":1947:2060   */\n  iszero\n  tag_61\n  jumpi\n    /* \"#utility.yul\":2046:2047   */\n  dup1\n    /* \"#utility.yul\":2041:2044   */\n  dup3\n    /* \"#utility.yul\":2037:2048   */\n  add\n    /* \"#utility.yul\":2031:2049   */\n  mload\n    /* \"#utility.yul\":2027:2028   */\n  dup2\n    /* \"#utility.yul\":2022:2025   */\n  dup5\n    /* \"#utility.yul\":2018:2029   */\n  add\n    /* \"#utility.yul\":2011:2050   */\n  mstore\n    /* \"#utility.yul\":1983:1985   */\n  0x20\n    /* \"#utility.yul\":1980:1981   */\n  dup2\n    /* \"#utility.yul\":1976:1986   */\n  add\n    /* \"#utility.yul\":1971:1986   */\n  swap1\n  pop\n    /* \"#utility.yul\":1947:2060   */\n  jump(tag_59)\ntag_61:\n    /* \"#utility.yul\":2078:2084   */\n  dup4\n    /* \"#utility.yul\":2075:2076   */\n  dup2\n    /* \"#utility.yul\":2072:2085   */\n  gt\n    /* \"#utility.yul\":2069:2170   */\n  iszero\n  tag_62\n  jumpi\n    /* \"#utility.yul\":2158:2159   */\n  0x00\n    /* \"#utility.yul\":2149:2155   */\n  dup5\n    /* \"#utility.yul\":2144:2147   */\n  dup5\n    /* \"#utility.yul\":2140:2156   */\n  add\n    /* \"#utility.yul\":2133:2160   */\n  mstore\n    /* \"#utility.yul\":2069:2170   */\ntag_62:\n    /* \"#utility.yul\":1918:2176   */\n  pop\n    /* \"#utility.yul\":1869:2176   */\n  pop\n  pop\n  pop\n  jump\t// out\n    /* \"#utility.yul\":2182:2502   */\ntag_10:\n    /* \"#utility.yul\":2226:2232   */\n  0x00\n    /* \"#utility.yul\":2263:2264   */\n  0x02\n    /* \"#utility.yul\":2257:2261   */\n  dup3\n    /* \"#utility.yul\":2253:2265   */\n  div\n    /* \"#utility.yul\":2243:2265   */\n  swap1\n  pop\n    /* \"#utility.yul\":2310:2311   */\n  0x01\n    /* \"#utility.yul\":2304:2308   */\n  dup3\n    /* \"#utility.yul\":2300:2312   */\n  and\n    /* \"#utility.yul\":2331:2349   */\n  dup1\n    /* \"#utility.yul\":2321:2402   */\n  tag_64\n  jumpi\n    /* \"#utility.yul\":2387:2391   */\n  0x7f\n    /* \"#utility.yul\":2379:2385   */\n  dup3\n    /* \"#utility.yul\":2375:2392   */\n  and\n    /* \"#utility.yul\":2365:2392   */\n  swap2\n  pop\n    /* \"#utility.yul\":2321:2402   */\ntag_64:\n    /* \"#utility.yul\":2449:2451   */\n  0x20\n    /* \"#utility.yul\":2441:2447   */\n  dup3\n    /* \"#utility.yul\":2438:2452   */\n  lt\n    /* \"#utility.yul\":2418:2436   */\n  dup2\n    /* \"#utility.yul\":2415:2453   */\n  eq\n    /* \"#utility.yul\":2412:2496   */\n  iszero\n  tag_65\n  jumpi\n    /* \"#utility.yul\":2468:2486   */\n  tag_66\n  tag_67\n  jump\t// in\ntag_66:\n    /* \"#utility.yul\":2412:2496   */\ntag_65:\n    /* \"#utility.yul\":2233:2502   */\n  pop\n    /* \"#utility.yul\":2182:2502   */\n  swap2\n  swap1\n  pop\n  jump\t// out\n    /* \"#utility.yul\":2508:2789   */\ntag_50:\n    /* \"#utility.yul\":2591:2618   */\n  tag_69\n    /* \"#utility.yul\":2613:2617   */\n  dup3\n    /* \"#utility.yul\":2591:2618   */\n  tag_57\n  jump\t// in\ntag_69:\n    /* \"#utility.yul\":2583:2589   */\n  dup2\n    /* \"#utility.yul\":2579:2619   */\n  add\n    /* \"#utility.yul\":2721:2727   */\n  dup2\n    /* \"#utility.yul\":2709:2719   */\n  dup2\n    /* \"#utility.yul\":2706:2728   */\n  lt\n    /* \"#utility.yul\":2685:2703   */\n  0xffffffffffffffff\n    /* \"#utility.yul\":2673:2683   */\n  dup3\n    /* \"#utility.yul\":2670:2704   */\n  gt\n    /* \"#utility.yul\":2667:2729   */\n  or\n    /* \"#utility.yul\":2664:2752   */\n  iszero\n  tag_70\n  jumpi\n    /* \"#utility.yul\":2732:2750   */\n  tag_71\n  tag_55\n  jump\t// in\ntag_71:\n    /* \"#utility.yul\":2664:2752   */\ntag_70:\n    /* \"#utility.yul\":2772:2782   */\n  dup1\n    /* \"#utility.yul\":2768:2770   */\n  0x40\n    /* \"#utility.yul\":2761:2783   */\n  mstore\n    /* \"#utility.yul\":2551:2789   */\n  pop\n    /* \"#utility.yul\":2508:2789   */\n  pop\n  pop\n  jump\t// out\n    /* \"#utility.yul\":2795:2975   */\ntag_67:\n    /* \"#utility.yul\":2843:2920   */\n  0x4e487b7100000000000000000000000000000000000000000000000000000000\n    /* \"#utility.yul\":2840:2841   */\n  0x00\n    /* \"#utility.yul\":2833:2921   */\n  mstore\n    /* \"#utility.yul\":2940:2944   */\n  0x22\n    /* \"#utility.yul\":2937:2938   */\n  0x04\n    /* \"#utility.yul\":2930:2945   */\n  mstore\n    /* \"#utility.yul\":2964:2968   */\n  0x24\n    /* \"#utility.yul\":2961:2962   */\n  0x00\n    /* \"#utility.yul\":2954:2969   */\n  revert\n    /* \"#utility.yul\":2981:3161   */\ntag_55:\n    /* \"#utility.yul\":3029:3106   */\n  0x4e487b7100000000000000000000000000000000000000000000000000000000\n    /* \"#utility.yul\":3026:3027   */\n  0x00\n    /* \"#utility.yul\":3019:3107   */\n  mstore\n    /* \"#utility.yul\":3126:3130   */\n  0x41\n    /* \"#utility.yul\":3123:3124   */\n  0x04\n    /* \"#utility.yul\":3116:3131   */\n  mstore\n    /* \"#utility.yul\":3150:3154   */\n  0x24\n    /* \"#utility.yul\":3147:3148   */\n  0x00\n    /* \"#utility.yul\":3140:3155   */\n  revert\n    /* \"#utility.yul\":3167:3284   */\ntag_36:\n    /* \"#utility.yul\":3276:3277   */\n  0x00\n    /* \"#utility.yul\":3273:3274   */\n  dup1\n    /* \"#utility.yul\":3266:3278   */\n  revert\n    /* \"#utility.yul\":3290:3407   */\ntag_29:\n    /* \"#utility.yul\":3399:3400   */\n  0x00\n    /* \"#utility.yul\":3396:3397   */\n  dup1\n    /* \"#utility.yul\":3389:3401   */\n  revert\n    /* \"#utility.yul\":3413:3530   */\ntag_44:\n    /* \"#utility.yul\":3522:3523   */\n  0x00\n    /* \"#utility.yul\":3519:3520   */\n  dup1\n    /* \"#utility.yul\":3512:3524   */\n  revert\n    /* \"#utility.yul\":3536:3653   */\ntag_41:\n    /* \"#utility.yul\":3645:3646   */\n  0x00\n    /* \"#utility.yul\":3642:3643   */\n  dup1\n    /* \"#utility.yul\":3635:3647   */\n  revert\n    /* \"#utility.yul\":3659:3761   */\ntag_57:\n    /* \"#utility.yul\":3700:3706   */\n  0x00\n    /* \"#utility.yul\":3751:3753   */\n  0x1f\n    /* \"#utility.yul\":3747:3754   */\n  not\n    /* \"#utility.yul\":3742:3744   */\n  0x1f\n    /* \"#utility.yul\":3735:3740   */\n  dup4\n    /* \"#utility.yul\":3731:3745   */\n  add\n    /* \"#utility.yul\":3727:3755   */\n  and\n    /* \"#utility.yul\":3717:3755   */\n  swap1\n  pop\n    /* \"#utility.yul\":3659:3761   */\n  swap2\n  swap1\n  pop\n  jump\t// out\n    /* \"Downloads/Programming/blocket-wildcard/apps/smart-contracts/contracts/DemoIDN.sol\":69:1459  contract DemoIDN {... */\ntag_8:\n  dataSize(sub_0)\n  dup1\n  dataOffset(sub_0)\n  0x00\n  codecopy\n  0x00\n  return\nstop\n\nsub_0: assembly {\n        /* \"Downloads/Programming/blocket-wildcard/apps/smart-contracts/contracts/DemoIDN.sol\":69:1459  contract DemoIDN {... */\n      mstore(0x40, 0x80)\n      callvalue\n      dup1\n      iszero\n      tag_1\n      jumpi\n      0x00\n      dup1\n      revert\n    tag_1:\n      pop\n      jumpi(tag_2, lt(calldatasize, 0x04))\n      shr(0xe0, calldataload(0x00))\n      dup1\n      0x06fdde03\n      eq\n      tag_3\n      jumpi\n      dup1\n      0x1e8fca2d\n      eq\n      tag_4\n      jumpi\n      dup1\n      0x244d6daa\n      eq\n      tag_5\n      jumpi\n      dup1\n      0x797196b3\n      eq\n      tag_6\n      jumpi\n      dup1\n      0x8da5cb5b\n      eq\n      tag_7\n      jumpi\n      dup1\n      0xa5448539\n      eq\n      tag_8\n      jumpi\n    tag_2:\n      0x00\n      dup1\n      revert\n        /* \"Downloads/Programming/blocket-wildcard/apps/smart-contracts/contracts/DemoIDN.sol\":225:243  string public name */\n    tag_3:\n      tag_9\n      tag_10\n      jump\t// in\n    tag_9:\n      mload(0x40)\n      tag_11\n      swap2\n      swap1\n      tag_12\n      jump\t// in\n    tag_11:\n      mload(0x40)\n      dup1\n      swap2\n      sub\n      swap1\n      return\n        /* \"Downloads/Programming/blocket-wildcard/apps/smart-contracts/contracts/DemoIDN.sol\":1351:1457  function getResource(uint256 i) public view returns (Resource memory) {... */\n    tag_4:\n      tag_13\n      0x04\n      dup1\n      calldatasize\n      sub\n      dup2\n      add\n      swap1\n      tag_14\n      swap2\n      swap1\n      tag_15\n      jump\t// in\n    tag_14:\n      tag_16\n      jump\t// in\n    tag_13:\n      mload(0x40)\n      tag_17\n      swap2\n      swap1\n      tag_18\n      jump\t// in\n    tag_17:\n      mload(0x40)\n      dup1\n      swap2\n      sub\n      swap1\n      return\n        /* \"Downloads/Programming/blocket-wildcard/apps/smart-contracts/contracts/DemoIDN.sol\":329:374  mapping(uint256 => Resource) public resources */\n    tag_5:\n      tag_19\n      0x04\n      dup1\n      calldatasize\n      sub\n      dup2\n      add\n      swap1\n      tag_20\n      swap2\n      swap1\n      tag_15\n      jump\t// in\n    tag_20:\n      tag_21\n      jump\t// in\n    tag_19:\n      mload(0x40)\n      tag_22\n      swap5\n      swap4\n      swap3\n      swap2\n      swap1\n      tag_23\n      jump\t// in\n    tag_22:\n      mload(0x40)\n      dup1\n      swap2\n      sub\n      swap1\n      return\n        /* \"Downloads/Programming/blocket-wildcard/apps/smart-contracts/contracts/DemoIDN.sol\":663:1020  function addResource(... */\n    tag_6:\n      tag_24\n      0x04\n      dup1\n      calldatasize\n      sub\n      dup2\n      add\n      swap1\n      tag_25\n      swap2\n      swap1\n      tag_26\n      jump\t// in\n    tag_25:\n      tag_27\n      jump\t// in\n    tag_24:\n      stop\n        /* \"Downloads/Programming/blocket-wildcard/apps/smart-contracts/contracts/DemoIDN.sol\":199:219  address public owner */\n    tag_7:\n      tag_28\n      tag_29\n      jump\t// in\n    tag_28:\n      mload(0x40)\n      tag_30\n      swap2\n      swap1\n      tag_31\n      jump\t// in\n    tag_30:\n      mload(0x40)\n      dup1\n      swap2\n      sub\n      swap1\n      return\n        /* \"Downloads/Programming/blocket-wildcard/apps/smart-contracts/contracts/DemoIDN.sol\":1026:1345  function addResource(... */\n    tag_8:\n      tag_32\n      0x04\n      dup1\n      calldatasize\n      sub\n      dup2\n      add\n      swap1\n      tag_33\n      swap2\n      swap1\n      tag_34\n      jump\t// in\n    tag_33:\n      tag_35\n      jump\t// in\n    tag_32:\n      stop\n        /* \"Downloads/Programming/blocket-wildcard/apps/smart-contracts/contracts/DemoIDN.sol\":225:243  string public name */\n    tag_10:\n      0x01\n      dup1\n      sload\n      tag_36\n      swap1\n      tag_37\n      jump\t// in\n    tag_36:\n      dup1\n      0x1f\n      add\n      0x20\n      dup1\n      swap2\n      div\n      mul\n      0x20\n      add\n      mload(0x40)\n      swap1\n      dup2\n      add\n      0x40\n      mstore\n      dup1\n      swap3\n      swap2\n      swap1\n      dup2\n      dup2\n      mstore\n      0x20\n      add\n      dup3\n      dup1\n      sload\n      tag_38\n      swap1\n      tag_37\n      jump\t// in\n    tag_38:\n      dup1\n      iszero\n      tag_39\n      jumpi\n      dup1\n      0x1f\n      lt\n      tag_40\n      jumpi\n      0x0100\n      dup1\n      dup4\n      sload\n      div\n      mul\n      dup4\n      mstore\n      swap2\n      0x20\n      add\n      swap2\n      jump(tag_39)\n    tag_40:\n      dup3\n      add\n      swap2\n      swap1\n      0x00\n      mstore\n      keccak256(0x00, 0x20)\n      swap1\n    tag_41:\n      dup2\n      sload\n      dup2\n      mstore\n      swap1\n      0x01\n      add\n      swap1\n      0x20\n      add\n      dup1\n      dup4\n      gt\n      tag_41\n      jumpi\n      dup3\n      swap1\n      sub\n      0x1f\n      and\n      dup3\n      add\n      swap2\n    tag_39:\n      pop\n      pop\n      pop\n      pop\n      pop\n      dup2\n      jump\t// out\n        /* \"Downloads/Programming/blocket-wildcard/apps/smart-contracts/contracts/DemoIDN.sol\":1351:1457  function getResource(uint256 i) public view returns (Resource memory) {... */\n    tag_16:\n        /* \"Downloads/Programming/blocket-wildcard/apps/smart-contracts/contracts/DemoIDN.sol\":1404:1419  Resource memory */\n      tag_42\n      tag_43\n      jump\t// in\n    tag_42:\n        /* \"Downloads/Programming/blocket-wildcard/apps/smart-contracts/contracts/DemoIDN.sol\":1438:1447  resources */\n      0x02\n        /* \"Downloads/Programming/blocket-wildcard/apps/smart-contracts/contracts/DemoIDN.sol\":1438:1450  resources[i] */\n      0x00\n        /* \"Downloads/Programming/blocket-wildcard/apps/smart-contracts/contracts/DemoIDN.sol\":1448:1449  i */\n      dup4\n        /* \"Downloads/Programming/blocket-wildcard/apps/smart-contracts/contracts/DemoIDN.sol\":1438:1450  resources[i] */\n      dup2\n      mstore\n      0x20\n      add\n      swap1\n      dup2\n      mstore\n      0x20\n      add\n      0x00\n      keccak256\n        /* \"Downloads/Programming/blocket-wildcard/apps/smart-contracts/contracts/DemoIDN.sol\":1431:1450  return resources[i] */\n      mload(0x40)\n      dup1\n      0x80\n      add\n      0x40\n      mstore\n      swap1\n      dup2\n      0x00\n      dup3\n      add\n      dup1\n      sload\n      tag_45\n      swap1\n      tag_37\n      jump\t// in\n    tag_45:\n      dup1\n      0x1f\n      add\n      0x20\n      dup1\n      swap2\n      div\n      mul\n      0x20\n      add\n      mload(0x40)\n      swap1\n      dup2\n      add\n      0x40\n      mstore\n      dup1\n      swap3\n      swap2\n      swap1\n      dup2\n      dup2\n      mstore\n      0x20\n      add\n      dup3\n      dup1\n      sload\n      tag_46\n      swap1\n      tag_37\n      jump\t// in\n    tag_46:\n      dup1\n      iszero\n      tag_47\n      jumpi\n      dup1\n      0x1f\n      lt\n      tag_48\n      jumpi\n      0x0100\n      dup1\n      dup4\n      sload\n      div\n      mul\n      dup4\n      mstore\n      swap2\n      0x20\n      add\n      swap2\n      jump(tag_47)\n    tag_48:\n      dup3\n      add\n      swap2\n      swap1\n      0x00\n      mstore\n      keccak256(0x00, 0x20)\n      swap1\n    tag_49:\n      dup2\n      sload\n      dup2\n      mstore\n      swap1\n      0x01\n      add\n      swap1\n      0x20\n      add\n      dup1\n      dup4\n      gt\n      tag_49\n      jumpi\n      dup3\n      swap1\n      sub\n      0x1f\n      and\n      dup3\n      add\n      swap2\n    tag_47:\n      pop\n      pop\n      pop\n      pop\n      pop\n      dup2\n      mstore\n      0x20\n      add\n      0x01\n      dup3\n      add\n      0x00\n      swap1\n      sload\n      swap1\n      0x0100\n      exp\n      swap1\n      div\n      0xffffffffffffffffffffffffffffffffffffffff\n      and\n      0xffffffffffffffffffffffffffffffffffffffff\n      and\n      0xffffffffffffffffffffffffffffffffffffffff\n      and\n      dup2\n      mstore\n      0x20\n      add\n      0x02\n      dup3\n      add\n      0x00\n      swap1\n      sload\n      swap1\n      0x0100\n      exp\n      swap1\n      div\n      0xffffffffffffffffffffffffffffffffffffffff\n      and\n      0xffffffffffffffffffffffffffffffffffffffff\n      and\n      0xffffffffffffffffffffffffffffffffffffffff\n      and\n      dup2\n      mstore\n      0x20\n      add\n      0x03\n      dup3\n      add\n      dup1\n      sload\n      tag_50\n      swap1\n      tag_37\n      jump\t// in\n    tag_50:\n      dup1\n      0x1f\n      add\n      0x20\n      dup1\n      swap2\n      div\n      mul\n      0x20\n      add\n      mload(0x40)\n      swap1\n      dup2\n      add\n      0x40\n      mstore\n      dup1\n      swap3\n      swap2\n      swap1\n      dup2\n      dup2\n      mstore\n      0x20\n      add\n      dup3\n      dup1\n      sload\n      tag_51\n      swap1\n      tag_37\n      jump\t// in\n    tag_51:\n      dup1\n      iszero\n      tag_52\n      jumpi\n      dup1\n      0x1f\n      lt\n      tag_53\n      jumpi\n      0x0100\n      dup1\n      dup4\n      sload\n      div\n      mul\n      dup4\n      mstore\n      swap2\n      0x20\n      add\n      swap2\n      jump(tag_52)\n    tag_53:\n      dup3\n      add\n      swap2\n      swap1\n      0x00\n      mstore\n      keccak256(0x00, 0x20)\n      swap1\n    tag_54:\n      dup2\n      sload\n      dup2\n      mstore\n      swap1\n      0x01\n      add\n      swap1\n      0x20\n      add\n      dup1\n      dup4\n      gt\n      tag_54\n      jumpi\n      dup3\n      swap1\n      sub\n      0x1f\n      and\n      dup3\n      add\n      swap2\n    tag_52:\n      pop\n      pop\n      pop\n      pop\n      pop\n      dup2\n      mstore\n      pop\n      pop\n      swap1\n      pop\n        /* \"Downloads/Programming/blocket-wildcard/apps/smart-contracts/contracts/DemoIDN.sol\":1351:1457  function getResource(uint256 i) public view returns (Resource memory) {... */\n      swap2\n      swap1\n      pop\n      jump\t// out\n        /* \"Downloads/Programming/blocket-wildcard/apps/smart-contracts/contracts/DemoIDN.sol\":329:374  mapping(uint256 => Resource) public resources */\n    tag_21:\n      mstore(0x20, 0x02)\n      dup1\n      0x00\n      mstore\n      keccak256(0x00, 0x40)\n      0x00\n      swap2\n      pop\n      swap1\n      pop\n      dup1\n      0x00\n      add\n      dup1\n      sload\n      tag_55\n      swap1\n      tag_37\n      jump\t// in\n    tag_55:\n      dup1\n      0x1f\n      add\n      0x20\n      dup1\n      swap2\n      div\n      mul\n      0x20\n      add\n      mload(0x40)\n      swap1\n      dup2\n      add\n      0x40\n      mstore\n      dup1\n      swap3\n      swap2\n      swap1\n      dup2\n      dup2\n      mstore\n      0x20\n      add\n      dup3\n      dup1\n      sload\n      tag_56\n      swap1\n      tag_37\n      jump\t// in\n    tag_56:\n      dup1\n      iszero\n      tag_57\n      jumpi\n      dup1\n      0x1f\n      lt\n      tag_58\n      jumpi\n      0x0100\n      dup1\n      dup4\n      sload\n      div\n      mul\n      dup4\n      mstore\n      swap2\n      0x20\n      add\n      swap2\n      jump(tag_57)\n    tag_58:\n      dup3\n      add\n      swap2\n      swap1\n      0x00\n      mstore\n      keccak256(0x00, 0x20)\n      swap1\n    tag_59:\n      dup2\n      sload\n      dup2\n      mstore\n      swap1\n      0x01\n      add\n      swap1\n      0x20\n      add\n      dup1\n      dup4\n      gt\n      tag_59\n      jumpi\n      dup3\n      swap1\n      sub\n      0x1f\n      and\n      dup3\n      add\n      swap2\n    tag_57:\n      pop\n      pop\n      pop\n      pop\n      pop\n      swap1\n      dup1\n      0x01\n      add\n      0x00\n      swap1\n      sload\n      swap1\n      0x0100\n      exp\n      swap1\n      div\n      0xffffffffffffffffffffffffffffffffffffffff\n      and\n      swap1\n      dup1\n      0x02\n      add\n      0x00\n      swap1\n      sload\n      swap1\n      0x0100\n      exp\n      swap1\n      div\n      0xffffffffffffffffffffffffffffffffffffffff\n      and\n      swap1\n      dup1\n      0x03\n      add\n      dup1\n      sload\n      tag_60\n      swap1\n      tag_37\n      jump\t// in\n    tag_60:\n      dup1\n      0x1f\n      add\n      0x20\n      dup1\n      swap2\n      div\n      mul\n      0x20\n      add\n      mload(0x40)\n      swap1\n      dup2\n      add\n      0x40\n      mstore\n      dup1\n      swap3\n      swap2\n      swap1\n      dup2\n      dup2\n      mstore\n      0x20\n      add\n      dup3\n      dup1\n      sload\n      tag_61\n      swap1\n      tag_37\n      jump\t// in\n    tag_61:\n      dup1\n      iszero\n      tag_62\n      jumpi\n      dup1\n      0x1f\n      lt\n      tag_63\n      jumpi\n      0x0100\n      dup1\n      dup4\n      sload\n      div\n      mul\n      dup4\n      mstore\n      swap2\n      0x20\n      add\n      swap2\n      jump(tag_62)\n    tag_63:\n      dup3\n      add\n      swap2\n      swap1\n      0x00\n      mstore\n      keccak256(0x00, 0x20)\n      swap1\n    tag_64:\n      dup2\n      sload\n      dup2\n      mstore\n      swap1\n      0x01\n      add\n      swap1\n      0x20\n      add\n      dup1\n      dup4\n      gt\n      tag_64\n      jumpi\n      dup3\n      swap1\n      sub\n      0x1f\n      and\n      dup3\n      add\n      swap2\n    tag_62:\n      pop\n      pop\n      pop\n      pop\n      pop\n      swap1\n      pop\n      dup5\n      jump\t// out\n        /* \"Downloads/Programming/blocket-wildcard/apps/smart-contracts/contracts/DemoIDN.sol\":663:1020  function addResource(... */\n    tag_27:\n        /* \"Downloads/Programming/blocket-wildcard/apps/smart-contracts/contracts/DemoIDN.sol\":840:845  owner */\n      0x00\n      dup1\n      sload\n      swap1\n      0x0100\n      exp\n      swap1\n      div\n      0xffffffffffffffffffffffffffffffffffffffff\n      and\n        /* \"Downloads/Programming/blocket-wildcard/apps/smart-contracts/contracts/DemoIDN.sol\":826:845  msg.sender == owner */\n      0xffffffffffffffffffffffffffffffffffffffff\n      and\n        /* \"Downloads/Programming/blocket-wildcard/apps/smart-contracts/contracts/DemoIDN.sol\":826:836  msg.sender */\n      caller\n        /* \"Downloads/Programming/blocket-wildcard/apps/smart-contracts/contracts/DemoIDN.sol\":826:845  msg.sender == owner */\n      0xffffffffffffffffffffffffffffffffffffffff\n      and\n      eq\n        /* \"Downloads/Programming/blocket-wildcard/apps/smart-contracts/contracts/DemoIDN.sol\":818:863  require(msg.sender == owner, \"Access Denied\") */\n      tag_66\n      jumpi\n      mload(0x40)\n      0x08c379a000000000000000000000000000000000000000000000000000000000\n      dup2\n      mstore\n      0x04\n      add\n      tag_67\n      swap1\n      tag_68\n      jump\t// in\n    tag_67:\n      mload(0x40)\n      dup1\n      swap2\n      sub\n      swap1\n      revert\n    tag_66:\n        /* \"Downloads/Programming/blocket-wildcard/apps/smart-contracts/contracts/DemoIDN.sol\":873:897  Resource memory resource */\n      0x00\n        /* \"Downloads/Programming/blocket-wildcard/apps/smart-contracts/contracts/DemoIDN.sol\":900:943  Resource(_name, pk, resourcecontract, _url) */\n      mload(0x40)\n      dup1\n      0x80\n      add\n      0x40\n      mstore\n      dup1\n        /* \"Downloads/Programming/blocket-wildcard/apps/smart-contracts/contracts/DemoIDN.sol\":909:914  _name */\n      dup7\n        /* \"Downloads/Programming/blocket-wildcard/apps/smart-contracts/contracts/DemoIDN.sol\":900:943  Resource(_name, pk, resourcecontract, _url) */\n      dup2\n      mstore\n      0x20\n      add\n        /* \"Downloads/Programming/blocket-wildcard/apps/smart-contracts/contracts/DemoIDN.sol\":916:918  pk */\n      dup6\n        /* \"Downloads/Programming/blocket-wildcard/apps/smart-contracts/contracts/DemoIDN.sol\":900:943  Resource(_name, pk, resourcecontract, _url) */\n      0xffffffffffffffffffffffffffffffffffffffff\n      and\n      dup2\n      mstore\n      0x20\n      add\n        /* \"Downloads/Programming/blocket-wildcard/apps/smart-contracts/contracts/DemoIDN.sol\":920:936  resourcecontract */\n      dup5\n        /* \"Downloads/Programming/blocket-wildcard/apps/smart-contracts/contracts/DemoIDN.sol\":900:943  Resource(_name, pk, resourcecontract, _url) */\n      0xffffffffffffffffffffffffffffffffffffffff\n      and\n      dup2\n      mstore\n      0x20\n      add\n        /* \"Downloads/Programming/blocket-wildcard/apps/smart-contracts/contracts/DemoIDN.sol\":938:942  _url */\n      dup4\n        /* \"Downloads/Programming/blocket-wildcard/apps/smart-contracts/contracts/DemoIDN.sol\":900:943  Resource(_name, pk, resourcecontract, _url) */\n      dup2\n      mstore\n      pop\n        /* \"Downloads/Programming/blocket-wildcard/apps/smart-contracts/contracts/DemoIDN.sol\":873:943  Resource memory resource = Resource(_name, pk, resourcecontract, _url) */\n      swap1\n      pop\n        /* \"Downloads/Programming/blocket-wildcard/apps/smart-contracts/contracts/DemoIDN.sol\":980:988  resource */\n      dup1\n        /* \"Downloads/Programming/blocket-wildcard/apps/smart-contracts/contracts/DemoIDN.sol\":953:962  resources */\n      0x02\n        /* \"Downloads/Programming/blocket-wildcard/apps/smart-contracts/contracts/DemoIDN.sol\":953:977  resources[resourceCount] */\n      0x00\n        /* \"Downloads/Programming/blocket-wildcard/apps/smart-contracts/contracts/DemoIDN.sol\":963:976  resourceCount */\n      sload(0x03)\n        /* \"Downloads/Programming/blocket-wildcard/apps/smart-contracts/contracts/DemoIDN.sol\":953:977  resources[resourceCount] */\n      dup2\n      mstore\n      0x20\n      add\n      swap1\n      dup2\n      mstore\n      0x20\n      add\n      0x00\n      keccak256\n        /* \"Downloads/Programming/blocket-wildcard/apps/smart-contracts/contracts/DemoIDN.sol\":953:988  resources[resourceCount] = resource */\n      0x00\n      dup3\n      add\n      mload\n      dup2\n      0x00\n      add\n      swap1\n      dup1\n      mload\n      swap1\n      0x20\n      add\n      swap1\n      tag_69\n      swap3\n      swap2\n      swap1\n      tag_70\n      jump\t// in\n    tag_69:\n      pop\n      0x20\n      dup3\n      add\n      mload\n      dup2\n      0x01\n      add\n      exp(0x0100, 0x00)\n      dup2\n      sload\n      dup2\n      0xffffffffffffffffffffffffffffffffffffffff\n      mul\n      not\n      and\n      swap1\n      dup4\n      0xffffffffffffffffffffffffffffffffffffffff\n      and\n      mul\n      or\n      swap1\n      sstore\n      pop\n      0x40\n      dup3\n      add\n      mload\n      dup2\n      0x02\n      add\n      exp(0x0100, 0x00)\n      dup2\n      sload\n      dup2\n      0xffffffffffffffffffffffffffffffffffffffff\n      mul\n      not\n      and\n      swap1\n      dup4\n      0xffffffffffffffffffffffffffffffffffffffff\n      and\n      mul\n      or\n      swap1\n      sstore\n      pop\n      0x60\n      dup3\n      add\n      mload\n      dup2\n      0x03\n      add\n      swap1\n      dup1\n      mload\n      swap1\n      0x20\n      add\n      swap1\n      tag_71\n      swap3\n      swap2\n      swap1\n      tag_70\n      jump\t// in\n    tag_71:\n      pop\n      swap1\n      pop\n      pop\n        /* \"Downloads/Programming/blocket-wildcard/apps/smart-contracts/contracts/DemoIDN.sol\":998:1011  resourceCount */\n      0x03\n      0x00\n        /* \"Downloads/Programming/blocket-wildcard/apps/smart-contracts/contracts/DemoIDN.sol\":998:1013  resourceCount++ */\n      dup2\n      sload\n      dup1\n      swap3\n      swap2\n      swap1\n      tag_72\n      swap1\n      tag_73\n      jump\t// in\n    tag_72:\n      swap2\n      swap1\n      pop\n      sstore\n      pop\n        /* \"Downloads/Programming/blocket-wildcard/apps/smart-contracts/contracts/DemoIDN.sol\":808:1020  {... */\n      pop\n        /* \"Downloads/Programming/blocket-wildcard/apps/smart-contracts/contracts/DemoIDN.sol\":663:1020  function addResource(... */\n      pop\n      pop\n      pop\n      pop\n      jump\t// out\n        /* \"Downloads/Programming/blocket-wildcard/apps/smart-contracts/contracts/DemoIDN.sol\":199:219  address public owner */\n    tag_29:\n      0x00\n      dup1\n      sload\n      swap1\n      0x0100\n      exp\n      swap1\n      div\n      0xffffffffffffffffffffffffffffffffffffffff\n      and\n      dup2\n      jump\t// out\n        /* \"Downloads/Programming/blocket-wildcard/apps/smart-contracts/contracts/DemoIDN.sol\":1026:1345  function addResource(... */\n    tag_35:\n        /* \"Downloads/Programming/blocket-wildcard/apps/smart-contracts/contracts/DemoIDN.sol\":1169:1174  owner */\n      0x00\n      dup1\n      sload\n      swap1\n      0x0100\n      exp\n      swap1\n      div\n      0xffffffffffffffffffffffffffffffffffffffff\n      and\n        /* \"Downloads/Programming/blocket-wildcard/apps/smart-contracts/contracts/DemoIDN.sol\":1155:1174  msg.sender == owner */\n      0xffffffffffffffffffffffffffffffffffffffff\n      and\n        /* \"Downloads/Programming/blocket-wildcard/apps/smart-contracts/contracts/DemoIDN.sol\":1155:1165  msg.sender */\n      caller\n        /* \"Downloads/Programming/blocket-wildcard/apps/smart-contracts/contracts/DemoIDN.sol\":1155:1174  msg.sender == owner */\n      0xffffffffffffffffffffffffffffffffffffffff\n      and\n      eq\n        /* \"Downloads/Programming/blocket-wildcard/apps/smart-contracts/contracts/DemoIDN.sol\":1147:1192  require(msg.sender == owner, \"Access Denied\") */\n      tag_75\n      jumpi\n      mload(0x40)\n      0x08c379a000000000000000000000000000000000000000000000000000000000\n      dup2\n      mstore\n      0x04\n      add\n      tag_76\n      swap1\n      tag_68\n      jump\t// in\n    tag_76:\n      mload(0x40)\n      dup1\n      swap2\n      sub\n      swap1\n      revert\n    tag_75:\n        /* \"Downloads/Programming/blocket-wildcard/apps/smart-contracts/contracts/DemoIDN.sol\":1202:1226  Resource memory resource */\n      0x00\n        /* \"Downloads/Programming/blocket-wildcard/apps/smart-contracts/contracts/DemoIDN.sol\":1229:1268  Resource(_name, pk, address(0x0), _url) */\n      mload(0x40)\n      dup1\n      0x80\n      add\n      0x40\n      mstore\n      dup1\n        /* \"Downloads/Programming/blocket-wildcard/apps/smart-contracts/contracts/DemoIDN.sol\":1238:1243  _name */\n      dup6\n        /* \"Downloads/Programming/blocket-wildcard/apps/smart-contracts/contracts/DemoIDN.sol\":1229:1268  Resource(_name, pk, address(0x0), _url) */\n      dup2\n      mstore\n      0x20\n      add\n        /* \"Downloads/Programming/blocket-wildcard/apps/smart-contracts/contracts/DemoIDN.sol\":1245:1247  pk */\n      dup5\n        /* \"Downloads/Programming/blocket-wildcard/apps/smart-contracts/contracts/DemoIDN.sol\":1229:1268  Resource(_name, pk, address(0x0), _url) */\n      0xffffffffffffffffffffffffffffffffffffffff\n      and\n      dup2\n      mstore\n      0x20\n      add\n        /* \"Downloads/Programming/blocket-wildcard/apps/smart-contracts/contracts/DemoIDN.sol\":1257:1260  0x0 */\n      0x00\n        /* \"Downloads/Programming/blocket-wildcard/apps/smart-contracts/contracts/DemoIDN.sol\":1229:1268  Resource(_name, pk, address(0x0), _url) */\n      0xffffffffffffffffffffffffffffffffffffffff\n      and\n      dup2\n      mstore\n      0x20\n      add\n        /* \"Downloads/Programming/blocket-wildcard/apps/smart-contracts/contracts/DemoIDN.sol\":1263:1267  _url */\n      dup4\n        /* \"Downloads/Programming/blocket-wildcard/apps/smart-contracts/contracts/DemoIDN.sol\":1229:1268  Resource(_name, pk, address(0x0), _url) */\n      dup2\n      mstore\n      pop\n        /* \"Downloads/Programming/blocket-wildcard/apps/smart-contracts/contracts/DemoIDN.sol\":1202:1268  Resource memory resource = Resource(_name, pk, address(0x0), _url) */\n      swap1\n      pop\n        /* \"Downloads/Programming/blocket-wildcard/apps/smart-contracts/contracts/DemoIDN.sol\":1305:1313  resource */\n      dup1\n        /* \"Downloads/Programming/blocket-wildcard/apps/smart-contracts/contracts/DemoIDN.sol\":1278:1287  resources */\n      0x02\n        /* \"Downloads/Programming/blocket-wildcard/apps/smart-contracts/contracts/DemoIDN.sol\":1278:1302  resources[resourceCount] */\n      0x00\n        /* \"Downloads/Programming/blocket-wildcard/apps/smart-contracts/contracts/DemoIDN.sol\":1288:1301  resourceCount */\n      sload(0x03)\n        /* \"Downloads/Programming/blocket-wildcard/apps/smart-contracts/contracts/DemoIDN.sol\":1278:1302  resources[resourceCount] */\n      dup2\n      mstore\n      0x20\n      add\n      swap1\n      dup2\n      mstore\n      0x20\n      add\n      0x00\n      keccak256\n        /* \"Downloads/Programming/blocket-wildcard/apps/smart-contracts/contracts/DemoIDN.sol\":1278:1313  resources[resourceCount] = resource */\n      0x00\n      dup3\n      add\n      mload\n      dup2\n      0x00\n      add\n      swap1\n      dup1\n      mload\n      swap1\n      0x20\n      add\n      swap1\n      tag_77\n      swap3\n      swap2\n      swap1\n      tag_70\n      jump\t// in\n    tag_77:\n      pop\n      0x20\n      dup3\n      add\n      mload\n      dup2\n      0x01\n      add\n      exp(0x0100, 0x00)\n      dup2\n      sload\n      dup2\n      0xffffffffffffffffffffffffffffffffffffffff\n      mul\n      not\n      and\n      swap1\n      dup4\n      0xffffffffffffffffffffffffffffffffffffffff\n      and\n      mul\n      or\n      swap1\n      sstore\n      pop\n      0x40\n      dup3\n      add\n      mload\n      dup2\n      0x02\n      add\n      exp(0x0100, 0x00)\n      dup2\n      sload\n      dup2\n      0xffffffffffffffffffffffffffffffffffffffff\n      mul\n      not\n      and\n      swap1\n      dup4\n      0xffffffffffffffffffffffffffffffffffffffff\n      and\n      mul\n      or\n      swap1\n      sstore\n      pop\n      0x60\n      dup3\n      add\n      mload\n      dup2\n      0x03\n      add\n      swap1\n      dup1\n      mload\n      swap1\n      0x20\n      add\n      swap1\n      tag_78\n      swap3\n      swap2\n      swap1\n      tag_70\n      jump\t// in\n    tag_78:\n      pop\n      swap1\n      pop\n      pop\n        /* \"Downloads/Programming/blocket-wildcard/apps/smart-contracts/contracts/DemoIDN.sol\":1323:1336  resourceCount */\n      0x03\n      0x00\n        /* \"Downloads/Programming/blocket-wildcard/apps/smart-contracts/contracts/DemoIDN.sol\":1323:1338  resourceCount++ */\n      dup2\n      sload\n      dup1\n      swap3\n      swap2\n      swap1\n      tag_79\n      swap1\n      tag_73\n      jump\t// in\n    tag_79:\n      swap2\n      swap1\n      pop\n      sstore\n      pop\n        /* \"Downloads/Programming/blocket-wildcard/apps/smart-contracts/contracts/DemoIDN.sol\":1137:1345  {... */\n      pop\n        /* \"Downloads/Programming/blocket-wildcard/apps/smart-contracts/contracts/DemoIDN.sol\":1026:1345  function addResource(... */\n      pop\n      pop\n      pop\n      jump\t// out\n    tag_43:\n      mload(0x40)\n      dup1\n      0x80\n      add\n      0x40\n      mstore\n      dup1\n      0x60\n      dup2\n      mstore\n      0x20\n      add\n      and(0xffffffffffffffffffffffffffffffffffffffff, 0x00)\n      dup2\n      mstore\n      0x20\n      add\n      and(0xffffffffffffffffffffffffffffffffffffffff, 0x00)\n      dup2\n      mstore\n      0x20\n      add\n      0x60\n      dup2\n      mstore\n      pop\n      swap1\n      jump\t// out\n    tag_70:\n      dup3\n      dup1\n      sload\n      tag_80\n      swap1\n      tag_37\n      jump\t// in\n    tag_80:\n      swap1\n      0x00\n      mstore\n      keccak256(0x00, 0x20)\n      swap1\n      0x1f\n      add\n      0x20\n      swap1\n      div\n      dup2\n      add\n      swap3\n      dup3\n      tag_82\n      jumpi\n      0x00\n      dup6\n      sstore\n      jump(tag_81)\n    tag_82:\n      dup3\n      0x1f\n      lt\n      tag_83\n      jumpi\n      dup1\n      mload\n      not(0xff)\n      and\n      dup4\n      dup1\n      add\n      or\n      dup6\n      sstore\n      jump(tag_81)\n    tag_83:\n      dup3\n      dup1\n      add\n      0x01\n      add\n      dup6\n      sstore\n      dup3\n      iszero\n      tag_81\n      jumpi\n      swap2\n      dup3\n      add\n    tag_84:\n      dup3\n      dup2\n      gt\n      iszero\n      tag_85\n      jumpi\n      dup3\n      mload\n      dup3\n      sstore\n      swap2\n      0x20\n      add\n      swap2\n      swap1\n      0x01\n      add\n      swap1\n      jump(tag_84)\n    tag_85:\n    tag_81:\n      pop\n      swap1\n      pop\n      tag_86\n      swap2\n      swap1\n      tag_87\n      jump\t// in\n    tag_86:\n      pop\n      swap1\n      jump\t// out\n    tag_87:\n    tag_88:\n      dup1\n      dup3\n      gt\n      iszero\n      tag_89\n      jumpi\n      0x00\n      dup2\n      0x00\n      swap1\n      sstore\n      pop\n      0x01\n      add\n      jump(tag_88)\n    tag_89:\n      pop\n      swap1\n      jump\t// out\n        /* \"#utility.yul\":7:419   */\n    tag_91:\n        /* \"#utility.yul\":85:90   */\n      0x00\n        /* \"#utility.yul\":110:176   */\n      tag_93\n        /* \"#utility.yul\":126:175   */\n      tag_94\n        /* \"#utility.yul\":168:174   */\n      dup5\n        /* \"#utility.yul\":126:175   */\n      tag_95\n      jump\t// in\n    tag_94:\n        /* \"#utility.yul\":110:176   */\n      tag_96\n      jump\t// in\n    tag_93:\n        /* \"#utility.yul\":101:176   */\n      swap1\n      pop\n        /* \"#utility.yul\":199:205   */\n      dup3\n        /* \"#utility.yul\":192:197   */\n      dup2\n        /* \"#utility.yul\":185:206   */\n      mstore\n        /* \"#utility.yul\":237:241   */\n      0x20\n        /* \"#utility.yul\":230:235   */\n      dup2\n        /* \"#utility.yul\":226:242   */\n      add\n        /* \"#utility.yul\":275:278   */\n      dup5\n        /* \"#utility.yul\":266:272   */\n      dup5\n        /* \"#utility.yul\":261:264   */\n      dup5\n        /* \"#utility.yul\":257:273   */\n      add\n        /* \"#utility.yul\":254:279   */\n      gt\n        /* \"#utility.yul\":251:363   */\n      iszero\n      tag_97\n      jumpi\n        /* \"#utility.yul\":282:361   */\n      tag_98\n      tag_99\n      jump\t// in\n    tag_98:\n        /* \"#utility.yul\":251:363   */\n    tag_97:\n        /* \"#utility.yul\":372:413   */\n      tag_100\n        /* \"#utility.yul\":406:412   */\n      dup5\n        /* \"#utility.yul\":401:404   */\n      dup3\n        /* \"#utility.yul\":396:399   */\n      dup6\n        /* \"#utility.yul\":372:413   */\n      tag_101\n      jump\t// in\n    tag_100:\n        /* \"#utility.yul\":91:419   */\n      pop\n        /* \"#utility.yul\":7:419   */\n      swap4\n      swap3\n      pop\n      pop\n      pop\n      jump\t// out\n        /* \"#utility.yul\":425:564   */\n    tag_102:\n        /* \"#utility.yul\":471:476   */\n      0x00\n        /* \"#utility.yul\":509:515   */\n      dup2\n        /* \"#utility.yul\":496:516   */\n      calldataload\n        /* \"#utility.yul\":487:516   */\n      swap1\n      pop\n        /* \"#utility.yul\":525:558   */\n      tag_104\n        /* \"#utility.yul\":552:557   */\n      dup2\n        /* \"#utility.yul\":525:558   */\n      tag_105\n      jump\t// in\n    tag_104:\n        /* \"#utility.yul\":425:564   */\n      swap3\n      swap2\n      pop\n      pop\n      jump\t// out\n        /* \"#utility.yul\":584:924   */\n    tag_106:\n        /* \"#utility.yul\":640:645   */\n      0x00\n        /* \"#utility.yul\":689:692   */\n      dup3\n        /* \"#utility.yul\":682:686   */\n      0x1f\n        /* \"#utility.yul\":674:680   */\n      dup4\n        /* \"#utility.yul\":670:687   */\n      add\n        /* \"#utility.yul\":666:693   */\n      slt\n        /* \"#utility.yul\":656:778   */\n      tag_108\n      jumpi\n        /* \"#utility.yul\":697:776   */\n      tag_109\n      tag_110\n      jump\t// in\n    tag_109:\n        /* \"#utility.yul\":656:778   */\n    tag_108:\n        /* \"#utility.yul\":814:820   */\n      dup2\n        /* \"#utility.yul\":801:821   */\n      calldataload\n        /* \"#utility.yul\":839:918   */\n      tag_111\n        /* \"#utility.yul\":914:917   */\n      dup5\n        /* \"#utility.yul\":906:912   */\n      dup3\n        /* \"#utility.yul\":899:903   */\n      0x20\n        /* \"#utility.yul\":891:897   */\n      dup7\n        /* \"#utility.yul\":887:904   */\n      add\n        /* \"#utility.yul\":839:918   */\n      tag_91\n      jump\t// in\n    tag_111:\n        /* \"#utility.yul\":830:918   */\n      swap2\n      pop\n        /* \"#utility.yul\":646:924   */\n      pop\n        /* \"#utility.yul\":584:924   */\n      swap3\n      swap2\n      pop\n      pop\n      jump\t// out\n        /* \"#utility.yul\":930:1069   */\n    tag_112:\n        /* \"#utility.yul\":976:981   */\n      0x00\n        /* \"#utility.yul\":1014:1020   */\n      dup2\n        /* \"#utility.yul\":1001:1021   */\n      calldataload\n        /* \"#utility.yul\":992:1021   */\n      swap1\n      pop\n        /* \"#utility.yul\":1030:1063   */\n      tag_114\n        /* \"#utility.yul\":1057:1062   */\n      dup2\n        /* \"#utility.yul\":1030:1063   */\n      tag_115\n      jump\t// in\n    tag_114:\n        /* \"#utility.yul\":930:1069   */\n      swap3\n      swap2\n      pop\n      pop\n      jump\t// out\n        /* \"#utility.yul\":1075:2200   */\n    tag_26:\n        /* \"#utility.yul\":1181:1187   */\n      0x00\n        /* \"#utility.yul\":1189:1195   */\n      dup1\n        /* \"#utility.yul\":1197:1203   */\n      0x00\n        /* \"#utility.yul\":1205:1211   */\n      dup1\n        /* \"#utility.yul\":1254:1257   */\n      0x80\n        /* \"#utility.yul\":1242:1251   */\n      dup6\n        /* \"#utility.yul\":1233:1240   */\n      dup8\n        /* \"#utility.yul\":1229:1252   */\n      sub\n        /* \"#utility.yul\":1225:1258   */\n      slt\n        /* \"#utility.yul\":1222:1342   */\n      iszero\n      tag_117\n      jumpi\n        /* \"#utility.yul\":1261:1340   */\n      tag_118\n      tag_119\n      jump\t// in\n    tag_118:\n        /* \"#utility.yul\":1222:1342   */\n    tag_117:\n        /* \"#utility.yul\":1409:1410   */\n      0x00\n        /* \"#utility.yul\":1398:1407   */\n      dup6\n        /* \"#utility.yul\":1394:1411   */\n      add\n        /* \"#utility.yul\":1381:1412   */\n      calldataload\n        /* \"#utility.yul\":1439:1457   */\n      0xffffffffffffffff\n        /* \"#utility.yul\":1431:1437   */\n      dup2\n        /* \"#utility.yul\":1428:1458   */\n      gt\n        /* \"#utility.yul\":1425:1542   */\n      iszero\n      tag_120\n      jumpi\n        /* \"#utility.yul\":1461:1540   */\n      tag_121\n      tag_122\n      jump\t// in\n    tag_121:\n        /* \"#utility.yul\":1425:1542   */\n    tag_120:\n        /* \"#utility.yul\":1566:1629   */\n      tag_123\n        /* \"#utility.yul\":1621:1628   */\n      dup8\n        /* \"#utility.yul\":1612:1618   */\n      dup3\n        /* \"#utility.yul\":1601:1610   */\n      dup9\n        /* \"#utility.yul\":1597:1619   */\n      add\n        /* \"#utility.yul\":1566:1629   */\n      tag_106\n      jump\t// in\n    tag_123:\n        /* \"#utility.yul\":1556:1629   */\n      swap5\n      pop\n        /* \"#utility.yul\":1352:1639   */\n      pop\n        /* \"#utility.yul\":1678:1680   */\n      0x20\n        /* \"#utility.yul\":1704:1757   */\n      tag_124\n        /* \"#utility.yul\":1749:1756   */\n      dup8\n        /* \"#utility.yul\":1740:1746   */\n      dup3\n        /* \"#utility.yul\":1729:1738   */\n      dup9\n        /* \"#utility.yul\":1725:1747   */\n      add\n        /* \"#utility.yul\":1704:1757   */\n      tag_102\n      jump\t// in\n    tag_124:\n        /* \"#utility.yul\":1694:1757   */\n      swap4\n      pop\n        /* \"#utility.yul\":1649:1767   */\n      pop\n        /* \"#utility.yul\":1806:1808   */\n      0x40\n        /* \"#utility.yul\":1832:1885   */\n      tag_125\n        /* \"#utility.yul\":1877:1884   */\n      dup8\n        /* \"#utility.yul\":1868:1874   */\n      dup3\n        /* \"#utility.yul\":1857:1866   */\n      dup9\n        /* \"#utility.yul\":1853:1875   */\n      add\n        /* \"#utility.yul\":1832:1885   */\n      tag_102\n      jump\t// in\n    tag_125:\n        /* \"#utility.yul\":1822:1885   */\n      swap3\n      pop\n        /* \"#utility.yul\":1777:1895   */\n      pop\n        /* \"#utility.yul\":1962:1964   */\n      0x60\n        /* \"#utility.yul\":1951:1960   */\n      dup6\n        /* \"#utility.yul\":1947:1965   */\n      add\n        /* \"#utility.yul\":1934:1966   */\n      calldataload\n        /* \"#utility.yul\":1993:2011   */\n      0xffffffffffffffff\n        /* \"#utility.yul\":1985:1991   */\n      dup2\n        /* \"#utility.yul\":1982:2012   */\n      gt\n        /* \"#utility.yul\":1979:2096   */\n      iszero\n      tag_126\n      jumpi\n        /* \"#utility.yul\":2015:2094   */\n      tag_127\n      tag_122\n      jump\t// in\n    tag_127:\n        /* \"#utility.yul\":1979:2096   */\n    tag_126:\n        /* \"#utility.yul\":2120:2183   */\n      tag_128\n        /* \"#utility.yul\":2175:2182   */\n      dup8\n        /* \"#utility.yul\":2166:2172   */\n      dup3\n        /* \"#utility.yul\":2155:2164   */\n      dup9\n        /* \"#utility.yul\":2151:2173   */\n      add\n        /* \"#utility.yul\":2120:2183   */\n      tag_106\n      jump\t// in\n    tag_128:\n        /* \"#utility.yul\":2110:2183   */\n      swap2\n      pop\n        /* \"#utility.yul\":1905:2193   */\n      pop\n        /* \"#utility.yul\":1075:2200   */\n      swap3\n      swap6\n      swap2\n      swap5\n      pop\n      swap3\n      pop\n      jump\t// out\n        /* \"#utility.yul\":2206:3185   */\n    tag_34:\n        /* \"#utility.yul\":2303:2309   */\n      0x00\n        /* \"#utility.yul\":2311:2317   */\n      dup1\n        /* \"#utility.yul\":2319:2325   */\n      0x00\n        /* \"#utility.yul\":2368:2370   */\n      0x60\n        /* \"#utility.yul\":2356:2365   */\n      dup5\n        /* \"#utility.yul\":2347:2354   */\n      dup7\n        /* \"#utility.yul\":2343:2366   */\n      sub\n        /* \"#utility.yul\":2339:2371   */\n      slt\n        /* \"#utility.yul\":2336:2455   */\n      iszero\n      tag_130\n      jumpi\n        /* \"#utility.yul\":2374:2453   */\n      tag_131\n      tag_119\n      jump\t// in\n    tag_131:\n        /* \"#utility.yul\":2336:2455   */\n    tag_130:\n        /* \"#utility.yul\":2522:2523   */\n      0x00\n        /* \"#utility.yul\":2511:2520   */\n      dup5\n        /* \"#utility.yul\":2507:2524   */\n      add\n        /* \"#utility.yul\":2494:2525   */\n      calldataload\n        /* \"#utility.yul\":2552:2570   */\n      0xffffffffffffffff\n        /* \"#utility.yul\":2544:2550   */\n      dup2\n        /* \"#utility.yul\":2541:2571   */\n      gt\n        /* \"#utility.yul\":2538:2655   */\n      iszero\n      tag_132\n      jumpi\n        /* \"#utility.yul\":2574:2653   */\n      tag_133\n      tag_122\n      jump\t// in\n    tag_133:\n        /* \"#utility.yul\":2538:2655   */\n    tag_132:\n        /* \"#utility.yul\":2679:2742   */\n      tag_134\n        /* \"#utility.yul\":2734:2741   */\n      dup7\n        /* \"#utility.yul\":2725:2731   */\n      dup3\n        /* \"#utility.yul\":2714:2723   */\n      dup8\n        /* \"#utility.yul\":2710:2732   */\n      add\n        /* \"#utility.yul\":2679:2742   */\n      tag_106\n      jump\t// in\n    tag_134:\n        /* \"#utility.yul\":2669:2742   */\n      swap4\n      pop\n        /* \"#utility.yul\":2465:2752   */\n      pop\n        /* \"#utility.yul\":2791:2793   */\n      0x20\n        /* \"#utility.yul\":2817:2870   */\n      tag_135\n        /* \"#utility.yul\":2862:2869   */\n      dup7\n        /* \"#utility.yul\":2853:2859   */\n      dup3\n        /* \"#utility.yul\":2842:2851   */\n      dup8\n        /* \"#utility.yul\":2838:2860   */\n      add\n        /* \"#utility.yul\":2817:2870   */\n      tag_102\n      jump\t// in\n    tag_135:\n        /* \"#utility.yul\":2807:2870   */\n      swap3\n      pop\n        /* \"#utility.yul\":2762:2880   */\n      pop\n        /* \"#utility.yul\":2947:2949   */\n      0x40\n        /* \"#utility.yul\":2936:2945   */\n      dup5\n        /* \"#utility.yul\":2932:2950   */\n      add\n        /* \"#utility.yul\":2919:2951   */\n      calldataload\n        /* \"#utility.yul\":2978:2996   */\n      0xffffffffffffffff\n        /* \"#utility.yul\":2970:2976   */\n      dup2\n        /* \"#utility.yul\":2967:2997   */\n      gt\n        /* \"#utility.yul\":2964:3081   */\n      iszero\n      tag_136\n      jumpi\n        /* \"#utility.yul\":3000:3079   */\n      tag_137\n      tag_122\n      jump\t// in\n    tag_137:\n        /* \"#utility.yul\":2964:3081   */\n    tag_136:\n        /* \"#utility.yul\":3105:3168   */\n      tag_138\n        /* \"#utility.yul\":3160:3167   */\n      dup7\n        /* \"#utility.yul\":3151:3157   */\n      dup3\n        /* \"#utility.yul\":3140:3149   */\n      dup8\n        /* \"#utility.yul\":3136:3158   */\n      add\n        /* \"#utility.yul\":3105:3168   */\n      tag_106\n      jump\t// in\n    tag_138:\n        /* \"#utility.yul\":3095:3168   */\n      swap2\n      pop\n        /* \"#utility.yul\":2890:3178   */\n      pop\n        /* \"#utility.yul\":2206:3185   */\n      swap3\n      pop\n      swap3\n      pop\n      swap3\n      jump\t// out\n        /* \"#utility.yul\":3191:3520   */\n    tag_15:\n        /* \"#utility.yul\":3250:3256   */\n      0x00\n        /* \"#utility.yul\":3299:3301   */\n      0x20\n        /* \"#utility.yul\":3287:3296   */\n      dup3\n        /* \"#utility.yul\":3278:3285   */\n      dup5\n        /* \"#utility.yul\":3274:3297   */\n      sub\n        /* \"#utility.yul\":3270:3302   */\n      slt\n        /* \"#utility.yul\":3267:3386   */\n      iszero\n      tag_140\n      jumpi\n        /* \"#utility.yul\":3305:3384   */\n      tag_141\n      tag_119\n      jump\t// in\n    tag_141:\n        /* \"#utility.yul\":3267:3386   */\n    tag_140:\n        /* \"#utility.yul\":3425:3426   */\n      0x00\n        /* \"#utility.yul\":3450:3503   */\n      tag_142\n        /* \"#utility.yul\":3495:3502   */\n      dup5\n        /* \"#utility.yul\":3486:3492   */\n      dup3\n        /* \"#utility.yul\":3475:3484   */\n      dup6\n        /* \"#utility.yul\":3471:3493   */\n      add\n        /* \"#utility.yul\":3450:3503   */\n      tag_112\n      jump\t// in\n    tag_142:\n        /* \"#utility.yul\":3440:3503   */\n      swap2\n      pop\n        /* \"#utility.yul\":3396:3513   */\n      pop\n        /* \"#utility.yul\":3191:3520   */\n      swap3\n      swap2\n      pop\n      pop\n      jump\t// out\n        /* \"#utility.yul\":3526:3634   */\n    tag_143:\n        /* \"#utility.yul\":3603:3627   */\n      tag_145\n        /* \"#utility.yul\":3621:3626   */\n      dup2\n        /* \"#utility.yul\":3603:3627   */\n      tag_146\n      jump\t// in\n    tag_145:\n        /* \"#utility.yul\":3598:3601   */\n      dup3\n        /* \"#utility.yul\":3591:3628   */\n      mstore\n        /* \"#utility.yul\":3526:3634   */\n      pop\n      pop\n      jump\t// out\n        /* \"#utility.yul\":3640:3758   */\n    tag_147:\n        /* \"#utility.yul\":3727:3751   */\n      tag_149\n        /* \"#utility.yul\":3745:3750   */\n      dup2\n        /* \"#utility.yul\":3727:3751   */\n      tag_146\n      jump\t// in\n    tag_149:\n        /* \"#utility.yul\":3722:3725   */\n      dup3\n        /* \"#utility.yul\":3715:3752   */\n      mstore\n        /* \"#utility.yul\":3640:3758   */\n      pop\n      pop\n      jump\t// out\n        /* \"#utility.yul\":3764:4108   */\n    tag_150:\n        /* \"#utility.yul\":3842:3845   */\n      0x00\n        /* \"#utility.yul\":3870:3909   */\n      tag_152\n        /* \"#utility.yul\":3903:3908   */\n      dup3\n        /* \"#utility.yul\":3870:3909   */\n      tag_153\n      jump\t// in\n    tag_152:\n        /* \"#utility.yul\":3925:3986   */\n      tag_154\n        /* \"#utility.yul\":3979:3985   */\n      dup2\n        /* \"#utility.yul\":3974:3977   */\n      dup6\n        /* \"#utility.yul\":3925:3986   */\n      tag_155\n      jump\t// in\n    tag_154:\n        /* \"#utility.yul\":3918:3986   */\n      swap4\n      pop\n        /* \"#utility.yul\":3995:4047   */\n      tag_156\n        /* \"#utility.yul\":4040:4046   */\n      dup2\n        /* \"#utility.yul\":4035:4038   */\n      dup6\n        /* \"#utility.yul\":4028:4032   */\n      0x20\n        /* \"#utility.yul\":4021:4026   */\n      dup7\n        /* \"#utility.yul\":4017:4033   */\n      add\n        /* \"#utility.yul\":3995:4047   */\n      tag_157\n      jump\t// in\n    tag_156:\n        /* \"#utility.yul\":4072:4101   */\n      tag_158\n        /* \"#utility.yul\":4094:4100   */\n      dup2\n        /* \"#utility.yul\":4072:4101   */\n      tag_159\n      jump\t// in\n    tag_158:\n        /* \"#utility.yul\":4067:4070   */\n      dup5\n        /* \"#utility.yul\":4063:4102   */\n      add\n        /* \"#utility.yul\":4056:4102   */\n      swap2\n      pop\n        /* \"#utility.yul\":3846:4108   */\n      pop\n        /* \"#utility.yul\":3764:4108   */\n      swap3\n      swap2\n      pop\n      pop\n      jump\t// out\n        /* \"#utility.yul\":4114:4478   */\n    tag_160:\n        /* \"#utility.yul\":4202:4205   */\n      0x00\n        /* \"#utility.yul\":4230:4269   */\n      tag_162\n        /* \"#utility.yul\":4263:4268   */\n      dup3\n        /* \"#utility.yul\":4230:4269   */\n      tag_153\n      jump\t// in\n    tag_162:\n        /* \"#utility.yul\":4285:4356   */\n      tag_163\n        /* \"#utility.yul\":4349:4355   */\n      dup2\n        /* \"#utility.yul\":4344:4347   */\n      dup6\n        /* \"#utility.yul\":4285:4356   */\n      tag_164\n      jump\t// in\n    tag_163:\n        /* \"#utility.yul\":4278:4356   */\n      swap4\n      pop\n        /* \"#utility.yul\":4365:4417   */\n      tag_165\n        /* \"#utility.yul\":4410:4416   */\n      dup2\n        /* \"#utility.yul\":4405:4408   */\n      dup6\n        /* \"#utility.yul\":4398:4402   */\n      0x20\n        /* \"#utility.yul\":4391:4396   */\n      dup7\n        /* \"#utility.yul\":4387:4403   */\n      add\n        /* \"#utility.yul\":4365:4417   */\n      tag_157\n      jump\t// in\n    tag_165:\n        /* \"#utility.yul\":4442:4471   */\n      tag_166\n        /* \"#utility.yul\":4464:4470   */\n      dup2\n        /* \"#utility.yul\":4442:4471   */\n      tag_159\n      jump\t// in\n    tag_166:\n        /* \"#utility.yul\":4437:4440   */\n      dup5\n        /* \"#utility.yul\":4433:4472   */\n      add\n        /* \"#utility.yul\":4426:4472   */\n      swap2\n      pop\n        /* \"#utility.yul\":4206:4478   */\n      pop\n        /* \"#utility.yul\":4114:4478   */\n      swap3\n      swap2\n      pop\n      pop\n      jump\t// out\n        /* \"#utility.yul\":4484:4850   */\n    tag_167:\n        /* \"#utility.yul\":4626:4629   */\n      0x00\n        /* \"#utility.yul\":4647:4714   */\n      tag_169\n        /* \"#utility.yul\":4711:4713   */\n      0x0d\n        /* \"#utility.yul\":4706:4709   */\n      dup4\n        /* \"#utility.yul\":4647:4714   */\n      tag_164\n      jump\t// in\n    tag_169:\n        /* \"#utility.yul\":4640:4714   */\n      swap2\n      pop\n        /* \"#utility.yul\":4723:4816   */\n      tag_170\n        /* \"#utility.yul\":4812:4815   */\n      dup3\n        /* \"#utility.yul\":4723:4816   */\n      tag_171\n      jump\t// in\n    tag_170:\n        /* \"#utility.yul\":4841:4843   */\n      0x20\n        /* \"#utility.yul\":4836:4839   */\n      dup3\n        /* \"#utility.yul\":4832:4844   */\n      add\n        /* \"#utility.yul\":4825:4844   */\n      swap1\n      pop\n        /* \"#utility.yul\":4484:4850   */\n      swap2\n      swap1\n      pop\n      jump\t// out\n        /* \"#utility.yul\":4914:5970   */\n    tag_172:\n        /* \"#utility.yul\":5031:5034   */\n      0x00\n        /* \"#utility.yul\":5067:5071   */\n      0x80\n        /* \"#utility.yul\":5062:5065   */\n      dup4\n        /* \"#utility.yul\":5058:5072   */\n      add\n        /* \"#utility.yul\":5162:5166   */\n      0x00\n        /* \"#utility.yul\":5155:5160   */\n      dup4\n        /* \"#utility.yul\":5151:5167   */\n      add\n        /* \"#utility.yul\":5145:5168   */\n      mload\n        /* \"#utility.yul\":5215:5218   */\n      dup5\n        /* \"#utility.yul\":5209:5213   */\n      dup3\n        /* \"#utility.yul\":5205:5219   */\n      sub\n        /* \"#utility.yul\":5198:5202   */\n      0x00\n        /* \"#utility.yul\":5193:5196   */\n      dup7\n        /* \"#utility.yul\":5189:5203   */\n      add\n        /* \"#utility.yul\":5182:5220   */\n      mstore\n        /* \"#utility.yul\":5241:5314   */\n      tag_174\n        /* \"#utility.yul\":5309:5313   */\n      dup3\n        /* \"#utility.yul\":5295:5307   */\n      dup3\n        /* \"#utility.yul\":5241:5314   */\n      tag_150\n      jump\t// in\n    tag_174:\n        /* \"#utility.yul\":5233:5314   */\n      swap2\n      pop\n        /* \"#utility.yul\":5082:5325   */\n      pop\n        /* \"#utility.yul\":5413:5417   */\n      0x20\n        /* \"#utility.yul\":5406:5411   */\n      dup4\n        /* \"#utility.yul\":5402:5418   */\n      add\n        /* \"#utility.yul\":5396:5419   */\n      mload\n        /* \"#utility.yul\":5432:5495   */\n      tag_175\n        /* \"#utility.yul\":5489:5493   */\n      0x20\n        /* \"#utility.yul\":5484:5487   */\n      dup7\n        /* \"#utility.yul\":5480:5494   */\n      add\n        /* \"#utility.yul\":5466:5478   */\n      dup3\n        /* \"#utility.yul\":5432:5495   */\n      tag_143\n      jump\t// in\n    tag_175:\n        /* \"#utility.yul\":5335:5505   */\n      pop\n        /* \"#utility.yul\":5599:5603   */\n      0x40\n        /* \"#utility.yul\":5592:5597   */\n      dup4\n        /* \"#utility.yul\":5588:5604   */\n      add\n        /* \"#utility.yul\":5582:5605   */\n      mload\n        /* \"#utility.yul\":5618:5681   */\n      tag_176\n        /* \"#utility.yul\":5675:5679   */\n      0x40\n        /* \"#utility.yul\":5670:5673   */\n      dup7\n        /* \"#utility.yul\":5666:5680   */\n      add\n        /* \"#utility.yul\":5652:5664   */\n      dup3\n        /* \"#utility.yul\":5618:5681   */\n      tag_143\n      jump\t// in\n    tag_176:\n        /* \"#utility.yul\":5515:5691   */\n      pop\n        /* \"#utility.yul\":5780:5784   */\n      0x60\n        /* \"#utility.yul\":5773:5778   */\n      dup4\n        /* \"#utility.yul\":5769:5785   */\n      add\n        /* \"#utility.yul\":5763:5786   */\n      mload\n        /* \"#utility.yul\":5833:5836   */\n      dup5\n        /* \"#utility.yul\":5827:5831   */\n      dup3\n        /* \"#utility.yul\":5823:5837   */\n      sub\n        /* \"#utility.yul\":5816:5820   */\n      0x60\n        /* \"#utility.yul\":5811:5814   */\n      dup7\n        /* \"#utility.yul\":5807:5821   */\n      add\n        /* \"#utility.yul\":5800:5838   */\n      mstore\n        /* \"#utility.yul\":5859:5932   */\n      tag_177\n        /* \"#utility.yul\":5927:5931   */\n      dup3\n        /* \"#utility.yul\":5913:5925   */\n      dup3\n        /* \"#utility.yul\":5859:5932   */\n      tag_150\n      jump\t// in\n    tag_177:\n        /* \"#utility.yul\":5851:5932   */\n      swap2\n      pop\n        /* \"#utility.yul\":5701:5943   */\n      pop\n        /* \"#utility.yul\":5960:5964   */\n      dup1\n        /* \"#utility.yul\":5953:5964   */\n      swap2\n      pop\n        /* \"#utility.yul\":5036:5970   */\n      pop\n        /* \"#utility.yul\":4914:5970   */\n      swap3\n      swap2\n      pop\n      pop\n      jump\t// out\n        /* \"#utility.yul\":5976:6198   */\n    tag_31:\n        /* \"#utility.yul\":6069:6073   */\n      0x00\n        /* \"#utility.yul\":6107:6109   */\n      0x20\n        /* \"#utility.yul\":6096:6105   */\n      dup3\n        /* \"#utility.yul\":6092:6110   */\n      add\n        /* \"#utility.yul\":6084:6110   */\n      swap1\n      pop\n        /* \"#utility.yul\":6120:6191   */\n      tag_179\n        /* \"#utility.yul\":6188:6189   */\n      0x00\n        /* \"#utility.yul\":6177:6186   */\n      dup4\n        /* \"#utility.yul\":6173:6190   */\n      add\n        /* \"#utility.yul\":6164:6170   */\n      dup5\n        /* \"#utility.yul\":6120:6191   */\n      tag_147\n      jump\t// in\n    tag_179:\n        /* \"#utility.yul\":5976:6198   */\n      swap3\n      swap2\n      pop\n      pop\n      jump\t// out\n        /* \"#utility.yul\":6204:6517   */\n    tag_12:\n        /* \"#utility.yul\":6317:6321   */\n      0x00\n        /* \"#utility.yul\":6355:6357   */\n      0x20\n        /* \"#utility.yul\":6344:6353   */\n      dup3\n        /* \"#utility.yul\":6340:6358   */\n      add\n        /* \"#utility.yul\":6332:6358   */\n      swap1\n      pop\n        /* \"#utility.yul\":6404:6413   */\n      dup2\n        /* \"#utility.yul\":6398:6402   */\n      dup2\n        /* \"#utility.yul\":6394:6414   */\n      sub\n        /* \"#utility.yul\":6390:6391   */\n      0x00\n        /* \"#utility.yul\":6379:6388   */\n      dup4\n        /* \"#utility.yul\":6375:6392   */\n      add\n        /* \"#utility.yul\":6368:6415   */\n      mstore\n        /* \"#utility.yul\":6432:6510   */\n      tag_181\n        /* \"#utility.yul\":6505:6509   */\n      dup2\n        /* \"#utility.yul\":6496:6502   */\n      dup5\n        /* \"#utility.yul\":6432:6510   */\n      tag_160\n      jump\t// in\n    tag_181:\n        /* \"#utility.yul\":6424:6510   */\n      swap1\n      pop\n        /* \"#utility.yul\":6204:6517   */\n      swap3\n      swap2\n      pop\n      pop\n      jump\t// out\n        /* \"#utility.yul\":6523:7258   */\n    tag_23:\n        /* \"#utility.yul\":6740:6744   */\n      0x00\n        /* \"#utility.yul\":6778:6781   */\n      0x80\n        /* \"#utility.yul\":6767:6776   */\n      dup3\n        /* \"#utility.yul\":6763:6782   */\n      add\n        /* \"#utility.yul\":6755:6782   */\n      swap1\n      pop\n        /* \"#utility.yul\":6828:6837   */\n      dup2\n        /* \"#utility.yul\":6822:6826   */\n      dup2\n        /* \"#utility.yul\":6818:6838   */\n      sub\n        /* \"#utility.yul\":6814:6815   */\n      0x00\n        /* \"#utility.yul\":6803:6812   */\n      dup4\n        /* \"#utility.yul\":6799:6816   */\n      add\n        /* \"#utility.yul\":6792:6839   */\n      mstore\n        /* \"#utility.yul\":6856:6934   */\n      tag_183\n        /* \"#utility.yul\":6929:6933   */\n      dup2\n        /* \"#utility.yul\":6920:6926   */\n      dup8\n        /* \"#utility.yul\":6856:6934   */\n      tag_160\n      jump\t// in\n    tag_183:\n        /* \"#utility.yul\":6848:6934   */\n      swap1\n      pop\n        /* \"#utility.yul\":6944:7016   */\n      tag_184\n        /* \"#utility.yul\":7012:7014   */\n      0x20\n        /* \"#utility.yul\":7001:7010   */\n      dup4\n        /* \"#utility.yul\":6997:7015   */\n      add\n        /* \"#utility.yul\":6988:6994   */\n      dup7\n        /* \"#utility.yul\":6944:7016   */\n      tag_147\n      jump\t// in\n    tag_184:\n        /* \"#utility.yul\":7026:7098   */\n      tag_185\n        /* \"#utility.yul\":7094:7096   */\n      0x40\n        /* \"#utility.yul\":7083:7092   */\n      dup4\n        /* \"#utility.yul\":7079:7097   */\n      add\n        /* \"#utility.yul\":7070:7076   */\n      dup6\n        /* \"#utility.yul\":7026:7098   */\n      tag_147\n      jump\t// in\n    tag_185:\n        /* \"#utility.yul\":7145:7154   */\n      dup2\n        /* \"#utility.yul\":7139:7143   */\n      dup2\n        /* \"#utility.yul\":7135:7155   */\n      sub\n        /* \"#utility.yul\":7130:7132   */\n      0x60\n        /* \"#utility.yul\":7119:7128   */\n      dup4\n        /* \"#utility.yul\":7115:7133   */\n      add\n        /* \"#utility.yul\":7108:7156   */\n      mstore\n        /* \"#utility.yul\":7173:7251   */\n      tag_186\n        /* \"#utility.yul\":7246:7250   */\n      dup2\n        /* \"#utility.yul\":7237:7243   */\n      dup5\n        /* \"#utility.yul\":7173:7251   */\n      tag_160\n      jump\t// in\n    tag_186:\n        /* \"#utility.yul\":7165:7251   */\n      swap1\n      pop\n        /* \"#utility.yul\":6523:7258   */\n      swap6\n      swap5\n      pop\n      pop\n      pop\n      pop\n      pop\n      jump\t// out\n        /* \"#utility.yul\":7264:7683   */\n    tag_68:\n        /* \"#utility.yul\":7430:7434   */\n      0x00\n        /* \"#utility.yul\":7468:7470   */\n      0x20\n        /* \"#utility.yul\":7457:7466   */\n      dup3\n        /* \"#utility.yul\":7453:7471   */\n      add\n        /* \"#utility.yul\":7445:7471   */\n      swap1\n      pop\n        /* \"#utility.yul\":7517:7526   */\n      dup2\n        /* \"#utility.yul\":7511:7515   */\n      dup2\n        /* \"#utility.yul\":7507:7527   */\n      sub\n        /* \"#utility.yul\":7503:7504   */\n      0x00\n        /* \"#utility.yul\":7492:7501   */\n      dup4\n        /* \"#utility.yul\":7488:7505   */\n      add\n        /* \"#utility.yul\":7481:7528   */\n      mstore\n        /* \"#utility.yul\":7545:7676   */\n      tag_188\n        /* \"#utility.yul\":7671:7675   */\n      dup2\n        /* \"#utility.yul\":7545:7676   */\n      tag_167\n      jump\t// in\n    tag_188:\n        /* \"#utility.yul\":7537:7676   */\n      swap1\n      pop\n        /* \"#utility.yul\":7264:7683   */\n      swap2\n      swap1\n      pop\n      jump\t// out\n        /* \"#utility.yul\":7689:8058   */\n    tag_18:\n        /* \"#utility.yul\":7830:7834   */\n      0x00\n        /* \"#utility.yul\":7868:7870   */\n      0x20\n        /* \"#utility.yul\":7857:7866   */\n      dup3\n        /* \"#utility.yul\":7853:7871   */\n      add\n        /* \"#utility.yul\":7845:7871   */\n      swap1\n      pop\n        /* \"#utility.yul\":7917:7926   */\n      dup2\n        /* \"#utility.yul\":7911:7915   */\n      dup2\n        /* \"#utility.yul\":7907:7927   */\n      sub\n        /* \"#utility.yul\":7903:7904   */\n      0x00\n        /* \"#utility.yul\":7892:7901   */\n      dup4\n        /* \"#utility.yul\":7888:7905   */\n      add\n        /* \"#utility.yul\":7881:7928   */\n      mstore\n        /* \"#utility.yul\":7945:8051   */\n      tag_190\n        /* \"#utility.yul\":8046:8050   */\n      dup2\n        /* \"#utility.yul\":8037:8043   */\n      dup5\n        /* \"#utility.yul\":7945:8051   */\n      tag_172\n      jump\t// in\n    tag_190:\n        /* \"#utility.yul\":7937:8051   */\n      swap1\n      pop\n        /* \"#utility.yul\":7689:8058   */\n      swap3\n      swap2\n      pop\n      pop\n      jump\t// out\n        /* \"#utility.yul\":8064:8193   */\n    tag_96:\n        /* \"#utility.yul\":8098:8104   */\n      0x00\n        /* \"#utility.yul\":8125:8145   */\n      tag_192\n      tag_193\n      jump\t// in\n    tag_192:\n        /* \"#utility.yul\":8115:8145   */\n      swap1\n      pop\n        /* \"#utility.yul\":8154:8187   */\n      tag_194\n        /* \"#utility.yul\":8182:8186   */\n      dup3\n        /* \"#utility.yul\":8174:8180   */\n      dup3\n        /* \"#utility.yul\":8154:8187   */\n      tag_195\n      jump\t// in\n    tag_194:\n        /* \"#utility.yul\":8064:8193   */\n      swap2\n      swap1\n      pop\n      jump\t// out\n        /* \"#utility.yul\":8199:8274   */\n    tag_193:\n        /* \"#utility.yul\":8232:8238   */\n      0x00\n        /* \"#utility.yul\":8265:8267   */\n      0x40\n        /* \"#utility.yul\":8259:8268   */\n      mload\n        /* \"#utility.yul\":8249:8268   */\n      swap1\n      pop\n        /* \"#utility.yul\":8199:8274   */\n      swap1\n      jump\t// out\n        /* \"#utility.yul\":8280:8588   */\n    tag_95:\n        /* \"#utility.yul\":8342:8346   */\n      0x00\n        /* \"#utility.yul\":8432:8450   */\n      0xffffffffffffffff\n        /* \"#utility.yul\":8424:8430   */\n      dup3\n        /* \"#utility.yul\":8421:8451   */\n      gt\n        /* \"#utility.yul\":8418:8474   */\n      iszero\n      tag_198\n      jumpi\n        /* \"#utility.yul\":8454:8472   */\n      tag_199\n      tag_200\n      jump\t// in\n    tag_199:\n        /* \"#utility.yul\":8418:8474   */\n    tag_198:\n        /* \"#utility.yul\":8492:8521   */\n      tag_201\n        /* \"#utility.yul\":8514:8520   */\n      dup3\n        /* \"#utility.yul\":8492:8521   */\n      tag_159\n      jump\t// in\n    tag_201:\n        /* \"#utility.yul\":8484:8521   */\n      swap1\n      pop\n        /* \"#utility.yul\":8576:8580   */\n      0x20\n        /* \"#utility.yul\":8570:8574   */\n      dup2\n        /* \"#utility.yul\":8566:8581   */\n      add\n        /* \"#utility.yul\":8558:8581   */\n      swap1\n      pop\n        /* \"#utility.yul\":8280:8588   */\n      swap2\n      swap1\n      pop\n      jump\t// out\n        /* \"#utility.yul\":8594:8693   */\n    tag_153:\n        /* \"#utility.yul\":8646:8652   */\n      0x00\n        /* \"#utility.yul\":8680:8685   */\n      dup2\n        /* \"#utility.yul\":8674:8686   */\n      mload\n        /* \"#utility.yul\":8664:8686   */\n      swap1\n      pop\n        /* \"#utility.yul\":8594:8693   */\n      swap2\n      swap1\n      pop\n      jump\t// out\n        /* \"#utility.yul\":8699:8858   */\n    tag_155:\n        /* \"#utility.yul\":8773:8784   */\n      0x00\n        /* \"#utility.yul\":8807:8813   */\n      dup3\n        /* \"#utility.yul\":8802:8805   */\n      dup3\n        /* \"#utility.yul\":8795:8814   */\n      mstore\n        /* \"#utility.yul\":8847:8851   */\n      0x20\n        /* \"#utility.yul\":8842:8845   */\n      dup3\n        /* \"#utility.yul\":8838:8852   */\n      add\n        /* \"#utility.yul\":8823:8852   */\n      swap1\n      pop\n        /* \"#utility.yul\":8699:8858   */\n      swap3\n      swap2\n      pop\n      pop\n      jump\t// out\n        /* \"#utility.yul\":8864:9033   */\n    tag_164:\n        /* \"#utility.yul\":8948:8959   */\n      0x00\n        /* \"#utility.yul\":8982:8988   */\n      dup3\n        /* \"#utility.yul\":8977:8980   */\n      dup3\n        /* \"#utility.yul\":8970:8989   */\n      mstore\n        /* \"#utility.yul\":9022:9026   */\n      0x20\n        /* \"#utility.yul\":9017:9020   */\n      dup3\n        /* \"#utility.yul\":9013:9027   */\n      add\n        /* \"#utility.yul\":8998:9027   */\n      swap1\n      pop\n        /* \"#utility.yul\":8864:9033   */\n      swap3\n      swap2\n      pop\n      pop\n      jump\t// out\n        /* \"#utility.yul\":9039:9135   */\n    tag_146:\n        /* \"#utility.yul\":9076:9083   */\n      0x00\n        /* \"#utility.yul\":9105:9129   */\n      tag_206\n        /* \"#utility.yul\":9123:9128   */\n      dup3\n        /* \"#utility.yul\":9105:9129   */\n      tag_207\n      jump\t// in\n    tag_206:\n        /* \"#utility.yul\":9094:9129   */\n      swap1\n      pop\n        /* \"#utility.yul\":9039:9135   */\n      swap2\n      swap1\n      pop\n      jump\t// out\n        /* \"#utility.yul\":9141:9267   */\n    tag_207:\n        /* \"#utility.yul\":9178:9185   */\n      0x00\n        /* \"#utility.yul\":9218:9260   */\n      0xffffffffffffffffffffffffffffffffffffffff\n        /* \"#utility.yul\":9211:9216   */\n      dup3\n        /* \"#utility.yul\":9207:9261   */\n      and\n        /* \"#utility.yul\":9196:9261   */\n      swap1\n      pop\n        /* \"#utility.yul\":9141:9267   */\n      swap2\n      swap1\n      pop\n      jump\t// out\n        /* \"#utility.yul\":9273:9350   */\n    tag_209:\n        /* \"#utility.yul\":9310:9317   */\n      0x00\n        /* \"#utility.yul\":9339:9344   */\n      dup2\n        /* \"#utility.yul\":9328:9344   */\n      swap1\n      pop\n        /* \"#utility.yul\":9273:9350   */\n      swap2\n      swap1\n      pop\n      jump\t// out\n        /* \"#utility.yul\":9356:9510   */\n    tag_101:\n        /* \"#utility.yul\":9440:9446   */\n      dup3\n        /* \"#utility.yul\":9435:9438   */\n      dup2\n        /* \"#utility.yul\":9430:9433   */\n      dup4\n        /* \"#utility.yul\":9417:9447   */\n      calldatacopy\n        /* \"#utility.yul\":9502:9503   */\n      0x00\n        /* \"#utility.yul\":9493:9499   */\n      dup4\n        /* \"#utility.yul\":9488:9491   */\n      dup4\n        /* \"#utility.yul\":9484:9500   */\n      add\n        /* \"#utility.yul\":9477:9504   */\n      mstore\n        /* \"#utility.yul\":9356:9510   */\n      pop\n      pop\n      pop\n      jump\t// out\n        /* \"#utility.yul\":9516:9823   */\n    tag_157:\n        /* \"#utility.yul\":9584:9585   */\n      0x00\n        /* \"#utility.yul\":9594:9707   */\n    tag_213:\n        /* \"#utility.yul\":9608:9614   */\n      dup4\n        /* \"#utility.yul\":9605:9606   */\n      dup2\n        /* \"#utility.yul\":9602:9615   */\n      lt\n        /* \"#utility.yul\":9594:9707   */\n      iszero\n      tag_215\n      jumpi\n        /* \"#utility.yul\":9693:9694   */\n      dup1\n        /* \"#utility.yul\":9688:9691   */\n      dup3\n        /* \"#utility.yul\":9684:9695   */\n      add\n        /* \"#utility.yul\":9678:9696   */\n      mload\n        /* \"#utility.yul\":9674:9675   */\n      dup2\n        /* \"#utility.yul\":9669:9672   */\n      dup5\n        /* \"#utility.yul\":9665:9676   */\n      add\n        /* \"#utility.yul\":9658:9697   */\n      mstore\n        /* \"#utility.yul\":9630:9632   */\n      0x20\n        /* \"#utility.yul\":9627:9628   */\n      dup2\n        /* \"#utility.yul\":9623:9633   */\n      add\n        /* \"#utility.yul\":9618:9633   */\n      swap1\n      pop\n        /* \"#utility.yul\":9594:9707   */\n      jump(tag_213)\n    tag_215:\n        /* \"#utility.yul\":9725:9731   */\n      dup4\n        /* \"#utility.yul\":9722:9723   */\n      dup2\n        /* \"#utility.yul\":9719:9732   */\n      gt\n        /* \"#utility.yul\":9716:9817   */\n      iszero\n      tag_216\n      jumpi\n        /* \"#utility.yul\":9805:9806   */\n      0x00\n        /* \"#utility.yul\":9796:9802   */\n      dup5\n        /* \"#utility.yul\":9791:9794   */\n      dup5\n        /* \"#utility.yul\":9787:9803   */\n      add\n        /* \"#utility.yul\":9780:9807   */\n      mstore\n        /* \"#utility.yul\":9716:9817   */\n    tag_216:\n        /* \"#utility.yul\":9565:9823   */\n      pop\n        /* \"#utility.yul\":9516:9823   */\n      pop\n      pop\n      pop\n      jump\t// out\n        /* \"#utility.yul\":9829:10149   */\n    tag_37:\n        /* \"#utility.yul\":9873:9879   */\n      0x00\n        /* \"#utility.yul\":9910:9911   */\n      0x02\n        /* \"#utility.yul\":9904:9908   */\n      dup3\n        /* \"#utility.yul\":9900:9912   */\n      div\n        /* \"#utility.yul\":9890:9912   */\n      swap1\n      pop\n        /* \"#utility.yul\":9957:9958   */\n      0x01\n        /* \"#utility.yul\":9951:9955   */\n      dup3\n        /* \"#utility.yul\":9947:9959   */\n      and\n        /* \"#utility.yul\":9978:9996   */\n      dup1\n        /* \"#utility.yul\":9968:10049   */\n      tag_218\n      jumpi\n        /* \"#utility.yul\":10034:10038   */\n      0x7f\n        /* \"#utility.yul\":10026:10032   */\n      dup3\n        /* \"#utility.yul\":10022:10039   */\n      and\n        /* \"#utility.yul\":10012:10039   */\n      swap2\n      pop\n        /* \"#utility.yul\":9968:10049   */\n    tag_218:\n        /* \"#utility.yul\":10096:10098   */\n      0x20\n        /* \"#utility.yul\":10088:10094   */\n      dup3\n        /* \"#utility.yul\":10085:10099   */\n      lt\n        /* \"#utility.yul\":10065:10083   */\n      dup2\n        /* \"#utility.yul\":10062:10100   */\n      eq\n        /* \"#utility.yul\":10059:10143   */\n      iszero\n      tag_219\n      jumpi\n        /* \"#utility.yul\":10115:10133   */\n      tag_220\n      tag_221\n      jump\t// in\n    tag_220:\n        /* \"#utility.yul\":10059:10143   */\n    tag_219:\n        /* \"#utility.yul\":9880:10149   */\n      pop\n        /* \"#utility.yul\":9829:10149   */\n      swap2\n      swap1\n      pop\n      jump\t// out\n        /* \"#utility.yul\":10155:10436   */\n    tag_195:\n        /* \"#utility.yul\":10238:10265   */\n      tag_223\n        /* \"#utility.yul\":10260:10264   */\n      dup3\n        /* \"#utility.yul\":10238:10265   */\n      tag_159\n      jump\t// in\n    tag_223:\n        /* \"#utility.yul\":10230:10236   */\n      dup2\n        /* \"#utility.yul\":10226:10266   */\n      add\n        /* \"#utility.yul\":10368:10374   */\n      dup2\n        /* \"#utility.yul\":10356:10366   */\n      dup2\n        /* \"#utility.yul\":10353:10375   */\n      lt\n        /* \"#utility.yul\":10332:10350   */\n      0xffffffffffffffff\n        /* \"#utility.yul\":10320:10330   */\n      dup3\n        /* \"#utility.yul\":10317:10351   */\n      gt\n        /* \"#utility.yul\":10314:10376   */\n      or\n        /* \"#utility.yul\":10311:10399   */\n      iszero\n      tag_224\n      jumpi\n        /* \"#utility.yul\":10379:10397   */\n      tag_225\n      tag_200\n      jump\t// in\n    tag_225:\n        /* \"#utility.yul\":10311:10399   */\n    tag_224:\n        /* \"#utility.yul\":10419:10429   */\n      dup1\n        /* \"#utility.yul\":10415:10417   */\n      0x40\n        /* \"#utility.yul\":10408:10430   */\n      mstore\n        /* \"#utility.yul\":10198:10436   */\n      pop\n        /* \"#utility.yul\":10155:10436   */\n      pop\n      pop\n      jump\t// out\n        /* \"#utility.yul\":10442:10675   */\n    tag_73:\n        /* \"#utility.yul\":10481:10484   */\n      0x00\n        /* \"#utility.yul\":10504:10528   */\n      tag_227\n        /* \"#utility.yul\":10522:10527   */\n      dup3\n        /* \"#utility.yul\":10504:10528   */\n      tag_209\n      jump\t// in\n    tag_227:\n        /* \"#utility.yul\":10495:10528   */\n      swap2\n      pop\n        /* \"#utility.yul\":10550:10616   */\n      0xffffffffffffffffffffffffffffffffffffffffffffffffffffffffffffffff\n        /* \"#utility.yul\":10543:10548   */\n      dup3\n        /* \"#utility.yul\":10540:10617   */\n      eq\n        /* \"#utility.yul\":10537:10640   */\n      iszero\n      tag_228\n      jumpi\n        /* \"#utility.yul\":10620:10638   */\n      tag_229\n      tag_230\n      jump\t// in\n    tag_229:\n        /* \"#utility.yul\":10537:10640   */\n    tag_228:\n        /* \"#utility.yul\":10667:10668   */\n      0x01\n        /* \"#utility.yul\":10660:10665   */\n      dup3\n        /* \"#utility.yul\":10656:10669   */\n      add\n        /* \"#utility.yul\":10649:10669   */\n      swap1\n      pop\n        /* \"#utility.yul\":10442:10675   */\n      swap2\n      swap1\n      pop\n      jump\t// out\n        /* \"#utility.yul\":10681:10861   */\n    tag_230:\n        /* \"#utility.yul\":10729:10806   */\n      0x4e487b7100000000000000000000000000000000000000000000000000000000\n        /* \"#utility.yul\":10726:10727   */\n      0x00\n        /* \"#utility.yul\":10719:10807   */\n      mstore\n        /* \"#utility.yul\":10826:10830   */\n      0x11\n        /* \"#utility.yul\":10823:10824   */\n      0x04\n        /* \"#utility.yul\":10816:10831   */\n      mstore\n        /* \"#utility.yul\":10850:10854   */\n      0x24\n        /* \"#utility.yul\":10847:10848   */\n      0x00\n        /* \"#utility.yul\":10840:10855   */\n      revert\n        /* \"#utility.yul\":10867:11047   */\n    tag_221:\n        /* \"#utility.yul\":10915:10992   */\n      0x4e487b7100000000000000000000000000000000000000000000000000000000\n        /* \"#utility.yul\":10912:10913   */\n      0x00\n        /* \"#utility.yul\":10905:10993   */\n      mstore\n        /* \"#utility.yul\":11012:11016   */\n      0x22\n        /* \"#utility.yul\":11009:11010   */\n      0x04\n        /* \"#utility.yul\":11002:11017   */\n      mstore\n        /* \"#utility.yul\":11036:11040   */\n      0x24\n        /* \"#utility.yul\":11033:11034   */\n      0x00\n        /* \"#utility.yul\":11026:11041   */\n      revert\n        /* \"#utility.yul\":11053:11233   */\n    tag_200:\n        /* \"#utility.yul\":11101:11178   */\n      0x4e487b7100000000000000000000000000000000000000000000000000000000\n        /* \"#utility.yul\":11098:11099   */\n      0x00\n        /* \"#utility.yul\":11091:11179   */\n      mstore\n        /* \"#utility.yul\":11198:11202   */\n      0x41\n        /* \"#utility.yul\":11195:11196   */\n      0x04\n        /* \"#utility.yul\":11188:11203   */\n      mstore\n        /* \"#utility.yul\":11222:11226   */\n      0x24\n        /* \"#utility.yul\":11219:11220   */\n      0x00\n        /* \"#utility.yul\":11212:11227   */\n      revert\n        /* \"#utility.yul\":11239:11356   */\n    tag_110:\n        /* \"#utility.yul\":11348:11349   */\n      0x00\n        /* \"#utility.yul\":11345:11346   */\n      dup1\n        /* \"#utility.yul\":11338:11350   */\n      revert\n        /* \"#utility.yul\":11362:11479   */\n    tag_99:\n        /* \"#utility.yul\":11471:11472   */\n      0x00\n        /* \"#utility.yul\":11468:11469   */\n      dup1\n        /* \"#utility.yul\":11461:11473   */\n      revert\n        /* \"#utility.yul\":11485:11602   */\n    tag_122:\n        /* \"#utility.yul\":11594:11595   */\n      0x00\n        /* \"#utility.yul\":11591:11592   */\n      dup1\n        /* \"#utility.yul\":11584:11596   */\n      revert\n        /* \"#utility.yul\":11608:11725   */\n    tag_119:\n        /* \"#utility.yul\":11717:11718   */\n      0x00\n        /* \"#utility.yul\":11714:11715   */\n      dup1\n        /* \"#utility.yul\":11707:11719   */\n      revert\n        /* \"#utility.yul\":11731:11833   */\n    tag_159:\n        /* \"#utility.yul\":11772:11778   */\n      0x00\n        /* \"#utility.yul\":11823:11825   */\n      0x1f\n        /* \"#utility.yul\":11819:11826   */\n      not\n        /* \"#utility.yul\":11814:11816   */\n      0x1f\n        /* \"#utility.yul\":11807:11812   */\n      dup4\n        /* \"#utility.yul\":11803:11817   */\n      add\n        /* \"#utility.yul\":11799:11827   */\n      and\n        /* \"#utility.yul\":11789:11827   */\n      swap1\n      pop\n        /* \"#utility.yul\":11731:11833   */\n      swap2\n      swap1\n      pop\n      jump\t// out\n        /* \"#utility.yul\":11839:12002   */\n    tag_171:\n        /* \"#utility.yul\":11979:11994   */\n      0x4163636573732044656e69656400000000000000000000000000000000000000\n        /* \"#utility.yul\":11975:11976   */\n      0x00\n        /* \"#utility.yul\":11967:11973   */\n      dup3\n        /* \"#utility.yul\":11963:11977   */\n      add\n        /* \"#utility.yul\":11956:11995   */\n      mstore\n        /* \"#utility.yul\":11839:12002   */\n      pop\n      jump\t// out\n        /* \"#utility.yul\":12008:12130   */\n    tag_105:\n        /* \"#utility.yul\":12081:12105   */\n      tag_241\n        /* \"#utility.yul\":12099:12104   */\n      dup2\n        /* \"#utility.yul\":12081:12105   */\n      tag_146\n      jump\t// in\n    tag_241:\n        /* \"#utility.yul\":12074:12079   */\n      dup2\n        /* \"#utility.yul\":12071:12106   */\n      eq\n        /* \"#utility.yul\":12061:12124   */\n      tag_242\n      jumpi\n        /* \"#utility.yul\":12120:12121   */\n      0x00\n        /* \"#utility.yul\":12117:12118   */\n      dup1\n        /* \"#utility.yul\":12110:12122   */\n      revert\n        /* \"#utility.yul\":12061:12124   */\n    tag_242:\n        /* \"#utility.yul\":12008:12130   */\n      pop\n      jump\t// out\n        /* \"#utility.yul\":12136:12258   */\n    tag_115:\n        /* \"#utility.yul\":12209:12233   */\n      tag_244\n        /* \"#utility.yul\":12227:12232   */\n      dup2\n        /* \"#utility.yul\":12209:12233   */\n      tag_209\n      jump\t// in\n    tag_244:\n        /* \"#utility.yul\":12202:12207   */\n      dup2\n        /* \"#utility.yul\":12199:12234   */\n      eq\n        /* \"#utility.yul\":12189:12252   */\n      tag_245\n      jumpi\n        /* \"#utility.yul\":12248:12249   */\n      0x00\n        /* \"#utility.yul\":12245:12246   */\n      dup1\n        /* \"#utility.yul\":12238:12250   */\n      revert\n        /* \"#utility.yul\":12189:12252   */\n    tag_245:\n        /* \"#utility.yul\":12136:12258   */\n      pop\n      jump\t// out\n\n    auxdata: 0xa264697066735822122075dfd3f498167255a4d0d9f4ce19542472499f8e7d6f5444ffcea3c2e1a3b88164736f6c63430008070033\n}\n",
				"bytecode": {
					"linkReferences": {},
					"object": "608060405260006003553480156200001657600080fd5b506040516200149d3803806200149d83398181016040528101906200003c9190620001ca565b336000806101000a81548173ffffffffffffffffffffffffffffffffffffffff021916908373ffffffffffffffffffffffffffffffffffffffff1602179055508060019080519060200190620000949291906200009c565b50506200039f565b828054620000aa90620002b0565b90600052602060002090601f016020900481019282620000ce57600085556200011a565b82601f10620000e957805160ff19168380011785556200011a565b828001600101855582156200011a579182015b8281111562000119578251825591602001919060010190620000fc565b5b5090506200012991906200012d565b5090565b5b80821115620001485760008160009055506001016200012e565b5090565b6000620001636200015d8462000244565b6200021b565b9050828152602081018484840111156200018257620001816200037f565b5b6200018f8482856200027a565b509392505050565b600082601f830112620001af57620001ae6200037a565b5b8151620001c18482602086016200014c565b91505092915050565b600060208284031215620001e357620001e262000389565b5b600082015167ffffffffffffffff81111562000204576200020362000384565b5b620002128482850162000197565b91505092915050565b6000620002276200023a565b9050620002358282620002e6565b919050565b6000604051905090565b600067ffffffffffffffff8211156200026257620002616200034b565b5b6200026d826200038e565b9050602081019050919050565b60005b838110156200029a5780820151818401526020810190506200027d565b83811115620002aa576000848401525b50505050565b60006002820490506001821680620002c957607f821691505b60208210811415620002e057620002df6200031c565b5b50919050565b620002f1826200038e565b810181811067ffffffffffffffff821117156200031357620003126200034b565b5b80604052505050565b7f4e487b7100000000000000000000000000000000000000000000000000000000600052602260045260246000fd5b7f4e487b7100000000000000000000000000000000000000000000000000000000600052604160045260246000fd5b600080fd5b600080fd5b600080fd5b600080fd5b6000601f19601f8301169050919050565b6110ee80620003af6000396000f3fe608060405234801561001057600080fd5b50600436106100625760003560e01c806306fdde03146100675780631e8fca2d14610085578063244d6daa146100b5578063797196b3146100e85780638da5cb5b14610104578063a544853914610122575b600080fd5b61006f61013e565b60405161007c9190610d4b565b60405180910390f35b61009f600480360381019061009a9190610be6565b6101cc565b6040516100ac9190610de0565b60405180910390f35b6100cf60048036038101906100ca9190610be6565b6103c9565b6040516100df9493929190610d6d565b60405180910390f35b61010260048036038101906100fd9190610abc565b610549565b005b61010c610728565b6040516101199190610d30565b60405180910390f35b61013c60048036038101906101379190610b5b565b61074c565b005b6001805461014b90610f03565b80601f016020809104026020016040519081016040528092919081815260200182805461017790610f03565b80156101c45780601f10610199576101008083540402835291602001916101c4565b820191906000526020600020905b8154815290600101906020018083116101a757829003601f168201915b505050505081565b6101d461092b565b6002600083815260200190815260200160002060405180608001604052908160008201805461020290610f03565b80601f016020809104026020016040519081016040528092919081815260200182805461022e90610f03565b801561027b5780601f106102505761010080835404028352916020019161027b565b820191906000526020600020905b81548152906001019060200180831161025e57829003601f168201915b505050505081526020016001820160009054906101000a900473ffffffffffffffffffffffffffffffffffffffff1673ffffffffffffffffffffffffffffffffffffffff1673ffffffffffffffffffffffffffffffffffffffff1681526020016002820160009054906101000a900473ffffffffffffffffffffffffffffffffffffffff1673ffffffffffffffffffffffffffffffffffffffff1673ffffffffffffffffffffffffffffffffffffffff16815260200160038201805461034090610f03565b80601f016020809104026020016040519081016040528092919081815260200182805461036c90610f03565b80156103b95780601f1061038e576101008083540402835291602001916103b9565b820191906000526020600020905b81548152906001019060200180831161039c57829003601f168201915b5050505050815250509050919050565b60026020528060005260406000206000915090508060000180546103ec90610f03565b80601f016020809104026020016040519081016040528092919081815260200182805461041890610f03565b80156104655780601f1061043a57610100808354040283529160200191610465565b820191906000526020600020905b81548152906001019060200180831161044857829003601f168201915b5050505050908060010160009054906101000a900473ffffffffffffffffffffffffffffffffffffffff16908060020160009054906101000a900473ffffffffffffffffffffffffffffffffffffffff16908060030180546104c690610f03565b80601f01602080910402602001604051908101604052809291908181526020018280546104f290610f03565b801561053f5780601f106105145761010080835404028352916020019161053f565b820191906000526020600020905b81548152906001019060200180831161052257829003601f168201915b5050505050905084565b60008054906101000a900473ffffffffffffffffffffffffffffffffffffffff1673ffffffffffffffffffffffffffffffffffffffff163373ffffffffffffffffffffffffffffffffffffffff16146105d7576040517f08c379a00000000000000000000000000000000000000000000000000000000081526004016105ce90610dc0565b60405180910390fd5b600060405180608001604052808681526020018573ffffffffffffffffffffffffffffffffffffffff1681526020018473ffffffffffffffffffffffffffffffffffffffff16815260200183815250905080600260006003548152602001908152602001600020600082015181600001908051906020019061065a92919061097f565b5060208201518160010160006101000a81548173ffffffffffffffffffffffffffffffffffffffff021916908373ffffffffffffffffffffffffffffffffffffffff16021790555060408201518160020160006101000a81548173ffffffffffffffffffffffffffffffffffffffff021916908373ffffffffffffffffffffffffffffffffffffffff160217905550606082015181600301908051906020019061070592919061097f565b509050506003600081548092919061071c90610f66565b91905055505050505050565b60008054906101000a900473ffffffffffffffffffffffffffffffffffffffff1681565b60008054906101000a900473ffffffffffffffffffffffffffffffffffffffff1673ffffffffffffffffffffffffffffffffffffffff163373ffffffffffffffffffffffffffffffffffffffff16146107da576040517f08c379a00000000000000000000000000000000000000000000000000000000081526004016107d190610dc0565b60405180910390fd5b600060405180608001604052808581526020018473ffffffffffffffffffffffffffffffffffffffff168152602001600073ffffffffffffffffffffffffffffffffffffffff16815260200183815250905080600260006003548152602001908152602001600020600082015181600001908051906020019061085e92919061097f565b5060208201518160010160006101000a81548173ffffffffffffffffffffffffffffffffffffffff021916908373ffffffffffffffffffffffffffffffffffffffff16021790555060408201518160020160006101000a81548173ffffffffffffffffffffffffffffffffffffffff021916908373ffffffffffffffffffffffffffffffffffffffff160217905550606082015181600301908051906020019061090992919061097f565b509050506003600081548092919061092090610f66565b919050555050505050565b604051806080016040528060608152602001600073ffffffffffffffffffffffffffffffffffffffff168152602001600073ffffffffffffffffffffffffffffffffffffffff168152602001606081525090565b82805461098b90610f03565b90600052602060002090601f0160209004810192826109ad57600085556109f4565b82601f106109c657805160ff19168380011785556109f4565b828001600101855582156109f4579182015b828111156109f35782518255916020019190600101906109d8565b5b509050610a019190610a05565b5090565b5b80821115610a1e576000816000905550600101610a06565b5090565b6000610a35610a3084610e27565b610e02565b905082815260208101848484011115610a5157610a50611041565b5b610a5c848285610ec1565b509392505050565b600081359050610a738161108a565b92915050565b600082601f830112610a8e57610a8d61103c565b5b8135610a9e848260208601610a22565b91505092915050565b600081359050610ab6816110a1565b92915050565b60008060008060808587031215610ad657610ad561104b565b5b600085013567ffffffffffffffff811115610af457610af3611046565b5b610b0087828801610a79565b9450506020610b1187828801610a64565b9350506040610b2287828801610a64565b925050606085013567ffffffffffffffff811115610b4357610b42611046565b5b610b4f87828801610a79565b91505092959194509250565b600080600060608486031215610b7457610b7361104b565b5b600084013567ffffffffffffffff811115610b9257610b91611046565b5b610b9e86828701610a79565b9350506020610baf86828701610a64565b925050604084013567ffffffffffffffff811115610bd057610bcf611046565b5b610bdc86828701610a79565b9150509250925092565b600060208284031215610bfc57610bfb61104b565b5b6000610c0a84828501610aa7565b91505092915050565b610c1c81610e85565b82525050565b610c2b81610e85565b82525050565b6000610c3c82610e58565b610c468185610e63565b9350610c56818560208601610ed0565b610c5f81611050565b840191505092915050565b6000610c7582610e58565b610c7f8185610e74565b9350610c8f818560208601610ed0565b610c9881611050565b840191505092915050565b6000610cb0600d83610e74565b9150610cbb82611061565b602082019050919050565b60006080830160008301518482036000860152610ce38282610c31565b9150506020830151610cf86020860182610c13565b506040830151610d0b6040860182610c13565b5060608301518482036060860152610d238282610c31565b9150508091505092915050565b6000602082019050610d456000830184610c22565b92915050565b60006020820190508181036000830152610d658184610c6a565b905092915050565b60006080820190508181036000830152610d878187610c6a565b9050610d966020830186610c22565b610da36040830185610c22565b8181036060830152610db58184610c6a565b905095945050505050565b60006020820190508181036000830152610dd981610ca3565b9050919050565b60006020820190508181036000830152610dfa8184610cc6565b905092915050565b6000610e0c610e1d565b9050610e188282610f35565b919050565b6000604051905090565b600067ffffffffffffffff821115610e4257610e4161100d565b5b610e4b82611050565b9050602081019050919050565b600081519050919050565b600082825260208201905092915050565b600082825260208201905092915050565b6000610e9082610e97565b9050919050565b600073ffffffffffffffffffffffffffffffffffffffff82169050919050565b6000819050919050565b82818337600083830152505050565b60005b83811015610eee578082015181840152602081019050610ed3565b83811115610efd576000848401525b50505050565b60006002820490506001821680610f1b57607f821691505b60208210811415610f2f57610f2e610fde565b5b50919050565b610f3e82611050565b810181811067ffffffffffffffff82111715610f5d57610f5c61100d565b5b80604052505050565b6000610f7182610eb7565b91507fffffffffffffffffffffffffffffffffffffffffffffffffffffffffffffffff821415610fa457610fa3610faf565b5b600182019050919050565b7f4e487b7100000000000000000000000000000000000000000000000000000000600052601160045260246000fd5b7f4e487b7100000000000000000000000000000000000000000000000000000000600052602260045260246000fd5b7f4e487b7100000000000000000000000000000000000000000000000000000000600052604160045260246000fd5b600080fd5b600080fd5b600080fd5b600080fd5b6000601f19601f8301169050919050565b7f4163636573732044656e69656400000000000000000000000000000000000000600082015250565b61109381610e85565b811461109e57600080fd5b50565b6110aa81610eb7565b81146110b557600080fd5b5056fea264697066735822122075dfd3f498167255a4d0d9f4ce19542472499f8e7d6f5444ffcea3c2e1a3b88164736f6c63430008070033",
					"opcodes": "PUSH1 0x80 PUSH1 0x40 MSTORE PUSH1 0x0 PUSH1 0x3 SSTORE CALLVALUE DUP1 ISZERO PUSH3 0x16 JUMPI PUSH1 0x0 DUP1 REVERT JUMPDEST POP PUSH1 0x40 MLOAD PUSH3 0x149D CODESIZE SUB DUP1 PUSH3 0x149D DUP4 CODECOPY DUP2 DUP2 ADD PUSH1 0x40 MSTORE DUP2 ADD SWAP1 PUSH3 0x3C SWAP2 SWAP1 PUSH3 0x1CA JUMP JUMPDEST CALLER PUSH1 0x0 DUP1 PUSH2 0x100 EXP DUP2 SLOAD DUP2 PUSH20 0xFFFFFFFFFFFFFFFFFFFFFFFFFFFFFFFFFFFFFFFF MUL NOT AND SWAP1 DUP4 PUSH20 0xFFFFFFFFFFFFFFFFFFFFFFFFFFFFFFFFFFFFFFFF AND MUL OR SWAP1 SSTORE POP DUP1 PUSH1 0x1 SWAP1 DUP1 MLOAD SWAP1 PUSH1 0x20 ADD SWAP1 PUSH3 0x94 SWAP3 SWAP2 SWAP1 PUSH3 0x9C JUMP JUMPDEST POP POP PUSH3 0x39F JUMP JUMPDEST DUP3 DUP1 SLOAD PUSH3 0xAA SWAP1 PUSH3 0x2B0 JUMP JUMPDEST SWAP1 PUSH1 0x0 MSTORE PUSH1 0x20 PUSH1 0x0 KECCAK256 SWAP1 PUSH1 0x1F ADD PUSH1 0x20 SWAP1 DIV DUP2 ADD SWAP3 DUP3 PUSH3 0xCE JUMPI PUSH1 0x0 DUP6 SSTORE PUSH3 0x11A JUMP JUMPDEST DUP3 PUSH1 0x1F LT PUSH3 0xE9 JUMPI DUP1 MLOAD PUSH1 0xFF NOT AND DUP4 DUP1 ADD OR DUP6 SSTORE PUSH3 0x11A JUMP JUMPDEST DUP3 DUP1 ADD PUSH1 0x1 ADD DUP6 SSTORE DUP3 ISZERO PUSH3 0x11A JUMPI SWAP2 DUP3 ADD JUMPDEST DUP3 DUP2 GT ISZERO PUSH3 0x119 JUMPI DUP3 MLOAD DUP3 SSTORE SWAP2 PUSH1 0x20 ADD SWAP2 SWAP1 PUSH1 0x1 ADD SWAP1 PUSH3 0xFC JUMP JUMPDEST JUMPDEST POP SWAP1 POP PUSH3 0x129 SWAP2 SWAP1 PUSH3 0x12D JUMP JUMPDEST POP SWAP1 JUMP JUMPDEST JUMPDEST DUP1 DUP3 GT ISZERO PUSH3 0x148 JUMPI PUSH1 0x0 DUP2 PUSH1 0x0 SWAP1 SSTORE POP PUSH1 0x1 ADD PUSH3 0x12E JUMP JUMPDEST POP SWAP1 JUMP JUMPDEST PUSH1 0x0 PUSH3 0x163 PUSH3 0x15D DUP5 PUSH3 0x244 JUMP JUMPDEST PUSH3 0x21B JUMP JUMPDEST SWAP1 POP DUP3 DUP2 MSTORE PUSH1 0x20 DUP2 ADD DUP5 DUP5 DUP5 ADD GT ISZERO PUSH3 0x182 JUMPI PUSH3 0x181 PUSH3 0x37F JUMP JUMPDEST JUMPDEST PUSH3 0x18F DUP5 DUP3 DUP6 PUSH3 0x27A JUMP JUMPDEST POP SWAP4 SWAP3 POP POP POP JUMP JUMPDEST PUSH1 0x0 DUP3 PUSH1 0x1F DUP4 ADD SLT PUSH3 0x1AF JUMPI PUSH3 0x1AE PUSH3 0x37A JUMP JUMPDEST JUMPDEST DUP2 MLOAD PUSH3 0x1C1 DUP5 DUP3 PUSH1 0x20 DUP7 ADD PUSH3 0x14C JUMP JUMPDEST SWAP2 POP POP SWAP3 SWAP2 POP POP JUMP JUMPDEST PUSH1 0x0 PUSH1 0x20 DUP3 DUP5 SUB SLT ISZERO PUSH3 0x1E3 JUMPI PUSH3 0x1E2 PUSH3 0x389 JUMP JUMPDEST JUMPDEST PUSH1 0x0 DUP3 ADD MLOAD PUSH8 0xFFFFFFFFFFFFFFFF DUP2 GT ISZERO PUSH3 0x204 JUMPI PUSH3 0x203 PUSH3 0x384 JUMP JUMPDEST JUMPDEST PUSH3 0x212 DUP5 DUP3 DUP6 ADD PUSH3 0x197 JUMP JUMPDEST SWAP2 POP POP SWAP3 SWAP2 POP POP JUMP JUMPDEST PUSH1 0x0 PUSH3 0x227 PUSH3 0x23A JUMP JUMPDEST SWAP1 POP PUSH3 0x235 DUP3 DUP3 PUSH3 0x2E6 JUMP JUMPDEST SWAP2 SWAP1 POP JUMP JUMPDEST PUSH1 0x0 PUSH1 0x40 MLOAD SWAP1 POP SWAP1 JUMP JUMPDEST PUSH1 0x0 PUSH8 0xFFFFFFFFFFFFFFFF DUP3 GT ISZERO PUSH3 0x262 JUMPI PUSH3 0x261 PUSH3 0x34B JUMP JUMPDEST JUMPDEST PUSH3 0x26D DUP3 PUSH3 0x38E JUMP JUMPDEST SWAP1 POP PUSH1 0x20 DUP2 ADD SWAP1 POP SWAP2 SWAP1 POP JUMP JUMPDEST PUSH1 0x0 JUMPDEST DUP4 DUP2 LT ISZERO PUSH3 0x29A JUMPI DUP1 DUP3 ADD MLOAD DUP2 DUP5 ADD MSTORE PUSH1 0x20 DUP2 ADD SWAP1 POP PUSH3 0x27D JUMP JUMPDEST DUP4 DUP2 GT ISZERO PUSH3 0x2AA JUMPI PUSH1 0x0 DUP5 DUP5 ADD MSTORE JUMPDEST POP POP POP POP JUMP JUMPDEST PUSH1 0x0 PUSH1 0x2 DUP3 DIV SWAP1 POP PUSH1 0x1 DUP3 AND DUP1 PUSH3 0x2C9 JUMPI PUSH1 0x7F DUP3 AND SWAP2 POP JUMPDEST PUSH1 0x20 DUP3 LT DUP2 EQ ISZERO PUSH3 0x2E0 JUMPI PUSH3 0x2DF PUSH3 0x31C JUMP JUMPDEST JUMPDEST POP SWAP2 SWAP1 POP JUMP JUMPDEST PUSH3 0x2F1 DUP3 PUSH3 0x38E JUMP JUMPDEST DUP2 ADD DUP2 DUP2 LT PUSH8 0xFFFFFFFFFFFFFFFF DUP3 GT OR ISZERO PUSH3 0x313 JUMPI PUSH3 0x312 PUSH3 0x34B JUMP JUMPDEST JUMPDEST DUP1 PUSH1 0x40 MSTORE POP POP POP JUMP JUMPDEST PUSH32 0x4E487B7100000000000000000000000000000000000000000000000000000000 PUSH1 0x0 MSTORE PUSH1 0x22 PUSH1 0x4 MSTORE PUSH1 0x24 PUSH1 0x0 REVERT JUMPDEST PUSH32 0x4E487B7100000000000000000000000000000000000000000000000000000000 PUSH1 0x0 MSTORE PUSH1 0x41 PUSH1 0x4 MSTORE PUSH1 0x24 PUSH1 0x0 REVERT JUMPDEST PUSH1 0x0 DUP1 REVERT JUMPDEST PUSH1 0x0 DUP1 REVERT JUMPDEST PUSH1 0x0 DUP1 REVERT JUMPDEST PUSH1 0x0 DUP1 REVERT JUMPDEST PUSH1 0x0 PUSH1 0x1F NOT PUSH1 0x1F DUP4 ADD AND SWAP1 POP SWAP2 SWAP1 POP JUMP JUMPDEST PUSH2 0x10EE DUP1 PUSH3 0x3AF PUSH1 0x0 CODECOPY PUSH1 0x0 RETURN INVALID PUSH1 0x80 PUSH1 0x40 MSTORE CALLVALUE DUP1 ISZERO PUSH2 0x10 JUMPI PUSH1 0x0 DUP1 REVERT JUMPDEST POP PUSH1 0x4 CALLDATASIZE LT PUSH2 0x62 JUMPI PUSH1 0x0 CALLDATALOAD PUSH1 0xE0 SHR DUP1 PUSH4 0x6FDDE03 EQ PUSH2 0x67 JUMPI DUP1 PUSH4 0x1E8FCA2D EQ PUSH2 0x85 JUMPI DUP1 PUSH4 0x244D6DAA EQ PUSH2 0xB5 JUMPI DUP1 PUSH4 0x797196B3 EQ PUSH2 0xE8 JUMPI DUP1 PUSH4 0x8DA5CB5B EQ PUSH2 0x104 JUMPI DUP1 PUSH4 0xA5448539 EQ PUSH2 0x122 JUMPI JUMPDEST PUSH1 0x0 DUP1 REVERT JUMPDEST PUSH2 0x6F PUSH2 0x13E JUMP JUMPDEST PUSH1 0x40 MLOAD PUSH2 0x7C SWAP2 SWAP1 PUSH2 0xD4B JUMP JUMPDEST PUSH1 0x40 MLOAD DUP1 SWAP2 SUB SWAP1 RETURN JUMPDEST PUSH2 0x9F PUSH1 0x4 DUP1 CALLDATASIZE SUB DUP2 ADD SWAP1 PUSH2 0x9A SWAP2 SWAP1 PUSH2 0xBE6 JUMP JUMPDEST PUSH2 0x1CC JUMP JUMPDEST PUSH1 0x40 MLOAD PUSH2 0xAC SWAP2 SWAP1 PUSH2 0xDE0 JUMP JUMPDEST PUSH1 0x40 MLOAD DUP1 SWAP2 SUB SWAP1 RETURN JUMPDEST PUSH2 0xCF PUSH1 0x4 DUP1 CALLDATASIZE SUB DUP2 ADD SWAP1 PUSH2 0xCA SWAP2 SWAP1 PUSH2 0xBE6 JUMP JUMPDEST PUSH2 0x3C9 JUMP JUMPDEST PUSH1 0x40 MLOAD PUSH2 0xDF SWAP5 SWAP4 SWAP3 SWAP2 SWAP1 PUSH2 0xD6D JUMP JUMPDEST PUSH1 0x40 MLOAD DUP1 SWAP2 SUB SWAP1 RETURN JUMPDEST PUSH2 0x102 PUSH1 0x4 DUP1 CALLDATASIZE SUB DUP2 ADD SWAP1 PUSH2 0xFD SWAP2 SWAP1 PUSH2 0xABC JUMP JUMPDEST PUSH2 0x549 JUMP JUMPDEST STOP JUMPDEST PUSH2 0x10C PUSH2 0x728 JUMP JUMPDEST PUSH1 0x40 MLOAD PUSH2 0x119 SWAP2 SWAP1 PUSH2 0xD30 JUMP JUMPDEST PUSH1 0x40 MLOAD DUP1 SWAP2 SUB SWAP1 RETURN JUMPDEST PUSH2 0x13C PUSH1 0x4 DUP1 CALLDATASIZE SUB DUP2 ADD SWAP1 PUSH2 0x137 SWAP2 SWAP1 PUSH2 0xB5B JUMP JUMPDEST PUSH2 0x74C JUMP JUMPDEST STOP JUMPDEST PUSH1 0x1 DUP1 SLOAD PUSH2 0x14B SWAP1 PUSH2 0xF03 JUMP JUMPDEST DUP1 PUSH1 0x1F ADD PUSH1 0x20 DUP1 SWAP2 DIV MUL PUSH1 0x20 ADD PUSH1 0x40 MLOAD SWAP1 DUP2 ADD PUSH1 0x40 MSTORE DUP1 SWAP3 SWAP2 SWAP1 DUP2 DUP2 MSTORE PUSH1 0x20 ADD DUP3 DUP1 SLOAD PUSH2 0x177 SWAP1 PUSH2 0xF03 JUMP JUMPDEST DUP1 ISZERO PUSH2 0x1C4 JUMPI DUP1 PUSH1 0x1F LT PUSH2 0x199 JUMPI PUSH2 0x100 DUP1 DUP4 SLOAD DIV MUL DUP4 MSTORE SWAP2 PUSH1 0x20 ADD SWAP2 PUSH2 0x1C4 JUMP JUMPDEST DUP3 ADD SWAP2 SWAP1 PUSH1 0x0 MSTORE PUSH1 0x20 PUSH1 0x0 KECCAK256 SWAP1 JUMPDEST DUP2 SLOAD DUP2 MSTORE SWAP1 PUSH1 0x1 ADD SWAP1 PUSH1 0x20 ADD DUP1 DUP4 GT PUSH2 0x1A7 JUMPI DUP3 SWAP1 SUB PUSH1 0x1F AND DUP3 ADD SWAP2 JUMPDEST POP POP POP POP POP DUP2 JUMP JUMPDEST PUSH2 0x1D4 PUSH2 0x92B JUMP JUMPDEST PUSH1 0x2 PUSH1 0x0 DUP4 DUP2 MSTORE PUSH1 0x20 ADD SWAP1 DUP2 MSTORE PUSH1 0x20 ADD PUSH1 0x0 KECCAK256 PUSH1 0x40 MLOAD DUP1 PUSH1 0x80 ADD PUSH1 0x40 MSTORE SWAP1 DUP2 PUSH1 0x0 DUP3 ADD DUP1 SLOAD PUSH2 0x202 SWAP1 PUSH2 0xF03 JUMP JUMPDEST DUP1 PUSH1 0x1F ADD PUSH1 0x20 DUP1 SWAP2 DIV MUL PUSH1 0x20 ADD PUSH1 0x40 MLOAD SWAP1 DUP2 ADD PUSH1 0x40 MSTORE DUP1 SWAP3 SWAP2 SWAP1 DUP2 DUP2 MSTORE PUSH1 0x20 ADD DUP3 DUP1 SLOAD PUSH2 0x22E SWAP1 PUSH2 0xF03 JUMP JUMPDEST DUP1 ISZERO PUSH2 0x27B JUMPI DUP1 PUSH1 0x1F LT PUSH2 0x250 JUMPI PUSH2 0x100 DUP1 DUP4 SLOAD DIV MUL DUP4 MSTORE SWAP2 PUSH1 0x20 ADD SWAP2 PUSH2 0x27B JUMP JUMPDEST DUP3 ADD SWAP2 SWAP1 PUSH1 0x0 MSTORE PUSH1 0x20 PUSH1 0x0 KECCAK256 SWAP1 JUMPDEST DUP2 SLOAD DUP2 MSTORE SWAP1 PUSH1 0x1 ADD SWAP1 PUSH1 0x20 ADD DUP1 DUP4 GT PUSH2 0x25E JUMPI DUP3 SWAP1 SUB PUSH1 0x1F AND DUP3 ADD SWAP2 JUMPDEST POP POP POP POP POP DUP2 MSTORE PUSH1 0x20 ADD PUSH1 0x1 DUP3 ADD PUSH1 0x0 SWAP1 SLOAD SWAP1 PUSH2 0x100 EXP SWAP1 DIV PUSH20 0xFFFFFFFFFFFFFFFFFFFFFFFFFFFFFFFFFFFFFFFF AND PUSH20 0xFFFFFFFFFFFFFFFFFFFFFFFFFFFFFFFFFFFFFFFF AND PUSH20 0xFFFFFFFFFFFFFFFFFFFFFFFFFFFFFFFFFFFFFFFF AND DUP2 MSTORE PUSH1 0x20 ADD PUSH1 0x2 DUP3 ADD PUSH1 0x0 SWAP1 SLOAD SWAP1 PUSH2 0x100 EXP SWAP1 DIV PUSH20 0xFFFFFFFFFFFFFFFFFFFFFFFFFFFFFFFFFFFFFFFF AND PUSH20 0xFFFFFFFFFFFFFFFFFFFFFFFFFFFFFFFFFFFFFFFF AND PUSH20 0xFFFFFFFFFFFFFFFFFFFFFFFFFFFFFFFFFFFFFFFF AND DUP2 MSTORE PUSH1 0x20 ADD PUSH1 0x3 DUP3 ADD DUP1 SLOAD PUSH2 0x340 SWAP1 PUSH2 0xF03 JUMP JUMPDEST DUP1 PUSH1 0x1F ADD PUSH1 0x20 DUP1 SWAP2 DIV MUL PUSH1 0x20 ADD PUSH1 0x40 MLOAD SWAP1 DUP2 ADD PUSH1 0x40 MSTORE DUP1 SWAP3 SWAP2 SWAP1 DUP2 DUP2 MSTORE PUSH1 0x20 ADD DUP3 DUP1 SLOAD PUSH2 0x36C SWAP1 PUSH2 0xF03 JUMP JUMPDEST DUP1 ISZERO PUSH2 0x3B9 JUMPI DUP1 PUSH1 0x1F LT PUSH2 0x38E JUMPI PUSH2 0x100 DUP1 DUP4 SLOAD DIV MUL DUP4 MSTORE SWAP2 PUSH1 0x20 ADD SWAP2 PUSH2 0x3B9 JUMP JUMPDEST DUP3 ADD SWAP2 SWAP1 PUSH1 0x0 MSTORE PUSH1 0x20 PUSH1 0x0 KECCAK256 SWAP1 JUMPDEST DUP2 SLOAD DUP2 MSTORE SWAP1 PUSH1 0x1 ADD SWAP1 PUSH1 0x20 ADD DUP1 DUP4 GT PUSH2 0x39C JUMPI DUP3 SWAP1 SUB PUSH1 0x1F AND DUP3 ADD SWAP2 JUMPDEST POP POP POP POP POP DUP2 MSTORE POP POP SWAP1 POP SWAP2 SWAP1 POP JUMP JUMPDEST PUSH1 0x2 PUSH1 0x20 MSTORE DUP1 PUSH1 0x0 MSTORE PUSH1 0x40 PUSH1 0x0 KECCAK256 PUSH1 0x0 SWAP2 POP SWAP1 POP DUP1 PUSH1 0x0 ADD DUP1 SLOAD PUSH2 0x3EC SWAP1 PUSH2 0xF03 JUMP JUMPDEST DUP1 PUSH1 0x1F ADD PUSH1 0x20 DUP1 SWAP2 DIV MUL PUSH1 0x20 ADD PUSH1 0x40 MLOAD SWAP1 DUP2 ADD PUSH1 0x40 MSTORE DUP1 SWAP3 SWAP2 SWAP1 DUP2 DUP2 MSTORE PUSH1 0x20 ADD DUP3 DUP1 SLOAD PUSH2 0x418 SWAP1 PUSH2 0xF03 JUMP JUMPDEST DUP1 ISZERO PUSH2 0x465 JUMPI DUP1 PUSH1 0x1F LT PUSH2 0x43A JUMPI PUSH2 0x100 DUP1 DUP4 SLOAD DIV MUL DUP4 MSTORE SWAP2 PUSH1 0x20 ADD SWAP2 PUSH2 0x465 JUMP JUMPDEST DUP3 ADD SWAP2 SWAP1 PUSH1 0x0 MSTORE PUSH1 0x20 PUSH1 0x0 KECCAK256 SWAP1 JUMPDEST DUP2 SLOAD DUP2 MSTORE SWAP1 PUSH1 0x1 ADD SWAP1 PUSH1 0x20 ADD DUP1 DUP4 GT PUSH2 0x448 JUMPI DUP3 SWAP1 SUB PUSH1 0x1F AND DUP3 ADD SWAP2 JUMPDEST POP POP POP POP POP SWAP1 DUP1 PUSH1 0x1 ADD PUSH1 0x0 SWAP1 SLOAD SWAP1 PUSH2 0x100 EXP SWAP1 DIV PUSH20 0xFFFFFFFFFFFFFFFFFFFFFFFFFFFFFFFFFFFFFFFF AND SWAP1 DUP1 PUSH1 0x2 ADD PUSH1 0x0 SWAP1 SLOAD SWAP1 PUSH2 0x100 EXP SWAP1 DIV PUSH20 0xFFFFFFFFFFFFFFFFFFFFFFFFFFFFFFFFFFFFFFFF AND SWAP1 DUP1 PUSH1 0x3 ADD DUP1 SLOAD PUSH2 0x4C6 SWAP1 PUSH2 0xF03 JUMP JUMPDEST DUP1 PUSH1 0x1F ADD PUSH1 0x20 DUP1 SWAP2 DIV MUL PUSH1 0x20 ADD PUSH1 0x40 MLOAD SWAP1 DUP2 ADD PUSH1 0x40 MSTORE DUP1 SWAP3 SWAP2 SWAP1 DUP2 DUP2 MSTORE PUSH1 0x20 ADD DUP3 DUP1 SLOAD PUSH2 0x4F2 SWAP1 PUSH2 0xF03 JUMP JUMPDEST DUP1 ISZERO PUSH2 0x53F JUMPI DUP1 PUSH1 0x1F LT PUSH2 0x514 JUMPI PUSH2 0x100 DUP1 DUP4 SLOAD DIV MUL DUP4 MSTORE SWAP2 PUSH1 0x20 ADD SWAP2 PUSH2 0x53F JUMP JUMPDEST DUP3 ADD SWAP2 SWAP1 PUSH1 0x0 MSTORE PUSH1 0x20 PUSH1 0x0 KECCAK256 SWAP1 JUMPDEST DUP2 SLOAD DUP2 MSTORE SWAP1 PUSH1 0x1 ADD SWAP1 PUSH1 0x20 ADD DUP1 DUP4 GT PUSH2 0x522 JUMPI DUP3 SWAP1 SUB PUSH1 0x1F AND DUP3 ADD SWAP2 JUMPDEST POP POP POP POP POP SWAP1 POP DUP5 JUMP JUMPDEST PUSH1 0x0 DUP1 SLOAD SWAP1 PUSH2 0x100 EXP SWAP1 DIV PUSH20 0xFFFFFFFFFFFFFFFFFFFFFFFFFFFFFFFFFFFFFFFF AND PUSH20 0xFFFFFFFFFFFFFFFFFFFFFFFFFFFFFFFFFFFFFFFF AND CALLER PUSH20 0xFFFFFFFFFFFFFFFFFFFFFFFFFFFFFFFFFFFFFFFF AND EQ PUSH2 0x5D7 JUMPI PUSH1 0x40 MLOAD PUSH32 0x8C379A000000000000000000000000000000000000000000000000000000000 DUP2 MSTORE PUSH1 0x4 ADD PUSH2 0x5CE SWAP1 PUSH2 0xDC0 JUMP JUMPDEST PUSH1 0x40 MLOAD DUP1 SWAP2 SUB SWAP1 REVERT JUMPDEST PUSH1 0x0 PUSH1 0x40 MLOAD DUP1 PUSH1 0x80 ADD PUSH1 0x40 MSTORE DUP1 DUP7 DUP2 MSTORE PUSH1 0x20 ADD DUP6 PUSH20 0xFFFFFFFFFFFFFFFFFFFFFFFFFFFFFFFFFFFFFFFF AND DUP2 MSTORE PUSH1 0x20 ADD DUP5 PUSH20 0xFFFFFFFFFFFFFFFFFFFFFFFFFFFFFFFFFFFFFFFF AND DUP2 MSTORE PUSH1 0x20 ADD DUP4 DUP2 MSTORE POP SWAP1 POP DUP1 PUSH1 0x2 PUSH1 0x0 PUSH1 0x3 SLOAD DUP2 MSTORE PUSH1 0x20 ADD SWAP1 DUP2 MSTORE PUSH1 0x20 ADD PUSH1 0x0 KECCAK256 PUSH1 0x0 DUP3 ADD MLOAD DUP2 PUSH1 0x0 ADD SWAP1 DUP1 MLOAD SWAP1 PUSH1 0x20 ADD SWAP1 PUSH2 0x65A SWAP3 SWAP2 SWAP1 PUSH2 0x97F JUMP JUMPDEST POP PUSH1 0x20 DUP3 ADD MLOAD DUP2 PUSH1 0x1 ADD PUSH1 0x0 PUSH2 0x100 EXP DUP2 SLOAD DUP2 PUSH20 0xFFFFFFFFFFFFFFFFFFFFFFFFFFFFFFFFFFFFFFFF MUL NOT AND SWAP1 DUP4 PUSH20 0xFFFFFFFFFFFFFFFFFFFFFFFFFFFFFFFFFFFFFFFF AND MUL OR SWAP1 SSTORE POP PUSH1 0x40 DUP3 ADD MLOAD DUP2 PUSH1 0x2 ADD PUSH1 0x0 PUSH2 0x100 EXP DUP2 SLOAD DUP2 PUSH20 0xFFFFFFFFFFFFFFFFFFFFFFFFFFFFFFFFFFFFFFFF MUL NOT AND SWAP1 DUP4 PUSH20 0xFFFFFFFFFFFFFFFFFFFFFFFFFFFFFFFFFFFFFFFF AND MUL OR SWAP1 SSTORE POP PUSH1 0x60 DUP3 ADD MLOAD DUP2 PUSH1 0x3 ADD SWAP1 DUP1 MLOAD SWAP1 PUSH1 0x20 ADD SWAP1 PUSH2 0x705 SWAP3 SWAP2 SWAP1 PUSH2 0x97F JUMP JUMPDEST POP SWAP1 POP POP PUSH1 0x3 PUSH1 0x0 DUP2 SLOAD DUP1 SWAP3 SWAP2 SWAP1 PUSH2 0x71C SWAP1 PUSH2 0xF66 JUMP JUMPDEST SWAP2 SWAP1 POP SSTORE POP POP POP POP POP POP JUMP JUMPDEST PUSH1 0x0 DUP1 SLOAD SWAP1 PUSH2 0x100 EXP SWAP1 DIV PUSH20 0xFFFFFFFFFFFFFFFFFFFFFFFFFFFFFFFFFFFFFFFF AND DUP2 JUMP JUMPDEST PUSH1 0x0 DUP1 SLOAD SWAP1 PUSH2 0x100 EXP SWAP1 DIV PUSH20 0xFFFFFFFFFFFFFFFFFFFFFFFFFFFFFFFFFFFFFFFF AND PUSH20 0xFFFFFFFFFFFFFFFFFFFFFFFFFFFFFFFFFFFFFFFF AND CALLER PUSH20 0xFFFFFFFFFFFFFFFFFFFFFFFFFFFFFFFFFFFFFFFF AND EQ PUSH2 0x7DA JUMPI PUSH1 0x40 MLOAD PUSH32 0x8C379A000000000000000000000000000000000000000000000000000000000 DUP2 MSTORE PUSH1 0x4 ADD PUSH2 0x7D1 SWAP1 PUSH2 0xDC0 JUMP JUMPDEST PUSH1 0x40 MLOAD DUP1 SWAP2 SUB SWAP1 REVERT JUMPDEST PUSH1 0x0 PUSH1 0x40 MLOAD DUP1 PUSH1 0x80 ADD PUSH1 0x40 MSTORE DUP1 DUP6 DUP2 MSTORE PUSH1 0x20 ADD DUP5 PUSH20 0xFFFFFFFFFFFFFFFFFFFFFFFFFFFFFFFFFFFFFFFF AND DUP2 MSTORE PUSH1 0x20 ADD PUSH1 0x0 PUSH20 0xFFFFFFFFFFFFFFFFFFFFFFFFFFFFFFFFFFFFFFFF AND DUP2 MSTORE PUSH1 0x20 ADD DUP4 DUP2 MSTORE POP SWAP1 POP DUP1 PUSH1 0x2 PUSH1 0x0 PUSH1 0x3 SLOAD DUP2 MSTORE PUSH1 0x20 ADD SWAP1 DUP2 MSTORE PUSH1 0x20 ADD PUSH1 0x0 KECCAK256 PUSH1 0x0 DUP3 ADD MLOAD DUP2 PUSH1 0x0 ADD SWAP1 DUP1 MLOAD SWAP1 PUSH1 0x20 ADD SWAP1 PUSH2 0x85E SWAP3 SWAP2 SWAP1 PUSH2 0x97F JUMP JUMPDEST POP PUSH1 0x20 DUP3 ADD MLOAD DUP2 PUSH1 0x1 ADD PUSH1 0x0 PUSH2 0x100 EXP DUP2 SLOAD DUP2 PUSH20 0xFFFFFFFFFFFFFFFFFFFFFFFFFFFFFFFFFFFFFFFF MUL NOT AND SWAP1 DUP4 PUSH20 0xFFFFFFFFFFFFFFFFFFFFFFFFFFFFFFFFFFFFFFFF AND MUL OR SWAP1 SSTORE POP PUSH1 0x40 DUP3 ADD MLOAD DUP2 PUSH1 0x2 ADD PUSH1 0x0 PUSH2 0x100 EXP DUP2 SLOAD DUP2 PUSH20 0xFFFFFFFFFFFFFFFFFFFFFFFFFFFFFFFFFFFFFFFF MUL NOT AND SWAP1 DUP4 PUSH20 0xFFFFFFFFFFFFFFFFFFFFFFFFFFFFFFFFFFFFFFFF AND MUL OR SWAP1 SSTORE POP PUSH1 0x60 DUP3 ADD MLOAD DUP2 PUSH1 0x3 ADD SWAP1 DUP1 MLOAD SWAP1 PUSH1 0x20 ADD SWAP1 PUSH2 0x909 SWAP3 SWAP2 SWAP1 PUSH2 0x97F JUMP JUMPDEST POP SWAP1 POP POP PUSH1 0x3 PUSH1 0x0 DUP2 SLOAD DUP1 SWAP3 SWAP2 SWAP1 PUSH2 0x920 SWAP1 PUSH2 0xF66 JUMP JUMPDEST SWAP2 SWAP1 POP SSTORE POP POP POP POP POP JUMP JUMPDEST PUSH1 0x40 MLOAD DUP1 PUSH1 0x80 ADD PUSH1 0x40 MSTORE DUP1 PUSH1 0x60 DUP2 MSTORE PUSH1 0x20 ADD PUSH1 0x0 PUSH20 0xFFFFFFFFFFFFFFFFFFFFFFFFFFFFFFFFFFFFFFFF AND DUP2 MSTORE PUSH1 0x20 ADD PUSH1 0x0 PUSH20 0xFFFFFFFFFFFFFFFFFFFFFFFFFFFFFFFFFFFFFFFF AND DUP2 MSTORE PUSH1 0x20 ADD PUSH1 0x60 DUP2 MSTORE POP SWAP1 JUMP JUMPDEST DUP3 DUP1 SLOAD PUSH2 0x98B SWAP1 PUSH2 0xF03 JUMP JUMPDEST SWAP1 PUSH1 0x0 MSTORE PUSH1 0x20 PUSH1 0x0 KECCAK256 SWAP1 PUSH1 0x1F ADD PUSH1 0x20 SWAP1 DIV DUP2 ADD SWAP3 DUP3 PUSH2 0x9AD JUMPI PUSH1 0x0 DUP6 SSTORE PUSH2 0x9F4 JUMP JUMPDEST DUP3 PUSH1 0x1F LT PUSH2 0x9C6 JUMPI DUP1 MLOAD PUSH1 0xFF NOT AND DUP4 DUP1 ADD OR DUP6 SSTORE PUSH2 0x9F4 JUMP JUMPDEST DUP3 DUP1 ADD PUSH1 0x1 ADD DUP6 SSTORE DUP3 ISZERO PUSH2 0x9F4 JUMPI SWAP2 DUP3 ADD JUMPDEST DUP3 DUP2 GT ISZERO PUSH2 0x9F3 JUMPI DUP3 MLOAD DUP3 SSTORE SWAP2 PUSH1 0x20 ADD SWAP2 SWAP1 PUSH1 0x1 ADD SWAP1 PUSH2 0x9D8 JUMP JUMPDEST JUMPDEST POP SWAP1 POP PUSH2 0xA01 SWAP2 SWAP1 PUSH2 0xA05 JUMP JUMPDEST POP SWAP1 JUMP JUMPDEST JUMPDEST DUP1 DUP3 GT ISZERO PUSH2 0xA1E JUMPI PUSH1 0x0 DUP2 PUSH1 0x0 SWAP1 SSTORE POP PUSH1 0x1 ADD PUSH2 0xA06 JUMP JUMPDEST POP SWAP1 JUMP JUMPDEST PUSH1 0x0 PUSH2 0xA35 PUSH2 0xA30 DUP5 PUSH2 0xE27 JUMP JUMPDEST PUSH2 0xE02 JUMP JUMPDEST SWAP1 POP DUP3 DUP2 MSTORE PUSH1 0x20 DUP2 ADD DUP5 DUP5 DUP5 ADD GT ISZERO PUSH2 0xA51 JUMPI PUSH2 0xA50 PUSH2 0x1041 JUMP JUMPDEST JUMPDEST PUSH2 0xA5C DUP5 DUP3 DUP6 PUSH2 0xEC1 JUMP JUMPDEST POP SWAP4 SWAP3 POP POP POP JUMP JUMPDEST PUSH1 0x0 DUP2 CALLDATALOAD SWAP1 POP PUSH2 0xA73 DUP2 PUSH2 0x108A JUMP JUMPDEST SWAP3 SWAP2 POP POP JUMP JUMPDEST PUSH1 0x0 DUP3 PUSH1 0x1F DUP4 ADD SLT PUSH2 0xA8E JUMPI PUSH2 0xA8D PUSH2 0x103C JUMP JUMPDEST JUMPDEST DUP2 CALLDATALOAD PUSH2 0xA9E DUP5 DUP3 PUSH1 0x20 DUP7 ADD PUSH2 0xA22 JUMP JUMPDEST SWAP2 POP POP SWAP3 SWAP2 POP POP JUMP JUMPDEST PUSH1 0x0 DUP2 CALLDATALOAD SWAP1 POP PUSH2 0xAB6 DUP2 PUSH2 0x10A1 JUMP JUMPDEST SWAP3 SWAP2 POP POP JUMP JUMPDEST PUSH1 0x0 DUP1 PUSH1 0x0 DUP1 PUSH1 0x80 DUP6 DUP8 SUB SLT ISZERO PUSH2 0xAD6 JUMPI PUSH2 0xAD5 PUSH2 0x104B JUMP JUMPDEST JUMPDEST PUSH1 0x0 DUP6 ADD CALLDATALOAD PUSH8 0xFFFFFFFFFFFFFFFF DUP2 GT ISZERO PUSH2 0xAF4 JUMPI PUSH2 0xAF3 PUSH2 0x1046 JUMP JUMPDEST JUMPDEST PUSH2 0xB00 DUP8 DUP3 DUP9 ADD PUSH2 0xA79 JUMP JUMPDEST SWAP5 POP POP PUSH1 0x20 PUSH2 0xB11 DUP8 DUP3 DUP9 ADD PUSH2 0xA64 JUMP JUMPDEST SWAP4 POP POP PUSH1 0x40 PUSH2 0xB22 DUP8 DUP3 DUP9 ADD PUSH2 0xA64 JUMP JUMPDEST SWAP3 POP POP PUSH1 0x60 DUP6 ADD CALLDATALOAD PUSH8 0xFFFFFFFFFFFFFFFF DUP2 GT ISZERO PUSH2 0xB43 JUMPI PUSH2 0xB42 PUSH2 0x1046 JUMP JUMPDEST JUMPDEST PUSH2 0xB4F DUP8 DUP3 DUP9 ADD PUSH2 0xA79 JUMP JUMPDEST SWAP2 POP POP SWAP3 SWAP6 SWAP2 SWAP5 POP SWAP3 POP JUMP JUMPDEST PUSH1 0x0 DUP1 PUSH1 0x0 PUSH1 0x60 DUP5 DUP7 SUB SLT ISZERO PUSH2 0xB74 JUMPI PUSH2 0xB73 PUSH2 0x104B JUMP JUMPDEST JUMPDEST PUSH1 0x0 DUP5 ADD CALLDATALOAD PUSH8 0xFFFFFFFFFFFFFFFF DUP2 GT ISZERO PUSH2 0xB92 JUMPI PUSH2 0xB91 PUSH2 0x1046 JUMP JUMPDEST JUMPDEST PUSH2 0xB9E DUP7 DUP3 DUP8 ADD PUSH2 0xA79 JUMP JUMPDEST SWAP4 POP POP PUSH1 0x20 PUSH2 0xBAF DUP7 DUP3 DUP8 ADD PUSH2 0xA64 JUMP JUMPDEST SWAP3 POP POP PUSH1 0x40 DUP5 ADD CALLDATALOAD PUSH8 0xFFFFFFFFFFFFFFFF DUP2 GT ISZERO PUSH2 0xBD0 JUMPI PUSH2 0xBCF PUSH2 0x1046 JUMP JUMPDEST JUMPDEST PUSH2 0xBDC DUP7 DUP3 DUP8 ADD PUSH2 0xA79 JUMP JUMPDEST SWAP2 POP POP SWAP3 POP SWAP3 POP SWAP3 JUMP JUMPDEST PUSH1 0x0 PUSH1 0x20 DUP3 DUP5 SUB SLT ISZERO PUSH2 0xBFC JUMPI PUSH2 0xBFB PUSH2 0x104B JUMP JUMPDEST JUMPDEST PUSH1 0x0 PUSH2 0xC0A DUP5 DUP3 DUP6 ADD PUSH2 0xAA7 JUMP JUMPDEST SWAP2 POP POP SWAP3 SWAP2 POP POP JUMP JUMPDEST PUSH2 0xC1C DUP2 PUSH2 0xE85 JUMP JUMPDEST DUP3 MSTORE POP POP JUMP JUMPDEST PUSH2 0xC2B DUP2 PUSH2 0xE85 JUMP JUMPDEST DUP3 MSTORE POP POP JUMP JUMPDEST PUSH1 0x0 PUSH2 0xC3C DUP3 PUSH2 0xE58 JUMP JUMPDEST PUSH2 0xC46 DUP2 DUP6 PUSH2 0xE63 JUMP JUMPDEST SWAP4 POP PUSH2 0xC56 DUP2 DUP6 PUSH1 0x20 DUP7 ADD PUSH2 0xED0 JUMP JUMPDEST PUSH2 0xC5F DUP2 PUSH2 0x1050 JUMP JUMPDEST DUP5 ADD SWAP2 POP POP SWAP3 SWAP2 POP POP JUMP JUMPDEST PUSH1 0x0 PUSH2 0xC75 DUP3 PUSH2 0xE58 JUMP JUMPDEST PUSH2 0xC7F DUP2 DUP6 PUSH2 0xE74 JUMP JUMPDEST SWAP4 POP PUSH2 0xC8F DUP2 DUP6 PUSH1 0x20 DUP7 ADD PUSH2 0xED0 JUMP JUMPDEST PUSH2 0xC98 DUP2 PUSH2 0x1050 JUMP JUMPDEST DUP5 ADD SWAP2 POP POP SWAP3 SWAP2 POP POP JUMP JUMPDEST PUSH1 0x0 PUSH2 0xCB0 PUSH1 0xD DUP4 PUSH2 0xE74 JUMP JUMPDEST SWAP2 POP PUSH2 0xCBB DUP3 PUSH2 0x1061 JUMP JUMPDEST PUSH1 0x20 DUP3 ADD SWAP1 POP SWAP2 SWAP1 POP JUMP JUMPDEST PUSH1 0x0 PUSH1 0x80 DUP4 ADD PUSH1 0x0 DUP4 ADD MLOAD DUP5 DUP3 SUB PUSH1 0x0 DUP7 ADD MSTORE PUSH2 0xCE3 DUP3 DUP3 PUSH2 0xC31 JUMP JUMPDEST SWAP2 POP POP PUSH1 0x20 DUP4 ADD MLOAD PUSH2 0xCF8 PUSH1 0x20 DUP7 ADD DUP3 PUSH2 0xC13 JUMP JUMPDEST POP PUSH1 0x40 DUP4 ADD MLOAD PUSH2 0xD0B PUSH1 0x40 DUP7 ADD DUP3 PUSH2 0xC13 JUMP JUMPDEST POP PUSH1 0x60 DUP4 ADD MLOAD DUP5 DUP3 SUB PUSH1 0x60 DUP7 ADD MSTORE PUSH2 0xD23 DUP3 DUP3 PUSH2 0xC31 JUMP JUMPDEST SWAP2 POP POP DUP1 SWAP2 POP POP SWAP3 SWAP2 POP POP JUMP JUMPDEST PUSH1 0x0 PUSH1 0x20 DUP3 ADD SWAP1 POP PUSH2 0xD45 PUSH1 0x0 DUP4 ADD DUP5 PUSH2 0xC22 JUMP JUMPDEST SWAP3 SWAP2 POP POP JUMP JUMPDEST PUSH1 0x0 PUSH1 0x20 DUP3 ADD SWAP1 POP DUP2 DUP2 SUB PUSH1 0x0 DUP4 ADD MSTORE PUSH2 0xD65 DUP2 DUP5 PUSH2 0xC6A JUMP JUMPDEST SWAP1 POP SWAP3 SWAP2 POP POP JUMP JUMPDEST PUSH1 0x0 PUSH1 0x80 DUP3 ADD SWAP1 POP DUP2 DUP2 SUB PUSH1 0x0 DUP4 ADD MSTORE PUSH2 0xD87 DUP2 DUP8 PUSH2 0xC6A JUMP JUMPDEST SWAP1 POP PUSH2 0xD96 PUSH1 0x20 DUP4 ADD DUP7 PUSH2 0xC22 JUMP JUMPDEST PUSH2 0xDA3 PUSH1 0x40 DUP4 ADD DUP6 PUSH2 0xC22 JUMP JUMPDEST DUP2 DUP2 SUB PUSH1 0x60 DUP4 ADD MSTORE PUSH2 0xDB5 DUP2 DUP5 PUSH2 0xC6A JUMP JUMPDEST SWAP1 POP SWAP6 SWAP5 POP POP POP POP POP JUMP JUMPDEST PUSH1 0x0 PUSH1 0x20 DUP3 ADD SWAP1 POP DUP2 DUP2 SUB PUSH1 0x0 DUP4 ADD MSTORE PUSH2 0xDD9 DUP2 PUSH2 0xCA3 JUMP JUMPDEST SWAP1 POP SWAP2 SWAP1 POP JUMP JUMPDEST PUSH1 0x0 PUSH1 0x20 DUP3 ADD SWAP1 POP DUP2 DUP2 SUB PUSH1 0x0 DUP4 ADD MSTORE PUSH2 0xDFA DUP2 DUP5 PUSH2 0xCC6 JUMP JUMPDEST SWAP1 POP SWAP3 SWAP2 POP POP JUMP JUMPDEST PUSH1 0x0 PUSH2 0xE0C PUSH2 0xE1D JUMP JUMPDEST SWAP1 POP PUSH2 0xE18 DUP3 DUP3 PUSH2 0xF35 JUMP JUMPDEST SWAP2 SWAP1 POP JUMP JUMPDEST PUSH1 0x0 PUSH1 0x40 MLOAD SWAP1 POP SWAP1 JUMP JUMPDEST PUSH1 0x0 PUSH8 0xFFFFFFFFFFFFFFFF DUP3 GT ISZERO PUSH2 0xE42 JUMPI PUSH2 0xE41 PUSH2 0x100D JUMP JUMPDEST JUMPDEST PUSH2 0xE4B DUP3 PUSH2 0x1050 JUMP JUMPDEST SWAP1 POP PUSH1 0x20 DUP2 ADD SWAP1 POP SWAP2 SWAP1 POP JUMP JUMPDEST PUSH1 0x0 DUP2 MLOAD SWAP1 POP SWAP2 SWAP1 POP JUMP JUMPDEST PUSH1 0x0 DUP3 DUP3 MSTORE PUSH1 0x20 DUP3 ADD SWAP1 POP SWAP3 SWAP2 POP POP JUMP JUMPDEST PUSH1 0x0 DUP3 DUP3 MSTORE PUSH1 0x20 DUP3 ADD SWAP1 POP SWAP3 SWAP2 POP POP JUMP JUMPDEST PUSH1 0x0 PUSH2 0xE90 DUP3 PUSH2 0xE97 JUMP JUMPDEST SWAP1 POP SWAP2 SWAP1 POP JUMP JUMPDEST PUSH1 0x0 PUSH20 0xFFFFFFFFFFFFFFFFFFFFFFFFFFFFFFFFFFFFFFFF DUP3 AND SWAP1 POP SWAP2 SWAP1 POP JUMP JUMPDEST PUSH1 0x0 DUP2 SWAP1 POP SWAP2 SWAP1 POP JUMP JUMPDEST DUP3 DUP2 DUP4 CALLDATACOPY PUSH1 0x0 DUP4 DUP4 ADD MSTORE POP POP POP JUMP JUMPDEST PUSH1 0x0 JUMPDEST DUP4 DUP2 LT ISZERO PUSH2 0xEEE JUMPI DUP1 DUP3 ADD MLOAD DUP2 DUP5 ADD MSTORE PUSH1 0x20 DUP2 ADD SWAP1 POP PUSH2 0xED3 JUMP JUMPDEST DUP4 DUP2 GT ISZERO PUSH2 0xEFD JUMPI PUSH1 0x0 DUP5 DUP5 ADD MSTORE JUMPDEST POP POP POP POP JUMP JUMPDEST PUSH1 0x0 PUSH1 0x2 DUP3 DIV SWAP1 POP PUSH1 0x1 DUP3 AND DUP1 PUSH2 0xF1B JUMPI PUSH1 0x7F DUP3 AND SWAP2 POP JUMPDEST PUSH1 0x20 DUP3 LT DUP2 EQ ISZERO PUSH2 0xF2F JUMPI PUSH2 0xF2E PUSH2 0xFDE JUMP JUMPDEST JUMPDEST POP SWAP2 SWAP1 POP JUMP JUMPDEST PUSH2 0xF3E DUP3 PUSH2 0x1050 JUMP JUMPDEST DUP2 ADD DUP2 DUP2 LT PUSH8 0xFFFFFFFFFFFFFFFF DUP3 GT OR ISZERO PUSH2 0xF5D JUMPI PUSH2 0xF5C PUSH2 0x100D JUMP JUMPDEST JUMPDEST DUP1 PUSH1 0x40 MSTORE POP POP POP JUMP JUMPDEST PUSH1 0x0 PUSH2 0xF71 DUP3 PUSH2 0xEB7 JUMP JUMPDEST SWAP2 POP PUSH32 0xFFFFFFFFFFFFFFFFFFFFFFFFFFFFFFFFFFFFFFFFFFFFFFFFFFFFFFFFFFFFFFFF DUP3 EQ ISZERO PUSH2 0xFA4 JUMPI PUSH2 0xFA3 PUSH2 0xFAF JUMP JUMPDEST JUMPDEST PUSH1 0x1 DUP3 ADD SWAP1 POP SWAP2 SWAP1 POP JUMP JUMPDEST PUSH32 0x4E487B7100000000000000000000000000000000000000000000000000000000 PUSH1 0x0 MSTORE PUSH1 0x11 PUSH1 0x4 MSTORE PUSH1 0x24 PUSH1 0x0 REVERT JUMPDEST PUSH32 0x4E487B7100000000000000000000000000000000000000000000000000000000 PUSH1 0x0 MSTORE PUSH1 0x22 PUSH1 0x4 MSTORE PUSH1 0x24 PUSH1 0x0 REVERT JUMPDEST PUSH32 0x4E487B7100000000000000000000000000000000000000000000000000000000 PUSH1 0x0 MSTORE PUSH1 0x41 PUSH1 0x4 MSTORE PUSH1 0x24 PUSH1 0x0 REVERT JUMPDEST PUSH1 0x0 DUP1 REVERT JUMPDEST PUSH1 0x0 DUP1 REVERT JUMPDEST PUSH1 0x0 DUP1 REVERT JUMPDEST PUSH1 0x0 DUP1 REVERT JUMPDEST PUSH1 0x0 PUSH1 0x1F NOT PUSH1 0x1F DUP4 ADD AND SWAP1 POP SWAP2 SWAP1 POP JUMP JUMPDEST PUSH32 0x4163636573732044656E69656400000000000000000000000000000000000000 PUSH1 0x0 DUP3 ADD MSTORE POP JUMP JUMPDEST PUSH2 0x1093 DUP2 PUSH2 0xE85 JUMP JUMPDEST DUP2 EQ PUSH2 0x109E JUMPI PUSH1 0x0 DUP1 REVERT JUMPDEST POP JUMP JUMPDEST PUSH2 0x10AA DUP2 PUSH2 0xEB7 JUMP JUMPDEST DUP2 EQ PUSH2 0x10B5 JUMPI PUSH1 0x0 DUP1 REVERT JUMPDEST POP JUMP INVALID LOG2 PUSH5 0x6970667358 0x22 SLT KECCAK256 PUSH22 0xDFD3F498167255A4D0D9F4CE19542472499F8E7D6F54 DIFFICULTY SELFDESTRUCT 0xCE LOG3 0xC2 0xE1 LOG3 0xB8 DUP2 PUSH5 0x736F6C6343 STOP ADDMOD SMOD STOP CALLER "
				},
				"gasEstimates": {
					"creation": {
						"codeDepositCost": "866800",
						"executionCost": "infinite",
						"totalCost": "infinite"
					},
					"external": {
						"addResource(string,address,address,string)": "infinite",
						"addResource(string,address,string)": "infinite",
						"getResource(uint256)": "infinite",
						"name()": "infinite",
						"owner()": "2577",
						"resources(uint256)": "infinite"
					}
				},
				"methodIdentifiers": {
					"addResource(string,address,address,string)": "797196b3",
					"addResource(string,address,string)": "a5448539",
					"getResource(uint256)": "1e8fca2d",
					"name()": "06fdde03",
					"owner()": "8da5cb5b",
					"resources(uint256)": "244d6daa"
				}
			},
			"storageLayout": {
				"storage": [
					{
						"astId": 3,
						"contract": "Downloads/Programming/blocket-wildcard/apps/smart-contracts/contracts/DemoIDN.sol:DemoIDN",
						"label": "owner",
						"offset": 0,
						"slot": "0",
						"type": "t_address"
					},
					{
						"astId": 5,
						"contract": "Downloads/Programming/blocket-wildcard/apps/smart-contracts/contracts/DemoIDN.sol:DemoIDN",
						"label": "name",
						"offset": 0,
						"slot": "1",
						"type": "t_string_storage"
					},
					{
						"astId": 14,
						"contract": "Downloads/Programming/blocket-wildcard/apps/smart-contracts/contracts/DemoIDN.sol:DemoIDN",
						"label": "resources",
						"offset": 0,
						"slot": "2",
						"type": "t_mapping(t_uint256,t_struct(Resource)26_storage)"
					},
					{
						"astId": 17,
						"contract": "Downloads/Programming/blocket-wildcard/apps/smart-contracts/contracts/DemoIDN.sol:DemoIDN",
						"label": "resourceCount",
						"offset": 0,
						"slot": "3",
						"type": "t_uint256"
					}
				],
				"types": {
					"t_address": {
						"encoding": "inplace",
						"label": "address",
						"numberOfBytes": "20"
					},
					"t_mapping(t_uint256,t_struct(Resource)26_storage)": {
						"encoding": "mapping",
						"key": "t_uint256",
						"label": "mapping(uint256 => struct DemoIDN.Resource)",
						"numberOfBytes": "32",
						"value": "t_struct(Resource)26_storage"
					},
					"t_string_storage": {
						"encoding": "bytes",
						"label": "string",
						"numberOfBytes": "32"
					},
					"t_struct(Resource)26_storage": {
						"encoding": "inplace",
						"label": "struct DemoIDN.Resource",
						"members": [
							{
								"astId": 19,
								"contract": "Downloads/Programming/blocket-wildcard/apps/smart-contracts/contracts/DemoIDN.sol:DemoIDN",
								"label": "resourceName",
								"offset": 0,
								"slot": "0",
								"type": "t_string_storage"
							},
							{
								"astId": 21,
								"contract": "Downloads/Programming/blocket-wildcard/apps/smart-contracts/contracts/DemoIDN.sol:DemoIDN",
								"label": "resourcePK",
								"offset": 0,
								"slot": "1",
								"type": "t_address"
							},
							{
								"astId": 23,
								"contract": "Downloads/Programming/blocket-wildcard/apps/smart-contracts/contracts/DemoIDN.sol:DemoIDN",
								"label": "resourceContract",
								"offset": 0,
								"slot": "2",
								"type": "t_address"
							},
							{
								"astId": 25,
								"contract": "Downloads/Programming/blocket-wildcard/apps/smart-contracts/contracts/DemoIDN.sol:DemoIDN",
								"label": "resourceURL",
								"offset": 0,
								"slot": "3",
								"type": "t_string_storage"
							}
						],
						"numberOfBytes": "128"
					},
					"t_uint256": {
						"encoding": "inplace",
						"label": "uint256",
						"numberOfBytes": "32"
					}
				}
			},
			"userdoc": {
				"kind": "user",
				"methods": {},
				"version": 1
			}
		}
	}
}