{
  "contractName": "DemoIDN",
  "abi": [
    {
      "inputs": [
        {
          "internalType": "string",
          "name": "_name",
          "type": "string"
        }
      ],
      "stateMutability": "nonpayable",
      "type": "constructor"
    },
    {
      "inputs": [],
      "name": "name",
      "outputs": [
        {
          "internalType": "string",
          "name": "",
          "type": "string"
        }
      ],
      "stateMutability": "view",
      "type": "function",
      "constant": true
    },
    {
      "inputs": [],
      "name": "owner",
      "outputs": [
        {
          "internalType": "address",
          "name": "",
          "type": "address"
        }
      ],
      "stateMutability": "view",
      "type": "function",
      "constant": true
    },
    {
      "inputs": [
        {
          "internalType": "uint256",
          "name": "",
          "type": "uint256"
        }
      ],
      "name": "resources",
      "outputs": [
        {
          "internalType": "string",
          "name": "resourceName",
          "type": "string"
        },
        {
          "internalType": "address",
          "name": "resourcePK",
          "type": "address"
        },
        {
          "internalType": "address",
          "name": "resourceContract",
          "type": "address"
        },
        {
          "internalType": "string",
          "name": "resourceURL",
          "type": "string"
        }
      ],
      "stateMutability": "view",
      "type": "function",
      "constant": true
    },
    {
      "inputs": [
        {
          "internalType": "string",
          "name": "_name",
          "type": "string"
        },
        {
          "internalType": "address",
          "name": "pk",
          "type": "address"
        },
        {
          "internalType": "address",
          "name": "resourcecontract",
          "type": "address"
        },
        {
          "internalType": "string",
          "name": "_url",
          "type": "string"
        }
      ],
      "name": "addResource",
      "outputs": [],
      "stateMutability": "nonpayable",
      "type": "function"
    },
    {
      "inputs": [
        {
          "internalType": "string",
          "name": "_name",
          "type": "string"
        },
        {
          "internalType": "address",
          "name": "pk",
          "type": "address"
        },
        {
          "internalType": "string",
          "name": "_url",
          "type": "string"
        }
      ],
      "name": "addResource",
      "outputs": [],
      "stateMutability": "nonpayable",
      "type": "function"
    },
    {
      "inputs": [
        {
          "internalType": "uint256",
          "name": "i",
          "type": "uint256"
        }
      ],
      "name": "getResource",
      "outputs": [
        {
          "components": [
            {
              "internalType": "string",
              "name": "resourceName",
              "type": "string"
            },
            {
              "internalType": "address",
              "name": "resourcePK",
              "type": "address"
            },
            {
              "internalType": "address",
              "name": "resourceContract",
              "type": "address"
            },
            {
              "internalType": "string",
              "name": "resourceURL",
              "type": "string"
            }
          ],
          "internalType": "struct DemoIDN.Resource",
          "name": "",
          "type": "tuple"
        }
      ],
      "stateMutability": "view",
      "type": "function",
      "constant": true
    }
  ],
  "bytecode": "0x608060405260006003553480156200001657600080fd5b506040516200149a3803806200149a83398181016040528101906200003c9190620002e9565b336000806101000a81548173ffffffffffffffffffffffffffffffffffffffff021916908373ffffffffffffffffffffffffffffffffffffffff1602179055508060019080519060200190620000949291906200009c565b50506200039e565b828054620000aa9062000369565b90600052602060002090601f016020900481019282620000ce57600085556200011a565b82601f10620000e957805160ff19168380011785556200011a565b828001600101855582156200011a579182015b8281111562000119578251825591602001919060010190620000fc565b5b5090506200012991906200012d565b5090565b5b80821115620001485760008160009055506001016200012e565b5090565b6000604051905090565b600080fd5b600080fd5b600080fd5b600080fd5b6000601f19601f8301169050919050565b7f4e487b7100000000000000000000000000000000000000000000000000000000600052604160045260246000fd5b620001b5826200016a565b810181811067ffffffffffffffff82111715620001d757620001d66200017b565b5b80604052505050565b6000620001ec6200014c565b9050620001fa8282620001aa565b919050565b600067ffffffffffffffff8211156200021d576200021c6200017b565b5b62000228826200016a565b9050602081019050919050565b60005b838110156200025557808201518184015260208101905062000238565b8381111562000265576000848401525b50505050565b6000620002826200027c84620001ff565b620001e0565b905082815260208101848484011115620002a157620002a062000165565b5b620002ae84828562000235565b509392505050565b600082601f830112620002ce57620002cd62000160565b5b8151620002e08482602086016200026b565b91505092915050565b60006020828403121562000302576200030162000156565b5b600082015167ffffffffffffffff8111156200032357620003226200015b565b5b6200033184828501620002b6565b91505092915050565b7f4e487b7100000000000000000000000000000000000000000000000000000000600052602260045260246000fd5b600060028204905060018216806200038257607f821691505b6020821081036200039857620003976200033a565b5b50919050565b6110ec80620003ae6000396000f3fe608060405234801561001057600080fd5b50600436106100625760003560e01c806306fdde03146100675780631e8fca2d14610085578063244d6daa146100b5578063797196b3146100e85780638da5cb5b14610104578063a544853914610122575b600080fd5b61006f61013e565b60405161007c9190610abb565b60405180910390f35b61009f600480360381019061009a9190610b27565b6101cc565b6040516100ac9190610c49565b60405180910390f35b6100cf60048036038101906100ca9190610b27565b6103c9565b6040516100df9493929190610c7a565b60405180910390f35b61010260048036038101906100fd9190610e2e565b610549565b005b61010c610728565b6040516101199190610ecd565b60405180910390f35b61013c60048036038101906101379190610ee8565b61074c565b005b6001805461014b90610fa2565b80601f016020809104026020016040519081016040528092919081815260200182805461017790610fa2565b80156101c45780601f10610199576101008083540402835291602001916101c4565b820191906000526020600020905b8154815290600101906020018083116101a757829003601f168201915b505050505081565b6101d461092b565b6002600083815260200190815260200160002060405180608001604052908160008201805461020290610fa2565b80601f016020809104026020016040519081016040528092919081815260200182805461022e90610fa2565b801561027b5780601f106102505761010080835404028352916020019161027b565b820191906000526020600020905b81548152906001019060200180831161025e57829003601f168201915b505050505081526020016001820160009054906101000a900473ffffffffffffffffffffffffffffffffffffffff1673ffffffffffffffffffffffffffffffffffffffff1673ffffffffffffffffffffffffffffffffffffffff1681526020016002820160009054906101000a900473ffffffffffffffffffffffffffffffffffffffff1673ffffffffffffffffffffffffffffffffffffffff1673ffffffffffffffffffffffffffffffffffffffff16815260200160038201805461034090610fa2565b80601f016020809104026020016040519081016040528092919081815260200182805461036c90610fa2565b80156103b95780601f1061038e576101008083540402835291602001916103b9565b820191906000526020600020905b81548152906001019060200180831161039c57829003601f168201915b5050505050815250509050919050565b60026020528060005260406000206000915090508060000180546103ec90610fa2565b80601f016020809104026020016040519081016040528092919081815260200182805461041890610fa2565b80156104655780601f1061043a57610100808354040283529160200191610465565b820191906000526020600020905b81548152906001019060200180831161044857829003601f168201915b5050505050908060010160009054906101000a900473ffffffffffffffffffffffffffffffffffffffff16908060020160009054906101000a900473ffffffffffffffffffffffffffffffffffffffff16908060030180546104c690610fa2565b80601f01602080910402602001604051908101604052809291908181526020018280546104f290610fa2565b801561053f5780601f106105145761010080835404028352916020019161053f565b820191906000526020600020905b81548152906001019060200180831161052257829003601f168201915b5050505050905084565b60008054906101000a900473ffffffffffffffffffffffffffffffffffffffff1673ffffffffffffffffffffffffffffffffffffffff163373ffffffffffffffffffffffffffffffffffffffff16146105d7576040517f08c379a00000000000000000000000000000000000000000000000000000000081526004016105ce9061101f565b60405180910390fd5b600060405180608001604052808681526020018573ffffffffffffffffffffffffffffffffffffffff1681526020018473ffffffffffffffffffffffffffffffffffffffff16815260200183815250905080600260006003548152602001908152602001600020600082015181600001908051906020019061065a92919061097f565b5060208201518160010160006101000a81548173ffffffffffffffffffffffffffffffffffffffff021916908373ffffffffffffffffffffffffffffffffffffffff16021790555060408201518160020160006101000a81548173ffffffffffffffffffffffffffffffffffffffff021916908373ffffffffffffffffffffffffffffffffffffffff160217905550606082015181600301908051906020019061070592919061097f565b509050506003600081548092919061071c9061106e565b91905055505050505050565b60008054906101000a900473ffffffffffffffffffffffffffffffffffffffff1681565b60008054906101000a900473ffffffffffffffffffffffffffffffffffffffff1673ffffffffffffffffffffffffffffffffffffffff163373ffffffffffffffffffffffffffffffffffffffff16146107da576040517f08c379a00000000000000000000000000000000000000000000000000000000081526004016107d19061101f565b60405180910390fd5b600060405180608001604052808581526020018473ffffffffffffffffffffffffffffffffffffffff168152602001600073ffffffffffffffffffffffffffffffffffffffff16815260200183815250905080600260006003548152602001908152602001600020600082015181600001908051906020019061085e92919061097f565b5060208201518160010160006101000a81548173ffffffffffffffffffffffffffffffffffffffff021916908373ffffffffffffffffffffffffffffffffffffffff16021790555060408201518160020160006101000a81548173ffffffffffffffffffffffffffffffffffffffff021916908373ffffffffffffffffffffffffffffffffffffffff160217905550606082015181600301908051906020019061090992919061097f565b50905050600360008154809291906109209061106e565b919050555050505050565b604051806080016040528060608152602001600073ffffffffffffffffffffffffffffffffffffffff168152602001600073ffffffffffffffffffffffffffffffffffffffff168152602001606081525090565b82805461098b90610fa2565b90600052602060002090601f0160209004810192826109ad57600085556109f4565b82601f106109c657805160ff19168380011785556109f4565b828001600101855582156109f4579182015b828111156109f35782518255916020019190600101906109d8565b5b509050610a019190610a05565b5090565b5b80821115610a1e576000816000905550600101610a06565b5090565b600081519050919050565b600082825260208201905092915050565b60005b83811015610a5c578082015181840152602081019050610a41565b83811115610a6b576000848401525b50505050565b6000601f19601f8301169050919050565b6000610a8d82610a22565b610a978185610a2d565b9350610aa7818560208601610a3e565b610ab081610a71565b840191505092915050565b60006020820190508181036000830152610ad58184610a82565b905092915050565b6000604051905090565b600080fd5b600080fd5b6000819050919050565b610b0481610af1565b8114610b0f57600080fd5b50565b600081359050610b2181610afb565b92915050565b600060208284031215610b3d57610b3c610ae7565b5b6000610b4b84828501610b12565b91505092915050565b600082825260208201905092915050565b6000610b7082610a22565b610b7a8185610b54565b9350610b8a818560208601610a3e565b610b9381610a71565b840191505092915050565b600073ffffffffffffffffffffffffffffffffffffffff82169050919050565b6000610bc982610b9e565b9050919050565b610bd981610bbe565b82525050565b60006080830160008301518482036000860152610bfc8282610b65565b9150506020830151610c116020860182610bd0565b506040830151610c246040860182610bd0565b5060608301518482036060860152610c3c8282610b65565b9150508091505092915050565b60006020820190508181036000830152610c638184610bdf565b905092915050565b610c7481610bbe565b82525050565b60006080820190508181036000830152610c948187610a82565b9050610ca36020830186610c6b565b610cb06040830185610c6b565b8181036060830152610cc28184610a82565b905095945050505050565b600080fd5b600080fd5b7f4e487b7100000000000000000000000000000000000000000000000000000000600052604160045260246000fd5b610d0f82610a71565b810181811067ffffffffffffffff82111715610d2e57610d2d610cd7565b5b80604052505050565b6000610d41610add565b9050610d4d8282610d06565b919050565b600067ffffffffffffffff821115610d6d57610d6c610cd7565b5b610d7682610a71565b9050602081019050919050565b82818337600083830152505050565b6000610da5610da084610d52565b610d37565b905082815260208101848484011115610dc157610dc0610cd2565b5b610dcc848285610d83565b509392505050565b600082601f830112610de957610de8610ccd565b5b8135610df9848260208601610d92565b91505092915050565b610e0b81610bbe565b8114610e1657600080fd5b50565b600081359050610e2881610e02565b92915050565b60008060008060808587031215610e4857610e47610ae7565b5b600085013567ffffffffffffffff811115610e6657610e65610aec565b5b610e7287828801610dd4565b9450506020610e8387828801610e19565b9350506040610e9487828801610e19565b925050606085013567ffffffffffffffff811115610eb557610eb4610aec565b5b610ec187828801610dd4565b91505092959194509250565b6000602082019050610ee26000830184610c6b565b92915050565b600080600060608486031215610f0157610f00610ae7565b5b600084013567ffffffffffffffff811115610f1f57610f1e610aec565b5b610f2b86828701610dd4565b9350506020610f3c86828701610e19565b925050604084013567ffffffffffffffff811115610f5d57610f5c610aec565b5b610f6986828701610dd4565b9150509250925092565b7f4e487b7100000000000000000000000000000000000000000000000000000000600052602260045260246000fd5b60006002820490506001821680610fba57607f821691505b602082108103610fcd57610fcc610f73565b5b50919050565b7f4163636573732044656e69656400000000000000000000000000000000000000600082015250565b6000611009600d83610a2d565b915061101482610fd3565b602082019050919050565b6000602082019050818103600083015261103881610ffc565b9050919050565b7f4e487b7100000000000000000000000000000000000000000000000000000000600052601160045260246000fd5b600061107982610af1565b91507fffffffffffffffffffffffffffffffffffffffffffffffffffffffffffffffff82036110ab576110aa61103f565b5b60018201905091905056fea2646970667358221220b2d2aa6af5fb8993d2012333fb8c4f0906e42eb40e1b9fc3e95281ef46af71b064736f6c634300080e0033",
  "immutableReferences": {},
  "source": "// SPDX-License-Identifier: GPL-3.0\npragma solidity >=0.7.0 <0.9.0;\n\ncontract DemoIDN {\n    //The owner of this contract will be the adminstration that oversees the \"Integrated Delivery Network\"\n    address public owner;\n    string public name;\n\n    enum ResourceType {\n        Hospital,\n        Lab,\n        Physician\n    }\n    mapping(uint256 => Resource) public resources;\n    uint256 private resourceCount = 0;\n    struct Resource {\n        string resourceName;\n        address resourcePK;\n        address resourceContract;\n        string resourceURL;\n    }\n\n    constructor(string memory _name) {\n        owner = msg.sender;\n        name = _name;\n    }\n\n    function addResource(\n        string memory _name,\n        address pk,\n        address resourcecontract,\n        string memory _url\n    ) public {\n        require(msg.sender == owner, \"Access Denied\");\n        Resource memory resource = Resource(_name, pk, resourcecontract, _url);\n        resources[resourceCount] = resource;\n        resourceCount++;\n    }\n\n    function addResource(\n        string memory _name,\n        address pk,\n        string memory _url\n    ) public {\n        require(msg.sender == owner, \"Access Denied\");\n        Resource memory resource = Resource(_name, pk, address(0x0), _url);\n        resources[resourceCount] = resource;\n        resourceCount++;\n    }\n\n    function getResource(uint256 i) public view returns (Resource memory) {\n        return resources[i];\n    }\n}\n",
  "sourcePath": "/Users/ayushgupta/Downloads/Programming/blocket/blocket-wildcard/smart-contracts/contracts/DemoIDN.sol",
  "compiler": {
    "name": "solc",
    "version": "0.8.14+commit.80d49f37.Emscripten.clang"
  },
  "schemaVersion": "3.4.7",
  "updatedAt": "2022-07-10T08:54:03.818Z",
  "networkType": "ethereum",
  "devdoc": {
    "kind": "dev",
    "methods": {},
    "version": 1
  },
  "userdoc": {
    "kind": "user",
    "methods": {},
    "version": 1
  }
}