{
  "contractName": "MediTrack",
  "abi": [
    {
      "inputs": [
        {
          "internalType": "string",
          "name": "_name",
          "type": "string"
        },
        {
          "internalType": "address",
          "name": "patientAddress",
          "type": "address"
        },
        {
          "internalType": "address",
          "name": "pcc",
          "type": "address"
        }
      ],
      "stateMutability": "nonpayable",
      "type": "constructor"
    },
    {
      "inputs": [],
      "name": "activeRequestCount",
      "outputs": [
        {
          "internalType": "uint256",
          "name": "",
          "type": "uint256"
        }
      ],
      "stateMutability": "view",
      "type": "function",
      "constant": true
    },
    {
      "inputs": [
        {
          "internalType": "address",
          "name": "",
          "type": "address"
        }
      ],
      "name": "activeRequests",
      "outputs": [
        {
          "internalType": "address",
          "name": "from",
          "type": "address"
        },
        {
          "internalType": "string",
          "name": "fromName",
          "type": "string"
        },
        {
          "internalType": "string",
          "name": "fromSpecial",
          "type": "string"
        },
        {
          "internalType": "string",
          "name": "fromEmail",
          "type": "string"
        },
        {
          "internalType": "address",
          "name": "to",
          "type": "address"
        },
        {
          "internalType": "string",
          "name": "toName",
          "type": "string"
        },
        {
          "internalType": "string",
          "name": "toSpecial",
          "type": "string"
        },
        {
          "internalType": "string",
          "name": "toEmail",
          "type": "string"
        },
        {
          "internalType": "address",
          "name": "toContract",
          "type": "address"
        },
        {
          "internalType": "bool",
          "name": "verified",
          "type": "bool"
        }
      ],
      "stateMutability": "view",
      "type": "function",
      "constant": true
    },
    {
      "inputs": [
        {
          "internalType": "uint256",
          "name": "",
          "type": "uint256"
        }
      ],
      "name": "activeRequestsByInt",
      "outputs": [
        {
          "internalType": "address",
          "name": "from",
          "type": "address"
        },
        {
          "internalType": "string",
          "name": "fromName",
          "type": "string"
        },
        {
          "internalType": "string",
          "name": "fromSpecial",
          "type": "string"
        },
        {
          "internalType": "string",
          "name": "fromEmail",
          "type": "string"
        },
        {
          "internalType": "address",
          "name": "to",
          "type": "address"
        },
        {
          "internalType": "string",
          "name": "toName",
          "type": "string"
        },
        {
          "internalType": "string",
          "name": "toSpecial",
          "type": "string"
        },
        {
          "internalType": "string",
          "name": "toEmail",
          "type": "string"
        },
        {
          "internalType": "address",
          "name": "toContract",
          "type": "address"
        },
        {
          "internalType": "bool",
          "name": "verified",
          "type": "bool"
        }
      ],
      "stateMutability": "view",
      "type": "function",
      "constant": true
    },
    {
      "inputs": [],
      "name": "name",
      "outputs": [
        {
          "internalType": "string",
          "name": "",
          "type": "string"
        }
      ],
      "stateMutability": "view",
      "type": "function",
      "constant": true
    },
    {
      "inputs": [],
      "name": "owner",
      "outputs": [
        {
          "internalType": "address",
          "name": "",
          "type": "address"
        }
      ],
      "stateMutability": "view",
      "type": "function",
      "constant": true
    },
    {
      "inputs": [],
      "name": "primaryCareContract",
      "outputs": [
        {
          "internalType": "address",
          "name": "",
          "type": "address"
        }
      ],
      "stateMutability": "view",
      "type": "function",
      "constant": true
    },
    {
      "inputs": [],
      "name": "primaryCareOrigin",
      "outputs": [
        {
          "internalType": "address",
          "name": "",
          "type": "address"
        }
      ],
      "stateMutability": "view",
      "type": "function",
      "constant": true
    },
    {
      "inputs": [
        {
          "internalType": "address",
          "name": "from",
          "type": "address"
        },
        {
          "internalType": "string",
          "name": "fromName",
          "type": "string"
        },
        {
          "internalType": "string",
          "name": "fromSpecial",
          "type": "string"
        },
        {
          "internalType": "string",
          "name": "fromEmail",
          "type": "string"
        },
        {
          "internalType": "address",
          "name": "to",
          "type": "address"
        },
        {
          "internalType": "string",
          "name": "toName",
          "type": "string"
        },
        {
          "internalType": "string",
          "name": "toSpecial",
          "type": "string"
        },
        {
          "internalType": "string",
          "name": "toEmail",
          "type": "string"
        },
        {
          "internalType": "address",
          "name": "toContract",
          "type": "address"
        }
      ],
      "name": "addRequest",
      "outputs": [],
      "stateMutability": "nonpayable",
      "type": "function"
    },
    {
      "inputs": [],
      "name": "getactiveRequestCount",
      "outputs": [
        {
          "internalType": "uint256",
          "name": "",
          "type": "uint256"
        }
      ],
      "stateMutability": "view",
      "type": "function",
      "constant": true
    },
    {
      "inputs": [
        {
          "internalType": "uint256",
          "name": "index",
          "type": "uint256"
        }
      ],
      "name": "getRequest",
      "outputs": [
        {
          "components": [
            {
              "internalType": "address",
              "name": "from",
              "type": "address"
            },
            {
              "internalType": "string",
              "name": "fromName",
              "type": "string"
            },
            {
              "internalType": "string",
              "name": "fromSpecial",
              "type": "string"
            },
            {
              "internalType": "string",
              "name": "fromEmail",
              "type": "string"
            },
            {
              "internalType": "address",
              "name": "to",
              "type": "address"
            },
            {
              "internalType": "string",
              "name": "toName",
              "type": "string"
            },
            {
              "internalType": "string",
              "name": "toSpecial",
              "type": "string"
            },
            {
              "internalType": "string",
              "name": "toEmail",
              "type": "string"
            },
            {
              "internalType": "address",
              "name": "toContract",
              "type": "address"
            },
            {
              "internalType": "bool",
              "name": "verified",
              "type": "bool"
            }
          ],
          "internalType": "struct MediTrack.Request",
          "name": "",
          "type": "tuple"
        }
      ],
      "stateMutability": "view",
      "type": "function",
      "constant": true
    },
    {
      "inputs": [
        {
          "internalType": "uint256",
          "name": "index",
          "type": "uint256"
        }
      ],
      "name": "updateActive",
      "outputs": [],
      "stateMutability": "nonpayable",
      "type": "function"
    }
  ],
  "bytecode": "0x608060405260006004553480156200001657600080fd5b506040516200240d3803806200240d83398181016040528101906200003c9190620003d2565b816000806101000a81548173ffffffffffffffffffffffffffffffffffffffff021916908373ffffffffffffffffffffffffffffffffffffffff16021790555082600390805190602001906200009492919062000120565b5033600160006101000a81548173ffffffffffffffffffffffffffffffffffffffff021916908373ffffffffffffffffffffffffffffffffffffffff16021790555080600260006101000a81548173ffffffffffffffffffffffffffffffffffffffff021916908373ffffffffffffffffffffffffffffffffffffffff160217905550505050620004b1565b8280546200012e906200047c565b90600052602060002090601f0160209004810192826200015257600085556200019e565b82601f106200016d57805160ff19168380011785556200019e565b828001600101855582156200019e579182015b828111156200019d57825182559160200191906001019062000180565b5b509050620001ad9190620001b1565b5090565b5b80821115620001cc576000816000905550600101620001b2565b5090565b6000604051905090565b600080fd5b600080fd5b600080fd5b600080fd5b6000601f19601f8301169050919050565b7f4e487b7100000000000000000000000000000000000000000000000000000000600052604160045260246000fd5b6200023982620001ee565b810181811067ffffffffffffffff821117156200025b576200025a620001ff565b5b80604052505050565b600062000270620001d0565b90506200027e82826200022e565b919050565b600067ffffffffffffffff821115620002a157620002a0620001ff565b5b620002ac82620001ee565b9050602081019050919050565b60005b83811015620002d9578082015181840152602081019050620002bc565b83811115620002e9576000848401525b50505050565b600062000306620003008462000283565b62000264565b905082815260208101848484011115620003255762000324620001e9565b5b62000332848285620002b9565b509392505050565b600082601f830112620003525762000351620001e4565b5b815162000364848260208601620002ef565b91505092915050565b600073ffffffffffffffffffffffffffffffffffffffff82169050919050565b60006200039a826200036d565b9050919050565b620003ac816200038d565b8114620003b857600080fd5b50565b600081519050620003cc81620003a1565b92915050565b600080600060608486031215620003ee57620003ed620001da565b5b600084015167ffffffffffffffff8111156200040f576200040e620001df565b5b6200041d868287016200033a565b93505060206200043086828701620003bb565b92505060406200044386828701620003bb565b9150509250925092565b7f4e487b7100000000000000000000000000000000000000000000000000000000600052602260045260246000fd5b600060028204905060018216806200049557607f821691505b602082108103620004ab57620004aa6200044d565b5b50919050565b611f4c80620004c16000396000f3fe608060405234801561001057600080fd5b50600436106100a95760003560e01c80636ed6776b116100715780636ed6776b1461015b57806386dcd2b5146101795780638da5cb5b14610197578063954d046a146101b5578063c58343ef146101d3578063f3b9736314610203576100a9565b806306fdde03146100ae5780630d3e1aa1146100cc5780630f62bc89146100e85780631d6975b2146101065780635a8bed581461013f575b600080fd5b6100b661023c565b6040516100c39190611694565b60405180910390f35b6100e660048036038101906100e19190611700565b6102ca565b005b6100f061038a565b6040516100fd919061176e565b60405180910390f35b610120600480360381019061011b9190611700565b6103b0565b6040516101369a999897969594939291906117a4565b60405180910390f35b610159600480360381019061015491906119cb565b6107a1565b005b610163610aa2565b6040516101709190611b4c565b60405180910390f35b610181610b3b565b60405161018e919061176e565b60405180910390f35b61019f610b61565b6040516101ac919061176e565b60405180910390f35b6101bd610b85565b6040516101ca9190611b4c565b60405180910390f35b6101ed60048036038101906101e89190611700565b610b8b565b6040516101fa9190611ccc565b60405180910390f35b61021d60048036038101906102189190611cee565b6110d0565b6040516102339a999897969594939291906117a4565b60405180910390f35b6003805461024990611d4a565b80601f016020809104026020016040519081016040528092919081815260200182805461027590611d4a565b80156102c25780601f10610297576101008083540402835291602001916102c2565b820191906000526020600020905b8154815290600101906020018083116102a557829003601f168201915b505050505081565b60008054906101000a900473ffffffffffffffffffffffffffffffffffffffff1673ffffffffffffffffffffffffffffffffffffffff163373ffffffffffffffffffffffffffffffffffffffff1614610358576040517f08c379a000000000000000000000000000000000000000000000000000000000815260040161034f90611ded565b60405180910390fd5b60006005600083815260200190815260200160002060080160146101000a81548160ff02191690831515021790555050565b600260009054906101000a900473ffffffffffffffffffffffffffffffffffffffff1681565b60056020528060005260406000206000915090508060000160009054906101000a900473ffffffffffffffffffffffffffffffffffffffff16908060010180546103f990611d4a565b80601f016020809104026020016040519081016040528092919081815260200182805461042590611d4a565b80156104725780601f1061044757610100808354040283529160200191610472565b820191906000526020600020905b81548152906001019060200180831161045557829003601f168201915b50505050509080600201805461048790611d4a565b80601f01602080910402602001604051908101604052809291908181526020018280546104b390611d4a565b80156105005780601f106104d557610100808354040283529160200191610500565b820191906000526020600020905b8154815290600101906020018083116104e357829003601f168201915b50505050509080600301805461051590611d4a565b80601f016020809104026020016040519081016040528092919081815260200182805461054190611d4a565b801561058e5780601f106105635761010080835404028352916020019161058e565b820191906000526020600020905b81548152906001019060200180831161057157829003601f168201915b5050505050908060040160009054906101000a900473ffffffffffffffffffffffffffffffffffffffff16908060050180546105c990611d4a565b80601f01602080910402602001604051908101604052809291908181526020018280546105f590611d4a565b80156106425780601f1061061757610100808354040283529160200191610642565b820191906000526020600020905b81548152906001019060200180831161062557829003601f168201915b50505050509080600601805461065790611d4a565b80601f016020809104026020016040519081016040528092919081815260200182805461068390611d4a565b80156106d05780601f106106a5576101008083540402835291602001916106d0565b820191906000526020600020905b8154815290600101906020018083116106b357829003601f168201915b5050505050908060070180546106e590611d4a565b80601f016020809104026020016040519081016040528092919081815260200182805461071190611d4a565b801561075e5780601f106107335761010080835404028352916020019161075e565b820191906000526020600020905b81548152906001019060200180831161074157829003601f168201915b5050505050908060080160009054906101000a900473ffffffffffffffffffffffffffffffffffffffff16908060080160149054906101000a900460ff1690508a565b600260009054906101000a900473ffffffffffffffffffffffffffffffffffffffff1673ffffffffffffffffffffffffffffffffffffffff163373ffffffffffffffffffffffffffffffffffffffff1614610831576040517f08c379a000000000000000000000000000000000000000000000000000000000815260040161082890611e7f565b60405180910390fd5b60006040518061014001604052808b73ffffffffffffffffffffffffffffffffffffffff1681526020018a81526020018981526020018881526020018773ffffffffffffffffffffffffffffffffffffffff1681526020018681526020018581526020018481526020018373ffffffffffffffffffffffffffffffffffffffff1681526020016001151581525090508060056000600454815260200190815260200160002060008201518160000160006101000a81548173ffffffffffffffffffffffffffffffffffffffff021916908373ffffffffffffffffffffffffffffffffffffffff16021790555060208201518160010190805190602001906109399291906114c1565b5060408201518160020190805190602001906109569291906114c1565b5060608201518160030190805190602001906109739291906114c1565b5060808201518160040160006101000a81548173ffffffffffffffffffffffffffffffffffffffff021916908373ffffffffffffffffffffffffffffffffffffffff16021790555060a08201518160050190805190602001906109d79291906114c1565b5060c08201518160060190805190602001906109f49291906114c1565b5060e0820151816007019080519060200190610a119291906114c1565b506101008201518160080160006101000a81548173ffffffffffffffffffffffffffffffffffffffff021916908373ffffffffffffffffffffffffffffffffffffffff1602179055506101208201518160080160146101000a81548160ff02191690831515021790555090505060046000815480929190610a9190611ece565b919050555050505050505050505050565b60008060009054906101000a900473ffffffffffffffffffffffffffffffffffffffff1673ffffffffffffffffffffffffffffffffffffffff163373ffffffffffffffffffffffffffffffffffffffff1614610b33576040517f08c379a0000000000000000000000000000000000000000000000000000000008152600401610b2a90611ded565b60405180910390fd5b600454905090565b600160009054906101000a900473ffffffffffffffffffffffffffffffffffffffff1681565b60008054906101000a900473ffffffffffffffffffffffffffffffffffffffff1681565b60045481565b610b93611547565b60008054906101000a900473ffffffffffffffffffffffffffffffffffffffff1673ffffffffffffffffffffffffffffffffffffffff163373ffffffffffffffffffffffffffffffffffffffff1614610c21576040517f08c379a0000000000000000000000000000000000000000000000000000000008152600401610c1890611ded565b60405180910390fd5b60056000838152602001908152602001600020604051806101400160405290816000820160009054906101000a900473ffffffffffffffffffffffffffffffffffffffff1673ffffffffffffffffffffffffffffffffffffffff1673ffffffffffffffffffffffffffffffffffffffff168152602001600182018054610ca690611d4a565b80601f0160208091040260200160405190810160405280929190818152602001828054610cd290611d4a565b8015610d1f5780601f10610cf457610100808354040283529160200191610d1f565b820191906000526020600020905b815481529060010190602001808311610d0257829003601f168201915b50505050508152602001600282018054610d3890611d4a565b80601f0160208091040260200160405190810160405280929190818152602001828054610d6490611d4a565b8015610db15780601f10610d8657610100808354040283529160200191610db1565b820191906000526020600020905b815481529060010190602001808311610d9457829003601f168201915b50505050508152602001600382018054610dca90611d4a565b80601f0160208091040260200160405190810160405280929190818152602001828054610df690611d4a565b8015610e435780601f10610e1857610100808354040283529160200191610e43565b820191906000526020600020905b815481529060010190602001808311610e2657829003601f168201915b505050505081526020016004820160009054906101000a900473ffffffffffffffffffffffffffffffffffffffff1673ffffffffffffffffffffffffffffffffffffffff1673ffffffffffffffffffffffffffffffffffffffff168152602001600582018054610eb290611d4a565b80601f0160208091040260200160405190810160405280929190818152602001828054610ede90611d4a565b8015610f2b5780601f10610f0057610100808354040283529160200191610f2b565b820191906000526020600020905b815481529060010190602001808311610f0e57829003601f168201915b50505050508152602001600682018054610f4490611d4a565b80601f0160208091040260200160405190810160405280929190818152602001828054610f7090611d4a565b8015610fbd5780601f10610f9257610100808354040283529160200191610fbd565b820191906000526020600020905b815481529060010190602001808311610fa057829003601f168201915b50505050508152602001600782018054610fd690611d4a565b80601f016020809104026020016040519081016040528092919081815260200182805461100290611d4a565b801561104f5780601f106110245761010080835404028352916020019161104f565b820191906000526020600020905b81548152906001019060200180831161103257829003601f168201915b505050505081526020016008820160009054906101000a900473ffffffffffffffffffffffffffffffffffffffff1673ffffffffffffffffffffffffffffffffffffffff1673ffffffffffffffffffffffffffffffffffffffff1681526020016008820160149054906101000a900460ff1615151515815250509050919050565b60066020528060005260406000206000915090508060000160009054906101000a900473ffffffffffffffffffffffffffffffffffffffff169080600101805461111990611d4a565b80601f016020809104026020016040519081016040528092919081815260200182805461114590611d4a565b80156111925780601f1061116757610100808354040283529160200191611192565b820191906000526020600020905b81548152906001019060200180831161117557829003601f168201915b5050505050908060020180546111a790611d4a565b80601f01602080910402602001604051908101604052809291908181526020018280546111d390611d4a565b80156112205780601f106111f557610100808354040283529160200191611220565b820191906000526020600020905b81548152906001019060200180831161120357829003601f168201915b50505050509080600301805461123590611d4a565b80601f016020809104026020016040519081016040528092919081815260200182805461126190611d4a565b80156112ae5780601f10611283576101008083540402835291602001916112ae565b820191906000526020600020905b81548152906001019060200180831161129157829003601f168201915b5050505050908060040160009054906101000a900473ffffffffffffffffffffffffffffffffffffffff16908060050180546112e990611d4a565b80601f016020809104026020016040519081016040528092919081815260200182805461131590611d4a565b80156113625780601f1061133757610100808354040283529160200191611362565b820191906000526020600020905b81548152906001019060200180831161134557829003601f168201915b50505050509080600601805461137790611d4a565b80601f01602080910402602001604051908101604052809291908181526020018280546113a390611d4a565b80156113f05780601f106113c5576101008083540402835291602001916113f0565b820191906000526020600020905b8154815290600101906020018083116113d357829003601f168201915b50505050509080600701805461140590611d4a565b80601f016020809104026020016040519081016040528092919081815260200182805461143190611d4a565b801561147e5780601f106114535761010080835404028352916020019161147e565b820191906000526020600020905b81548152906001019060200180831161146157829003601f168201915b5050505050908060080160009054906101000a900473ffffffffffffffffffffffffffffffffffffffff16908060080160149054906101000a900460ff1690508a565b8280546114cd90611d4a565b90600052602060002090601f0160209004810192826114ef5760008555611536565b82601f1061150857805160ff1916838001178555611536565b82800160010185558215611536579182015b8281111561153557825182559160200191906001019061151a565b5b50905061154391906115de565b5090565b604051806101400160405280600073ffffffffffffffffffffffffffffffffffffffff168152602001606081526020016060815260200160608152602001600073ffffffffffffffffffffffffffffffffffffffff168152602001606081526020016060815260200160608152602001600073ffffffffffffffffffffffffffffffffffffffff1681526020016000151581525090565b5b808211156115f75760008160009055506001016115df565b5090565b600081519050919050565b600082825260208201905092915050565b60005b8381101561163557808201518184015260208101905061161a565b83811115611644576000848401525b50505050565b6000601f19601f8301169050919050565b6000611666826115fb565b6116708185611606565b9350611680818560208601611617565b6116898161164a565b840191505092915050565b600060208201905081810360008301526116ae818461165b565b905092915050565b6000604051905090565b600080fd5b600080fd5b6000819050919050565b6116dd816116ca565b81146116e857600080fd5b50565b6000813590506116fa816116d4565b92915050565b600060208284031215611716576117156116c0565b5b6000611724848285016116eb565b91505092915050565b600073ffffffffffffffffffffffffffffffffffffffff82169050919050565b60006117588261172d565b9050919050565b6117688161174d565b82525050565b6000602082019050611783600083018461175f565b92915050565b60008115159050919050565b61179e81611789565b82525050565b6000610140820190506117ba600083018d61175f565b81810360208301526117cc818c61165b565b905081810360408301526117e0818b61165b565b905081810360608301526117f4818a61165b565b9050611803608083018961175f565b81810360a0830152611815818861165b565b905081810360c0830152611829818761165b565b905081810360e083015261183d818661165b565b905061184d61010083018561175f565b61185b610120830184611795565b9b9a5050505050505050505050565b6118738161174d565b811461187e57600080fd5b50565b6000813590506118908161186a565b92915050565b600080fd5b600080fd5b7f4e487b7100000000000000000000000000000000000000000000000000000000600052604160045260246000fd5b6118d88261164a565b810181811067ffffffffffffffff821117156118f7576118f66118a0565b5b80604052505050565b600061190a6116b6565b905061191682826118cf565b919050565b600067ffffffffffffffff821115611936576119356118a0565b5b61193f8261164a565b9050602081019050919050565b82818337600083830152505050565b600061196e6119698461191b565b611900565b90508281526020810184848401111561198a5761198961189b565b5b61199584828561194c565b509392505050565b600082601f8301126119b2576119b1611896565b5b81356119c284826020860161195b565b91505092915050565b60008060008060008060008060006101208a8c0312156119ee576119ed6116c0565b5b60006119fc8c828d01611881565b99505060208a013567ffffffffffffffff811115611a1d57611a1c6116c5565b5b611a298c828d0161199d565b98505060408a013567ffffffffffffffff811115611a4a57611a496116c5565b5b611a568c828d0161199d565b97505060608a013567ffffffffffffffff811115611a7757611a766116c5565b5b611a838c828d0161199d565b9650506080611a948c828d01611881565b95505060a08a013567ffffffffffffffff811115611ab557611ab46116c5565b5b611ac18c828d0161199d565b94505060c08a013567ffffffffffffffff811115611ae257611ae16116c5565b5b611aee8c828d0161199d565b93505060e08a013567ffffffffffffffff811115611b0f57611b0e6116c5565b5b611b1b8c828d0161199d565b925050610100611b2d8c828d01611881565b9150509295985092959850929598565b611b46816116ca565b82525050565b6000602082019050611b616000830184611b3d565b92915050565b611b708161174d565b82525050565b600082825260208201905092915050565b6000611b92826115fb565b611b9c8185611b76565b9350611bac818560208601611617565b611bb58161164a565b840191505092915050565b611bc981611789565b82525050565b600061014083016000830151611be86000860182611b67565b5060208301518482036020860152611c008282611b87565b91505060408301518482036040860152611c1a8282611b87565b91505060608301518482036060860152611c348282611b87565b9150506080830151611c496080860182611b67565b5060a083015184820360a0860152611c618282611b87565b91505060c083015184820360c0860152611c7b8282611b87565b91505060e083015184820360e0860152611c958282611b87565b915050610100830151611cac610100860182611b67565b50610120830151611cc1610120860182611bc0565b508091505092915050565b60006020820190508181036000830152611ce68184611bcf565b905092915050565b600060208284031215611d0457611d036116c0565b5b6000611d1284828501611881565b91505092915050565b7f4e487b7100000000000000000000000000000000000000000000000000000000600052602260045260246000fd5b60006002820490506001821680611d6257607f821691505b602082108103611d7557611d74611d1b565b5b50919050565b7f4f6e6c792050617469656e742d4f776e6572206f662074686520636f6e74726160008201527f6374206861732061636365737300000000000000000000000000000000000000602082015250565b6000611dd7602d83611606565b9150611de282611d7b565b604082019050919050565b60006020820190508181036000830152611e0681611dca565b9050919050565b7f4f6e6c79205072696d6172792043617265204f726967696e2063616e2061646460008201527f20726571756573747320746f204d656469547261636b00000000000000000000602082015250565b6000611e69603683611606565b9150611e7482611e0d565b604082019050919050565b60006020820190508181036000830152611e9881611e5c565b9050919050565b7f4e487b7100000000000000000000000000000000000000000000000000000000600052601160045260246000fd5b6000611ed9826116ca565b91507fffffffffffffffffffffffffffffffffffffffffffffffffffffffffffffffff8203611f0b57611f0a611e9f565b5b60018201905091905056fea264697066735822122092776de6b418c1e4390877e673f3cce08f73c8e9890fa42b29d93f40bd380c8464736f6c634300080e0033",
  "immutableReferences": {},
  "source": "// SPDX-License-Identifier: GPL-3.0\npragma solidity >=0.7.0 <0.9.0;\n\ncontract MediTrack {\n    //The owner of this contract will be the adminstration that oversees the \"Integrated Delivery Network\"\n    address public owner;\n    address public primaryCareOrigin;\n    address public primaryCareContract;\n    string public name;\n    uint256 public activeRequestCount = 0;\n    mapping(uint256 => Request) public activeRequestsByInt;\n    mapping(address => Request) public activeRequests;\n    struct Request {\n        address from;\n        string fromName;\n        string fromSpecial;\n        string fromEmail;\n        address to;\n        string toName;\n        string toSpecial;\n        string toEmail;\n        address toContract;\n        bool verified;\n    }\n\n    constructor(\n        string memory _name,\n        address patientAddress,\n        address pcc\n    ) {\n        owner = patientAddress;\n        name = _name;\n        primaryCareOrigin = msg.sender;\n        primaryCareContract = pcc;\n    }\n\n    function addRequest(\n        address from,\n        string memory fromName,\n        string memory fromSpecial,\n        string memory fromEmail,\n        address to,\n        string memory toName,\n        string memory toSpecial,\n        string memory toEmail,\n        address toContract\n    ) public {\n        require(\n            msg.sender == primaryCareContract,\n            \"Only Primary Care Origin can add requests to MediTrack\"\n        );\n\n        Request memory request = Request(\n            from,\n            fromName,\n            fromSpecial,\n            fromEmail,\n            to,\n            toName,\n            toSpecial,\n            toEmail,\n            toContract,\n            true\n        );\n        activeRequestsByInt[activeRequestCount] = request;\n        activeRequestCount++;\n    }\n\n    function getactiveRequestCount() public view returns (uint256) {\n        require(\n            msg.sender == owner,\n            \"Only Patient-Owner of the contract has access\"\n        );\n        return (activeRequestCount);\n    }\n\n    function getRequest(uint256 index) public view returns (Request memory) {\n        require(\n            msg.sender == owner,\n            \"Only Patient-Owner of the contract has access\"\n        );\n        return activeRequestsByInt[index];\n    }\n\n    function updateActive(uint256 index) public {\n        require(\n            msg.sender == owner,\n            \"Only Patient-Owner of the contract has access\"\n        );\n        activeRequestsByInt[index].verified = false;\n    }\n}\n",
  "sourcePath": "/Users/ayushgupta/Downloads/Programming/blocket/blocket-wildcard/smart-contracts/contracts/MediTrack.sol",
  "compiler": {
    "name": "solc",
    "version": "0.8.14+commit.80d49f37.Emscripten.clang"
  },
  "schemaVersion": "3.4.7",
  "updatedAt": "2022-07-10T08:54:03.828Z",
  "networkType": "ethereum",
  "devdoc": {
    "kind": "dev",
    "methods": {},
    "version": 1
  },
  "userdoc": {
    "kind": "user",
    "methods": {},
    "version": 1
  }
}