{
  "contractName": "PrimaryCare",
  "abi": [
    {
      "inputs": [
        {
          "internalType": "string",
          "name": "_name",
          "type": "string"
        }
      ],
      "stateMutability": "nonpayable",
      "type": "constructor"
    },
    {
      "inputs": [],
      "name": "name",
      "outputs": [
        {
          "internalType": "string",
          "name": "",
          "type": "string"
        }
      ],
      "stateMutability": "view",
      "type": "function",
      "constant": true
    },
    {
      "inputs": [],
      "name": "owner",
      "outputs": [
        {
          "internalType": "address",
          "name": "",
          "type": "address"
        }
      ],
      "stateMutability": "view",
      "type": "function",
      "constant": true
    },
    {
      "inputs": [],
      "name": "patientRecord",
      "outputs": [
        {
          "internalType": "address",
          "name": "",
          "type": "address"
        }
      ],
      "stateMutability": "view",
      "type": "function",
      "constant": true
    },
    {
      "inputs": [
        {
          "internalType": "address",
          "name": "",
          "type": "address"
        }
      ],
      "name": "patients",
      "outputs": [
        {
          "internalType": "string",
          "name": "name",
          "type": "string"
        },
        {
          "internalType": "address",
          "name": "patient",
          "type": "address"
        },
        {
          "internalType": "address",
          "name": "patientContract",
          "type": "address"
        }
      ],
      "stateMutability": "view",
      "type": "function",
      "constant": true
    },
    {
      "inputs": [
        {
          "internalType": "address",
          "name": "patient",
          "type": "address"
        },
        {
          "internalType": "address",
          "name": "patientContract",
          "type": "address"
        },
        {
          "internalType": "string",
          "name": "name",
          "type": "string"
        }
      ],
      "name": "addPatient",
      "outputs": [],
      "stateMutability": "nonpayable",
      "type": "function"
    },
    {
      "inputs": [
        {
          "internalType": "address",
          "name": "patient",
          "type": "address"
        },
        {
          "internalType": "address",
          "name": "to",
          "type": "address"
        },
        {
          "internalType": "string",
          "name": "toName",
          "type": "string"
        },
        {
          "internalType": "string",
          "name": "toSpecial",
          "type": "string"
        },
        {
          "internalType": "string",
          "name": "toEmail",
          "type": "string"
        },
        {
          "internalType": "address",
          "name": "toContract",
          "type": "address"
        }
      ],
      "name": "sendRecordRequest",
      "outputs": [],
      "stateMutability": "nonpayable",
      "type": "function"
    },
    {
      "inputs": [],
      "name": "getContractAddress",
      "outputs": [
        {
          "internalType": "address",
          "name": "",
          "type": "address"
        }
      ],
      "stateMutability": "nonpayable",
      "type": "function"
    }
  ],
  "bytecode": "0x60806040523480156200001157600080fd5b50604051620010e8380380620010e88339818101604052810190620000379190620002e4565b336000806101000a81548173ffffffffffffffffffffffffffffffffffffffff021916908373ffffffffffffffffffffffffffffffffffffffff16021790555080600190805190602001906200008f92919062000097565b505062000399565b828054620000a59062000364565b90600052602060002090601f016020900481019282620000c9576000855562000115565b82601f10620000e457805160ff191683800117855562000115565b8280016001018555821562000115579182015b8281111562000114578251825591602001919060010190620000f7565b5b50905062000124919062000128565b5090565b5b808211156200014357600081600090555060010162000129565b5090565b6000604051905090565b600080fd5b600080fd5b600080fd5b600080fd5b6000601f19601f8301169050919050565b7f4e487b7100000000000000000000000000000000000000000000000000000000600052604160045260246000fd5b620001b08262000165565b810181811067ffffffffffffffff82111715620001d257620001d162000176565b5b80604052505050565b6000620001e762000147565b9050620001f58282620001a5565b919050565b600067ffffffffffffffff82111562000218576200021762000176565b5b620002238262000165565b9050602081019050919050565b60005b838110156200025057808201518184015260208101905062000233565b8381111562000260576000848401525b50505050565b60006200027d6200027784620001fa565b620001db565b9050828152602081018484840111156200029c576200029b62000160565b5b620002a984828562000230565b509392505050565b600082601f830112620002c957620002c86200015b565b5b8151620002db84826020860162000266565b91505092915050565b600060208284031215620002fd57620002fc62000151565b5b600082015167ffffffffffffffff8111156200031e576200031d62000156565b5b6200032c84828501620002b1565b91505092915050565b7f4e487b7100000000000000000000000000000000000000000000000000000000600052602260045260246000fd5b600060028204905060018216806200037d57607f821691505b60208210810362000393576200039262000335565b5b50919050565b610d3f80620003a96000396000f3fe608060405234801561001057600080fd5b506004361061007d5760003560e01c806332a2c5d01161005b57806332a2c5d0146100ee5780638da5cb5b1461010c578063c05fb8901461012a578063d85c9481146101465761007d565b806306fdde03146100825780630869cfbc146100a057806326257b8e146100d2575b600080fd5b61008a610164565b604051610097919061071b565b60405180910390f35b6100ba60048036038101906100b591906107af565b6101f2565b6040516100c9939291906107eb565b60405180910390f35b6100ec60048036038101906100e7919061095e565b6102e4565b005b6100f66103ec565b6040516101039190610a3f565b60405180910390f35b610114610456565b6040516101219190610a3f565b60405180910390f35b610144600480360381019061013f9190610a5a565b61047a565b005b61014e6105b9565b60405161015b9190610a3f565b60405180910390f35b6001805461017190610af8565b80601f016020809104026020016040519081016040528092919081815260200182805461019d90610af8565b80156101ea5780601f106101bf576101008083540402835291602001916101ea565b820191906000526020600020905b8154815290600101906020018083116101cd57829003601f168201915b505050505081565b600360205280600052604060002060009150905080600001805461021590610af8565b80601f016020809104026020016040519081016040528092919081815260200182805461024190610af8565b801561028e5780601f106102635761010080835404028352916020019161028e565b820191906000526020600020905b81548152906001019060200180831161027157829003601f168201915b5050505050908060010160009054906101000a900473ffffffffffffffffffffffffffffffffffffffff16908060020160009054906101000a900473ffffffffffffffffffffffffffffffffffffffff16905083565b6000600360008873ffffffffffffffffffffffffffffffffffffffff1673ffffffffffffffffffffffffffffffffffffffff16815260200190815260200160002060020160009054906101000a900473ffffffffffffffffffffffffffffffffffffffff1690508073ffffffffffffffffffffffffffffffffffffffff16635a8bed5860008054906101000a900473ffffffffffffffffffffffffffffffffffffffff16600189898989896040518863ffffffff1660e01b81526004016103b19796959493929190610c56565b600060405180830381600087803b1580156103cb57600080fd5b505af11580156103df573d6000803e3d6000fd5b5050505050505050505050565b6000600360003373ffffffffffffffffffffffffffffffffffffffff1673ffffffffffffffffffffffffffffffffffffffff16815260200190815260200160002060020160009054906101000a900473ffffffffffffffffffffffffffffffffffffffff16905090565b60008054906101000a900473ffffffffffffffffffffffffffffffffffffffff1681565b600060405180606001604052808381526020018573ffffffffffffffffffffffffffffffffffffffff1681526020018473ffffffffffffffffffffffffffffffffffffffff16815250905080600360008673ffffffffffffffffffffffffffffffffffffffff1673ffffffffffffffffffffffffffffffffffffffff16815260200190815260200160002060008201518160000190805190602001906105219291906105df565b5060208201518160010160006101000a81548173ffffffffffffffffffffffffffffffffffffffff021916908373ffffffffffffffffffffffffffffffffffffffff16021790555060408201518160020160006101000a81548173ffffffffffffffffffffffffffffffffffffffff021916908373ffffffffffffffffffffffffffffffffffffffff16021790555090505050505050565b600260009054906101000a900473ffffffffffffffffffffffffffffffffffffffff1681565b8280546105eb90610af8565b90600052602060002090601f01602090048101928261060d5760008555610654565b82601f1061062657805160ff1916838001178555610654565b82800160010185558215610654579182015b82811115610653578251825591602001919060010190610638565b5b5090506106619190610665565b5090565b5b8082111561067e576000816000905550600101610666565b5090565b600081519050919050565b600082825260208201905092915050565b60005b838110156106bc5780820151818401526020810190506106a1565b838111156106cb576000848401525b50505050565b6000601f19601f8301169050919050565b60006106ed82610682565b6106f7818561068d565b935061070781856020860161069e565b610710816106d1565b840191505092915050565b6000602082019050818103600083015261073581846106e2565b905092915050565b6000604051905090565b600080fd5b600080fd5b600073ffffffffffffffffffffffffffffffffffffffff82169050919050565b600061077c82610751565b9050919050565b61078c81610771565b811461079757600080fd5b50565b6000813590506107a981610783565b92915050565b6000602082840312156107c5576107c4610747565b5b60006107d38482850161079a565b91505092915050565b6107e581610771565b82525050565b6000606082019050818103600083015261080581866106e2565b905061081460208301856107dc565b61082160408301846107dc565b949350505050565b600080fd5b600080fd5b7f4e487b7100000000000000000000000000000000000000000000000000000000600052604160045260246000fd5b61086b826106d1565b810181811067ffffffffffffffff8211171561088a57610889610833565b5b80604052505050565b600061089d61073d565b90506108a98282610862565b919050565b600067ffffffffffffffff8211156108c9576108c8610833565b5b6108d2826106d1565b9050602081019050919050565b82818337600083830152505050565b60006109016108fc846108ae565b610893565b90508281526020810184848401111561091d5761091c61082e565b5b6109288482856108df565b509392505050565b600082601f83011261094557610944610829565b5b81356109558482602086016108ee565b91505092915050565b60008060008060008060c0878903121561097b5761097a610747565b5b600061098989828a0161079a565b965050602061099a89828a0161079a565b955050604087013567ffffffffffffffff8111156109bb576109ba61074c565b5b6109c789828a01610930565b945050606087013567ffffffffffffffff8111156109e8576109e761074c565b5b6109f489828a01610930565b935050608087013567ffffffffffffffff811115610a1557610a1461074c565b5b610a2189828a01610930565b92505060a0610a3289828a0161079a565b9150509295509295509295565b6000602082019050610a5460008301846107dc565b92915050565b600080600060608486031215610a7357610a72610747565b5b6000610a818682870161079a565b9350506020610a928682870161079a565b925050604084013567ffffffffffffffff811115610ab357610ab261074c565b5b610abf86828701610930565b9150509250925092565b7f4e487b7100000000000000000000000000000000000000000000000000000000600052602260045260246000fd5b60006002820490506001821680610b1057607f821691505b602082108103610b2357610b22610ac9565b5b50919050565b60008190508160005260206000209050919050565b60008154610b4b81610af8565b610b55818661068d565b94506001821660008114610b705760018114610b8257610bb5565b60ff1983168652602086019350610bb5565b610b8b85610b29565b60005b83811015610bad57815481890152600182019150602081019050610b8e565b808801955050505b50505092915050565b7f5072696d61727920436172652050726f76696465720000000000000000000000600082015250565b6000610bf460158361068d565b9150610bff82610bbe565b602082019050919050565b7f67757074612e70656469617472696373404d656469547261636b2e7465636800600082015250565b6000610c40601f8361068d565b9150610c4b82610c0a565b602082019050919050565b600061012082019050610c6c600083018a6107dc565b8181036020830152610c7e8189610b3e565b90508181036040830152610c9181610be7565b90508181036060830152610ca481610c33565b9050610cb360808301886107dc565b81810360a0830152610cc581876106e2565b905081810360c0830152610cd981866106e2565b905081810360e0830152610ced81856106e2565b9050610cfd6101008301846107dc565b9897505050505050505056fea26469706673582212204425789352d9d4fb4657e0b197ed62a2e8783922c562515439414033381fbcbd64736f6c634300080e0033",
  "immutableReferences": {},
  "source": "// SPDX-License-Identifier: GPL-3.0\npragma solidity >=0.7.0 <0.9.0;\n\nimport \"./MediTrack.sol\";\n\ncontract PrimaryCare {\n    //The owner of this contract will be the adminstration that oversees the \"Integrated Delivery Network\"\n\n    address public owner;\n    string public name;\n    address public patientRecord;\n\n    mapping(address => Patient) public patients;\n    struct Patient {\n        string name;\n        address patient;\n        address patientContract;\n    }\n\n    constructor(string memory _name) {\n        owner = msg.sender;\n        name = _name;\n    }\n\n    function addPatient(\n        address patient,\n        address patientContract,\n        string memory name\n    ) public {\n        Patient memory patientToAdd = Patient(name, patient, patientContract);\n\n        patients[patient] = patientToAdd;\n    }\n\n    function sendRecordRequest(\n        address patient,\n        address to,\n        string memory toName,\n        string memory toSpecial,\n        string memory toEmail,\n        address toContract\n    ) public {\n        MediTrack pp = MediTrack(patients[patient].patientContract);\n\n        pp.addRequest(\n            owner,\n            name,\n            \"Primary Care Provider\",\n            \"gupta.pediatrics@MediTrack.tech\",\n            to,\n            toName,\n            toSpecial,\n            toEmail,\n            toContract\n        );\n    }\n\n    function getContractAddress() public returns (address) {\n        return (patients[msg.sender].patientContract);\n    }\n}\n",
  "sourcePath": "/Users/ayushgupta/Downloads/Programming/blocket-wildcard/apps/smart-contracts/contracts/PrimaryCare.sol",
  "compiler": {
    "name": "solc",
    "version": "0.8.14+commit.80d49f37.Emscripten.clang"
  },
  "schemaVersion": "3.4.7",
  "updatedAt": "2022-07-10T08:54:03.838Z",
  "networkType": "ethereum",
  "devdoc": {
    "kind": "dev",
    "methods": {},
    "version": 1
  },
  "userdoc": {
    "kind": "user",
    "methods": {},
    "version": 1
  }
}