{
  "contractName": "RecordInterface",
  "abi": [
    {
      "inputs": [],
      "stateMutability": "nonpayable",
      "type": "constructor"
    },
    {
      "inputs": [],
      "name": "owner",
      "outputs": [
        {
          "internalType": "address",
          "name": "",
          "type": "address"
        }
      ],
      "stateMutability": "view",
      "type": "function",
      "constant": true
    },
    {
      "inputs": [
        {
          "internalType": "address",
          "name": "",
          "type": "address"
        }
      ],
      "name": "recordsRecieved",
      "outputs": [
        {
          "internalType": "string",
          "name": "",
          "type": "string"
        }
      ],
      "stateMutability": "view",
      "type": "function",
      "constant": true
    },
    {
      "inputs": [
        {
          "internalType": "address",
          "name": "origin",
          "type": "address"
        },
        {
          "internalType": "string",
          "name": "encryptedhash",
          "type": "string"
        }
      ],
      "name": "sendRecord",
      "outputs": [],
      "stateMutability": "nonpayable",
      "type": "function"
    },
    {
      "inputs": [
        {
          "internalType": "address",
          "name": "patient",
          "type": "address"
        }
      ],
      "name": "getRecord",
      "outputs": [
        {
          "internalType": "string",
          "name": "",
          "type": "string"
        }
      ],
      "stateMutability": "view",
      "type": "function",
      "constant": true
    }
  ],
  "bytecode": "0x608060405234801561001057600080fd5b50336000806101000a81548173ffffffffffffffffffffffffffffffffffffffff021916908373ffffffffffffffffffffffffffffffffffffffff160217905550610726806100606000396000f3fe608060405234801561001057600080fd5b506004361061004c5760003560e01c8063106c71a914610051578063617fba041461006d5780638b1838f61461009d5780638da5cb5b146100cd575b600080fd5b61006b60048036038101906100669190610533565b6100eb565b005b6100876004803603810190610082919061058f565b610143565b6040516100949190610644565b60405180910390f35b6100b760048036038101906100b2919061058f565b610214565b6040516100c49190610644565b60405180910390f35b6100d56102b4565b6040516100e29190610675565b60405180910390f35b80600160008473ffffffffffffffffffffffffffffffffffffffff1673ffffffffffffffffffffffffffffffffffffffff168152602001908152602001600020908051906020019061013e9291906102d8565b505050565b6060600160008373ffffffffffffffffffffffffffffffffffffffff1673ffffffffffffffffffffffffffffffffffffffff168152602001908152602001600020805461018f906106bf565b80601f01602080910402602001604051908101604052809291908181526020018280546101bb906106bf565b80156102085780601f106101dd57610100808354040283529160200191610208565b820191906000526020600020905b8154815290600101906020018083116101eb57829003601f168201915b50505050509050919050565b60016020528060005260406000206000915090508054610233906106bf565b80601f016020809104026020016040519081016040528092919081815260200182805461025f906106bf565b80156102ac5780601f10610281576101008083540402835291602001916102ac565b820191906000526020600020905b81548152906001019060200180831161028f57829003601f168201915b505050505081565b60008054906101000a900473ffffffffffffffffffffffffffffffffffffffff1681565b8280546102e4906106bf565b90600052602060002090601f016020900481019282610306576000855561034d565b82601f1061031f57805160ff191683800117855561034d565b8280016001018555821561034d579182015b8281111561034c578251825591602001919060010190610331565b5b50905061035a919061035e565b5090565b5b8082111561037757600081600090555060010161035f565b5090565b6000604051905090565b600080fd5b600080fd5b600073ffffffffffffffffffffffffffffffffffffffff82169050919050565b60006103ba8261038f565b9050919050565b6103ca816103af565b81146103d557600080fd5b50565b6000813590506103e7816103c1565b92915050565b600080fd5b600080fd5b6000601f19601f8301169050919050565b7f4e487b7100000000000000000000000000000000000000000000000000000000600052604160045260246000fd5b610440826103f7565b810181811067ffffffffffffffff8211171561045f5761045e610408565b5b80604052505050565b600061047261037b565b905061047e8282610437565b919050565b600067ffffffffffffffff82111561049e5761049d610408565b5b6104a7826103f7565b9050602081019050919050565b82818337600083830152505050565b60006104d66104d184610483565b610468565b9050828152602081018484840111156104f2576104f16103f2565b5b6104fd8482856104b4565b509392505050565b600082601f83011261051a576105196103ed565b5b813561052a8482602086016104c3565b91505092915050565b6000806040838503121561054a57610549610385565b5b6000610558858286016103d8565b925050602083013567ffffffffffffffff8111156105795761057861038a565b5b61058585828601610505565b9150509250929050565b6000602082840312156105a5576105a4610385565b5b60006105b3848285016103d8565b91505092915050565b600081519050919050565b600082825260208201905092915050565b60005b838110156105f65780820151818401526020810190506105db565b83811115610605576000848401525b50505050565b6000610616826105bc565b61062081856105c7565b93506106308185602086016105d8565b610639816103f7565b840191505092915050565b6000602082019050818103600083015261065e818461060b565b905092915050565b61066f816103af565b82525050565b600060208201905061068a6000830184610666565b92915050565b7f4e487b7100000000000000000000000000000000000000000000000000000000600052602260045260246000fd5b600060028204905060018216806106d757607f821691505b6020821081036106ea576106e9610690565b5b5091905056fea26469706673582212201201bf643fb893776a665fd9e958c49c043a6b74625a5ca511d3417e76b64f3264736f6c634300080e0033",
  "immutableReferences": {},
  "source": "// SPDX-License-Identifier: GPL-3.0\npragma solidity >=0.7.0 <0.9.0;\n\ncontract RecordInterface {\n    address public owner;\n\n    mapping(address => string) public recordsRecieved;\n\n    constructor() {\n        owner = msg.sender;\n    }\n\n    function sendRecord(address origin, string memory encryptedhash) public {\n        recordsRecieved[origin] = encryptedhash;\n    }\n\n    function getRecord(address patient) public view returns (string memory) {\n        return (recordsRecieved[patient]);\n    }\n}\n",
  "sourcePath": "/Users/ayushgupta/Downloads/Programming/blocket-wildcard/apps/smart-contracts/contracts/RecordInterface.sol",
  "compiler": {
    "name": "solc",
    "version": "0.8.14+commit.80d49f37.Emscripten.clang"
  },
  "schemaVersion": "3.4.7",
  "updatedAt": "2022-07-10T08:54:03.845Z",
  "networkType": "ethereum",
  "devdoc": {
    "kind": "dev",
    "methods": {},
    "version": 1
  },
  "userdoc": {
    "kind": "user",
    "methods": {},
    "version": 1
  }
}